:100000000C9477010C949F010C949F010C949F0118
:100010000C949F010C949F010C949F010C949F01E0
:100020000C949F010C949F010C94011E0C94881E4B
:100030000C949F010C949F010C949F010C949F01C0
:100040000C949F010C949F010C949F010C949F01B0
:100050000C949F010C949F010C949F010C944F17DA
:100060000C949F010C949F010C949F010C949F0190
:100070000C949F010C949F010C949F010C949F0180
:100080000C949F010C949F010C949F010C949F0170
:100090000C949F010C949F010C949F010C949F0160
:1000A0000C949F010C949F010C949F010000000090
:1000B000240027002A002D00300000000000250049
:1000C00028002B002E003100000000002300260035
:1000D00029002C002F000404040404030405020278
:1000E00002020403020202020606060606060404D1
:1000F00002020204040802011040804010204080E7
:10010000408008020401804020100201108010206D
:1001100040400000000200080E0000030401000B34
:1001200000000000000000000000000000000000CF
:10013000070605040100080A0B0C0D09080B000254
:10014000020201000904000001020200000524006F
:100150001001052401010104240206052406000102
:100160000705810310004009040100020A00000095
:100170000705020240000007058302400000040357
:1001800009042203410072006400750069006E00DA
:100190006F0020004C0065006F006E00610072006F
:1001A00064006F001803410072006400750069006C
:1001B0006E006F0020004C004C0043001201000252
:1001C00000000040412336800001010200011201BD
:1001D00000020200004041233680000101020001BC
:1001E00000C18081C105010902A1010901A10085A9
:1001F00001050919012903150025019503750181E0
:100200000295017505810305010930093109381589
:1002100081257F750895038106C0C005010906A1E7
:10022000018502050719E029E715002501750195EB
:10023000088102950175088103950675081500254A
:10024000650507190029658100C009040200010342
:100250000000000921010100012265000705840357
:1002600040000100000000000000002A2B280000D0
:10027000000000000000000000000000000000007E
:100280000000002C9EB4A0A1A2A434A6A7A5AE365F
:100290002D3738271E1F20212223242526B333B6CD
:1002A0002EB7B89F8485868788898A8B8C8D8E8FA0
:1002B000909192939495969798999A9B9C9D2F31A3
:1002C00030A3AD350405060708090A0B0C0D0E0F07
:1002D000101112131415161718191A1B1C1DAFB183
:1002E000B0B50000BD05A6193D1D2B21B605112492
:1002F0001FBECFEFDAE0DEBFCDBF13E0A0E0B1E07C
:10030000E0E1F8E402C005900D92AC3AB107D9F7EC
:1003100014E0ACEAB3E001C01D92A03CB107E1F7E4
:1003200012E0CCEED2E004C02297FE010E94C0236E
:10033000C43ED107C9F70E94711A0C94FB230C9498
:100340000000FB01DC0102C001900D9241505040C1
:10035000D8F70895FB01DC0101900D920020E1F730
:100360000895AEE0B0E0E7EBF1E00C94D2230D8904
:100370001E8986E08C831A8309838FEF9FE79E8313
:100380008D839E01275E3F4FCE0101966F89788D48
:10039000A9010E94D5012F813885020F131FF80192
:1003A00010822E96E4E00C94EE23ABE0B0E0EBED8F
:1003B000F1E00C94C4233C012B015A01FC0117828B
:1003C0001682838181FD03C06FEF7FEFC6C19AE083
:1003D000892E1E010894211C311CF3012381F20196
:1003E00023FD859123FF81912F01882309F4B2C158
:1003F000853239F423FD859123FF81912F018532C8
:1004000029F490E0B3010E94C803E7CF982FFF249E
:10041000EE249924FFE1FF15D0F09B3269F09C3265
:1004200028F4903259F0933291F40EC09D3249F085
:10043000903369F441E024C052E0F52A84E0F82AC0
:1004400028C098E0F92A25C0E0E1FE2A22C0F7FC86
:1004500029C0892F80538A3070F4F6FE05C0989C1D
:10046000902C1124980E15C0E89CE02C1124E80E65
:10047000F0E2FF2A0EC09E3229F4F6FC6BC140E484
:10048000F42A07C09C3619F450E8F52A02C09836C1
:1004900049F4F20123FD959123FF91912F019923B6
:1004A00009F0B8CF892F8554833018F080528330FB
:1004B00038F444E050E0A40EB51E5FE359830FC04A
:1004C000933631F0933779F0933509F056C020C058
:1004D000F5018081898342E050E0A40EB51E6101E0
:1004E00001E010E012C0F501C080D180F6FC03C02D
:1004F0006FEF7FEF02C0692D70E042E050E0A40E84
:10050000B51EC6010E94BD038C015FE7F52214C031
:10051000F501C080D180F6FC03C06FEF7FEF02C011
:10052000692D70E042E050E0A40EB51EC6010E94A5
:10053000B2038C0150E8F52AF3FE07C01AC080E22E
:1005400090E0B3010E94C803EA948E2D90E0081752
:100550001907A8F30EC0F601F7FC8591F7FE81910B
:100560006F0190E0B3010E94C803E110EA940150CA
:1005700010400115110579F7EAC0943611F099364B
:1005800069F5F7FE08C0F501208131814281538170
:1005900084E090E00AC0F501808191819C014427AC
:1005A00037FD4095542F82E090E0A80EB91E9FE6DB
:1005B000F92257FF09C050954095309521953F4F3E
:1005C0004F4F5F4FE0E8FE2ACA01B901A1012AE0BE
:1005D00030E00E94F403D82ED21840C0953729F499
:1005E0001F2D1F7E2AE030E01DC01F2D197F9F3672
:1005F00061F0903720F4983509F0ACC00FC0903707
:1006000039F0983709F0A6C004C028E030E00AC0ED
:10061000106114FD146020E130E004C014FD166088
:1006200020E132E017FF08C0F5016081718182810D
:10063000938144E050E008C0F50180819181BC01C4
:1006400080E090E042E050E0A40EB51EA1010E94BF
:10065000F403D82ED2188FE7F82EF122F6FE0BC045
:100660005EEFF522D91438F4F4FE07C0F2FC05C0A1
:100670008FEEF82202C01D2D01C0192DF4FE0DC011
:10068000FE01ED0DF11D8081803319F499EEF92200
:1006900008C01F5FF2FE05C003C08F2D867809F0E9
:1006A0001F5F0F2DF3FC14C0F0FE0FC01E1510F0DD
:1006B0009D2C0BC09D2C9E0C911A1E2D06C080E215
:1006C00090E0B3010E94C8031F5F1E15C0F304C071
:1006D0001E1510F4E11A01C0EE2404FF0FC080E3E0
:1006E00090E0B3010E94C80302FF1DC001FD03C0DA
:1006F00088E790E00EC088E590E00BC0802F8678F8
:1007000091F001FF02C08BE201C080E2F7FC8DE2B4
:1007100090E0B3010E94C80306C080E390E0B301FB
:100720000E94C8039A94D914C0F3DA94F101ED0D34
:10073000F11D808190E0B3010E94C803DD20A9F77C
:1007400006C080E290E0B3010E94C803EA94EE2064
:10075000C1F743CEF30166817781CB012B96E2E1AD
:100760000C94E023FC010590615070400110D8F713
:10077000809590958E0F9F1F0895FC0161507040E9
:1007800001900110D8F7809590958E0F9F1F0895C6
:100790000F931F93CF93DF938C01EB018B8181FF2C
:1007A0001BC082FF0DC02E813F818C819D81281747
:1007B000390764F4E881F9810193F983E88306C07D
:1007C000E885F985802F0995892B31F48E819F81E9
:1007D00001969F838E8302C00FEF1FEFC801DF9148
:1007E000CF911F910F910895FA01AA27283051F156
:1007F000203181F1E8946F936E7F6E5F7F4F8F4F52
:100800009F4FAF4FB1E03ED0B4E03CD0670F781FB0
:10081000891F9A1FA11D680F791F8A1F911DA11D95
:100820006A0F711D811D911DA11D20D009F46894CE
:100830003F912AE0269F11243019305D3193DEF676
:10084000CF010895462F4770405D4193B3E00FD02C
:10085000C9F7F6CF462F4F70405D4A3318F0495D17
:1008600031FD4052419302D0A9F7EACFB4E0A695FA
:100870009795879577956795BA95C9F7009761051C
:10088000710508959B01AC010A2E06945795479572
:1008900037952795BA95C9F7620F731F841F951F67
:1008A000A01D0895AC01FB018585968582309105D8
:1008B00041F08330910539F0019759F483E090E0DD
:1008C00004C0178606C081E090E09687858781E0A6
:1008D0008787DA0180E101900D928150E1F7CA012A
:1008E0000895FC0180819181009711F00E94301CD5
:1008F0008DE061E00E949B188DE061E00E94281964
:100900006AEF70E080E090E00E94FB178DE060E00D
:100910000E9428196AEF70E080E090E00E94FB17C7
:10092000EBCFEF92FF920F931F937C018B01FB01A2
:1009300080819181F70191838083FB018281938182
:10094000F701938382836C5F7F4FC70104960E94F7
:10095000D920F80183859485F701948783871F91B7
:100960000F91FF90EF900895EF92FF920F931F93D6
:10097000DF93CF93CDB7DEB765970FB6F894DEBFA0
:100980000FBECDBF8130910509F09AC06F5F7F4FD8
:1009900009F0DFC07E010894E11CF11CC70160E092
:1009A00071E00E948E2089EC93E060E070E044E00A
:1009B00050E021E030E087010E942015C7010E942D
:1009C000E42098E0E92EF12CEC0EFD1EC70166E054
:1009D00071E00E948E2086ED93E061E070E04CE0D3
:1009E00050E022E030E087010E942015C7010E94FC
:1009F000E4208FE0E82EF12CEC0EFD1EC7016CE028
:100A000071E00E948E2083EE93E065E070E04BE0A1
:100A100050E023E030E087010E942015C7010E94CA
:100A2000E4201092F6031092F5031092F80310924E
:100A3000F7031092FA031092F9031092FC0310923C
:100A4000FB031092F2031092F10380E290E00E9407
:100A500056159093F4038093F303009731F481EFDC
:100A600093E062E171E00E94710482E090E0909373
:100A7000F6038093F5038DEF93E069EC73E00E9439
:100A800091048AE094E066ED73E00E94910487E1AE
:100A900094E063EE73E00E94910484E294E069ECD8
:100AA00073E00E94910481E394E066ED73E00E949C
:100AB00091048EE394E063EE73E00E94910449C0D8
:100AC000892B09F046C06F5F7F4F09F042C082E476
:100AD00094E00E94E42085E394E00E94E42088E210
:100AE00094E00E94E4208BE194E00E94E4208EE0F8
:100AF00094E00E94E42081E094E00E94E420809150
:100B0000F3039091F4030E94DD151092F403109208
:100B1000F3031092F2031092F1031092F603109275
:100B2000F5031092F8031092F7031092FA03109253
:100B3000F9031092FC031092FB0387EE93E00E94EE
:100B4000E4208AED93E00E94E4208DEC93E00E9483
:100B5000E42065960FB6F894DEBF0FBECDBFCF91EF
:100B6000DF911F910F91FF90EF90089580E090E04A
:100B70006FEF7FEF0E94B404089581E090E06FEF83
:100B80007FEF0E94B4040895AF92BF92CF92DF929C
:100B9000EF92FF920F931F93CF93DF93EC015B01D2
:100BA0001616170624F062E471E00E947104C50174
:100BB00054E0880F991F5A95E1F70E945615F82EB8
:100BC000E92E082F192F0115110529F4CE0167E729
:100BD00071E00E9471048F2D9E2D9C01790120E00F
:100BE00030E01CC0888599856C817D81820F931FC0
:100BF0000E947523FC0144E0EE0FFF1F4A95E1F7C8
:100C0000D701EC0DFD1D80E101900D928150E1F7BF
:100C10002F5F3F4F80E190E0E80EF91E8E819F81AB
:100C2000CA80DB8028173907ECF2C6010E94DD1567
:100C30001B830A83198618868E819F819B878A87EA
:100C4000BD82AC82DF91CF911F910F91FF90EF9009
:100C5000DF90CF90BF90AF9008950F931F93CF93E5
:100C6000DF93EC01162F072F6E817F818C819D8190
:100C70006817790729F4660F771FCE010E94C40513
:100C80004A855B85CA0164E0880F991F6A95E1F780
:100C9000EA81FB81E80FF91F212F302FC901DC0108
:100CA00080E10D9001928150E1F79A012F5F3F4F53
:100CB0003B872A878C819D812817390711F41B8671
:100CC0001A868E819F8101969F838E83DF91CF91BB
:100CD0001F910F9108950F931F93DF93CF93CDB77B
:100CE000DEB7A0970FB6F894DEBF0FBECDBF8E0162
:100CF0000F5F1F4FC8010E94521582E090E09F874E
:100D00008E8780EE97E09B838A8382E08C8391E0DC
:100D10009D838CE38E831F82188619861A861B8614
:100D200088E08983988B8091B0039091B103DE01B4
:100D30005196F80120E101900D922150E1F78E01CA
:100D40000F5E1F4FB8010E942D06C8010E94551565
:100D5000CE0101960E945515A0960FB6F894DEBFFD
:100D60000FBECDBFCF91DF911F910F910895EF92EC
:100D7000FF920F931F93CF93DF93EC018B018F852D
:100D8000882309F45AC087E061E00E942819C8014D
:100D90000E94B2127C0181E0E816F104A9F082E021
:100DA000E816F104E9F0E114F10411F080E046C026
:100DB00049815A81C801688123969E010E94D511FC
:100DC000C8010E94C71317C049815A81C8016881B0
:100DD00023969E010E947E11C8010E94B3130BC08E
:100DE00049815A81C801688123969E010E9427117A
:100DF000C8010E949F1380914C048823D1F08AE996
:100E000094E06EEB71E00E942D1C8AE994E0B7013A
:100E10004AE050E00E94FB1B8AE994E064ED71E037
:100E20000E942D1C0C5F1F4F8AE994E0B8010E94BC
:100E3000761C87E060E00E94281981E0DF91CF9165
:100E40001F910F91FF90EF9008950F931F938AE9E0
:100E500094E060E072EC0E945B1987E061E00E9420
:100E60009B1887E061E00E94281964E670E080E04A
:100E700090E00E94FB1787E060E00E94281964E67A
:100E800070E080E090E00E94FB1787E061E00E9444
:100E9000281964E670E080E090E00E94FB1787E08C
:100EA00060E00E94281964E670E080E090E00E9413
:100EB000FB1787E061E00E94281964E670E080E09B
:100EC00090E00E94FB1787E060E00E94281964E62A
:100ED00070E080E090E00E94FB1709EC13E0C8018D
:100EE0000E94E314C8016DE770E00E941F14C8015E
:100EF00061E070E00E94DB1306ED13E0C8010E9480
:100F0000E314C80164EF71E00E941F14C80161E09E
:100F100070E00E94DB1303EE13E0C8010E94E314AB
:100F2000C8016DE770E00E941F14C80161E070E025
:100F30000E94DB1387E061E00E94281964E670E0FC
:100F400080E090E00E94FB1787E060E00E94281993
:100F500064E670E080E090E00E94FB1781EF93E090
:100F60009093B1038093B0031092C4039093C8038D
:100F70008093C7031F910F910895EF92FF920F93F3
:100F80001F93CF93DF937C018B01C0E0D0E011C0B1
:100F90000C171D0748F08AE994E00E948319F701B5
:100FA000EC0FFD1F808304C08AE994E00E9483193E
:100FB00021968AE994E00E945C19892B49F7CE01B9
:100FC000DF91CF911F910F91FF90EF9008950F93B4
:100FD0001F93DF93CF93CDB7DEB7AC970FB6F894DE
:100FE000DEBF0FBECDBFCE0101966CE070E00E9467
:100FF000BD078E01035F1F4FC8010E9452158981F2
:101000008A8F1B8E9A8180E02B81820F911D9F8792
:101010008E878C81888B8D81898B8E818A8B8F8145
:101020008B8B88858C8B89858D8B8A858E8B8B8528
:101030008F8B8C858D8781E08C8F8091C7039091F9
:10104000C803DE015D96F80120E101900D92215068
:10105000E1F78E01035E1F4FB8010E942D06C80103
:101060000E945515CE010D960E945515AC960FB6EF
:10107000F894DEBF0FBECDBFCF91DF911F910F91CE
:1010800008950F931F93DF93CF930F92CDB7DEB7E1
:10109000CE01019661E070E00E94BD0789818093D6
:1010A0007B030AE914E0C8016EED71E00E942D1C7B
:1010B000C80160917B0342E050E00E949D1B0F90AD
:1010C000CF91DF911F910F9108950F931F93DF939D
:1010D000CF9300D00F92CDB7DEB7CE01019663E07B
:1010E00070E00E94BD0789818093C4039A8180E0EB
:1010F0002B81820F911D9093C6038093C5030AE94B
:1011000014E0C80166EF71E00E942D1CC8016091D7
:10111000C4034AE050E00E948B1BC80169E072E002
:101120000E942D1C6091C5037091C603C80140E167
:1011300050E00E946E1B0F900F900F90CF91DF91A7
:101140001F910F910895EF92FF920F931F937C01CF
:101150000AE914E0C80163E172E00E942D1CB701A6
:101160006C5F7F4FC8010E94761CC80166E272E086
:101170000E942D1CC7010E942C12682FC80142E05A
:1011800050E00E948B1BC80161E372E00E942D1C9D
:10119000C7010E949512682FC80142E050E00E94EA
:1011A0008B1BC8016BE372E00E942D1CC7016DE22E
:1011B00070E00E947212682FC80142E050E00E9465
:1011C0009D1BC80164E472E00E942D1CC7010E94AF
:1011D0004F12682FC80142E050E00E949D1BC801D9
:1011E0006CE472E00E942D1CC7010E94B212BC0187
:1011F000C8014AE050E00E940E1C1F910F91FF9021
:10120000EF900895EF92FF920F931F93DF93CF9388
:10121000CDB7DEB7A7970FB6F894DEBF0FBECDBF30
:101220008AE994E068E672E00E94301C04E214E06F
:101230007E010894E11CF11CC701B8010E949104D1
:10124000C7010E94A308CE0105960E94E420AEE0EB
:10125000EA2EF12CEC0EFD1E035F1F4FC701B801F3
:101260000E949104C7010E94A308CE0142960E94E9
:10127000E420FBE1EF2EF12CEC0EFD1E035F1F4F6F
:10128000C701B8010E949104C7010E94A308CE01C2
:101290004F960E94E420A7960FB6F894DEBF0FBECB
:1012A000CDBFCF91DF911F910F91FF90EF900895E7
:1012B0008230910579F0833091051CF4019791F407
:1012C00006C08330910549F0049761F409C00E947B
:1012D000020908950E94E70708950E94650808958D
:1012E0000E94410808958AE994E00E945C1918164A
:1012F000190634F48AE994E00E9483190E9458097F
:101300000895EF92FF920F931F937C010E9497170D
:101310000027F7FC0095102FE60EF71E081F191F77
:10132000E092C003F092C1030093C2031093C30381
:101330001F910F91FF90EF900895EF92FF920F93FE
:101340001F937C010E9497170027F7FC0095102F30
:10135000E60EF71E081F191FE0927703F09278033C
:101360000093790310937A031F910F91FF90EF90F0
:101370000895EF92FF920F931F93E0907703F09000
:1013800078030091790310917A030E9497176E15E4
:101390007F058007910718F42DE533E014C0E09035
:1013A000C003F090C1030091C2031091C3030E94D7
:1013B00097176E157F058007910718F020E533E039
:1013C00002C02AE633E0C9011F910F91FF90EF9010
:1013D0000895EF92FF920F931F93DF93CF93CDB7B2
:1013E000DEB7C056D0400FB6F894DEBF0FBECDBFFB
:1013F0000E94B9097C018E010F5F1F4FC8010E9436
:10140000521583E090E09F878E8780E992E09B836E
:101410008A8380EC8C83F70180818D8381818E8328
:1014200082818F83838188878481898785818A8768
:1014300086818B8788E0898381E0888B8091B003E7
:101440009091B103DE015196F80120E101900D92D7
:101450002150E1F78E010F5E1F4FB8010E942D064B
:10146000C8010E9455158E010F5D1F4FC8010E94D3
:10147000521583E090E09FA78EA781E992E09BA39D
:101480008AA387E88CA3F70187818DA380858EA32B
:1014900081858FA3828588A7838589A788E089A312
:1014A00081E088AB8091B0039091B103DE01D196C9
:1014B000F80120E101900D922150E1F78E010F5CBF
:1014C0001F4FB8010E942D06C8010E9455158E01BC
:1014D0000F5B1F4FC8010E94521581E090E0FE0192
:1014E000E25BFF4F918380838FE892E0FE01EE5B29
:1014F000FF4F9183808380ECFE01EC5BFF4F808384
:10150000FE01EB5BFF4F1082FE01EA5BFF4F108292
:10151000FE01E95BFF4F108291E0FE01E85BFF4FA7
:10152000908387E2FE01E75BFF4F808380E1FE014D
:10153000E65BFF4F808380E4FE01E55BFF4F808325
:1015400088E0F8018083FE01E05BFF4F908380918B
:10155000B0039091B103DE01AF5ABF4FF80120E113
:1015600001900D922150E1F78E010F5A1F4FB801E3
:101570000E942D06C8010E945515CE018F5B9F4F1A
:101580000E945515CE0181960E945515CE010196F7
:101590000E945515C05ADF4F0FB6F894DEBF0FBE3C
:1015A000CDBFCF91DF911F910F91FF90EF900895E4
:1015B000EF92FF920F931F93E0904E03F0904F0332
:1015C0000027F7FC0095102F8091AC039091AD039C
:1015D000A091AE03B091AF03E80EF91E0A1F1B1FC6
:1015E0000E949717E616F70608071907D8F4E09047
:1015F0007703F09078030091790310917A030E94A9
:101600009717E616F7060807190760F40E94E9091C
:101610000E9497176093AC037093AD038093AE0361
:101620009093AF030E94971724E630E040E050E02B
:101630000E948823611571058105910511F40E94AE
:101640006B061F910F91FF90EF9008950F931F93DA
:10165000CF93DF93EC018091C403823059F4298148
:101660003A818091C5039091C6032817390709F084
:10167000A6C018C0833051F429813A818091C503F6
:101680009091C6032817390768F499C0843051F443
:1016900029813A818091C5039091C60382179307EF
:1016A00008F48DC08D859E85019721E030E002C051
:1016B000220F331F8A95E2F730E080917B0390E0A0
:1016C00028233923232B09F47AC08AE994E06FE8B0
:1016D00072E00E942D1C6B857C858AE994E040E1D4
:1016E00050E00E945D1B8AE994E06BE972E00E9481
:1016F0002D1C2D853E858DE090E0289FB001299F0F
:10170000700D389F700D1124655E7B4F8AE994E05F
:101710000E94431C8AE994E069EA72E00E942D1C51
:101720008AE994E0688140E150E00E948B1B8AE9DD
:1017300094E066EB72E00E942D1C69817A818AE94F
:1017400094E040E150E00E945D1B8AE994E06FEB79
:1017500072E00E942D1C0E949717AB01BC018AE920
:1017600094E02AE030E00E944E1B8AE994E06FEC9E
:1017700072E00E942D1C8E01C0E0D0E08AE994E066
:10178000F801638140E150E00E948B1BC730D10516
:1017900031F08AE994E06EED72E00E942D1C2196F2
:1017A0000F5F1F4FC830D10549F78AE994E062EE18
:1017B00072E00E942D1C8AE994E00E94AE1ADF912B
:1017C000CF911F910F910895CF92DF92EF92FF92E8
:1017D0000F931F93DF93CF93CDB7DEB760970FB60C
:1017E000F894DEBF0FBECDBFD82EC92EF62EE72E41
:1017F0008091C4038823A1F0DE011196862F972FD4
:101800009C01F90180E101900D928150E1F78E0178
:101810000F5F1F4FC8010E94260BC8010E9455157B
:101820002D2D3C2DC901DC012F2D3E2DC901FC01C0
:1018300080E101900D928150E1F78D2D9C2D6096F5
:101840000FB6F894DEBF0FBECDBFCF91DF911F91D1
:101850000F91FF90EF90DF90CF900895CF92DF929D
:10186000EF92FF920F931F93CF93DF93D82EC92E41
:10187000EB0189819A818F589240D1F4E0907703EF
:10188000F09078030091790310917A030E949717E2
:10189000E616F7060807190758F480EC8B831C82BC
:1018A0001D821E8287E2888780E1898781E08F8799
:1018B00089819A818059924009F06EC04C81242F11
:1018C00030E080915D03992787FD909528173907AF
:1018D000E1F52D8130E080915E03992787FD909599
:1018E0002817390791F52E8130E080915F03992701
:1018F00087FD90952817390741F52F8130E08091B9
:101900006003992787FD909528173907F1F42885FA
:1019100030E080916103992787FD9095281739075A
:10192000A1F4298530E080916203992787FD909585
:101930002817390751F42A8530E0809163039927ED
:1019400087FD909528173907A1F040935D038D819D
:1019500080935E038E8180935F038F818093600309
:101960008885809361038985809362038A8580934B
:1019700063030E94B909FC0180818C8381818D837E
:1019800082818E8383818F83848188878581898703
:1019900086818A8781E08F8789819A8181599240E7
:1019A00009F054C04C81242F30E0809164039927C2
:1019B00087FD90952817390741F52D8130E08091FA
:1019C0006503992787FD909528173907F1F42E8133
:1019D00030E080916603992787FD90952817390795
:1019E000A1F42F8130E080916703992787FD9095BE
:1019F0002817390751F4288530E08091680399272A
:101A000087FD90952817390791F0409364038D81E5
:101A1000809365038E81809366038F818093670333
:101A20008885809368038CED95E00E949D090E9453
:101A3000B909FC0187818C8380858D8381858E83A4
:101A400082858F838385888781E08F8789819A81CA
:101A500080509240C9F580E593E066EE72E00E9406
:101A6000AA016D8170E066527040762F66272E8144
:101A7000620F711D882777FD8095982F0E9467223D
:101A800020E030E04AE752E40E94F3220E94342230
:101A90008B019C017093B3036093B203CB0168EE9A
:101AA00073E00E9475237093B5036093B403C8017B
:101AB00068EE73E00E94752364E670E00E9475236F
:101AC0007093B7036093B60389819A81885E9740CB
:101AD00059F48E8127E0829FC00111249595879546
:101AE0009093B9038093B80389819A81885E974067
:101AF00021F58D818C3309F08CC09E8180E02F818F
:101B0000820F911D6AE070E00E9475236852704058
:101B10007093BB036093BA0310C08E818B3669F457
:101B200088852AE0829FC001112495958795959517
:101B300087959093BD038093BC0389819A818F53CD
:101B40009740E9F48D818935D1F48E818A36B9F4D4
:101B50009F8180E02885820F911D2BE030E0DC0121
:101B6000A29FC001A39F900DB29F900D112464E627
:101B700070E00E9475237093BF036093BE034DB75E
:101B80005EB74A5050400FB6F8945EBF0FBE4DBFCF
:101B9000EDB7FEB7319680E593E0ADB7BEB71296CC
:101BA0009C938E93119783EF92E09383828380912D
:101BB000B4039091B503958384838091B60390918B
:101BC000B703978386838091BA039091BB03918773
:101BD00080870E94B1012D2D3C2DC901DC01FE0141
:101BE00080E101900D928150E1F74DB75EB7465FFD
:101BF0005F4F0FB6F8945EBF0FBE4DBF8D2D9C2D6D
:101C0000DF91CF911F910F91FF90EF90DF90CF90D8
:101C10000895813109F091CF80CFEF92FF920F9319
:101C20001F93DF93CF93CDB7DEB7C057D0400FB629
:101C3000F894DEBF0FBECDBF7C01DE011196FC0122
:101C400080E101900D928150E1F78E010F5E1F4FF0
:101C5000C801BE016F5F7F4F0E94E40BD701F801FE
:101C600080E101900D928150E1F7CE0141960E94F2
:101C70005515CE0101960E945515DE019196F7018A
:101C800080E101900D928150E1F78E010F5C1F4FB2
:101C9000C801BE016F5D7F4F0E942E0CD701F80175
:101CA00080E101900D928150E1F7CE01C1960E9432
:101CB0005515CE0181960E945515DE01AF5BBF4FD1
:101CC000F70180E101900D928150E1F78E010F5AEA
:101CD0001F4FC801BE016F5B7F4F0E945204D701A6
:101CE000F80180E101900D928150E1F7CE018F5A09
:101CF0009F4F0E945515CE018F5B9F4F0E94551537
:101D0000F701818192818150924011F4F701178689
:101D1000F7018785882399F0DE01AF59BF4F80E135
:101D200001900D928150E1F78E010F591F4F81EF05
:101D300093E0B8010E942D06C8010E945515C059B4
:101D4000DF4F0FB6F894DEBF0FBECDBFCF91DF914E
:101D50001F910F91FF90EF900895EF92FF920F93D4
:101D60001F93DF93CF93CDB7DEB7E0970FB6F8940C
:101D7000DEBF0FBECDBF7C010E9495128093F003A1
:101D800080FF2EC08E010F5E1F4FC8010E945215AA
:101D90008091F0038C8F1D8EF701838594859F8F32
:101DA0008E8FC701B801AE014C5E5F4F9E012E5E63
:101DB0003F4F0E943113DE011196F80180E101903E
:101DC0000D928150E1F78E010F5F1F4FC8010E94F5
:101DD0000D0EC8010E945515CE0141960E94551561
:101DE0008091F00381FF2EC08E010F5E1F4FC8014E
:101DF0000E9452158091F0038C8F1D8EF701838510
:101E000094859F8F8E8FC701B801AE014C5E5F4FE6
:101E10009E012E5E3F4F0E94C712DE019196F8018F
:101E200080E101900D928150E1F78E010F5D1F4F0F
:101E3000C8010E940D0EC8010E945515CE014196A1
:101E40000E945515E0960FB6F894DEBF0FBECDBFC9
:101E5000CF91DF911F910F91FF90EF9008950F9315
:101E60001F938B0100D000D02AE633E0EDB7FEB718
:101E700032832183948383830E94B1010F900F905A
:101E80000F900F90C8010E9481091F910F91089532
:101E90001F9380914A030E94631864E670E00E94D9
:101EA00075236330710589F0643071053CF461304D
:101EB000710589F06230710551F40FC0653071050C
:101EC00041F06730710519F40AC010E809C010E04C
:101ED00007C010E405C010E203C010E101C018E023
:101EE00080914C030E94631864E670E00E947523A1
:101EF0006230710541F06330710539F06130710570
:101F000029F41C5F03C01E5F01C01F5F812F1F915A
:101F100008952F923F924F925F926F927F928F928D
:101F20009F92AF92BF92CF92DF92EF92FF920F9368
:101F30001F93DF93CF93CDB7DEB7C857D0400FB60E
:101F4000F894DEBF0FBECDBF0E94480F982F80913E
:101F50004B04891779F090934B04923429F0903810
:101F600049F480E093E002C08DE093E060ED77E01B
:101F70000E942F0F0E94D80A0E9473098E01085FE9
:101F80001F4FC80169EC73E00E949104C8010E94D0
:101F9000AD0ECE010C960E94E4208E010B5E1F4F09
:101FA000C80166ED73E00E949104C8010E94AD0E65
:101FB000CE0149960E94E4208E010E5D1F4FC8019C
:101FC00063EE73E00E949104C8010E94AD0ECE0141
:101FD00086960E94E42080914C048823E1F0809151
:101FE000F7039091F803892BB1F08AE994E06AE154
:101FF00073E00E942D1C6091F7037091F8038AE949
:1020000094E04AE050E00E94FB1B8AE994E067E21A
:1020100073E00E94301C01E019E4E12EF12CEC0E7B
:10202000FD1EBDE02B2E312CA9E56A2E712C6C0E05
:102030007D1EFCE38F2E912C8C0E9D1EE4E04E2E17
:10204000512C480C591C79E6A72EB12CAC0EBD1EA4
:102050006E010894C11CD11CA0C02091F9033091DD
:10206000FA03C90164E0880F991F6A95E1F7E091CE
:10207000F303F091F403D701E80FF91F80E1019019
:102080000D928150E1F7C90101969093FA03809374
:10209000F903FA013197F093F803E093F7032091E5
:1020A000F5033091F6038217930721F41092FA0397
:1020B0001092F903309789F0C90164E070E00E9442
:1020C00075236E177F074CF0C90162E070E00E9433
:1020D000752381EF93E00E94C405F70185859685FD
:1020E000829DB001839D700D929D700D11246051F1
:1020F0007C4FCE018F960E949104D301F70180E1BD
:1021000001900D928150E1F7C401BE01615D7F4FE6
:102110000E949104C301B4010E94B706082FC201B6
:102120000E94E420C3010E945515002379F5D501D2
:10213000F70180E101900D928150E1F781EF93E08A
:10214000B5010E942D06C5010E94551580914C04D1
:102150008823E1F0C60169E273E00E94A820F7013C
:1021600085859685829DB001839D700D929D700D31
:1021700011246C507C4FC6010E945720BC018AE993
:1021800094E00E94761CC6010E94EA20CE01C3960C
:102190000E94E420C7010E9455154091F703509119
:1021A000F8034115510519F0002309F056CFC8581E
:1021B000DF4F0FB6F894DEBF0FBECDBFCF91DF91DA
:1021C0001F910F91FF90EF90DF90CF90BF90AF9055
:1021D0009F908F907F906F905F904F903F902F9047
:1021E0000895882319F48CB5806202C08CB58F7D68
:1021F0008CBD08959CB5937F982B9CBD08952CB5FC
:10220000382F33702C7F322B3CBD2DB590E0959547
:1022100087959595879581702E7F822B8DBD08952A
:1022200081E161E00E94281981E161E00E949B1830
:102230008CB580618CBD8CB580648CBD8FE061E015
:102240000E949B1880E161E00E949B180895DF9234
:10225000EF92FF920F931F93CF93DF938C01D62EB3
:10226000EA01F22EE32EFC01808160E00E94281931
:1022700084E48EBD0DB407FEFDCF8EB5CE0123E004
:10228000969587952A95E1F78EBD0DB407FEFDCF93
:102290008EB59E012295220F207E2EBD0DB407FE25
:1022A000FDCF8EB51EBC0DB407FEFDCF8EB51EBC96
:1022B0000DB407FEFDCF8EB5DEBC0DB407FEFDCF1D
:1022C0008EB58F2D9E2D9C01F90190E008C0808174
:1022D0008EBD0DB407FEFDCF8EB59F5F31969D1567
:1022E000B0F3F801808161E00E942819DF91CF915D
:1022F0001F910F91FF90EF90DF900895DF92EF9282
:10230000FF920F931F93CF93DF938C01D62EEA0198
:10231000F22EE32EFC01808160E00E94281982E405
:102320008EBD0DB407FEFDCF8EB5CE0133E0969580
:1023300087953A95E1F78EBD0DB407FEFDCF8EB5BA
:102340009E012295220F207E2EBD0DB407FEFDCFEB
:102350008EB51EBC0DB407FEFDCF8EB51EBC0DB4F0
:1023600007FEFDCF8EB5DEBC0DB407FEFDCF8EB5EA
:102370008F2D9E2D9C01F90190E008C080818EBDBB
:102380000DB407FEFDCF8EB59F5F31969D15B0F35E
:10239000F801808161E00E942819DF91CF911F919F
:1023A0000F91FF90EF90DF900895DF92EF92FF92F0
:1023B0000F931F93CF93DF938C01D62EEA01F22E59
:1023C000E32EFC01808160E00E94281980E48EBD2C
:1023D0000DB407FEFDCF8EB5CE0143E096958795EF
:1023E0004A95E1F78EBD0DB407FEFDCF8EB59E0177
:1023F0002295220F207E2EBD0DB407FEFDCF8EB597
:102400001EBC0DB407FEFDCF8EB51EBC0DB407FE7D
:10241000FDCF8EB5DEBC0DB407FEFDCF8EB58F2D82
:102420009E2D9C01F90190E008C080818EBD0DB405
:1024300007FEFDCF8EB59F5F31969D15B0F3F80175
:10244000808161E00E942819DF91CF911F910F9147
:10245000FF90EF90DF9008951F93CF93DF93EC01EF
:10246000888160E00E94281983E08EBD0DB407FECC
:10247000FDCF8EB58FE08EBD0DB407FEFDCF8EB5BE
:102480008FEF8EBD0DB407FEFDCF1EB5888161E0D4
:102490000E942819812FDF91CF911F9108951F93DA
:1024A000CF93DF93EC01888160E00E94281983E0DC
:1024B0008EBD0DB407FEFDCF8EB58BE28EBD0DB483
:1024C00007FEFDCF8EB58FEF8EBD0DB407FEFDCF9D
:1024D0001EB5888161E00E942819812FDF91CF917C
:1024E0001F9108951F93CF93DF93EC01162F8881DE
:1024F00060E00E94281983E08EBD0DB407FEFDCF79
:102500008EB51EBD0DB407FEFDCF8EB58FEF8EBD0F
:102510000DB407FEFDCF1EB5888161E00E94281929
:10252000812FDF91CF911F9108951F93CF93DF9358
:10253000EC01888160E00E94281980EA8EBD0DB40C
:1025400007FEFDCF8EB58FEF8EBD0DB407FEFDCF1C
:102550001EB5888161E00E942819812FDF91CF91FB
:102560001F9108950E94951282FD03C020E030E083
:102570000CC084FD03C021E030E007C086FD03C02D
:1025800022E030E002C02FEF3FEFC90108959F9293
:10259000AF92BF92CF92DF92EF92FF920F931F9371
:1025A000CF93DF93EC017B01B42EA52E69018881C6
:1025B00060E00E94281984E98EBD0DB407FEFDCFAE
:1025C0008EB58FEF8EBD0DB407FEFDCF9EB48FEF9D
:1025D0008EBD0DB407FEFDCF0EB58FEF8EBD0DB4D1
:1025E00007FEFDCF8EB58FEF8EBD0DB407FEFDCF7C
:1025F0008EB58FEF8EBD0DB407FEFDCF1EB51F70DB
:102600008B2D9A2D9C01F90190E02FEF07C02EBD74
:102610000DB407FEFDCF8EB581939F5F9117B8F380
:10262000888161E00E942819F701108302950695C0
:102630000770892D90E053E0880F991F5A95E1F7B4
:10264000800F911DF60191838083DF91CF911F91BF
:102650000F91FF90EF90DF90CF90BF90AF909F9041
:1026600008959F92AF92BF92CF92DF92EF92FF9226
:102670000F931F93CF93DF93EC017B01042FB52EB3
:102680006901888160E00E94281980E98EBD0DB43F
:1026900007FEFDCF8EB58FEF8EBD0DB407FEFDCFCB
:1026A0009EB48FEF8EBD0DB407FEFDCFAEB48FEF9D
:1026B0008EBD0DB407FEFDCF8EB58FEF8EBD0DB470
:1026C00007FEFDCF8EB58FEF8EBD0DB407FEFDCF9B
:1026D0001EB51F70802F9B2D9C01F90190E02FEFFC
:1026E00007C02EBD0DB407FEFDCF8EB581939F5F51
:1026F0009117B8F3888161E00E942819F7011083CF
:102700002A2D30E075E0369527957A95E1F7892DE9
:1027100090E063E0880F991F6A95E1F7280F391F51
:10272000F60131832083DF91CF911F910F91FF90AC
:10273000EF90DF90CF90BF90AF909F900895CF9390
:10274000DF93EC01888160E00E94281983E88EBD48
:102750000DB407FEFDCF8EB5888161E00E94281977
:10276000DF91CF910895CF93DF93EC01888160E0F2
:102770000E94281982E88EBD0DB407FEFDCF8EB5EC
:10278000888161E00E942819DF91CF910895CF934D
:10279000DF93EC01888160E00E94281981E88EBDFA
:1027A0000DB407FEFDCF8EB5888161E00E94281927
:1027B000DF91CF9108951F93CF93DF93EC016230A7
:1027C0007105A9F0633071053CF46115710559F08C
:1027D0006130710589F409C06330710551F06430CE
:1027E000710551F408C010E807C010E005C010E200
:1027F00003C010E601C010E4888160E00E9428193F
:1028000085E08EBD0DB407FEFDCF8EB58FE08EBD89
:102810000DB407FEFDCF8EB580EE8EBD0DB407FE64
:10282000FDCF8EB51EBD0DB407FEFDCF8EB58881E0
:1028300061E00E942819DF91CF911F910895FF92C6
:102840000F931F93CF93DF93EC016436710541F131
:102850006536710554F464317105D9F06233710540
:10286000E9F06A30710541F512C06A3F7105E1F087
:102870006B3F710524F46D377105F1F413C081E0ED
:10288000643F780799F0685E7340B1F411C011E3BA
:1028900001C018E108EBF5E0FF2E0EC019E0FACFF9
:1028A00014E0F8CF13E0F6CF11E0F4CF10E0F2CF50
:1028B00010E800E9E2E0FE2E888160E00E9428191D
:1028C0006AE070E080E090E00E94FB1782E08EBD3D
:1028D0000DB407FEFDCF8EB58AE28EBD0DB407FEA6
:1028E000FDCF8EB51EBD0DB407FEFDCF8EB56AE0DF
:1028F00070E080E090E00E94FB17888161E00E9418
:1029000028196AE070E080E090E00E94FB1788815F
:1029100060E00E9428196AE070E080E090E00E9488
:10292000FB1782E08EBD0DB407FEFDCF8EB589E2A8
:102930008EBD0DB407FEFDCF8EB50EBD0DB407FEE6
:10294000FDCF8EB56AE070E080E090E00E94FB175A
:10295000888161E00E9428196AE070E080E090E0E0
:102960000E94FB17888160E00E9428196AE070E0ED
:1029700080E090E00E94FB1782E08EBD0DB407FE60
:10298000FDCF8EB588E28EBD0DB407FEFDCF8EB5AE
:10299000FEBC0DB407FEFDCF8EB56AE070E080E0AE
:1029A00090E00E94FB17888161E00E9428196AE08C
:1029B00070E080E090E00E94FB17DF91CF911F91C3
:1029C0000F91FF9008950F931F938C018FE061E0AA
:1029D0000E949B188EE060E00E949B1880E161E0FD
:1029E0000E949B18F801808161E00E949B18F80109
:1029F000828161E00E949B180E94101180E00E9479
:102A0000FA1080E00E94FF1081E00E94F110F801AE
:102A1000828160E00E94281962E370E080E090E02B
:102A20000E94FB17F801828161E00E94281964E688
:102A300070E080E090E00E94FB171F910F910895D5
:102A40006F927F928F929F92AF92BF92CF92DF92BE
:102A5000EF92FF920F931F937C015B014A013901B2
:102A6000A4E0CA2ED12CC80ED91EC60161E473E0C1
:102A70000E948E20F701B182A082938282827486A6
:102A80006386C601B8010E94C2201F910F91FF907A
:102A9000EF90DF90CF90BF90AF909F908F907F90FE
:102AA0006F900895FC011786089508950F931F9362
:102AB000CF93DF93BC018230910510F462E070E0A7
:102AC000E091BE04F091BF04A0E0B0E040E050E02F
:102AD00024C08081918186179707D0F086179707C9
:102AE00071F482819381109729F013969C938E93B1
:102AF00012972CC09093BF048093BE0427C0411549
:102B0000510519F08417950718F4EF018D01AC01F8
:102B1000DF01828193819C01F9013097D1F6411543
:102B20005105F9F0CA01861B970B8430910580F49A
:102B30008A819B810115110521F0F801938382831D
:102B400004C09093BF048093BE04FE0132962FC050
:102B5000FE01E80FF91F61937193029799838883AF
:102B600026C08DB79EB78857904020917C03309146
:102B70007D0328173907C8F4AC01421B530B4617D5
:102B8000570798F0CB0102964817590770F0820F4B
:102B9000931F90937D0380937C0390937F03809396
:102BA0007E03F9016193719302C0E0E0F0E0CF0190
:102BB000DF91CF911F910F910895CF93DF939C01E7
:102BC000009709F48FC0EC0122971B821A82609152
:102BD000BE047091BF046115710581F488819981EB
:102BE000820F931F20917C0330917D0328173907B2
:102BF00039F5D0937D03C0937C0374C0DB0140E0C2
:102C000050E0AC17BD0708F1BB83AA83FE012191F8
:102C10003191E20FF31FAE17BF0779F48D919C91AC
:102C20001197280F391F2E5F3F4F39832883129643
:102C30008D919C9113979B838A834115510571F463
:102C4000D093BF04C093BE044DC012968D919C9149
:102C50001397AD01009711F0DC01D3CFDA01139681
:102C6000DC93CE931297FA0121913191E20FF31F79
:102C7000CE17DF0769F488819981280F391F2E5FED
:102C80003F4FFA01318320838A819B819383828322
:102C9000E0E0F0E0DB0112968D919C911397009794
:102CA00019F0BC01FD01F6CFAB014E5F5F4FDB01B8
:102CB0008D919C91840F951F20917C0330917D0311
:102CC0002817390779F4309729F41092BF0410922D
:102CD000BE0402C0138212824250504050937D03C2
:102CE00040937C03DF91CF9108956F927F928F92F2
:102CF0009F92AF92BF92CF92DF92EF92FF920F938B
:102D00001F93CF93DF938C01009729F4CB010E948E
:102D100056158C01B4C08EEFE82E8FEFF82EE00E22
:102D2000F11E5801A60EB71EAE14BF0408F4A5C0CC
:102D3000D7014D915C91119746175707B8F0453070
:102D4000510508F49CC0CA0104978617970708F438
:102D500096C042505040461B570BF501419351938A
:102D60006D937C93CF010E94DD1589C04B01841ABD
:102D7000950A3801640E751EA091BE04B091BF047F
:102D8000CC24DD24E0E0F0E047C0A615B705A9F5A6
:102D9000CD91DC911197CE0102968815990568F1C5
:102DA000CE0188199909029612962C9112971396C2
:102DB0003C91059758F0F50122833383C819D9094E
:102DC000D183C083D7016D937C9309C04E5F5F4F61
:102DD0004C0F5D1FF70151834083C901FC01C114F1
:102DE000D10431F0D6011396FC93EE93129747C0AD
:102DF000F093BF04E093BE0442C08D919C91119763
:102E0000E817F90708F4FC016D0112968C911297EE
:102E100013969C919C01D901109709F0B6CF80912F
:102E20007C0390917D0386159705B1F4E617F707AB
:102E300098F48DB79EB788579040A816B906E8F465
:102E4000B0927D03A0927C03B0927F03A0927E0398
:102E5000F7017183608313C0CB010E945615EC010A
:102E6000009759F0D7014D915C91B8010E94A101E2
:102E7000C8010E94DD158E0102C000E010E0C8010B
:102E8000DF91CF911F910F91FF90EF90DF90CF9046
:102E9000BF90AF909F908F907F906F9008951F92FA
:102EA0000F920FB60F9211242F933F938F939F93FE
:102EB000AF93BF938091510490915204A091530419
:102EC000B0915404309155040196A11DB11D232FDA
:102ED0002D5F2D3720F02D570196A11DB11D209398
:102EE00055048093510490935204A0935304B093DB
:102EF000540480914D0490914E04A0914F04B091E0
:102F000050040196A11DB11D80934D0490934E0471
:102F1000A0934F04B0935004BF91AF919F918F91B4
:102F20003F912F910F900FBE0F901F9018958FB764
:102F3000F8942091510430915204409153045091DF
:102F400054048FBFB901CA010895789484B5826092
:102F500084BD84B5816084BD85B5826085BD85B53D
:102F6000816085BDEEE6F0E0808181608083E1E8EC
:102F7000F0E0108280818260808380818160808324
:102F8000E0E8F0E0808181608083E1E9F0E0808129
:102F900082608083808181608083E0E9F0E08081CD
:102FA00081608083E1ECF0E08081846080838081B7
:102FB00082608083808181608083E3ECF0E08081A7
:102FC00081608083E0ECF0E0808182608083E2ECCD
:102FD000F0E0808181608083EAE7F0E080818460B6
:102FE0008083808182608083808181608083808112
:102FF000806880830895EF92FF920F931F93CF9381
:10300000DF937B018C013FB7F89480914D04909140
:103010004E04A0914F04B091500426B5A89B05C062
:103020002F3F19F00196A11DB11D3FBFBA2FA92F47
:10303000982F8827820F911DA11DB11D52E0880F86
:10304000991FAA1FBB1F5A95D1F7EC0130C00E94EF
:10305000F0203FB7F89480914D0490914E04A091D8
:103060004F04B091500426B5A89B05C02F3F19F01E
:103070000196A11DB11D3FBFBA2FA92F982F8827F8
:10308000820F911DA11DB11D32E0880F991FAA1F4B
:10309000BB1F3A95D1F78C1B9D0B885E9340B8F20D
:1030A0000894E108F10801091109C851DC4FE11445
:1030B000F1040105110559F6DF91CF911F910F9190
:1030C000FF90EF900895823108F08251E82FF0E0F0
:1030D000E05DFE4FE49120917B008E2F86958695D2
:1030E000869590E08170907035E0880F991F3A9531
:1030F000E1F72F7D282B20937B00E77080918003E0
:103100008295880F880F807C8E2B80937C00809125
:103110007A00806480937A0080917A0086FDFCCFEB
:103120002091780040917900942F80E030E0282BA6
:10313000392BC9010895CF93DF93482F50E0CA017E
:103140008C509F4FFC0134914A525F4FFA01849199
:10315000882369F190E0880F991FFC01E455FF4F27
:10316000A591B491FC01E654FF4FC591D49166231B
:1031700051F42FB7F8948C91932F909589238C93C9
:10318000888189230BC0623061F42FB7F8948C9149
:10319000932F909589238C938881832B88832FBFCD
:1031A00006C09FB7F8948C91832B8C939FBFDF91BF
:1031B000CF910895883071F1893068F4823031F10F
:1031C000833020F4813009F042C01DC0833089F083
:1031D0008430E9F512C08B3059F18C3028F48930F5
:1031E000E9F08A30A1F51EC08C3031F18E3079F5CE
:1031F00029C0809180008F7703C0809180008F7DEF
:1032000080938000089584B58F7702C084B58F7D48
:1032100084BD0895809190008F7707C080919000C1
:103220008F7D03C080919000877F809390000895E8
:103230008091C0008F7703C08091C0008F7D809304
:10324000C00008958091C200877F8093C2000895D6
:10325000FF920F931F93F62E482F50E0CA018E5E07
:103260009E4FFC012491CA018C509F4FFC01149188
:103270004A525F4FFA0104910023C9F0222319F04A
:10328000822F0E94DA18E02FF0E0EE0FFF1FE654C5
:10329000FF4FA591B4919FB7F894FF2021F48C9132
:1032A0001095812302C08C91812B8C939FBF1F911D
:1032B0000F91FF90089508952091960430919704FE
:1032C0008091980490919904281B390B2F733070CA
:1032D000C901089520919604309197048091980433
:1032E000909199042817390719F42FEF3FEF09C07F
:1032F000E0919804F0919904EA5AFB4F8081282FBD
:1033000030E0C9010895209196043091970480918E
:103310009804909199042817390719F42FEF3FEF7B
:1033200013C0E0919804F0919904EA5AFB4F208170
:10333000809198049091990401968F739070909366
:1033400099048093980430E0C901089510929D0477
:1033500010929C0488EE93E0A0E0B0E080939E047D
:1033600090939F04A093A004B093A1048FE893E0EE
:1033700090939B0480939A0408950F931F93DF9377
:10338000CF930F92CDB7DEB78C016983809188030C
:10339000882369F083E0BE016F5F7F4F41E050E01A
:1033A0000E945C1D1816190614F49C0107C081E0E8
:1033B00090E0F8019383828320E030E0C9010F9010
:1033C000CF91DF911F910F91089583E00E94331DEB
:1033D0000895CF93DF9312C082E00E94BE1C2FEFAE
:1033E0008F3F9207C9F0E0919604F0919704EA5A52
:1033F000FB4F8083D0939704C0939604C0919604AA
:10340000D09197042196CF73D070809198049091B9
:103410009904C817D90701F7DF91CF910895FC01EE
:1034200080818E5F808380E86CE371E042E450E04D
:103430000E94D71C0895FC0181819081913A59F432
:10344000813209F04CC080E061E873E047E050E071
:103450000E94D71C42C0913209F041C0803239F439
:1034600081E893E067E070E00E941B1D36C0823265
:1034700009F035C082818093880380918103909107
:103480008203A0918303B0918403805B9440A040A9
:10349000B04019F58091880380FD12C087E797E757
:1034A00090930108809300082BE088E190E00FB62C
:1034B000F894A895809360000FBE209360000DC023
:1034C00088E10FB6F89480936000109260000FBE00
:1034D000A895109201081092000881E0089580E0FC
:1034E0000895CF93DF930E94A51780EB94E00E948C
:1034F0003E1D0E942507C0E0D0E00E94890F209762
:10350000E1F30E940000F9CFCF92DF92EF92FF9299
:103510000F931F93CF93DF937C016B018A01C0E06F
:10352000D0E00FC0D6016D916D01D701ED91FC91F6
:103530000190F081E02DC7010995C80FD91F0150F6
:1035400010400115110571F7CE01DF91CF911F9148
:103550000F91FF90EF90DF90CF900895EF92FF9240
:103560000F931F938C01DC01ED91FC910190F08190
:10357000E02D6DE009957C01D801ED91FC91019061
:10358000F081E02DC8016AE009959C012E0D3F1DD8
:10359000C9011F910F91FF90EF900895CF93DF9392
:1035A000EC016115710519F420E030E00FC0DB017A
:1035B0000D900020E9F71197A61BB70BE881F98160
:1035C0000280F381E02DAD0109959C01C901DF91D5
:1035D000CF9108954F925F927F928F929F92AF9278
:1035E000BF92CF92DF92EF92FF920F931F93DF93E0
:1035F000CF93CDB7DEB7A1970FB6F894DEBF0FBE5D
:10360000CDBF2C01742ECB01223008F42AE019A280
:1036100031E2C32ED12CCC0EDD1E822E9924AA2499
:10362000BB24672D752FA50194010E948823790181
:103630008A01C801B701A50194010E945623472DB4
:10364000461B0894C108D1084A3014F4405D01C0FB
:10365000495CF6014083E114F1040105110521F0F4
:103660007E2C5F2DC801DDCFC201B6010E94CE1AAB
:10367000A1960FB6F894DEBF0FBECDBFCF91DF91FC
:103680001F910F91FF90EF90DF90CF90BF90AF9080
:103690009F908F907F905F904F900895DC0121154F
:1036A000310541F4ED91FC910190F081E02D642F02
:1036B000099508950E94EA1A0895EF92FF920F93D8
:1036C0001F939A017B0100E010E0B801A7010E945E
:1036D0004E1B1F910F91FF90EF900895CF92DF92B4
:1036E000EF92FF920F931F936C017B019A0100E010
:1036F00010E0B801A7010E944E1B8C01C6010E9478
:10370000AE1A080F191FC8011F910F91FF90EF907B
:10371000DF90CF900895EF92FF920F931F939A013D
:10372000E62EFF2400E010E0B801A7010E944E1B26
:103730001F910F91FF90EF900895CF92DF92EF923B
:10374000FF920F931F936C01E62E9A01FF2400E075
:1037500010E0B801A7010E944E1B8C01C6010E9417
:10376000AE1A080F191FC8011F910F91FF90EF901B
:10377000DF90CF900895CF92DF92EF92FF920F9358
:103780001F93CF93DF93EC016A017B012115310573
:1037900041F4E881F9810190F081E02D642F0995D1
:1037A0001FC02A303105D1F477FF17C0E881F981B5
:1037B0000190F081E02D6DE209958C014427552799
:1037C000BA014C195D096E097F09CE012AE00E94F9
:1037D000EA1A9801280F391F04C02AE00E94EA1A49
:1037E0009C01C901DF91CF911F910F91FF90EF9044
:1037F000DF90CF900895EF92FF920F931F937B017C
:103800009A010027F7FC0095102FB801A7010E942C
:10381000BB1B1F910F91FF90EF900895CF92DF9205
:10382000EF92FF920F931F936C017B019A01002787
:10383000F7FC0095102FB801A7010E94BB1B8C015B
:10384000C6010E94AE1A080F191FC8011F910F91DF
:10385000FF90EF90DF90CF9008950E94CE1A0895C8
:10386000EF92FF920F931F937C010E94CE1A8C015E
:10387000C7010E94AE1A080F191FC8011F910F91AE
:10388000FF90EF900895AF92BF92CF92DF92EF92A8
:10389000FF920F931F93CF93DF935C016B01EE2494
:1038A000FF24C0E0D0E010C0D501ED91FC91008173
:1038B0001181C601BE010E94D11F682FC501F80108
:1038C0000995E80EF91E2196F60184819581C817A5
:1038D000D90750F3C701DF91CF911F910F91FF904E
:1038E000EF90DF90CF90BF90AF900895EF92FF924E
:1038F0000F931F937C010E94431C8C01C7010E94FF
:10390000AE1A9C01200F311FC9011F910F91FF902A
:10391000EF900895282F8091AA048823C1F057FFC3
:103920001AC015C028989093A9048091F100819342
:10393000E217F307B9F74115510539F08091F2000C
:10394000882319F48BE68093E800AFBF02C04FEFE5
:103950005FEFCA010895AFB7F89427702093E9008C
:103960008091F200282F30E0241735070CF4A901CC
:10397000FB019B01240F311D94E6DACFDF93CF9337
:103980000F92CDB7DEB7BE016F5F7F4F41E050E0D1
:103990000E948A1C019719F02FEF3FEF03C0898125
:1039A000282F30E0C9010F90CF91DF910895FF9249
:1039B0000F931F93F82E142F052F4091AD045091B3
:1039C000AE04212F302FC901DC01FB016EEF29C0AD
:1039D000F7FE02C0949101C090812091AB04309118
:1039E000AC0424173507ACF48091E8008570E1F34E
:1039F0008091E80082FF03C02FEF3FEF17C0909344
:103A0000F100C90101968F739070892B11F46093B6
:103A1000E8002F5F3F4F3093AC042093AB04119725
:103A200031961097A9F6812F902F9C01C9011F9103
:103A30000F91FF9008959C018091E80082FFFCCFD8
:103A4000F901260F311D03C08091F1008193E21727
:103A5000F307D1F7289884E68093A9048BEF80932D
:103A6000E800CB0108958093E9008091F20088235B
:103A700019F08AE38093E800089508951092AA044B
:103A800081E08093D70080EA8093D80082E189BDED
:103A900009B400FEFDCF61E070E080E090E00E949C
:103AA000FB1780E98093D8008CE08093E2001092AD
:103AB000E000559A209A08955F926F927F928F92BC
:103AC0009F92AF92BF92CF92DF92EF92FF920F93AD
:103AD0001F93CF93DF93E82E842E752E8091AA0436
:103AE000882371F18B01242F352FC901EC017AEF66
:103AF000F72E67E0962E9E2050E4552E8E2D90E0F6
:103B000040E2A42EB12CA822B9223AE3632E20E48D
:103B1000C22ED12CC822D92258C09FB7F8949092B7
:103B2000E9008091E80085FD02C020E004C080919A
:103B3000F200252D281B9FBF222361F4FA9419F46B
:103B40002FEF3FEF4DC061E070E080E090E00E9419
:103B5000FB173BC0822F90E0C817D9070CF42C2F1D
:103B6000C21BD1094FB7F8949092E900A114B10497
:103B700021F406C01092F10021502223D9F719C078
:103B8000E7FC03C0F801922F10C0C801322F06C015
:103B9000FC010196E491E093F10031503323C1F729
:103BA00006C081918093F10091509923D1F7020FC3
:103BB000111D8091E80085FF05C0209729F4C114EC
:103BC000D10411F06092E8004FBF209709F0A5CF13
:103BD0005D9884E68093A804282D372DC9019C01A7
:103BE000C901DF91CF911F910F91FF90EF90DF906E
:103BF000CF90BF90AF909F908F907F906F905F908D
:103C000008951F920F920FB60F9211242F933F9396
:103C10004F935F936F937F938F939F93AF93BF93D4
:103C2000EF93FF938091E1001092E100982F83FFC2
:103C30000FC01092E90081E08093EB001092EC003D
:103C400082E38093ED001092AA0488E08093F00054
:103C500092FF34C083E08093E9008091F2008823D2
:103C600019F08AE38093E8008FB7F89492E090937C
:103C7000E9009091F2008FBF992321F08AE994E046
:103C80000E94E9198091A804882351F08091A8042A
:103C900081508093A8048091A804882309F45D9A38
:103CA0008091A904882351F08091A90481508093C8
:103CB000A9048091A904882309F4289AFF91EF911F
:103CC000BF91AF919F918F917F916F915F914F9134
:103CD0003F912F910F900FBE0F901F9018950F934B
:103CE0001F93DF93CF930F92CDB7DEB719828E016A
:103CF0000F5F1F4FC8010E940F1AC8010E9428229F
:103D0000898190E00F90CF91DF911F910F910895DD
:103D10001F920F920FB60F921124EF92FF921F93F2
:103D20002F933F934F935F936F937F938F939F93C3
:103D3000AF93BF93EF93FF93DF93CF93CDB7DEB7EE
:103D40006197DEBFCDBF1092E9008091E80083FF4C
:103D50000FC1FE0131969E01275F3F4F03C0809146
:103D6000F1008193E217F307D1F7289884E6809356
:103D7000A90482EF8093E800998197FF05C08091A4
:103D8000E80080FFFCCF03C08EEF8093E800292F6E
:103D900030E0C90180769070892B09F0C2C08A8119
:103DA000882329F41092F1001092F100D6C08130DE
:103DB00009F4D3C0833009F4D0C0853049F4809130
:103DC000E80080FFFCCF8B8180688093E300C5C052
:103DD000863009F07CC01C81EF80F8841230C1F578
:103DE0001092E9001092AC041092AB041092AE0451
:103DF0001092AD040E946F1E99E0FE013996DF011A
:103E0000292F1D922A95E9F799871A8791E09E87B5
:103E100090E8988B9AEF998B2091AB043091AC0489
:103E2000275F3F4F3C872B878D871092E9001092C8
:103E3000AC041092AB04F092AE04E092AD0480E0CA
:103E4000BF0149E050E00E94D71C0E946F1E85C050
:103E50001092E9001092AC041092AB04F092AE0400
:103E6000E092AD04123241F482E290E00E942022FE
:103E7000892B09F476C071C0113079F488E0E81616
:103E8000F10419F481E08093AF048091AF0488239A
:103E900009F06BC0ECEBF1E013C0133009F061C026
:103EA0008B81882319F4EEE7F1E00AC0823019F41F
:103EB000E2E8F1E005C0813009F053C0E4EAF1E046
:103EC000449180E8BF0150E00E94D71C46C0873073
:103ED00009F447C0883021F481E08093F1003DC0AF
:103EE0008930D9F523703070232BD9F5E1EEF1E05C
:103EF00091E031E026E39093E9003093EB00849168
:103F00008093EC002093ED009F5F3196953099F7F8
:103F10008EE78093EA001092EA008B818093AA04D6
:103F20001CC08F8198851092E9001092AC04109209
:103F3000AB049093AE048093AD048D81882329F463
:103F4000CE0101960E941B1A06C0823051F4CE01A8
:103F500001960E94F120882321F08EEF8093E800E3
:103F600007C081E28093EB0003C0EEECF1E0A8CF44
:103F70006196DEBFCDBFCF91DF91FF91EF91BF91F1
:103F8000AF919F918F917F916F915F914F913F91F1
:103F90002F911F91FF90EF900F900FBE0F901F90E9
:103FA0001895FC01848195816817790748F4019080
:103FB000F081E02D309721F0E60FF71F8081089502
:103FC00080E008950F931F93CF93DF93EC018B0153
:103FD0006F5F7F4F888199810E947516009711F459
:103FE00080E005C0998388831B830A8381E0DF9189
:103FF000CF911F910F910895CF93DF93EC018881AA
:104000009981892B29F08A819B818617970760F413
:10401000CE010E94E21F882341F08C819D81892B73
:1040200019F4E881F981108281E0DF91CF91089540
:10403000EF92FF920F931F93CF93DF93EC017B01DD
:104040006C817D81E114F104C1F04115510599F0B5
:104050008A01060F171FB8010E94FC1F882369F010
:10406000888199812C813D81820F931FB7010E9425
:10407000AA011D830C8381E001C080E0DF91CF9114
:104080001F910F91FF90EF900895CF93DF93EC0174
:1040900088819981009711F00E94DD15198218829C
:1040A0001D821C821B821A82DF91CF9108950F938B
:1040B0001F93182F092FFB01608171814481558165
:1040C0000E941820882321F4812F902F0E944520E0
:1040D000812F902F1F910F910895EF92FF920F93D0
:1040E0001F93CF93DF93EC017B018A01BA010E94F9
:1040F000FC1F882321F4CE010E94452007C01D83A8
:104100000C8388819981B7010E94AA01CE01DF91B9
:10411000CF911F910F91FF90EF900895CF93DF9370
:10412000EC01198218821B821A821D821C821E8257
:104130006115710551F0DB010D900020E9F7119731
:10414000A61BB70BAD010E946D20DF91CF910895A2
:10415000CF93DF93EC01198218821B821A821D8291
:104160001C821E826115710551F0DB010D9000204B
:10417000E9F71197A61BB70BAD010E946D20DF91E7
:10418000CF910895CF93DF93EC01FB01861797073A
:1041900061F0608171816115710529F0448155815B
:1041A0000E946D2002C00E944520CE01DF91CF9178
:1041B0000895FC01118210821382128215821482EA
:1041C00016820E94C2200895FC01808191810E9484
:1041D000DD150895FC01808191810E94DD1508950F
:1041E0000895FC0191818081813A31F4913089F008
:1041F00080E0933089F40DC0813269F49B3021F462
:1042000082818093890305C09A3029F4828180934A
:104210008A0381E0089580E00895EF92FF920F9362
:104220001F938C01E62EDC01ED91FC910480F58159
:10423000E02D0995F82ED801ED91FC910680F781CB
:10424000E02DC8016E2D09958F2D90E01F910F91E3
:10425000FF90EF9008951092B1041092B50410925F
:10426000B40481EA93E09093B3048093B204089578
:10427000EF92FF920F931F93DF93CF930F92CDB7DF
:10428000DEB789838B017A0184E0BE016F5F7F4FC7
:1042900041E050E00E945C1D84E4B801A7010E9447
:1042A0005C1D0F90CF91DF911F910F91FF90EF90C8
:1042B000089582E048E050E00E9438210895FC0112
:1042C00016821782108611861286138614823496FF
:1042D000BF010E9459210895DC01683810F0685828
:1042E00029C0E62FF0E067FF13C0E058F04081E0FE
:1042F00090E002C0880F991FEA95E2F78095149626
:104300002C911497282314962C93149760E012C0D4
:10431000ED59FD4F6491662319F420E030E01DC093
:1043200067FF08C014968C9114978D7F14968C9318
:1043300014976F77FD0190E0662321F08681861740
:1043400009F416829F5F31969630B1F7CD0114962D
:10435000BD010E94592121E030E0C9010895CF93A9
:10436000DF93DC01683810F0685825C0E62FF0E0D4
:1043700067FF12C0E058F04081E090E002C0880F73
:10438000991FEA95E2F714962C911497282B14960E
:104390002C93149760E00FC0ED59FD4F6491662394
:1043A000D9F167FF08C014968C9114978260149617
:1043B0008C9314976F7716968C9116978617A9F1A0
:1043C00017968C911797861781F118968C911897EC
:1043D000861759F119968C911997861731F11A960B
:1043E0008C911A97861709F11B968C911B9786174B
:1043F000E1F0ED01E0E0F0E09E2F8E81882321F4D2
:10440000EA0FFB1F668306C09F5F31962196E63058
:10441000F10591F7963049F481E090E013969C9372
:104420008E93129720E030E007C0CD011496BD01B5
:104430000E94592121E030E0C901DF91CF91089518
:1044400080E865EE71E045E650E00E94D71C0895D3
:10445000FC0180818F5F808380E86AE472E049E13B
:1044600050E00E94D71C089504D06894B111B5C0E3
:10447000089598D088F09F5790F0B92F9927B75199
:10448000A0F0D1F0660F771F881F991F1AF0BA9518
:10449000C9F712C0B13081F09FD0B1E008959CC03F
:1044A000672F782F8827B85F39F0B93FCCF386950E
:1044B00077956795B395D9F73EF49095809570956B
:1044C00061957F4F8F4F9F4F0895E89409C097FBE8
:1044D0003EF490958095709561957F4F8F4F9F4FDB
:1044E0009923A9F0F92F96E9BB279395F69587951F
:1044F00077956795B795F111F8CFFAF4BB0F11F4E2
:1045000060FF1BC06F5F7F4F8F4F9F4F16C0882388
:1045100011F096E911C0772321F09EE8872F762FBE
:1045200005C0662371F096E8862F70E060E02AF0FF
:104530009A95660F771F881FDAF7880F96958795EB
:1045400097F9089597F99F6780E870E060E0089513
:104550009FEF80EC089500240A941616170618069B
:104560000906089500240A94121613061406050677
:104570000895092E0394000C11F4882352F0BB0F08
:1045800040F4BF2B11F460FF04C06F5F7F4F8F4F6B
:104590009F4F089557FD9058440F551F59F05F3FA6
:1045A00071F04795880F97FB991F61F09F3F79F055
:1045B00087950895121613061406551FF2CF4695D7
:1045C000F1DF08C0161617061806991FF1CF869559
:1045D0007105610508940895E894BB27662777273D
:1045E000CB0197F908950BD0C4CFB5DF28F0BADF1F
:1045F00018F0952309F0A6CFABCF1124EECFCADF78
:10460000A0F3959FD1F3950F50E0551F629FF001E5
:10461000729FBB27F00DB11D639FAA27F00DB11D3E
:10462000AA1F649F6627B00DA11D661F829F2227C7
:10463000B00DA11D621F739FB00DA11D621F839F4E
:10464000A00D611D221F749F3327A00D611D231F24
:10465000849F600D211D822F762F6A2F11249F5772
:1046600050408AF0E1F088234AF0EE0FFF1FBB1F95
:10467000661F771F881F91505040A9F79E3F510534
:1046800070F060CFAACF5F3FECF3983EDCF38695E5
:1046900077956795B795F795E7959F5FC1F7FE2BDF
:1046A000880F911D9695879597F90895629FD0017F
:1046B000739FF001829FE00DF11D649FE00DF11DDD
:1046C000929FF00D839FF00D749FF00D659FF00D8C
:1046D0009927729FB00DE11DF91F639FB00DE11D79
:1046E000F91FBD01CF011124089597FB092E07265C
:1046F0000AD077FD04D02ED006D000201AF4709591
:1047000061957F4F0895F6F7909581959F4F089595
:10471000A1E21A2EAA1BBB1BFD010DC0AA1FBB1FC5
:10472000EE1FFF1FA217B307E407F50720F0A21B37
:10473000B30BE40BF50B661F771F881F991F1A94A4
:1047400069F760957095809590959B01AC01BD01CE
:10475000CF010895AA1BBB1B51E107C0AA1FBB1FB5
:10476000A617B70710F0A61BB70B881F991F5A95FD
:10477000A9F780959095BC01CD010895EE0FFF1F1C
:104780000590F491E02D09942F923F924F925F9201
:104790006F927F928F929F92AF92BF92CF92DF9251
:1047A000EF92FF920F931F93CF93DF93CDB7DEB7B6
:1047B000CA1BDB0B0FB6F894DEBF0FBECDBF09944A
:1047C0002A88398848885F846E847D848C849B84A1
:1047D000AA84B984C884DF80EE80FD800C811B81AF
:1047E000AA81B981CE0FD11D0FB6F894DEBF0FBEDE
:1047F000CDBFED01089512E0CCEED2E004C0FE0181
:104800000E94C0232296CE3ED107C9F7F894FFCF6D
:104810004275732031004275732032004275732057
:10482000330051554555453A20696E737566666982
:104830006369656E74206D656D6F727920746F2089
:10484000696E697469616C697A65207175657565F1
:104850002E0051554555453A206572726F7220649D
:10486000756520746F20756E646573697261626C22
:10487000652073697A6520666F722071756575654C
:104880002073697A652E0051554555453A20696E69
:1048900073756666696369656E74206D656D6F72A8
:1048A0007920746F20696E697469616C697A65201A
:1048B00074656D706F726172792071756575652EA2
:1048C0000053656E7420612030783744460053658C
:1048D0006E742061206D657373616765206F6E2053
:1048E0005458420020766961206275732000427539
:1048F000732066696C74657220666C6167207365ED
:104900007420746F20004C6F67204F75747075743D
:104910002073657420746F20002066696C74657262
:104920003A2000446562756767696E672063686155
:104930006E6E656C20002043414E4354524C3A2029
:1049400000205354415455533A2000204552524FB1
:10495000523A200020496E74453A2000204E657876
:104960007420417661696C61626C652054582062E4
:1049700075666665723A2000444542554720494EA7
:10498000464F3A3A2043414E427573205472697043
:104990006C65204D617A646120302E312E31007BB0
:1049A00022737461747573223A2200222C22636888
:1049B000616E6E656C223A2200222C226C656E6755
:1049C0007468223A2200222C226964223A220022B0
:1049D0002C2274696D657374616D70223A22002215
:1049E0002C227061796C6F6164223A5B2200222C68
:1049F0002200225D7D002020202020202020202059
:104A0000202000413A25642E256420453A25640083
:104A10004C454654202020202020202000424143A5
:104A20004B2052494748542020007B7175657565BD
:104A3000436F756E743A007D00414C4C20545820F1
:104A4000425546464552532046554C4C204F4E2029
:104A5000000044656661756C740012001300F40177
:104A600043414E427573547269706C65002020207A
:104A70002020202020202020200020202020202056
:104A800020202020202000A00F000007C004640088
:104A90000100E1000000000000010100000000BD75
:104AA00019841A5C1983196A19E519E919000000BB
:0C4AB000000D21841AAF216C215F210051
:00000001FF
