:100000000C94BE020C94E6020C94E6020C94E602F8
:100010000C94E6020C94E6020C94E6020C94E602C0
:100020000C94E6020C94E6020C9414250C949B2587
:100030000C94E6020C94E6020C94E6020C94E602A0
:100040000C94E6020C94E6020C94E6020C94E60290
:100050000C94E6020C94E6020C94E6020C94851EC5
:100060000C94E6020C94E6020C94E6020C94E60270
:100070000C94E6020C94E6020C94E6020C94E60260
:100080000C94E6020C94E6020C94E6020C94E60250
:100090000C94E6020C94E6020C94E6020C94E60240
:1000A0000C94E6020C94E6020C94E6022076696158
:1000B00020627573200053656E742061206D657336
:1000C00073616765206F6E20545842007D007B711C
:1000D00075657565436F756E743A00227D007B22ED
:1000E0006576656E74223A2273657474696E6773FF
:1000F000222C2022656570726F6D223A2200227DCB
:10010000007B226576656E74223A22766572736989
:100110006F6E222C20226E616D65223A2243414E81
:1001200042757320547269706C65204D617A646108
:10013000222C202276657273696F6E223A22302E4D
:10014000322E30222C20226D656D6F7279223A2278
:10015000007D007B226576656E74223A226C6F67A3
:1001600042757346696C746572222C20226D6F642F
:1001700065223A2000227D007B226576656E74221E
:100180003A22656570726F6D44617461222C202281
:10019000726573756C74223A226661696C7572655A
:1001A000222C20226368756E6B223A22007B226526
:1001B00076656E74223A22656570726F6D53617652
:1001C00065222C2022726573756C74223A22737535
:1001D0006363657373227D00227D007B22657665F3
:1001E0006E74223A22656570726F6D44617461228B
:1001F0002C2022726573756C74223A2273756363C6
:10020000657373222C20226368756E6B223A22007C
:100210007D002C202266696C746572223A20007B76
:10022000226576656E74223A226C6F674D6F646545
:10023000222C20226D6F6465223A2000227D00224C
:100240002C20226E65787454784275666665722239
:100250003A2200222C2022696E7465223A22002262
:100260002C20226572726F72223A2200222C2022E8
:10027000737461747573223A2200222C2022636108
:100280006E6374726C223A22007B226576656E740E
:10029000223A226368616E6E656C446562756722FE
:1002A0002C20226E616D65223A2200225D7D7D0048
:1002B000222C2200222C227061796C6F6164223A18
:1002C0005B2200222C2274696D657374616D70224B
:1002D0003A2200222C226964223A2200222C226C2B
:1002E000656E677468223A2200222C226368616E70
:1002F0006E656C223A22007B227061636B6574220A
:100300003A207B22737461747573223A22007B2237
:100310006576656E74223A22656570726F6D5265FE
:10032000736574222C2022726573756C74223A22D4
:1003300073756363657373227D0000000000240001
:1003400027002A002D0030000000000025002800B2
:100350002B002E00310000000000230026002900A1
:100360002C002F000404040404030405020202020A
:10037000040302020202060606060606040402023E
:100380000204040802011040804010204080408098
:10039000080204018040201002011080102040401B
:1003A0000000000200080E0000030401000B000022
:1003B0000000000000000000000000000000070630
:1003C00005040100080A0B0C0D09080B00020202CB
:1003D00001000904000001020200000524001001D0
:1003E0000524010101042402060524060001070575
:1003F000810310004009040100020A000000070503
:1004000002024000000705830240000004030904C3
:100410002203410072006400750069006E006F00E5
:1004200020004C0065006F006E00610072006400E7
:100430006F001803410072006400750069006E00CF
:100440006F0020004C004C0043001201000200002D
:100450000040412336800001010200011201000228
:10046000020000404123368000010102000100C16A
:100470008081C105010902A1010901A100850105D1
:1004800009190129031500250195037501810295BC
:1004900001750581030501093009310938158125E8
:1004A0007F750895038106C0C005010906A1018575
:1004B00002050719E029E715002501750195088156
:1004C00002950175088103950675081500256505D7
:1004D00007190029658100C009040200010300001A
:1004E0000009210101000122650007058403400085
:1004F0000100000000000000002A2B28000000007E
:1005000000000000000000000000000000000000EB
:10051000002C9EB4A0A1A2A434A6A7A5AE362D3768
:1005200038271E1F20212223242526B333B62EB7B9
:10053000B89F8485868788898A8B8C8D8E8F9091D1
:1005400092939495969798999A9B9C9D2F3130A35E
:10055000AD350405060708090A0B0C0D0E0F101126
:1005600012131415161718191A1B1C1DAFB1B0B5AC
:100570000000F808DC2050243E28F10811241FBE9A
:10058000CFEFDAE0DEBFCDBF13E0A0E0B1E0E6ECF4
:10059000F7E502C005900D92A23EB107D9F716E02B
:1005A000A2EEB3E001C01D92AE32B107E1F715E053
:1005B000CAE7D5E004C02297FE010E949B2BC237F8
:1005C000D107C9F70E94A7210C94D62B0C940000E8
:1005D000FB01DC0102C001900D9241505040D8F760
:1005E0000895FB01DC0101900D920020E1F70895D0
:1005F000A0E0B0E0EEEFF2E00C94A92B7C01EB015F
:100600008A01690109C0CE012196F6010995F70119
:1006100081937F010150104001151105A1F7CDB75D
:10062000DEB7E8E00C94C52BA0E0B0E0EAE1F3E02F
:100630000C94A92BEC017B018A01690109C0CE0150
:100640002196F70161917F01F60109950150104053
:1006500001151105A1F7CDB7DEB7E8E00C94C52B65
:10066000AEE0B0E0E6E3F3E00C94AD2B0D891E891B
:1006700086E08C831A8309838FEF9FE79E838D83A7
:100680009E01275E3F4FCE0101966F89788DA901AB
:100690000E9454032F813885020F131FF801108226
:1006A0002E96E4E00C94C92BABE0B0E0EAE5F3E071
:1006B0000C949F2B3C012B015A01FC0117821682DE
:1006C000838181FD03C06FEF7FEFC6C19AE0892E61
:1006D0001E010894211C311CF3012381F20123FD2A
:1006E000859123FF81912F01882309F4B2C18532BE
:1006F00039F423FD859123FF81912F01853229F45F
:1007000090E0B3010E944705E7CF982FFF24EE2425
:100710009924FFE1FF15D0F09B3269F09C3228F458
:10072000903259F0933291F40EC09D3249F09033DB
:1007300069F441E024C052E0F52A84E0F82A28C098
:1007400098E0F92A25C0E0E1FE2A22C0F7FC29C082
:10075000892F80538A3070F4F6FE05C0989C902C47
:100760001124980E15C0E89CE02C1124E80EF0E24C
:10077000FF2A0EC09E3229F4F6FC6BC140E4F42A35
:1007800007C09C3619F450E8F52A02C0983649F49F
:10079000F20123FD959123FF91912F01992309F0F7
:1007A000B8CF892F8554833018F08052833038F4C5
:1007B00044E050E0A40EB51E5FE359830FC09336AA
:1007C00031F0933779F0933509F056C020C0F50128
:1007D0008081898342E050E0A40EB51E610101E0F2
:1007E00010E012C0F501C080D180F6FC03C06FEFAD
:1007F0007FEF02C0692D70E042E050E0A40EB51E0C
:10080000C6010E943C058C015FE7F52214C0F5018A
:10081000C080D180F6FC03C06FEF7FEF02C0692D6E
:1008200070E042E050E0A40EB51EC6010E94310502
:100830008C0150E8F52AF3FE07C01AC080E290E070
:10084000B3010E944705EA948E2D90E0081719071E
:10085000A8F30EC0F601F7FC8591F7FE81916F01B8
:1008600090E0B3010E944705E110EA940150104066
:100870000115110579F7EAC0943611F0993669F53A
:10088000F7FE08C0F501208131814281538184E067
:1008900090E00AC0F501808191819C01442737FDD9
:1008A0004095542F82E090E0A80EB91E9FE6F922F1
:1008B00057FF09C050954095309521953F4F4F4FB8
:1008C0005F4FE0E8FE2ACA01B901A1012AE030E049
:1008D0000E947305D82ED21840C0953729F41F2DD9
:1008E0001F7E2AE030E01DC01F2D197F9F3661F06A
:1008F000903720F4983509F0ACC00FC0903739F02C
:10090000983709F0A6C004C028E030E00AC01061A2
:1009100014FD146020E130E004C014FD166020E1F5
:1009200032E017FF08C0F5016081718182819381F7
:1009300044E050E008C0F50180819181BC0180E075
:1009400090E042E050E0A40EB51EA1010E947305A4
:10095000D82ED2188FE7F82EF122F6FE0BC05EEFEC
:10096000F522D91438F4F4FE07C0F2FC05C08FEE6E
:10097000F82202C01D2D01C0192DF4FE0DC0FE018C
:10098000ED0DF11D8081803319F499EEF92208C034
:100990001F5FF2FE05C003C08F2D867809F01F5F30
:1009A0000F2DF3FC14C0F0FE0FC01E1510F09D2C8F
:1009B0000BC09D2C9E0C911A1E2D06C080E290E06B
:1009C000B3010E9447051F5F1E15C0F304C01E152A
:1009D00010F4E11A01C0EE2404FF0FC080E390E0A0
:1009E000B3010E94470502FF1DC001FD03C088E757
:1009F00090E00EC088E590E00BC0802F867891F0E3
:100A000001FF02C08BE201C080E2F7FC8DE290E0C2
:100A1000B3010E94470506C080E390E0B3010E9445
:100A200047059A94D914C0F3DA94F101ED0DF11D44
:100A3000808190E0B3010E944705DD20A9F706C040
:100A400080E290E0B3010E944705EA94EE20C1F7EE
:100A500043CEF30166817781CB012B96E2E10C94C2
:100A6000BB2BFC010590615070400110D8F78095B8
:100A700090958E0F9F1F0895FC016150704001906A
:100A80000110D8F7809590958E0F9F1F08950F93B2
:100A90001F93CF93DF938C01EB018B8181FF1BC0F0
:100AA00082FF0DC02E813F818C819D8128173907DF
:100AB00064F4E881F9810193F983E88306C0E8854D
:100AC000F985802F0995892B31F48E819F810196BC
:100AD0009F838E8302C00FEF1FEFC801DF91CF917C
:100AE0001F910F910895FA01AA27283051F1203162
:100AF00081F1E8946F936E7F6E5F7F4F8F4F9F4FB2
:100B0000AF4FB1E03ED0B4E03CD0670F781F891FF3
:100B10009A1FA11D680F791F8A1F911DA11D6A0FC1
:100B2000711D811D911DA11D20D009F468943F9174
:100B30002AE0269F11243019305D3193DEF6CF0173
:100B40000895462F4770405D4193B3E00FD0C9F739
:100B5000F6CF462F4F70405D4A3318F0495D31FDA6
:100B60004052419302D0A9F7EACFB4E0A6959795F9
:100B7000879577956795BA95C9F7009761057105CF
:100B800008959B01AC010A2E069457954795379519
:100B90002795BA95C9F7620F731F841F951FA01D73
:100BA00008959C01F999FECF32BD21BDF89A80B518
:100BB00008959C01F999FECF1FBA32BD21BD60BDD9
:100BC0000FB6F894FA9AF99A0FBE0895AC01FB019A
:100BD000858596858230910541F08330910539F005
:100BE000019759F483E090E004C0178606C081E0C5
:100BF00090E09687858781E08787DA0180E1019020
:100C00000D928150E1F7CA0108952F923F924F92C1
:100C10005F926F927F928F929F92AF92BF92CF928C
:100C2000DF92EF92FF920F931F93DF93CF93CDB795
:100C3000DEB760970FB6F894DEBF0FBECDBF8B87CF
:100C40009C877A8769872091790230917A02388768
:100C50002F83D9019C9182E2989F60011124ECEED0
:100C6000F3E0CE0EDF1E1A821982292F30E03E8774
:100C70002D87B0C0D60112962C911297222329F409
:100C800013968C91882309F49CC0F601838190E02F
:100C90000896722E6624860D971DA985BA85119631
:100CA0002D913C9112972817390709F08AC0DA0173
:100CB00095E0AA0FBB1F9A95E1F7440F551FA40FAB
:100CC000B51FAA50BC4F20E030E012C0E985FA857C
:100CD000E80FF11D908111968C911197981709F0EA
:100CE00070C02E5F3F4F12962630310509F48FC039
:100CF0008C91882359F78BC08481362E2224B10130
:100D0000680F711DD6015296BC91BE83F601F3891E
:100D1000FD83D60154965C905497442455968C914B
:100D20005597F201E80FF11DF88BEF875696FC916D
:100D30005697FC8357962C912B834F855889452BCA
:100D400021F481E090E0988B8F8780E090E00E9412
:100D5000402A7B018C01AF85B889BD0180E090E01D
:100D60000E94402A9B01AC01C801B7010E94AC2936
:100D70007B018C019E808824B401BD816B0F711DA5
:100D800080E090E00E94402A9B01AC01C801B701BD
:100D90000E94CE2A7B018C01BC80AA24B501EB8184
:100DA0006E0F711D80E090E00E94402A9B01AC0113
:100DB000C801B7010E9448290E94142AD6016D93E8
:100DC0007C93E981FA813196FA83E98322E230E06B
:100DD000C20ED31E49815A818D859E85480F591FA9
:100DE000AF81B8858C9190E00196841795070CF03F
:100DF00041CF8B859C859C01D90129853A8580E16D
:100E0000F90101909F010D928150D1F714C0D601D4
:100E100050968C9150978695869586958250E98557
:100E2000FA85E80FF11D638151968C91803109F4A8
:100E300063CF70E067CF8B859C8560960FB6F89482
:100E4000DEBF0FBECDBFCF91DF911F910F91FF90FD
:100E5000EF90DF90CF90BF90AF909F908F907F905A
:100E60006F905F904F903F902F900895EF92FF9278
:100E70000F931F937C010E94CD1E0027F7FC009565
:100E8000102FE60EF71E081F191FE0922B05F09297
:100E90002C0500932D0510932E051F910F91FF90A7
:100EA000EF900895EF92FF920F931F937C010E94A1
:100EB000CD1E0027F7FC0095102FE60EF71E081F29
:100EC000191FE0927502F092760200937702109358
:100ED00078021F910F91FF90EF900895EF92FF928B
:100EE0000F931F93E0907502F090760200917702C5
:100EF000109178020E94CD1E6E157F058007910724
:100F000018F42BE532E014C0E0902B05F0902C058E
:100F100000912D0510912E050E94CD1E6E157F05A6
:100F20008007910718F02EE432E002C028E632E094
:100F3000C9011F910F91FF90EF900895FC018081EE
:100F40009181009711F00E9443238DE061E00E949F
:100F5000D11F8DE061E00E945E206AEF70E080E0CA
:100F600090E00E94311F8DE060E00E945E206AEFF9
:100F700070E080E090E00E94311FEBCFEF92FF9293
:100F80000F931F937C018B01FB0180819181F701FD
:100F900091838083FB0182819381F7019383828314
:100FA0006C5F7F4FC70104960E94EC27F801838590
:100FB0009485F701948783871F910F91FF90EF909D
:100FC0000895EF92FF920F931F93DF93CF93CDB7C6
:100FD000DEB765970FB6F894DEBF0FBECDBF813088
:100FE000910509F0A8C06F5F7F4F09F0EDC08091B7
:100FF000E203809324050E94CD1E60933105709317
:10100000320580933305909334057E010894E11CEA
:10101000F11CC70160E071E00E94A12785E395E023
:1010200060E070E044E050E021E030E087010E94A1
:101030003B1CC7010E94F72738E0E32EF12CEC0E91
:10104000FD1EC70166E071E00E94A12782E495E0E1
:1010500061E070E04CE050E022E030E087010E9467
:101060003B1CC7010E94F7272FE0E22EF12CEC0E6B
:10107000FD1EC7016CE071E00E94A1278FE495E09E
:1010800065E070E04BE050E023E030E087010E9433
:101090003B1CC7010E94F727109262051092610560
:1010A0001092640510926305109266051092650512
:1010B000109268051092670510925E0510925D050A
:1010C00080E290E00E948C1C9093600580935F0505
:1010D000009731F48DE595E062E171E00E949E0792
:1010E00082E090E0909362058093610589E695E047
:1010F00065E375E00E94BE0786E795E062E475E06F
:101100000E94BE0783E895E06FE475E00E94BE0789
:1011100080E995E065E375E00E94BE078DE995E002
:1011200062E475E00E94BE078AEA95E06FE475E02C
:101130000E94BE0749C0892B09F046C06F5F7F4FF0
:1011400009F042C08EEA95E00E94F72781EA95E017
:101150000E94F72784E995E00E94F72787E895E049
:101160000E94F7278AE795E00E94F7278DE695E031
:101170000E94F72780915F05909160050E94131DE2
:101180001092600510925F0510925E0510925D0549
:101190001092620510926105109264051092630529
:1011A0001092660510926505109268051092670509
:1011B00083E595E00E94F72786E495E00E94F727F3
:1011C00089E395E00E94F72765960FB6F894DEBF95
:1011D0000FBECDBFCF91DF911F910F91FF90EF9088
:1011E000089580E090E06FEF7FEF0E94E10708959F
:1011F00081E090E06FEF7FEF0E94E10708958F920A
:101200009F92AF92BF92CF92DF92EF92FF920F9395
:101210001F93CF93DF93EC015B011616170624F0A2
:1012200062E471E00E949E07C50154E0880F991F97
:101230005A95E1F70E948C1CF82EE92E082F192FE1
:101240000115110529F4CE0167E771E00E949E07A0
:101250008E809F808F2D9E2D9C01790120E030E0B3
:101260001CC0888599856C817D81820F931F0E94A7
:10127000642BFC0144E0EE0FFF1F4A95E1F7D70114
:10128000EC0DFD1D80E101900D928150E1F72F5F83
:101290003F4F80E190E0E80EF91ECA80DB80281500
:1012A0003905FCF2C6010E94131D1B830A831986AF
:1012B00018868E819F819B878A87BD82AC82DF9151
:1012C000CF911F910F91FF90EF90DF90CF90BF9043
:1012D000AF909F908F9008950F931F93CF93DF93BC
:1012E000EC01162F072F6E817F818C819D816817FD
:1012F000790729F4660F771FCE010E94FF084A85FF
:101300005B85CA0164E0880F991F6A95E1F7EA815D
:10131000FB81E80FF91F212F302FC901DC0180E18B
:101320000D9001928150E1F79A012F5F3F4F3B876B
:101330002A878C819D812817390711F41B861A860C
:101340008E819F8101969F838E83DF91CF911F9124
:101350000F9108952F923F924F925F926F927F92DA
:101360008F929F92AF92BF92CF92DF92EF92FF92B5
:101370000F931F93DF93CF93CDB7DEB7A0970FB630
:10138000F894DEBF0FBECDBFE0917902F0917A02F2
:101390002081A22EBB248501000F111F950145E07D
:1013A000220F331F4A95E1F7020F131F080F191F71
:1013B000CC24DD243E010894611C711CB5E04B2E49
:1013C000512C4C0E5D1EA8E02A2E33243394F1E1FB
:1013D0008F2E912C8C0E9D1E3FC0F8018681882394
:1013E000B1F18081882399F1C3010E946D1CF8013D
:1013F00080818E871F86F480EE2485819701280FD7
:10140000311D3B832A83D20180E090E006C0019623
:101410002D9331968630910519F026812223B9F754
:101420008C832982388A80912F0590913005D401D0
:10143000F30120E101900D922150E1F7B4010E94E7
:101440006C09C4010E94781CC3010E94781C089496
:10145000C11CD11C0E5D1F4FE0917902F0917A0200
:10146000808190E0019696012A0D3B1D821793071B
:101470000CF0B3CFA0960FB6F894DEBF0FBECDBF71
:10148000CF91DF911F910F91FF90EF90DF90CF9060
:10149000BF90AF909F908F907F906F905F904F9094
:1014A0003F902F9008950E94CD1E209131053091DC
:1014B00032054091330550913405225E3F4F4F4F26
:1014C0005F4F261737074807590770F40E94CD1E53
:1014D0006093310570933205809333059093340502
:1014E0008AEE93E00E94AA090895EF92FF920F936B
:1014F0001F93DF93CF93CDB7DEB7C056D0400FB662
:10150000F894DEBF0FBECDBF0E946E077C018E0136
:101510000F5F1F4FC8010E946D1C83E090E09F8702
:101520008E8780E992E09B838A8380EC8C83F7012D
:1015300080818D8381818E8382818F83838188875F
:101540008481898785818A8786818B8788E08983E2
:1015500081E0888B8091290590912A05DE015196C2
:10156000F80120E101900D922150E1F78E010F5E0C
:101570001F4FB8010E946C09C8010E94781C8E019F
:101580000F5D1F4FC8010E946D1C83E090E09FA774
:101590008EA781E992E09BA38AA387E88CA3F70139
:1015A00087818DA380858EA381858FA3828588A75F
:1015B000838589A788E089A381E088AB809129058C
:1015C00090912A05DE01D196F80120E101900D925B
:1015D0002150E1F78E010F5C1F4FB8010E946C098A
:1015E000C8010E94781C8E010F5B1F4FC8010E942A
:1015F0006D1C81E090E0FE01E25BFF4F91838083F0
:101600008FE892E0FE01EE5BFF4F9183808380ECD8
:10161000FE01EC5BFF4F8083FE01EB5BFF4F10820E
:10162000FE01EA5BFF4F1082FE01E95BFF4F108273
:1016300091E0FE01E85BFF4F908387E2FE01E75BEC
:10164000FF4F808380E1FE01E65BFF4F808380E4F3
:10165000FE01E55BFF4F808388E0F8018083FE0197
:10166000E05BFF4F90838091290590912A05DE0170
:10167000AF5ABF4FF80120E101900D922150E1F7E0
:101680008E010F5A1F4FB8010E946C09C8010E94B9
:10169000781CCE018F5B9F4F0E94781CCE018196F3
:1016A0000E94781CCE0101960E94781CC05ADF4F20
:1016B0000FB6F894DEBF0FBECDBFCF91DF911F9163
:1016C0000F91FF90EF900895EF92FF920F931F9369
:1016D000809124058823B1F1E0904C02F0904D02F6
:1016E0000027F7FC0095102F809125059091260585
:1016F000A0912705B0912805E80EF91E0A1F1B1FAF
:101700000E94CD1EE616F70608071907D8F4E090E8
:101710007502F090760200917702109178020E9493
:10172000CD1EE616F7060807190760F40E94750A31
:101730000E94CD1E60932505709326058093270592
:10174000909328051F910F91FF90EF900895EF92CD
:10175000FF920F931F93CF93DF93EC018B018F8543
:10176000882309F45AC087E061E00E945E20C80126
:101770000E94CD197C0181E0E816F104A9F082E015
:10178000E816F104E9F0E114F10411F080E046C03C
:1017900049815A81C801688123969E010E94F018F0
:1017A000C8010E94E21A17C049815A81C8016881A4
:1017B00023969E010E949918C8010E94CE1A0BC060
:1017C00049815A81C801688123969E010E9442186E
:1017D000C8010E94BA1A8091B8058823D1F088E028
:1017E00096E066EB70E00E94E42188E096E0B701A5
:1017F0004AE050E00E942D2388E096E06CEA70E019
:101800000E94E4210C5F1F4F88E096E0B8010E941F
:10181000892387E060E00E945E2081E0DF91CF9124
:101820001F910F91FF90EF9008958AEB95E062E091
:1018300070E04091E4030E94801C0895E0917902D9
:10184000F0917A028081882311F487E001C08150F1
:1018500080830E94150CE0917902F0917A028081D8
:101860000895E0917902F0917A022081822F90E030
:10187000079714F0108202C02F5F20830E94150C7E
:10188000E0917902F0917A0280810895CF93DF93FD
:10189000C0E0D0E08AEB95E0BE0140E00E94801CF1
:1018A000219682E0C030D807A9F7DF91CF91089543
:1018B0000F931F938B0100D000D028E632E0EDB7E4
:1018C000FEB732832183948383830E9430030F9079
:1018D0000F900F900F90C8010E9436071F910F9133
:1018E000089540E080912405882309F441E0409365
:1018F00024054093E2038AEB95E060E070E00E94EB
:10190000801C80912405882331F081EB91E060ED0B
:1019100077E00E94580C0895EF92FF920F931F9367
:10192000DF93CF93CDB7DEB72D970FB6F894DEBF18
:101930000FBECDBFDE011196E3EDF1E08DE0019029
:101940000D928150E1F72091E40330E0A9014F5F4F
:101950005F4F8DB79EB744970FB6F8949EBF0FBEEA
:101960008DBF6DB77EB76F5F7F4F8E010F5F1F4FCB
:10197000EDB7FEB7128301838EEB91E0FB019383F9
:101980008283DA01AA0FBB1FCA01689414F8880F7A
:10199000991F1694E1F7A80FB91FAE51BC4F8C9157
:1019A000992787FD9095958384837901F5E0EE0C66
:1019B000FF1CFA95E1F7220F331FE20EF31E82EEB1
:1019C00093E0E80EF91EF70183A1992787FD909512
:1019D000FB0197838683F70184A1992787FD909562
:1019E000FB0191878087F70185A1992787FD909555
:1019F000FB01938782874F5F5F4FFA0195E0EE0FFF
:101A0000FF1F9A95E1F7440F551FE40FF51FEE51A4
:101A1000FC4F8081992787FD9095FB0195878487EE
:101A200093968C919397992787FD909597878687B2
:101A300094968C919497992787FD9095918B808BA4
:101A400095968C91992787FD9095938B828B0E9418
:101A500030038DB79EB744960FB6F8949EBF0FBE65
:101A60008DBFC80160ED77E00E94580C2D960FB62F
:101A7000F894DEBF0FBECDBFCF91DF911F910F91C4
:101A8000FF90EF9008959F92AF92BF92CF92DF9216
:101A9000EF92FF920F931F93CF93DF93A82E992E6F
:101AA0006B0180912405882351F48A2D9C01D90172
:101AB000FB0180E101900D928150E1F76CC2DB01E6
:101AC00011968D919C9112978F589240D9F4E09085
:101AD0007502F090760200917702109178020E94D0
:101AE000CD1EE616F7060807190760F480ECF6012C
:101AF000838314821582168287E2808780E1818742
:101B000081E08787D60111968D919C91129780591B
:101B1000924009F08BC0F6014481242F30E080917F
:101B20005B02992787FD909528173907E1F52581F4
:101B300030E080915C02992787FD9095281739073E
:101B400091F5268130E080915D02992787FD90957F
:101B50002817390741F5278130E080915E029927E7
:101B600087FD909528173907F1F4208530E08091A2
:101B70005F02992787FD909528173907A1F42185E1
:101B800030E080916002992787FD909528173907EA
:101B900051F4228530E080916102992787FD90956C
:101BA0002817390701F140935B02D60115968C91F5
:101BB000159780935C0216968C91169780935D0220
:101BC00017968C91179780935E0218968C911897B0
:101BD00080935F0219968C911997809360021A96F0
:101BE0008C91809361020E946E07FC018081D60176
:101BF00014968C931497818115968C9315978281F6
:101C000016968C931697838117968C9317978481D9
:101C100018968C931897858119968C9319978681BD
:101C20001A968C931A9781E01F968C93F601818106
:101C300092818159924009F06BC0D60114964C9163
:101C40001497242F30E080916202992787FD9095A8
:101C50002817390779F515962C91159730E0809162
:101C60006302992787FD90952817390719F516966D
:101C70002C91169730E080916402992787FD90950A
:101C800028173907B9F417962C91179730E08091EF
:101C90006502992787FD90952817390759F41896FA
:101CA0002C9130E080916602992787FD9095281746
:101CB000390799F040936202F601858180936302AF
:101CC00086818093640287818093650280858093FA
:101CD00066028CED95E00E9452070E946E07FC019F
:101CE0008781D60114968C931497808515968C93D2
:101CF0001597818516968C931697828517968C93E7
:101D00001797838518968C93189781E01F968C936C
:101D10002091E403822F90E0079714F0BB2402C0C7
:101D2000B22EB3946EE4E62E62E0F62EC70163EDA8
:101D300071E00E94F1028091E40390E0EC01CC0F8D
:101D4000DD1F9C0145E0220F331F4A95E1F7C20FCA
:101D5000D31FCE51DC4F2985AC014F5F5F4F20FF71
:101D600040C00A851B85EDB7FEB73A970FB6F894C9
:101D7000FEBF0FBEEDBF2DB73EB72F5F3F4FF282C4
:101D8000E18280EE91E0D90113969C938E93129795
:101D9000FA0195E0EE0FFF1F9A95E1F7440F551FEA
:101DA000E40FF51FEE51FC4F8081992787FD909538
:101DB00015969C938E931497C8016AE070E00E9478
:101DC000502BF90177836683C8016AE070E00E94B6
:101DD000502B918780870E9430038DB79EB70A965B
:101DE00032C0ADB7BEB718970FB6F894BEBF0FBEDE
:101DF000ADBF1196EDB7FEB7F282E18289EE91E0B8
:101E000013969C938E931297FA0105E0EE0FFF1F35
:101E10000A95E1F7440F551FE40FF51FEE51FC4FF3
:101E20008081992787FD909515969C938E931497A2
:101E30008A859B8517969C938E9316970E943003F4
:101E40008DB79EB708960FB6F8949EBF0FBE8DBF94
:101E50008B2D90E0EC01CC0FDD1F9C01E5E0220F03
:101E6000331FEA95E1F7C20FD31FCE51DC4F29850E
:101E700064E572E0AC014F5F5F4F20FF41C00A850F
:101E80001B85ADB7BEB71A970FB6F894BEBF0FBE8D
:101E9000ADBF2DB73EB72F5F3F4F12967C936E9329
:101EA000119780EE91E0F90193838283FA0175E046
:101EB000EE0FFF1F7A95E1F7440F551FE40FF51F52
:101EC000EE51FC4F8081992787FD9095D901159699
:101ED0009C938E931497C8016AE070E00E94502B87
:101EE000F90177836683C8016AE070E00E94502B95
:101EF000918780870E9430038DB79EB70A9632C0C3
:101F0000ADB7BEB718970FB6F894BEBF0FBEADBF42
:101F10001196EDB7FEB77283618389EE91E0139657
:101F20009C938E931297FA0125E0EE0FFF1F2A95DE
:101F3000E1F7440F551FE40FF51FEE51FC4F808170
:101F4000992787FD909515969C938E9314978A8573
:101F50009B8517969C938E9316970E9430038DB79E
:101F60009EB708960FB6F8949EBF0FBE8DBFD601E0
:101F700011968D919C9112978150924011F4F60127
:101F800017868A2D992D9C01D901F60180E10190D7
:101F90000D928150E1F78A2D992DDF91CF911F91FC
:101FA0000F91FF90EF90DF90CF90BF90AF909F90F8
:101FB0000895CF93DF9388E096E06EED70E00E9485
:101FC000E421C0E0D0E08AEB95E0BE010E94791CDC
:101FD000682F88E096E040E150E00E94DB2281E03B
:101FE000CF3FD80731F088E096E06FEE71E00E94B5
:101FF0004023219682E0C030D80729F788E096E098
:102000006BED70E00E942722DF91CF91089504C00C
:1020100088E096E00E94B92088E096E00E94922035
:10202000892BB1F70895EF92FF920F931F93CF93EF
:10203000DF937C018B01C0E0D0E088E096E00E9455
:102040009220892B69F0C017D10750F488E096E000
:102050000E94B920F701EC0FFD1F80832196EDCF80
:10206000CE01DF91CF911F910F91FF90EF900895D6
:102070000F931F93DF93CF930F92CDB7DEB7CE01AF
:10208000019661E070E00E941310898180934B02F9
:1020900008E016E0C80163E571E00E94E421C80190
:1020A00060914B0240E150E00E94DB22C80161E5F3
:1020B00071E00E9427220F90CF91DF911F910F9125
:1020C00008950F931F93DF93CF93CDB7DEB7AC97EF
:1020D0000FB6F894DEBF0FBECDBFCE0101966CE007
:1020E00070E00E9413108E01035F1F4FC8010E9411
:1020F0006D1C89818A8F1B8E9A8180E02B81820FD3
:10210000911D9F878E878C81888B8D81898B8E8195
:102110008A8B8F818B8B88858C8B89858D8B8A852B
:102120008E8B8B858F8B8C858D8781E08C8F8091BA
:10213000220590912305DE015D96F80120E10190D2
:102140000D922150E1F78E01035E1F4FB8010E94EE
:102150006C09C8010E94781CCE010D960E94781C63
:10216000AC960FB6F894DEBF0FBECDBFCF91DF9116
:102170001F910F9108950F931F93DF93CF9300D07A
:102180000F92CDB7DEB7CE01019663E070E00E94FA
:102190001310898180931F059A8180E02B81820F23
:1021A000911D909321058093200508E016E0C80159
:1021B0006FE172E00E94E421C80160911F054AE0CE
:1021C00050E00E94DB22C80162E172E00E94E4213B
:1021D0006091200570912105C80140E150E00E9406
:1021E000CA22C80160E172E00E9427220F900F907E
:1021F0000F90CF91DF911F910F910895EF92FF9271
:102200000F931F937C0108E016E0C80169E872E0B3
:102210000E94E421B7016C5F7F4FC8010E945623E2
:10222000C8016AE772E00E94E421C7010E944719D1
:10223000682FC80142E050E00E94DB22C8016CE632
:1022400072E00E94E421C7010E94B019682FC80102
:1022500042E050E00E94DB22C8016FE572E00E947C
:10226000E421C7016DE270E00E948D19682FC8015A
:1022700042E050E00E94DB22C80163E572E00E9468
:10228000E421C7010E946A19682FC80142E050E0AA
:102290000E94DB22C8016FE372E00E94E421C701C3
:1022A0000E94CD19BC01C8014AE050E00E942D23D4
:1022B000C8016CE372E00E9427221F910F91FF90EA
:1022C000EF9008950F931F93DF93CF93CDB7DEB7B1
:1022D000A9970FB6F894DEBF0FBECDBF88E096E099
:1022E00061E071E00E94E42180917B0290917C0288
:1022F000009711F48EE296E0BE016F5F7F4F681B7E
:10230000790B88E096E04AE050E00E942D2388E0B7
:1023100096E06EEF70E00E9427228E010D5F1F4F46
:10232000C80160E975E00E94BE07C8010E94FE1066
:10233000CE0107960E94F7278E01005F1F4FC8014C
:102340006DE975E00E94BE07C8010E94FE10CE0133
:1023500044960E94F7278E01035E1F4FC8016AEA68
:1023600075E00E94BE07C8010E94FE10CE01819652
:102370000E94F727A9960FB6F894DEBF0FBECDBF17
:10238000CF91DF911F910F9108950F931F93CF93DA
:10239000DF93EC0180911F05823059F429813A8145
:1023A00080912005909121052817390709F0A6C0D2
:1023B00018C0833051F429813A8180912005909191
:1023C00021052817390768F499C0843051F4298110
:1023D0003A8180912005909121058217930708F496
:1023E0008DC08D859E85019721E030E002C0220FCF
:1023F000331F8A95E2F730E080914B0290E028236A
:102400003923232B09F47AC088E096E067EF72E065
:102410000E94E4216B857C8588E096E040E150E0F5
:102420000E94CA2288E096E069EE72E00E94E421F0
:102430002D853E858DE090E0289FB001299F700D8D
:10244000389F700D112469577A4F88E096E00E94FA
:10245000562388E096E06CED72E00E94E42188E06B
:1024600096E0688140E150E00E94DB2288E096E03F
:1024700063ED72E00E94E42169817A8188E096E050
:1024800040E150E00E94CA2288E096E063EC72E0EE
:102490000E94E4210E94CD1EAB01BC0188E096E0C1
:1024A0002AE030E00E94BB2288E096E064EB72E014
:1024B0000E94E4218E01C0E0D0E088E096E0F801BF
:1024C000638140E150E00E94DB22C730D10531F04A
:1024D00088E096E060EB72E00E94E42121960F5FB5
:1024E0001F4FC830D10549F788E096E06BEA72E0EB
:1024F0000E94E42188E096E00E940722DF91CF91BC
:102500001F910F910895CF92DF92EF92FF920F9358
:102510001F93DF93CF93CDB7DEB760970FB6F894D4
:10252000DEBF0FBECDBFD82EC92EF62EE72E80916E
:102530001F058823A1F0DE011196862F972F9C019D
:10254000F90180E101900D928150E1F78E010F5F5A
:102550001F4FC8010E94C511C8010E94781C2D2D73
:102560003C2DC901DC012F2D3E2DC901FC0180E16C
:1025700001900D928150E1F78D2D9C2D60960FB644
:10258000F894DEBF0FBECDBFCF91DF911F910F91A9
:10259000FF90EF90DF90CF900895EF92FF920F930E
:1025A0001F93DF93CF93CDB7DEB7C059D0400FB69E
:1025B000F894DEBF0FBECDBF7C01DE011196FC0199
:1025C00080E101900D928150E1F78E010F5E1F4F67
:1025D000C801BE016F5F7F4F0E948312D701F801CF
:1025E00080E101900D928150E1F7CE0141960E9469
:1025F000781CCE0101960E94781CDE019196F701AD
:1026000080E101900D928150E1F78E010F5C1F4F28
:10261000C801BE016F5D7F4F0E940506D701F8011A
:1026200080E101900D928150E1F7CE01C1960E94A8
:10263000781CCE0181960E94781CDE01AF5BBF4FF3
:10264000F70180E101900D928150E1F78E010F5A60
:102650001F4FC801BE016F5B7F4F0E94430DD70122
:10266000F80180E101900D928150E1F7CE018F5A7F
:102670009F4F0E94781CCE018F5B9F4F0E94781C59
:10268000DE01AF59BF4FF70180E101900D928150FB
:10269000E1F78E010F581F4FC801BE016F597F4FE0
:1026A0000E94E605D701F80180E101900D9281506A
:1026B000E1F7CE018F589F4F0E94781CCE018F59B1
:1026C0009F4F0E94781CF7018785882399F0DE01CF
:1026D000AF57BF4F80E101900D928150E1F78E011D
:1026E0000F571F4F8DE595E0B8010E946C09C80196
:1026F0000E94781CC057DF4F0FB6F894DEBF0FBEA4
:10270000CDBFCF91DF911F910F91FF90EF90089572
:10271000EF92FF920F931F93DF93CF93CDB7DEB766
:10272000E0970FB6F894DEBF0FBECDBF7C010E94CC
:10273000B01980935C0580FF2EC08E010F5E1F4F85
:10274000C8010E946D1C80915C058C8F1D8EF70165
:10275000838594859F8F8E8FC701B801AE014C5E33
:102760005F4F9E012E5E3F4F0E944C1ADE01119674
:10277000F80180E101900D928150E1F78E010F5F29
:102780001F4FC8010E94CD12C8010E94781CCE01C3
:1027900041960E94781C80915C0581FF2EC08E01BD
:1027A0000F5E1F4FC8010E946D1C80915C058C8FCD
:1027B0001D8EF701838594859F8F8E8FC701B80189
:1027C000AE014C5E5F4F9E012E5E3F4F0E94E219AC
:1027D000DE019196F80180E101900D928150E1F7C0
:1027E0008E010F5D1F4FC8010E94CD12C8010E94CB
:1027F000781CCE0141960E94781CE0960FB6F894A2
:10280000DEBF0FBECDBFCF91DF911F910F91FF9023
:10281000EF9008951F93809146020E94991F2AE02D
:1028200030E06AE070E00E94642B70E080914A0220
:10283000482F50E0241B350B261737073CF4CA01FC
:102840000A966817790714F410E201C010E087E1D6
:1028500090E0841B950B8617970734F4CA014796BE
:10286000681779070CF4105F86E290E0841B950BE3
:102870008617970734F4CA018696681779070CF40F
:10288000105887E390E0841B950B8617970734F464
:10289000CA01C796681779070CF4105C88E490E0C9
:1028A000841B950B8617970734F4485B5F4F6417BA
:1028B00075070CF4185F809148020E94991F2AE066
:1028C00030E06AE070E00E94642B70E080914A0280
:1028D000482F50E0241B350B2617370734F4CA0164
:1028E0000A96681779070CF41C5F87E190E0841B57
:1028F000950B8617970734F4CA014796681779072E
:102900000CF41E5F87E290E0841B950B86179707F7
:1029100034F4495D5F4F641775070CF41F5F8091B5
:10292000B905181761F00E94CD1E60931A057093C7
:102930001B0580931C0590931D051093B9050E94FB
:10294000CD1E20911A0530911B0540911C05509118
:102950001D05621B730B840B950B66357105810594
:10296000910540F09091B90580911E05891711F0ED
:1029700090931E0580911E051F910895BC0180E073
:1029800090E048E351E029ED35E00E9414030895FA
:10299000DF93CF93CDB7DEB7A1970FB6F894DEBF24
:1029A0000FBECDBFCE01019662E270E00E9413100F
:1029B000829799F58AA1813A81F58981E82FF0E023
:1029C00075E0EE0FFF1F7A95E1F7EE51FC4FDE0147
:1029D000129680E20D9001928150E1F788E096E036
:1029E0006BED71E00E94E42188E096E069814AE0A5
:1029F00050E00E94DB2288E096E068ED71E00E94E2
:102A0000272289818F30E1F482EE93E00E94BE1488
:102A100088E096E06DEA71E011C088E096E068E732
:102A200071E00E94E42188E096E069814AE050E08C
:102A30000E94DB2288E096E065E771E00E94272291
:102A4000A1960FB6F894DEBF0FBECDBFCF91DF9138
:102A50000895E2EEF3E088E391E0DF019C011D922E
:102A600021503040E1F7CF0160E070E048E351E0F1
:102A700021ED35E00E94F8028091E30381508E3F02
:102A800010F00E94E515089588E096E060E071EE90
:102A90000E94912087E061E00E94D11F0E942915C9
:102AA00087E061E00E945E2064E670E080E090E0F4
:102AB0000E94311F87E060E00E945E2064E670E0C3
:102AC00080E090E00E94311F87E061E00E945E207C
:102AD00064E670E080E090E00E94311F87E060E0F3
:102AE0000E945E2064E670E080E090E00E94311F6A
:102AF00087E061E00E945E2064E670E080E090E0A4
:102B00000E94311F87E060E00E945E2085E395E02F
:102B10000E94FE1B85E395E06DE770E00E943A1B82
:102B200085E395E061E070E00E94F61A82E495E0AA
:102B30000E94FE1B82E495E064EF71E00E943A1B64
:102B400082E495E061E070E00E94F61A8FE495E07F
:102B50000E94FE1B8FE495E06DE770E00E943A1B37
:102B60008FE495E061E070E00E94F61A87E061E092
:102B70000E945E2064E670E080E090E00E94311FD9
:102B800087E060E00E945E2064E670E080E090E014
:102B90000E94311F8DE595E09093300580932F05BD
:102BA0002091E20390932A05809329051092240531
:102BB000213011F42093240510921F058DE595E036
:102BC000909323058093220508950F931F93DF931D
:102BD000CF93CDB7DEB7C853D1400FB6F894DEBF60
:102BE0000FBECDBF0E94460CDE011196EAE8F2E06E
:102BF00088E391E001900D920197E1F7CE010196F3
:102C00000E94BE140E94291588E096E06EE073E0F1
:102C10000E94272200E010E087E061E00E945E2031
:102C200064EF71E080E090E00E94311F87E060E097
:102C30000E945E2064EF71E080E090E00E94311F0E
:102C40000F5F1F4F0630110539F7C85CDE4F0FB616
:102C5000F894DEBF0FBECDBFCF91DF911F910F91D2
:102C60000895DF93CF930F92CDB7DEB7CE010196D3
:102C700061E070E00E9413108981823069F0833036
:102C800018F4813089F405C0833049F0843061F450
:102C900009C00E94621108C00E94D90F05C00E949D
:102CA000C81402C00E94E5150F90CF91DF910895DE
:102CB0008230910579F0833091051CF4019791F4ED
:102CC00006C08330910549F0049761F409C00E9461
:102CD000311608C00E94611005C00E94BB1002C0DE
:102CE0000E9438100E940710089588E096E00E9424
:102CF00092201816190634F488E096E00E94B92054
:102D00000E94581608952F923F924F925F926F92B1
:102D10007F928F929F92AF92BF92CF92DF92EF926B
:102D2000FF920F931F93DF93CF93CDB7DEB7C857B2
:102D3000D0400FB6F894DEBF0FBECDBF0E940A147C
:102D4000982F8091B705891771F19093B705913449
:102D500019F1923438F49032B1F0903469F0903136
:102D600011F514C0903829F0913899F09234D9F4C3
:102D700018C081EF91E002C08EEF91E060ED77E046
:102D80000E94580C10C08BE092E0F8CF88E192E0EE
:102D9000F5CF0E941E0C02C00E94310C0E948C0CC8
:102DA00002C00E94710C0E94530A0E94640B0E9490
:102DB00075168E01085F1F4FC80165E375E00E941C
:102DC000BE07C8010E948813CE010C960E94F72707
:102DD0008E010B5E1F4FC80162E475E00E94BE07C2
:102DE000C8010E948813CE0149960E94F7278E01E0
:102DF0000E5D1F4FC8016FE475E00E94BE07C80159
:102E00000E948813CE0186960E94F7278091B8050C
:102E10008823E1F08091630590916405892BB1F0DE
:102E200088E096E06EEC70E00E94E421609163051A
:102E30007091640588E096E04AE050E00E942D23FE
:102E400088E096E06CEC70E00E94272201E099E4B3
:102E5000E92EF12CEC0EFD1E8DE0282E312C19E50B
:102E6000612E712C6C0E7D1EBCE38B2E912C8C0E72
:102E70009D1EA4E04A2E512C480C591CF9E6AF2E99
:102E8000B12CAC0EBD1E6E010894C11CD11CA0C09B
:102E90002091650530916605C901E4E0880F991F0E
:102EA000EA95E1F7E0915F05F0916005D701E80F41
:102EB000F91F80E101900D928150E1F7C90101965F
:102EC0009093660580936505FA013197F093640548
:102ED000E0936305209161053091620582179307A5
:102EE00021F41092660510926505309789F0C901AA
:102EF00064E070E00E94642B6E177F074CF0C901FC
:102F000062E070E00E94642B8DE595E00E94FF086E
:102F1000F70185859685829DB001839D700D929DF8
:102F2000700D1124645A7A4FCE018F960E94BE070D
:102F3000D301F70180E101900D928150E1F7C401C6
:102F4000BE01615D7F4F0E94BE07C301B4010E94B4
:102F5000A70B082FC2010E94F727C3010E94781C0B
:102F6000002379F5D501F70180E101900D928150A0
:102F7000E1F78DE595E0B5010E946C09C5010E945D
:102F8000781C8091B8058823E1F0C60165E272E003
:102F90000E94BB27F70185859685829DB001839DA0
:102FA000700D929D700D1124605A7A4FC6010E94D7
:102FB0006A27BC0188E096E00E948923C6010E942E
:102FC000FD27CE01C3960E94F727C7010E94781CF7
:102FD00040916305509164054115510519F0002396
:102FE00009F056CFC858DF4F0FB6F894DEBF0FBEBA
:102FF000CDBFCF91DF911F910F91FF90EF90DF90A8
:10300000CF90BF90AF909F908F907F906F905F9088
:103010004F903F902F900895882319F48CB58062CB
:1030200002C08CB58F7D8CBD08959CB5937F982B85
:103030009CBD08952CB5382F33702C7F322B3CBDAE
:103040002DB590E0959587959595879581702E7F04
:10305000822B8DBD089581E161E00E945E2081E1B7
:1030600061E00E94D11F8CB580618CBD8CB58064FD
:103070008CBD8FE061E00E94D11F80E161E00E9481
:10308000D11F0895DF92EF92FF920F931F93CF937A
:10309000DF938C01D62EEA01F22EE32EFC01808113
:1030A00060E00E945E2084E48EBD0DB407FEFDCF7B
:1030B0008EB5CE0123E0969587952A95E1F78EBDD2
:1030C0000DB407FEFDCF8EB59E012295220F207E06
:1030D0002EBD0DB407FEFDCF8EB51EBC0DB407FE90
:1030E000FDCF8EB51EBC0DB407FEFDCF8EB5DEBC88
:1030F0000DB407FEFDCF8EB58F2D9E2D9C01F901DD
:1031000090E008C080818EBD0DB407FEFDCF8EB566
:103110009F5F31969D15B0F3F801808161E00E94B8
:103120005E20DF91CF911F910F91FF90EF90DF9084
:103130000895DF92EF92FF920F931F93CF93DF9347
:103140008C01D62EEA01F22EE32EFC01808160E094
:103150000E945E2082E48EBD0DB407FEFDCF8EB5C9
:10316000CE0133E0969587953A95E1F78EBD0DB483
:1031700007FEFDCF8EB59E012295220F207E2EBD2B
:103180000DB407FEFDCF8EB51EBC0DB407FEFDCFFE
:103190008EB51EBC0DB407FEFDCF8EB5DEBC0DB4E2
:1031A00007FEFDCF8EB58F2D9E2D9C01F90190E07D
:1031B00008C080818EBD0DB407FEFDCF8EB59F5F28
:1031C00031969D15B0F3F801808161E00E945E2088
:1031D000DF91CF911F910F91FF90EF90DF900895B5
:1031E000DF92EF92FF920F931F93CF93DF938C01A7
:1031F000D62EEA01F22EE32EFC01808160E00E94CF
:103200005E2080E48EBD0DB407FEFDCF8EB5CE01ED
:1032100043E0969587954A95E1F78EBD0DB407FE7C
:10322000FDCF8EB59E012295220F207E2EBD0DB4BE
:1032300007FEFDCF8EB51EBC0DB407FEFDCF8EB5CB
:103240001EBC0DB407FEFDCF8EB5DEBC0DB407FE6F
:10325000FDCF8EB58F2D9E2D9C01F90190E008C009
:1032600080818EBD0DB407FEFDCF8EB59F5F319678
:103270009D15B0F3F801808161E00E945E20DF912E
:10328000CF911F910F91FF90EF90DF9008951F93C2
:10329000CF93DF93EC01888160E00E945E2083E0A1
:1032A0008EBD0DB407FEFDCF8EB58FE08EBD0DB483
:1032B00007FEFDCF8EB58FEF8EBD0DB407FEFDCF9F
:1032C0001EB5888161E00E945E20812FDF91CF9141
:1032D0001F9108951F93CF93DF93EC01888160E0E5
:1032E0000E945E2083E08EBD0DB407FEFDCF8EB53B
:1032F0008BE28EBD0DB407FEFDCF8EB58FEF8EBD78
:103300000DB407FEFDCF1EB5888161E00E945E20EE
:10331000812FDF91CF911F9108951F93CF93DF935A
:10332000EC01162F888160E00E945E2083E08EBD54
:103330000DB407FEFDCF8EB51EBD0DB407FEFDCF4B
:103340008EB58FEF8EBD0DB407FEFDCF1EB5888103
:1033500061E00E945E20812FDF91CF911F9108953F
:103360001F93CF93DF93EC01888160E00E945E2081
:1033700080EA8EBD0DB407FEFDCF8EB58FEF8EBDFA
:103380000DB407FEFDCF1EB5888161E00E945E206E
:10339000812FDF91CF911F9108950E94B01982FD76
:1033A00003C020E030E00CC084FD03C021E030E029
:1033B00007C086FD03C022E030E002C02FEF3FEFE0
:1033C000C90108959F92AF92BF92CF92DF92EF9280
:1033D000FF920F931F93CF93DF93EC017B01B42EE9
:1033E000A52E6901888160E00E945E2084E98EBD7F
:1033F0000DB407FEFDCF8EB58FEF8EBD0DB407FE69
:10340000FDCF9EB48FEF8EBD0DB407FEFDCF0EB580
:103410008FEF8EBD0DB407FEFDCF8EB58FEF8EBD45
:103420000DB407FEFDCF8EB58FEF8EBD0DB407FE38
:10343000FDCF1EB51F708B2D9A2D9C01F90190E0D8
:103440002FEF07C02EBD0DB407FEFDCF8EB58193C3
:103450009F5F9117B8F3888161E00E945E20F701B9
:103460001083029506950770892D90E053E0880F30
:10347000991F5A95E1F7800F911DF6019183808382
:10348000DF91CF911F910F91FF90EF90DF90CF9040
:10349000BF90AF909F9008959F92AF92BF92CF92AE
:1034A000DF92EF92FF920F931F93CF93DF93EC0184
:1034B0007B01042FB52E6901888160E00E945E20A7
:1034C00080E98EBD0DB407FEFDCF8EB58FEF8EBDAA
:1034D0000DB407FEFDCF9EB48FEF8EBD0DB407FE79
:1034E000FDCFAEB48FEF8EBD0DB407FEFDCF8EB510
:1034F0008FEF8EBD0DB407FEFDCF8EB58FEF8EBD65
:103500000DB407FEFDCF1EB51F70802F9B2D9C01B3
:10351000F90190E02FEF07C02EBD0DB407FEFDCFDF
:103520008EB581939F5F9117B8F3888161E00E9407
:103530005E20F70110832A2D30E075E0369527953F
:103540007A95E1F7892D90E063E0880F991F6A95DD
:10355000E1F7280F391FF60131832083DF91CF91E6
:103560001F910F91FF90EF90DF90CF90BF90AF90A1
:103570009F900895CF93DF93EC01888160E00E94D3
:103580005E2083E88EBD0DB407FEFDCF8EB5888129
:1035900061E00E945E20DF91CF910895CF93DF9389
:1035A000EC01888160E00E945E2082E88EBD0DB44F
:1035B00007FEFDCF8EB5888161E00E945E20DF911D
:1035C000CF910895CF93DF93EC01888160E00E9452
:1035D0005E2081E88EBD0DB407FEFDCF8EB58881DB
:1035E00061E00E945E20DF91CF9108951F93CF93F9
:1035F000DF93EC0162307105A9F0633071053CF492
:103600006115710559F06130710589F409C06330A5
:10361000710551F06430710551F408C010E807C01D
:1036200010E005C010E203C010E601C010E488817C
:1036300060E00E945E2085E08EBD0DB407FEFDCFE8
:103640008EB58FE08EBD0DB407FEFDCF8EB580EE3A
:103650008EBD0DB407FEFDCF8EB51EBD0DB407FEA9
:10366000FDCF8EB5888161E00E945E20DF91CF9111
:103670001F910895FF920F931F93CF93DF93EC0157
:103680006436710541F16536710554F46431710594
:10369000D9F062337105E9F06A30710541F512C065
:1036A0006A3F7105E1F06B3F710524F46D377105D8
:1036B000F1F413C081E0643F780799F0685E7340CD
:1036C000B1F411C011E301C018E108EBF5E0FF2EE1
:1036D0000EC019E0FACF14E0F8CF13E0F6CF11E0F6
:1036E000F4CF10E0F2CF10E800E9E2E0FE2E88818E
:1036F00060E00E945E206AE070E080E090E00E945E
:10370000311F82E08EBD0DB407FEFDCF8EB58AE27B
:103710008EBD0DB407FEFDCF8EB51EBD0DB407FEE8
:10372000FDCF8EB56AE070E080E090E00E94311F2E
:10373000888161E00E945E206AE070E080E090E0B5
:103740000E94311F888160E00E945E206AE070E084
:1037500080E090E00E94311F82E08EBD0DB407FE34
:10376000FDCF8EB589E28EBD0DB407FEFDCF8EB5BF
:103770000EBD0DB407FEFDCF8EB56AE070E080E0AF
:1037800090E00E94311F888161E00E945E206AE023
:1037900070E080E090E00E94311F888160E00E942C
:1037A0005E206AE070E080E090E00E94311F82E0DD
:1037B0008EBD0DB407FEFDCF8EB588E28EBD0DB473
:1037C00007FEFDCF8EB5FEBC0DB407FEFDCF8EB556
:1037D0006AE070E080E090E00E94311F888161E043
:1037E0000E945E206AE070E080E090E00E94311F5D
:1037F000DF91CF911F910F91FF9008950F931F9329
:103800008C018FE061E00E94D11F8EE060E00E9499
:10381000D11F80E161E00E94D11FF801808161E049
:103820000E94D11FF801828161E00E94D11F0E9495
:103830002B1880E00E94151880E00E941A1881E081
:103840000E940C18F801828160E00E945E2062E311
:1038500070E080E090E00E94311FF801828161E019
:103860000E945E2064E670E080E090E00E94311FDC
:103870001F910F9108956F927F928F929F92AF92B6
:10388000BF92CF92DF92EF92FF920F931F937C0132
:103890005B014A013901A4E0CA2ED12CC80ED91E01
:1038A000C6016DE372E00E94A127F701B182A082F8
:1038B0009382828274866386C601B8010E94D527EE
:1038C0001F910F91FF90EF90DF90CF90BF90AF903E
:1038D0009F908F907F906F900895FC0117861286BD
:1038E000118610861782168215821482138208951B
:1038F0000895F999FECF72BD61BDF89A80B508951B
:10390000F999FECF1FBA72BD61BD40BD0FB6F894E4
:10391000FA9AF99A0FBE08950F931F93CF93DF93EE
:10392000BC018230910510F462E070E0E0912C0659
:10393000F0912D06A0E0B0E040E050E024C080818E
:10394000918186179707D0F08617970771F48281C7
:103950009381109729F013969C938E9312972CC005
:1039600090932D0680932C0627C04115510519F020
:103970008417950718F4EF018D01AC01DF018281F6
:1039800093819C01F9013097D1F641155105F9F069
:10399000CA01861B970B8430910580F48A819B8134
:1039A0000115110521F0F8019383828304C09093DF
:1039B0002D0680932C06FE0132962FC0FE01E80FE3
:1039C000F91F6193719302979983888326C08DB7FD
:1039D0009EB78857904020917B0230917C02281737
:1039E0003907C8F4AC01421B530B4617570798F030
:1039F000CB0102964817590770F0820F931F9093DE
:103A00007C0280937B0290937E0280937D02F90179
:103A10006193719302C0E0E0F0E0CF01DF91CF91BC
:103A20001F910F910895CF93DF939C01009709F4A4
:103A30008FC0EC0122971B821A8260912C06709134
:103A40002D066115710581F488819981820F931F7C
:103A500020917B0230917C022817390739F5D093E9
:103A60007C02C0937B0274C0DB0140E050E0AC17E5
:103A7000BD0708F1BB83AA83FE0121913191E20FBA
:103A8000F31FAE17BF0779F48D919C911197280F02
:103A9000391F2E5F3F4F3983288312968D919C9159
:103AA00013979B838A834115510571F4D0932D069A
:103AB000C0932C064DC012968D919C911397AD0129
:103AC000009711F0DC01D3CFDA011396DC93CE938B
:103AD0001297FA0121913191E20FF31FCE17DF0700
:103AE00069F488819981280F391F2E5F3F4FFA01B1
:103AF000318320838A819B8193838283E0E0F0E09D
:103B0000DB0112968D919C911397009719F0BC01DF
:103B1000FD01F6CFAB014E5F5F4FDB018D919C91B4
:103B2000840F951F20917B0230917C022817390762
:103B300079F4309729F410922D0610922C0602C0C9
:103B4000138212824250504050937C0240937B0279
:103B5000DF91CF9108956F927F928F929F92AF9253
:103B6000BF92CF92DF92EF92FF920F931F93CF936A
:103B7000DF938C01009729F4CB010E948C1C8C01EF
:103B8000B4C08EEFE82E8FEFF82EE00EF11E580134
:103B9000A60EB71EAE14BF0408F4A5C0D7014D9100
:103BA0005C91119746175707B8F04530510508F456
:103BB0009CC0CA0104978617970708F496C0425024
:103BC0005040461B570BF501419351936D937C93E5
:103BD000CF010E94131D89C04B01841A950A380138
:103BE000640E751EA0912C06B0912D06CC24DD2408
:103BF000E0E0F0E047C0A615B705A9F5CD91DC914E
:103C00001197CE0102968815990568F1CE018819A1
:103C10009909029612962C91129713963C9105974A
:103C200058F0F50122833383C819D909D183C083A1
:103C3000D7016D937C9309C04E5F5F4F4C0F5D1FA2
:103C4000F70151834083C901FC01C114D10431F053
:103C5000D6011396FC93EE93129747C0F0932D066E
:103C6000E0932C0642C08D919C911197E817F907BB
:103C700008F4FC016D0112968C91129713969C9199
:103C80009C01D901109709F0B6CF80917B029091E9
:103C90007C0286159705B1F4E617F70798F48DB7FF
:103CA0009EB788579040A816B906E8F4B0927C02F7
:103CB000A0927B02B0927E02A0927D02F7017183F6
:103CC000608313C0CB010E948C1CEC01009759F05B
:103CD000D7014D915C91B8010E94E802C8010E9491
:103CE000131D8E0102C000E010E0C801DF91CF91EA
:103CF0001F910F91FF90EF90DF90CF90BF90AF900A
:103D00009F908F907F906F9008951F920F920FB6A3
:103D10000F9211242F933F938F939F93AF93BF9351
:103D20008091BF059091C005A091C105B091C205D9
:103D30003091C3050196A11DB11D232F2D5F2D3795
:103D400020F02D570196A11DB11D2093C30580932E
:103D5000BF059093C005A093C105B093C2058091A3
:103D6000BB059091BC05A091BD05B091BE05019623
:103D7000A11DB11D8093BB059093BC05A093BD050B
:103D8000B093BE05BF91AF919F918F913F912F91BD
:103D90000F900FBE0F901F9018958FB7F894209139
:103DA000BF053091C0054091C1055091C2058FBF3C
:103DB000B901CA010895789484B5826084BD84B540
:103DC000816084BD85B5826085BD85B5816085BD16
:103DD000EEE6F0E0808181608083E1E8F0E010822F
:103DE000808182608083808181608083E0E8F0E070
:103DF000808181608083E1E9F0E08081826080835E
:103E0000808181608083E0E9F0E08081816080834F
:103E1000E1ECF0E080818460808380818260808337
:103E2000808181608083E3ECF0E080818160808329
:103E3000E0ECF0E0808182608083E2ECF0E0808161
:103E400081608083EAE7F0E0808184608083808104
:103E500082608083808181608083808180688083AC
:103E60000895EF92FF920F931F93CF93DF937B01FF
:103E70008C013FB7F8948091BB059091BC05A0914F
:103E8000BD05B091BE0526B5A89B05C02F3F19F012
:103E90000196A11DB11D3FBFBA2FA92F982F8827CA
:103EA000820F911DA11DB11D52E0880F991FAA1FFD
:103EB000BB1F5A95D1F7EC0130C00E9403283FB7D1
:103EC000F8948091BB059091BC05A091BD05B0917F
:103ED000BE0526B5A89B05C02F3F19F00196A11D70
:103EE000B11D3FBFBA2FA92F982F8827820F911D90
:103EF000A11DB11D32E0880F991FAA1FBB1F3A9563
:103F0000D1F78C1B9D0B885E9340B8F20894E108B2
:103F1000F10801091109C851DC4FE114F104010550
:103F2000110559F6DF91CF911F910F91FF90EF90FE
:103F30000895823108F08251E82FF0E0E254FC4FFE
:103F4000E49120917B008E2F86958695869590E052
:103F50008170907035E0880F991F3A95E1F72F7DB9
:103F6000282B20937B00E77080917F028295880F39
:103F7000880F807C8E2B80937C0080917A008064F7
:103F800080937A0080917A0086FDFCCF20917800A2
:103F900040917900942F80E030E0282B392BC90123
:103FA0000895CF93DF93482F50E0CA018E579C4F5E
:103FB000FC0134914C595C4FFA018491882369F1DA
:103FC00090E0880F991FFC01E65CFC4FA591B4912D
:103FD000FC01E85BFC4FC591D491662351F42FB7E7
:103FE000F8948C91932F909589238C9388818923C1
:103FF0000BC0623061F42FB7F8948C91932F909599
:1040000089238C938881832B88832FBF06C09FB719
:10401000F8948C91832B8C939FBFDF91CF9108955F
:10402000883071F1893068F4823031F1833020F4C6
:10403000813009F042C01DC0833089F08430E9F539
:1040400012C08B3059F18C3028F48930E9F08A3075
:10405000A1F51EC08C3031F18E3079F529C08091E8
:1040600080008F7703C0809180008F7D80938000D7
:10407000089584B58F7702C084B58F7D84BD08957F
:10408000809190008F7707C0809190008F7D03C052
:1040900080919000877F8093900008958091C00068
:1040A0008F7703C08091C0008F7D8093C0000895FA
:1040B0008091C200877F8093C2000895FF920F9382
:1040C0001F93F62E482F50E0CA0180569C4FFC01EA
:1040D0002491CA018E579C4FFC0114914C595C4F9E
:1040E000FA0104910023C9F0222319F0822F0E94C3
:1040F0001020E02FF0E0EE0FFF1FE85BFC4FA591D2
:10410000B4919FB7F894FF2021F48C9110958123EE
:1041100002C08C91812B8C939FBF1F910F91FF90B8
:1041200008950895209104063091050680910606B1
:1041300090910706281B390B2F733070C901089521
:10414000209104063091050680910606909107069D
:104150002817390719F42FEF3FEF09C0E091060641
:10416000F0910706EC53FA4F8081282F30E0C90107
:1041700008952091040630910506809106069091DD
:1041800007062817390719F42FEF3FEF13C0E09106
:104190000606F0910706EC53FA4F2081809106063F
:1041A0009091070601968F73907090930706809305
:1041B000060630E0C901089510920B0610920A0617
:1041C00088EE93E0A0E0B0E080930C0690930D069B
:1041D000A0930E06B0930F0686EC93E09093090629
:1041E0008093080608950F931F93DF93CF930F9248
:1041F000CDB7DEB78C01698380918702882369F08F
:1042000083E0BE016F5F7F4F41E050E00E946F246A
:104210001816190614F49C0107C081E090E0F8011B
:104220009383828320E030E0C9010F90CF91DF912A
:104230001F910F91089583E00E9446240895CF9323
:10424000DF9312C082E00E94D1232FEF8F3F9207AD
:10425000C9F0E0910406F0910506EC53FA4F808313
:10426000D0930506C0930406C0910406D0910506BC
:104270002196CF73D0708091060690910706C817DB
:10428000D90701F7DF91CF910895FC0180818E5FFE
:10429000808380E86AEC73E042E450E00E94EA2305
:1042A0000895FC0181819081913A59F4813209F09D
:1042B0004CC080E060E872E047E050E00E94EA23F2
:1042C00042C0913209F041C0803239F480E892E076
:1042D00067E070E00E942E2436C0823209F035C0BB
:1042E0008281809387028091800290918102A091C7
:1042F0008202B0918302805B9440A040B04019F5E7
:104300008091870280FD12C087E797E790930108AC
:10431000809300082BE088E190E00FB6F894A89510
:10432000809360000FBE209360000DC088E10FB63F
:10433000F89480936000109260000FBEA8951092D0
:1043400001081092000881E0089580E00895CF935D
:10435000DF930E94DB1E8EE196E00E9451240E94B2
:104360004415C0E0D0E00E9483162097E1F30E943C
:104370000000F9CFCF92DF92EF92FF920F931F933D
:10438000CF93DF937C016B018A01C0E0D0E00FC0C6
:10439000D6016D916D01D701ED91FC910190F081F5
:1043A000E02DC7010995C80FD91F01501040011514
:1043B000110571F7CE01DF91CF911F910F91FF9001
:1043C000EF90DF90CF900895EF92FF920F931F939D
:1043D000CF93DF937C018B01C0E0D0E0F8010F5F49
:1043E0001F4F6491662359F0D701ED91FC91019024
:1043F000F081E02DC7010995C80FD91FEFCFCE017D
:10440000DF91CF911F910F91FF90EF900895EF9260
:10441000FF920F931F938C01DC01ED91FC910190B1
:10442000F081E02D6DE009957C01D801ED91FC91C2
:104430000190F081E02DC8016AE009959C012E0DE4
:104440003F1DC9011F910F91FF90EF900895EF92CA
:10445000FF920F931F937C010E94E4218C01C701FE
:104460000E9407229C01200F311FC9011F910F914B
:10447000FF90EF900895CF93DF93EC0161157105E4
:1044800019F420E030E00FC0DB010D900020E9F7C7
:104490001197A61BB70BE881F9810280F381E02D0B
:1044A000AD0109959C01C901DF91CF9108954F920B
:1044B0005F927F928F929F92AF92BF92CF92DF9244
:1044C000EF92FF920F931F93DF93CF93CDB7DEB799
:1044D000A1970FB6F894DEBF0FBECDBF2C01742E8E
:1044E000CB01223008F42AE019A231E2C32ED12CEC
:1044F000CC0EDD1E822E9924AA24BB24672D752F95
:10450000A50194010E94772B79018A01C801B701A6
:10451000A50194010E94312B472D461B0894C10828
:10452000D1084A3014F4405D01C0495CF601408373
:10453000E114F1040105110521F07E2C5F2DC80165
:10454000DDCFC201B6010E943B22A1960FB6F894BE
:10455000DEBF0FBECDBFCF91DF911F910F91FF90B6
:10456000EF90DF90CF90BF90AF909F908F907F9013
:104570005F904F900895DC012115310541F4ED91D4
:10458000FC910190F081E02D642F099508950E941F
:1045900057220895EF92FF920F931F939A017B0188
:1045A00000E010E0B801A7010E94BB221F910F910B
:1045B000FF90EF900895EF92FF920F931F939A014F
:1045C000E62EFF2400E010E0B801A7010E94BB2204
:1045D0001F910F91FF90EF900895CF92DF92EF928D
:1045E000FF920F931F93CF93DF93EC016A017B013E
:1045F0002115310541F4E881F9810190F081E02D28
:10460000642F09951FC02A303105D1F477FF17C0F8
:10461000E881F9810190F081E02D6DE209958C012E
:1046200044275527BA014C195D096E097F09CE014F
:104630002AE00E9457229801280F391F04C02AE05F
:104640000E9457229C01C901DF91CF911F910F91C8
:10465000FF90EF90DF90CF900895EF92FF920F932D
:104660001F937B019A010027F7FC0095102FB801DA
:10467000A7010E94ED221F910F91FF90EF900895E6
:104680000E943B220895EF92FF920F931F937C01AB
:104690000E943B228C01C7010E940722080F191FAC
:1046A000C8011F910F91FF90EF900895AF92BF92B4
:1046B000CF92DF92EF92FF920F931F93CF93DF93EE
:1046C0005C016B01EE24FF24C0E0D0E010C0D501F6
:1046D000ED91FC9100811181C601BE010E94E4268A
:1046E000682FC501F8010995E80EF91E2196F6011B
:1046F00084819581C817D90750F3C701DF91CF9105
:104700001F910F91FF90EF90DF90CF90BF90AF90EF
:104710000895EF92FF920F931F937C010E945623FE
:104720008C01C7010E9407229C01200F311FC90183
:104730001F910F91FF90EF900895282F80911806F8
:104740008823C1F057FF1AC015C028989093170608
:104750008091F1008193E217F307B9F741155105F4
:1047600039F08091F200882319F48BE68093E800F9
:10477000AFBF02C04FEF5FEFCA010895AFB7F89423
:1047800027702093E9008091F200282F30E0241751
:1047900035070CF4A901FB019B01240F311D94E6A0
:1047A000DACFDF93CF930F92CDB7DEB7BE016F5F45
:1047B0007F4F41E050E00E949D23019719F02FEFB9
:1047C0003FEF03C08981282F30E0C9010F90CF91BE
:1047D000DF910895FF920F931F93F82E142F052F4A
:1047E00040911B0650911C06212F302FC901DC017E
:1047F000FB016EEF29C0F7FE02C0949101C09081C9
:104800002091190630911A0624173507ACF48091CF
:10481000E8008570E1F38091E80082FF03C02FEF8C
:104820003FEF17C09093F100C90101968F7390700C
:10483000892B11F46093E8002F5F3F4F30931A06E5
:1048400020931906119731961097A9F6812F902F72
:104850009C01C9011F910F91FF9008959C018091C7
:10486000E80082FFFCCFF901260F311D03C08091C3
:10487000F1008193E217F307D1F7289884E680933B
:1048800017068BEF8093E800CB0108958093E90031
:104890008091F200882319F08AE38093E80008955C
:1048A00008951092180681E08093D70080EA8093E3
:1048B000D80082E189BD09B400FEFDCF61E070E05F
:1048C00080E090E00E94311F80E98093D8008CE066
:1048D0008093E2001092E000559A209A08955F922A
:1048E0006F927F928F929F92AF92BF92CF92DF9200
:1048F000EF92FF920F931F93CF93DF93E82E842EB6
:10490000752E80911806882371F18B01242F352F85
:10491000C901EC017AEFF72E67E0962E9E2050E455
:10492000552E8E2D90E040E2A42EB12CA822B92263
:104930003AE3632E20E4C22ED12CC822D92258C0DB
:104940009FB7F8949092E9008091E80085FD02C03D
:1049500020E004C08091F200252D281B9FBF222358
:1049600061F4FA9419F42FEF3FEF4DC061E070E06D
:1049700080E090E00E94311F3BC0822F90E0C8177A
:10498000D9070CF42C2FC21BD1094FB7F894909281
:10499000E900A114B10421F406C01092F1002150E5
:1049A0002223D9F719C0E7FC03C0F801922F10C0E9
:1049B000C801322F06C0FC010196E491E093F1009A
:1049C00031503323C1F706C081918093F10091509B
:1049D0009923D1F7020F111D8091E80085FF05C0D2
:1049E000209729F4C114D10411F06092E8004FBF60
:1049F000209709F0A5CF5D9884E680931606282DB0
:104A0000372DC9019C01C901DF91CF911F910F91F1
:104A1000FF90EF90DF90CF90BF90AF909F908F90DE
:104A20007F906F905F9008951F920F920FB60F9234
:104A300011242F933F934F935F936F937F938F93A3
:104A40009F93AF93BF93EF93FF938091E1001092F8
:104A5000E100982F83FF0FC01092E90081E080935E
:104A6000EB001092EC0082E38093ED0010921806A8
:104A700088E08093F00092FF34C083E08093E900E7
:104A80008091F200882319F08AE38093E8008FB7C1
:104A9000F89492E09093E9009091F2008FBF9923EF
:104AA00021F088E096E00E941F218091160688235D
:104AB00051F080911606815080931606809116065B
:104AC000882309F45D9A80911706882351F080911C
:104AD000170681508093170680911706882309F4E2
:104AE000289AFF91EF91BF91AF919F918F917F9104
:104AF0006F915F914F913F912F910F900FBE0F904B
:104B00001F9018950F931F93DF93CF930F92CDB7FC
:104B1000DEB719828E010F5F1F4FC8010E94452129
:104B2000C8010E943B29898190E00F90CF91DF91CD
:104B30001F910F9108951F920F920FB60F9211249B
:104B4000EF92FF921F932F933F934F935F936F9337
:104B50007F938F939F93AF93BF93EF93FF93DF93D5
:104B6000CF93CDB7DEB76197DEBFCDBF1092E9001E
:104B70008091E80083FF0FC1FE0131969E01275FFF
:104B80003F4F03C08091F1008193E217F307D1F703
:104B9000289884E68093170682EF8093E800998135
:104BA00097FF05C08091E80080FFFCCF03C08EEF27
:104BB0008093E800292F30E0C90180769070892B1E
:104BC00009F0C2C08A81882329F41092F100109262
:104BD000F100D6C0813009F4D3C0833009F4D0C0CD
:104BE000853049F48091E80080FFFCCF8B8180689C
:104BF0008093E300C5C0863009F07CC01C81EF8043
:104C0000F8841230C1F51092E90010921A06109241
:104C1000190610921C0610921B060E94822599E02C
:104C2000FE013996DF01292F1D922A95E9F7998710
:104C30001A8791E09E8790E8988B9AEF998B209144
:104C4000190630911A06275F3F4F3C872B878D87C7
:104C50001092E90010921A0610921906F0921C06A2
:104C6000E0921B0680E0BF0149E050E00E94EA2389
:104C70000E94822585C01092E90010921A061092B7
:104C80001906F0921C06E0921B06123241F482E2F1
:104C900090E00E943329892B09F476C071C011304D
:104CA00079F488E0E816F10419F481E080931D0698
:104CB00080911D06882309F06BC0EAE4F4E013C07C
:104CC000133009F061C08B81882319F4ECE0F4E023
:104CD0000AC0823019F4E0E1F4E005C0813009F047
:104CE00053C0E2E3F4E0449180E8BF0150E00E9449
:104CF000EA2346C0873009F447C0883021F481E0B8
:104D00008093F1003DC08930D9F523703070232B9A
:104D1000D9F5EFE6F4E091E031E026E39093E90085
:104D20003093EB0084918093EC002093ED009F5F23
:104D30003196953099F78EE78093EA001092EA0059
:104D40008B81809318061CC08F8198851092E90092
:104D500010921A061092190690931C0680931B0657
:104D60008D81882329F4CE0101960E94512106C02D
:104D7000823051F4CE0101960E940428882321F04C
:104D80008EEF8093E80007C081E28093EB0003C0C0
:104D9000ECE5F4E0A8CF6196DEBFCDBFCF91DF9107
:104DA000FF91EF91BF91AF919F918F917F916F9103
:104DB0005F914F913F912F911F91FF90EF900F9036
:104DC0000FBE0F901F901895FC0184819581681784
:104DD000790748F40190F081E02D309721F0E60F3B
:104DE000F71F8081089580E008950F931F93CF935C
:104DF000DF93EC018B016F5F7F4F888199810E9467
:104E0000AB1D009711F480E005C0998388831B8354
:104E10000A8381E0DF91CF911F910F910895CF9385
:104E2000DF93EC0188819981892B29F08A819B810C
:104E30008617970760F4CE010E94F526882341F07B
:104E40008C819D81892B19F4E881F981108281E0A0
:104E5000DF91CF910895EF92FF920F931F93CF931D
:104E6000DF93EC017B016C817D81E114F104C1F0E1
:104E70004115510599F08A01060F171FB8010E94CC
:104E80000F27882369F0888199812C813D81820FC9
:104E9000931FB7010E94F1021D830C8381E001C0C2
:104EA00080E0DF91CF911F910F91FF90EF900895D7
:104EB000CF93DF93EC0188819981009711F00E94D4
:104EC000131D198218821D821C821B821A82DF9197
:104ED000CF9108950F931F93182F092FFB01608125
:104EE0007181448155810E942B27882321F4812FD1
:104EF000902F0E945827812F902F1F910F91089576
:104F0000EF92FF920F931F93CF93DF93EC017B01FE
:104F10008A01BA010E940F27882321F4CE010E9442
:104F2000582707C01D830C8388819981B7010E948F
:104F3000F102CE01DF91CF911F910F91FF90EF9081
:104F40000895CF93DF93EC01198218821B821A8295
:104F50001D821C821E826115710551F0DB010D90CE
:104F60000020E9F71197A61BB70BAD010E9480271F
:104F7000DF91CF910895CF93DF93EC0119821882CE
:104F80001B821A821D821C821E826115710551F0DE
:104F9000DB010D900020E9F71197A61BB70BAD01BF
:104FA0000E948027DF91CF910895CF93DF93EC018A
:104FB000FB018617970761F06081718161157105AA
:104FC00029F0448155810E94802702C00E94582701
:104FD000CE01DF91CF910895FC01118210821382DE
:104FE00012821582148216820E94D5270895FC0130
:104FF000808191810E94131D0895FC01808191811F
:105000000E94131D08950895FC0191818081813AC9
:1050100031F4913089F080E0933089F40DC0813211
:1050200069F49B3021F482818093880205C09A3014
:1050300029F482818093890281E0089580E00895B7
:10504000EF92FF920F931F938C01E62EDC01ED91FE
:10505000FC910480F581E02D0995F82ED801ED91A1
:10506000FC910680F781E02DC8016E2D09958F2DEA
:1050700090E01F910F91FF90EF90089510921F06FE
:10508000109223061092220688ED93E09093210659
:10509000809320060895EF92FF920F931F93DF9362
:1050A000CF930F92CDB7DEB789838B017A0184E06D
:1050B000BE016F5F7F4F41E050E00E946F2484E4A7
:1050C000B801A7010E946F240F90CF91DF911F912B
:1050D0000F91FF90EF90089582E048E050E00E9429
:1050E0004B280895FC0116821782108611861286BD
:1050F000138614823496BF010E946C280895DC0147
:10510000683810F0685829C0E62FF0E067FF13C038
:10511000E058F04081E090E002C0880F991FEA95C6
:10512000E2F7809514962C911497282314962C93CB
:10513000149760E012C0EF50FB4F6491662319F49E
:1051400020E030E01DC067FF08C014968C911497D2
:105150008D7F14968C9314976F77FD0190E06623F2
:1051600021F08681861709F416829F5F319696306A
:10517000B1F7CD011496BD010E946C2821E030E00A
:10518000C9010895CF93DF93DC01683810F06858A7
:1051900025C0E62FF0E067FF12C0E058F04081E044
:1051A00090E002C0880F991FEA95E2F714962C91BF
:1051B0001497282B14962C93149760E00FC0EF508F
:1051C000FB4F64916623D9F167FF08C014968C9158
:1051D0001497826014968C9314976F7716968C911F
:1051E00016978617A9F117968C911797861781F154
:1051F00018968C911897861759F119968C911997D2
:10520000861731F11A968C911A97861709F11B9619
:105210008C911B978617E1F0ED01E0E0F0E09E2F06
:105220008E81882321F4EA0FFB1F668306C09F5FEF
:1052300031962196E630F10591F7963049F481E0F8
:1052400090E013969C938E93129720E030E007C075
:10525000CD011496BD010E946C2821E030E0C90107
:10526000DF91CF91089580E863E774E045E650E070
:105270000E94EA230895FC0180818F5F808380E88B
:1052800068ED74E049E150E00E94EA230895505827
:10529000BB27AA270ED048C139D130F03ED120F02B
:1052A00031F49F3F11F41EF42EC10EF4E095E7FB9C
:1052B00024C1E92F4AD180F3BA1762077307840724
:1052C000950718F071F49EF562C10EF4E0950B2E6F
:1052D000BA2FA02D0B01B90190010C01CA01A00148
:1052E0001124FF27591B99F0593F50F4503E68F1A3
:1052F0001A16F040A22F232F342F4427585FF3CFE4
:10530000469537952795A795F0405395C9F77EF4B4
:105310001F16BA0B620B730B840BBAF09150A1F0FD
:10532000FF0FBB1F661F771F881FC2F70EC0BA0F83
:10533000621F731F841F48F4879577956795B7950B
:10534000F7959E3F08F0B3CF9395880F08F0992703
:10535000EE0F9795879508950CD0E6C0DED040F00B
:10536000D5D030F021F45F3F19F0C7C0511110C102
:10537000CAC0EBD098F39923C9F35523B1F3951B19
:10538000550BBB27AA2762177307840738F09F5F66
:105390005F4F220F331F441FAA1FA9F333D00E2ED5
:1053A0003AF0E0E830D091505040E695001CCAF742
:1053B00029D0FE2F27D0660F771F881FBB1F261707
:1053C00037074807AB07B0E809F0BB0B802DBF01DA
:1053D000FF2793585F4F2AF09E3F510568F08DC01C
:1053E000D7C05F3FECF3983EDCF3869577956795E1
:1053F000B795F7959F5FC9F7880F911D969587958B
:1054000097F90895E1E0660F771F881FBB1F6217A9
:1054100073078407BA0720F0621B730B840BBA0B67
:10542000EE1F88F7E095089598D088F09F5790F088
:10543000B92F9927B751A0F0D1F0660F771F881FB9
:10544000991F1AF0BA95C9F712C0B13081F09FD0F8
:10545000B1E008959CC0672F782F8827B85F39F096
:10546000B93FCCF3869577956795B395D9F73EF418
:1054700090958095709561957F4F8F4F9F4F0895C0
:10548000E89409C097FB3EF49095809570956195DE
:105490007F4F8F4F9F4F9923A9F0F92F96E9BB2794
:1054A0009395F695879577956795B795F111F8CF10
:1054B000FAF4BB0F11F460FF1BC06F5F7F4F8F4F7B
:1054C0009F4F16C0882311F096E911C0772321F071
:1054D0009EE8872F762F05C0662371F096E8862F09
:1054E00070E060E02AF09A95660F771F881FDAF760
:1054F000880F9695879597F9089597F99F6780E8A3
:1055000070E060E008959FEF80EC089500240A9415
:105510001616170618060906089500240A9412168E
:105520001306140605060895092E0394000C11F4C1
:10553000882352F0BB0F40F4BF2B11F460FF04C06E
:105540006F5F7F4F8F4F9F4F089557FD9058440FC7
:10555000551F59F05F3F71F04795880F97FB991FD2
:1055600061F09F3F79F0879508951216130614068F
:10557000551FF2CF4695F1DF08C01616170618061C
:10558000991FF1CF86957105610508940895E894F7
:10559000BB2766277727CB0197F908950BD0C4CF97
:1055A000B5DF28F0BADF18F0952309F0A6CFABCF0E
:1055B0001124EECFCADFA0F3959FD1F3950F50E0F1
:1055C000551F629FF001729FBB27F00DB11D639FB5
:1055D000AA27F00DB11DAA1F649F6627B00DA11D5B
:1055E000661F829F2227B00DA11D621F739FB00D01
:1055F000A11D621F839FA00D611D221F749F332771
:10560000A00D611D231F849F600D211D822F762F09
:105610006A2F11249F5750408AF0E1F088234AF006
:10562000EE0FFF1FBB1F661F771F881F9150504052
:10563000A9F79E3F510570F060CFAACF5F3FECF312
:10564000983EDCF3869577956795B795F795E7953E
:105650009F5FC1F7FE2B880F911D9695879597F94F
:105660000895629FD001739FF001829FE00DF11DAC
:10567000649FE00DF11D929FF00D839FF00D749FCC
:10568000F00D659FF00D9927729FB00DE11DF91F78
:10569000639FB00DE11DF91FBD01CF0111240895D5
:1056A000AA1BBB1B51E107C0AA1FBB1FA617B70748
:1056B00010F0A61BB70B881F991F5A95A9F7809564
:1056C0009095BC01CD01089597FB092E07260AD0BD
:1056D00077FD04D0E5DF06D000201AF470956195BF
:1056E0007F4F0895F6F7909581959F4F0895A1E219
:1056F0001A2EAA1BBB1BFD010DC0AA1FBB1FEE1F4C
:10570000FF1FA217B307E407F50720F0A21BB30B96
:10571000E40BF50B661F771F881F991F1A9469F712
:1057200060957095809590959B01AC01BD01CF016E
:105730000895EE0FFF1F0590F491E02D09942F922C
:105740003F924F925F926F927F928F929F92AF9211
:10575000BF92CF92DF92EF92FF920F931F93CF935E
:10576000DF93CDB7DEB7CA1BDB0B0FB6F894DEBFF5
:105770000FBECDBF09942A88398848885F846E841B
:105780007D848C849B84AA84B984C884DF80EE8065
:10579000FD800C811B81AA81B981CE0FD11D0FB66E
:1057A000F894DEBF0FBECDBFED01089515E0CAE746
:1057B000D5E004C0FE010E949B2B2296CC37D10776
:0657C000C9F7F894FFCFC9
:1057C6004275732031004275732032004275732092
:1057D600330051554555453A20696E7375666669BD
:1057E6006369656E74206D656D6F727920746F20C4
:1057F600696E697469616C697A652071756575652C
:105806002E0051554555453A206572726F722064D7
:10581600756520746F20756E646573697261626C5C
:10582600652073697A6520666F7220717565756586
:105836002073697A652E0051554555453A20696EA3
:1058460073756666696369656E74206D656D6F72E2
:105856007920746F20696E697469616C697A652054
:1058660074656D706F726172792071756575652EDC
:10587600004D617A64614C4544204F4E200020253E
:10588600632563256325632020256325632563251A
:1058960063200020202020202020202020202000FF
:1058A60025633A25642E25640025633A2564003A6B
:1058B60000202020204C4546542020202000202077
:1058C6002144414E474552212020002020202020FF
:1058D600555020202020200020202020444F574EC5
:1058E6002020202000414C4C20545820425546464A
:1058F6004552532046554C4C204F4E2000004465DF
:105906006661756C7400120013000607F4014341CA
:105916004E427573547269706C65002020202020F9
:105926002020202020202000202020202020202091
:105936002020202000A00F0000E4032E06640001B2
:1059460000E100000000000001010101000000006C
:1059560000000200000007E0013C000000000441D6
:10596600053C000028100001000AFFD845475420D6
:10597600202020200201000007E001340000000082
:105986000441053400002810000F0D200000414698
:105996002020202020200201000007E022DA8500D6
:1059A6000000046205DA06853008001700140000BE
:1059B6004146524F424420200200000007E02203E5
:1059C600EC0000000462050306EC3010000100053F
:1059D60000004B4E4F434B2020200200000007E002
:1059E60022F423000000046205F406233010001D93
:1059F60000140000465052004B20202002000000F8
:105A060007E02203180000000462050306183010A0
:105A160000060001000043414D4445472020020096
:105A26000000073722596A00000004620559066A19
:105A36003010000B00640000505745494748542079
:105A46000200000007E02203CA000000046205030A
:105A560006CA300800090005FFD842415454455291
:105A66005920FFFFFFFFFFFFFFFFFFFFFFFFFFFFC5
:105A7600FFFFFFFFFFFFFFFFFFFFFFFFFFFFFFFF30
:105A8600FFFF00000000F320BA219220B920A020D9
:105A96001B211F21000000002028BA21C2287F28D0
:025AA600722864
:00000001FF
