:100000000C9477010C949F010C949F010C949F0118
:100010000C949F010C949F010C949F010C949F01E0
:100020000C949F010C949F010C94091E0C94901E3B
:100030000C949F010C949F010C949F010C949F01C0
:100040000C949F010C949F010C949F010C949F01B0
:100050000C949F010C949F010C949F010C94B11778
:100060000C949F010C949F010C949F010C949F0190
:100070000C949F010C949F010C949F010C949F0180
:100080000C949F010C949F010C949F010C949F0170
:100090000C949F010C949F010C949F010C949F0160
:1000A0000C949F010C949F010C949F010000000090
:1000B000240027002A002D00300000000000250049
:1000C00028002B002E003100000000002300260035
:1000D00029002C002F000404040404030405020278
:1000E00002020403020202020606060606060404D1
:1000F00002020204040802011040804010204080E7
:10010000408008020401804020100201108010206D
:1001100040400000000200080E0000030401000B34
:1001200000000000000000000000000000000000CF
:10013000070605040100080A0B0C0D09080B000254
:10014000020201000904000001020200000524006F
:100150001001052401010104240206052406000102
:100160000705810310004009040100020A00000095
:100170000705020240000007058302400000040357
:1001800009042203410072006400750069006E00DA
:100190006F0020004C0065006F006E00610072006F
:1001A00064006F001803410072006400750069006C
:1001B0006E006F0020004C004C0043001201000252
:1001C00000000040412336800001010200011201BD
:1001D00000020200004041233680000101020001BC
:1001E00000C18081C105010902A1010901A10085A9
:1001F00001050919012903150025019503750181E0
:100200000295017505810305010930093109381589
:1002100081257F750895038106C0C005010906A1E7
:10022000018502050719E029E715002501750195EB
:10023000088102950175088103950675081500254A
:10024000650507190029658100C009040200010342
:100250000000000921010100012265000705840357
:1002600040000100000000000000002A2B280000D0
:10027000000000000000000000000000000000007E
:100280000000002C9EB4A0A1A2A434A6A7A5AE365F
:100290002D3738271E1F20212223242526B333B6CD
:1002A0002EB7B89F8485868788898A8B8C8D8E8FA0
:1002B000909192939495969798999A9B9C9D2F31A3
:1002C00030A3AD350405060708090A0B0C0D0E0F07
:1002D000101112131415161718191A1B1C1DAFB183
:1002E000B0B50000C505081A451D3321BE0511240F
:1002F0001FBECFEFDAE0DEBFCDBF14E0A0E0B1E07B
:10030000E0E2F8E402C005900D92AA33B107D9F7F4
:1003100015E0AAE3B4E001C01D92A035B107E1F7F2
:1003200012E0CCEED2E004C02297FE010E94C82366
:10033000C43ED107C9F70E94D31A0C9403240C942D
:100340000000FB01DC0102C001900D9241505040C1
:10035000D8F70895FB01DC0101900D920020E1F730
:100360000895AEE0B0E0E7EBF1E00C94DA230D89FC
:100370001E8986E08C831A8309838FEF9FE79E8313
:100380008D839E01275E3F4FCE0101966F89788D48
:10039000A9010E94D5012F813885020F131FF80192
:1003A00010822E96E4E00C94F623ABE0B0E0EBED87
:1003B000F1E00C94CC233C012B015A01FC01178283
:1003C0001682838181FD03C06FEF7FEFC6C19AE083
:1003D000892E1E010894211C311CF3012381F20196
:1003E00023FD859123FF81912F01882309F4B2C158
:1003F000853239F423FD859123FF81912F018532C8
:1004000029F490E0B3010E94C803E7CF982FFF249E
:10041000EE249924FFE1FF15D0F09B3269F09C3265
:1004200028F4903259F0933291F40EC09D3249F085
:10043000903369F441E024C052E0F52A84E0F82AC0
:1004400028C098E0F92A25C0E0E1FE2A22C0F7FC86
:1004500029C0892F80538A3070F4F6FE05C0989C1D
:10046000902C1124980E15C0E89CE02C1124E80E65
:10047000F0E2FF2A0EC09E3229F4F6FC6BC140E484
:10048000F42A07C09C3619F450E8F52A02C09836C1
:1004900049F4F20123FD959123FF91912F019923B6
:1004A00009F0B8CF892F8554833018F080528330FB
:1004B00038F444E050E0A40EB51E5FE359830FC04A
:1004C000933631F0933779F0933509F056C020C058
:1004D000F5018081898342E050E0A40EB51E6101E0
:1004E00001E010E012C0F501C080D180F6FC03C02D
:1004F0006FEF7FEF02C0692D70E042E050E0A40E84
:10050000B51EC6010E94BD038C015FE7F52214C031
:10051000F501C080D180F6FC03C06FEF7FEF02C011
:10052000692D70E042E050E0A40EB51EC6010E94A5
:10053000B2038C0150E8F52AF3FE07C01AC080E22E
:1005400090E0B3010E94C803EA948E2D90E0081752
:100550001907A8F30EC0F601F7FC8591F7FE81910B
:100560006F0190E0B3010E94C803E110EA940150CA
:1005700010400115110579F7EAC0943611F099364B
:1005800069F5F7FE08C0F501208131814281538170
:1005900084E090E00AC0F501808191819C014427AC
:1005A00037FD4095542F82E090E0A80EB91E9FE6DB
:1005B000F92257FF09C050954095309521953F4F3E
:1005C0004F4F5F4FE0E8FE2ACA01B901A1012AE0BE
:1005D00030E00E94F403D82ED21840C0953729F499
:1005E0001F2D1F7E2AE030E01DC01F2D197F9F3672
:1005F00061F0903720F4983509F0ACC00FC0903707
:1006000039F0983709F0A6C004C028E030E00AC0ED
:10061000106114FD146020E130E004C014FD166088
:1006200020E132E017FF08C0F5016081718182810D
:10063000938144E050E008C0F50180819181BC01C4
:1006400080E090E042E050E0A40EB51EA1010E94BF
:10065000F403D82ED2188FE7F82EF122F6FE0BC045
:100660005EEFF522D91438F4F4FE07C0F2FC05C0A1
:100670008FEEF82202C01D2D01C0192DF4FE0DC011
:10068000FE01ED0DF11D8081803319F499EEF92200
:1006900008C01F5FF2FE05C003C08F2D867809F0E9
:1006A0001F5F0F2DF3FC14C0F0FE0FC01E1510F0DD
:1006B0009D2C0BC09D2C9E0C911A1E2D06C080E215
:1006C00090E0B3010E94C8031F5F1E15C0F304C071
:1006D0001E1510F4E11A01C0EE2404FF0FC080E3E0
:1006E00090E0B3010E94C80302FF1DC001FD03C0DA
:1006F00088E790E00EC088E590E00BC0802F8678F8
:1007000091F001FF02C08BE201C080E2F7FC8DE2B4
:1007100090E0B3010E94C80306C080E390E0B301FB
:100720000E94C8039A94D914C0F3DA94F101ED0D34
:10073000F11D808190E0B3010E94C803DD20A9F77C
:1007400006C080E290E0B3010E94C803EA94EE2064
:10075000C1F743CEF30166817781CB012B96E2E1AD
:100760000C94E823FC010590615070400110D8F70B
:10077000809590958E0F9F1F0895FC0161507040E9
:1007800001900110D8F7809590958E0F9F1F0895C6
:100790000F931F93CF93DF938C01EB018B8181FF2C
:1007A0001BC082FF0DC02E813F818C819D81281747
:1007B000390764F4E881F9810193F983E88306C07D
:1007C000E885F985802F0995892B31F48E819F81E9
:1007D00001969F838E8302C00FEF1FEFC801DF9148
:1007E000CF911F910F910895FA01AA27283051F156
:1007F000203181F1E8946F936E7F6E5F7F4F8F4F52
:100800009F4FAF4FB1E03ED0B4E03CD0670F781FB0
:10081000891F9A1FA11D680F791F8A1F911DA11D95
:100820006A0F711D811D911DA11D20D009F46894CE
:100830003F912AE0269F11243019305D3193DEF676
:10084000CF010895462F4770405D4193B3E00FD02C
:10085000C9F7F6CF462F4F70405D4A3318F0495D17
:1008600031FD4052419302D0A9F7EACFB4E0A695FA
:100870009795879577956795BA95C9F7009761051C
:10088000710508959B01AC010A2E06945795479572
:1008900037952795BA95C9F7620F731F841F951F67
:1008A000A01D0895AC01FB018585968582309105D8
:1008B00041F08330910539F0019759F483E090E0DD
:1008C00004C0178606C081E090E09687858781E0A6
:1008D0008787DA0180E101900D928150E1F7CA012A
:1008E0000895FC0180819181009711F00E94381CCD
:1008F0008DE061E00E94FD188DE061E00E948A19A0
:100900006AEF70E080E090E00E945D188DE060E0AA
:100910000E948A196AEF70E080E090E00E945D1802
:10092000EBCFEF92FF920F931F937C018B01FB01A2
:1009300080819181F70191838083FB018281938182
:10094000F701938382836C5F7F4FC70104960E94F7
:10095000E120F80183859485F701948783871F91AF
:100960000F91FF90EF900895EF92FF920F931F93D6
:10097000DF93CF93CDB7DEB765970FB6F894DEBFA0
:100980000FBECDBF8130910509F0A2C06F5F7F4FD0
:1009900009F0E7C08CED94E060E070E00E94A515DE
:1009A00080933A047E010894E11CF11CC70160E0C9
:1009B00071E00E94962088E594E060E070E044E0F9
:1009C00050E021E030E087010E946F15C7010E94CE
:1009D000EC2098E0E92EF12CEC0EFD1EC70166E03C
:1009E00071E00E94962085E694E061E070E04CE0C2
:1009F00050E022E030E087010E946F15C7010E949D
:100A0000EC208FE0E82EF12CEC0EFD1EC7016CE00F
:100A100071E00E94962082E794E065E070E04BE090
:100A200050E023E030E087010E946F15C7010E946B
:100A3000EC20109285041092840410928704109286
:100A40008604109289041092880410928B041092EC
:100A50008A04109281041092800480E290E00E9447
:100A6000B8159093830480938204009731F480E852
:100A700094E062E171E00E94710482E090E0909362
:100A80008504809384048CE894E068E574E00E9417
:100A9000910489E994E065E674E00E94910486EA95
:100AA00094E062E774E00E94910483EB94E068E5CF
:100AB00074E00E94910480EC94E065E674E00E948A
:100AC00091048DEC94E062E774E00E94910449C0C7
:100AD000892B09F046C06F5F7F4F09F042C081ED5E
:100AE00094E00E94EC2084EC94E00E94EC2087EBE0
:100AF00094E00E94EC208AEA94E00E94EC208DE9C8
:100B000094E00E94EC2080E994E00E94EC20809127
:100B10008204909183040E943F16109283041092E5
:100B20008204109281041092800410928504109225
:100B30008404109287041092860410928904109203
:100B4000880410928B0410928A0486E794E00E9435
:100B5000EC2089E694E00E94EC208CE594E00E9471
:100B6000EC2065960FB6F894DEBF0FBECDBFCF91D7
:100B7000DF911F910F91FF90EF90089580E090E03A
:100B80006FEF7FEF0E94B404089581E090E06FEF73
:100B90007FEF0E94B40408958F929F92AF92BF920C
:100BA000CF92DF92EF92FF920F931F93CF93DF9339
:100BB000EC015B011616170624F062E471E00E9456
:100BC0007104C50154E0880F991F5A95E1F70E94FE
:100BD000B815F82EE92E082F192F0115110529F443
:100BE000CE0167E771E00E9471048E809F808F2D97
:100BF0009E2D9C01790120E030E01CC088859985FC
:100C00006C817D81820F931F0E947D23FC0144E053
:100C1000EE0FFF1F4A95E1F7D701EC0DFD1D80E1B6
:100C200001900D928150E1F72F5F3F4F80E190E0FE
:100C3000E80EF91ECA80DB8028153905FCF2C601D2
:100C40000E943F161B830A83198618868E819F8116
:100C50009B878A87BD82AC82DF91CF911F910F91D4
:100C6000FF90EF90DF90CF90BF90AF909F908F90CC
:100C700008950F931F93CF93DF93EC01162F072F47
:100C80006E817F818C819D816817790729F4660FB9
:100C9000771FCE010E94CC054A855B85CA0164E0BE
:100CA000880F991F6A95E1F7EA81FB81E80FF91F28
:100CB000212F302FC901DC0180E10D90019281507C
:100CC000E1F79A012F5F3F4F3B872A878C819D81F7
:100CD0002817390711F41B861A868E819F81019689
:100CE0009F838E83DF91CF911F910F9108950F9372
:100CF0001F93DF93CF93CDB7DEB7A0970FB6F894CD
:100D0000DEBF0FBECDBF8E010F5F1F4FC8010E9417
:100D1000A11582E090E09F878E8780EE97E09B830D
:100D20008A8382E08C8391E09D838CE38E831F8293
:100D3000188619861A861B8688E08983988B80918D
:100D40003F0490914004DE015196F80120E10190AA
:100D50000D922150E1F78E010F5E1F4FB8010E94E6
:100D60003906C8010E94A415CE0101960E94A4155F
:100D7000A0960FB6F894DEBF0FBECDBFCF91DF9126
:100D80001F910F910895EF92FF920F931F93CF93AE
:100D9000DF93EC018B018F85882309F45AC087E02B
:100DA00061E00E948A19C8010E9401137C0181E060
:100DB000E816F104A9F082E0E816F104E9F0E11484
:100DC000F10411F080E046C049815A81C801688170
:100DD00023969E010E942412C8010E94161417C077
:100DE00049815A81C801688123969E010E94CD11D4
:100DF000C8010E9402140BC049815A81C801688150
:100E000023969E010E947611C8010E94EE138091E4
:100E1000DB048823D1F08AE295E06EEB71E00E945A
:100E2000351C8AE295E0B7014AE050E00E94221C9E
:100E30008AE295E064ED71E00E94351C0C5F1F4F63
:100E40008AE295E0B8010E947E1C87E060E00E9483
:100E50008A1981E0DF91CF911F910F91FF90EF9060
:100E600008950F931F938AE295E060E072EC0E9470
:100E7000BD1987E061E00E94FD1887E061E00E94F3
:100E80008A1964E670E080E090E00E945D1887E0D7
:100E900060E00E948A1964E670E080E090E00E94C1
:100EA0005D1887E061E00E948A1964E670E080E0E6
:100EB00090E00E945D1887E060E00E948A1964E675
:100EC00070E080E090E00E945D1887E061E00E94A1
:100ED0008A1964E670E080E090E00E945D1887E087
:100EE00060E00E948A1908E514E0C8010E943215EA
:100EF000C8016DE770E00E946E14C80161E070E007
:100F00000E942A1405E614E0C8010E943215C801A7
:100F100064EF71E00E946E14C80161E070E00E940D
:100F20002A1402E714E0C8010E943215C8016DE7D7
:100F300070E00E946E14C80161E070E00E942A1403
:100F400087E061E00E948A1964E670E080E090E04A
:100F50000E945D1887E060E00E948A1964E670E0F4
:100F600080E090E00E945D1880E894E09093400457
:100F700080933F0410925304909357048093560437
:100F80001F910F910895EF92FF920F931F93CF93AC
:100F9000DF937C018B01C0E0D0E011C00C171D076E
:100FA00048F08AE295E00E94E519F701EC0FFD1F79
:100FB000808304C08AE295E00E94E51921968AE2C6
:100FC00095E00E94BE19892B49F7CE01DF91CF91A0
:100FD0001F910F91FF90EF9008950F931F93DF9350
:100FE000CF93CDB7DEB7AC970FB6F894DEBF0FBE88
:100FF000CDBFCE0101966CE070E00E94C3078E0168
:10100000035F1F4FC8010E94A11589818A8F1B8E23
:101010009A8180E02B81820F911D9F878E878C8122
:10102000888B8D81898B8E818A8B8F818B8B888534
:101030008C8B89858D8B8A858E8B8B858F8B8C8510
:101040008D8781E08C8F8091560490915704DE014A
:101050005D96F80120E101900D922150E1F78E019B
:10106000035E1F4FB8010E943906C8010E94A415F3
:10107000CE010D960E94A415AC960FB6F894DEBF73
:101080000FBECDBFCF91DF911F910F9108950F93A8
:101090001F93DF93CF930F92CDB7DEB7CE010196AA
:1010A00061E070E00E94C307898180930A040AE22C
:1010B00015E0C8016EED71E00E94351CC801609119
:1010C0000A0440E150E00E94D01BC80160E072E0D9
:1010D0000E94381C0F90CF91DF911F910F910895BE
:1010E0000F931F93DF93CF9300D00F92CDB7DEB74E
:1010F000CE01019663E070E00E94C307898180936E
:1011000053049A8180E02B81820F911D90935504A6
:10111000809354040AE215E0C80162E072E00E9484
:10112000351CC801609153044AE050E00E94D01B76
:10113000C8016FE172E00E94351C60915404709107
:101140005504C80140E150E00E94BF1BC80160E0A7
:1011500072E00E94381C0F900F900F90CF91DF919A
:101160001F910F910895EF92FF920F931F937C01AF
:101170000AE215E0C8016CE272E00E94351CB7017A
:101180006C5F7F4FC8010E944B1CC8016EE472E087
:101190000E94351CC7010E947B12682FC80142E0E3
:1011A00050E00E94D01BC8016DE572E00E94351C22
:1011B000C7010E94E412682FC80142E050E00E947B
:1011C000D01BC8016BE672E00E94351CC7016DE2BE
:1011D00070E00E94C112682FC80142E050E00E94F6
:1011E000D01BC80168E772E00E94351CC7010E944D
:1011F0009E12682FC80142E050E00E94D01BC80137
:1012000064E872E00E94351CC7010E940113BC0112
:10121000C8014AE050E00E94221CC80168E972E05F
:101220000E94381C1F910F91FF90EF900895EF924C
:10123000FF920F931F93DF93CF93CDB7DEB7A7979E
:101240000FB6F894DEBF0FBECDBF8AE295E06BE922
:1012500072E00E94381C03EB14E07E010894E11C4C
:10126000F11CC701B8010E949104C7010E94B30894
:10127000CE0105960E94EC20AEE0EA2EF12CEC0E99
:10128000FD1E035F1F4FC701B8010E949104C701F3
:101290000E94B308CE0142960E94EC20FBE1EF2EA3
:1012A000F12CEC0EFD1E035F1F4FC701B8010E9419
:1012B0009104C7010E94B308CE014F960E94EC2012
:1012C000A7960FB6F894DEBF0FBECDBFCF91DF91CA
:1012D0001F910F91FF90EF9008958230910579F062
:1012E000833091051CF4019791F406C08330910579
:1012F00049F0049761F409C00E94170908950E94FB
:10130000ED0708950E94700808950E944708089507
:101310008AE295E00E94BE191816190634F48AE292
:1013200095E00E94E5190E946D090895EF92FF92E1
:101330000F931F937C010E94F9170027F7FC00957B
:10134000102FE60EF71E081F191FE0924F04F092AF
:10135000500400935104109352041F910F91FF9079
:10136000EF900895EF92FF920F931F937C010E94DC
:10137000F9170027F7FC0095102FE60EF71E081F3F
:10138000191FE0920604F0920704009308041093DA
:1013900009041F910F91FF90EF900895EF92FF9233
:1013A0000F931F93E0900604F09007040091080447
:1013B000109109040E94F9176E157F0580079107A7
:1013C00018F42CEE33E014C0E0904F04F090500479
:1013D00000915104109152040E94F9176E157F0577
:1013E0008007910718F02FED33E002C029EF33E0BA
:1013F000C9011F910F91FF90EF900895EF92FF9216
:101400000F931F93DF93CF93CDB7DEB7C056D04075
:101410000FB6F894DEBF0FBECDBF0E94CE097C018F
:101420008E010F5F1F4FC8010E94A11583E090E05D
:101430009F878E8780E992E09B838A8380EC8C83F0
:10144000F70180818D8381818E8382818F83838167
:1014500088878481898785818A8786818B8788E0D0
:10146000898381E0888B80913F0490914004DE0164
:101470005196F80120E101900D922150E1F78E0183
:101480000F5E1F4FB8010E943906C8010E94A415C3
:101490008E010F5D1F4FC8010E94A11583E090E0EF
:1014A0009FA78EA781E992E09BA38AA387E88CA3DC
:1014B000F70187818DA380858EA381858FA3828587
:1014C00088A7838589A788E089A381E088AB80917C
:1014D0003F0490914004DE01D196F80120E1019093
:1014E0000D922150E1F78E010F5C1F4FB8010E9451
:1014F0003906C8010E94A4158E010F5B1F4FC80159
:101500000E94A11581E090E0FE01E25BFF4F918314
:1015100080838FE892E0FE01EE5BFF4F9183808332
:1015200080ECFE01EC5BFF4F8083FE01EB5BFF4F25
:101530001082FE01EA5BFF4F1082FE01E95BFF4F64
:10154000108291E0FE01E85BFF4F908387E2FE018D
:10155000E75BFF4F808380E1FE01E65BFF4F808306
:1015600080E4FE01E55BFF4F808388E0F801808323
:10157000FE01E05BFF4F908380913F049091400417
:10158000DE01AF5ABF4FF80120E101900D922150CA
:10159000E1F78E010F5A1F4FB8010E943906C801AA
:1015A0000E94A415CE018F5B9F4F0E94A415CE010F
:1015B00081960E94A415CE0101960E94A415C05ADE
:1015C000DF4F0FB6F894DEBF0FBECDBFCF91DF91D6
:1015D0001F910F91FF90EF900895EF92FF920F935C
:1015E0001F9380913A04882309F445C0E090DD03FD
:1015F000F090DE030027F7FC0095102F80913B044C
:1016000090913C04A0913D04B0913E04E80EF91E77
:101610000A1F1B1F0E94F917E616F706080719078D
:10162000D8F4E0900604F0900704009108041091AB
:1016300009040E94F917E616F7060807190760F46F
:101640000E94FE090E94F91760933B0470933C04CA
:1016500080933D0490933E040E94F91724E630E005
:1016600040E050E00E9490236115710581059105CD
:1016700011F40E9477061F910F91FF90EF9008954B
:101680000F931F93CF93DF93EC018091530482302B
:1016900059F429813A818091540490915504281776
:1016A000390709F0A6C018C0833051F429813A8166
:1016B00080915404909155042817390768F499C013
:1016C000843051F429813A818091540490915504D9
:1016D0008217930708F48DC08D859E85019721E0C0
:1016E00030E002C0220F331F8A95E2F730E080918C
:1016F0000A0490E028233923232B09F47AC08AE2D4
:1017000095E060EE72E00E94351C6B857C858AE274
:1017100095E040E150E00E94BF1B8AE295E067EF50
:1017200072E00E94351C2D853E858DE090E0289F5B
:10173000B001299F700D389F700D112466557B4FA5
:101740008AE295E00E944B1C8AE295E065E073E036
:101750000E94351C8AE295E0688140E150E00E94D9
:10176000D01B8AE295E062E173E00E94351C69813A
:101770007A818AE295E040E150E00E94BF1B8AE254
:1017800095E06BE173E00E94351C0E94F917AB01F4
:10179000BC018AE295E02AE030E00E94B01B8AE2B8
:1017A00095E06BE273E00E94351C8E01C0E0D0E052
:1017B0008AE295E0F801638140E150E00E94D01B8D
:1017C000C730D10531F08AE295E06AE373E00E9408
:1017D000351C21960F5F1F4FC830D10549F78AE2AB
:1017E00095E06EE373E00E94351C8AE295E00E946A
:1017F000101BDF91CF911F910F910895CF92DF922F
:10180000EF92FF920F931F93DF93CF93CDB7DEB785
:1018100060970FB6F894DEBF0FBECDBFD82EC92E8D
:10182000F62EE72E809153048823A1F0DE01119655
:10183000862F972F9C01F90180E101900D92815034
:10184000E1F78E010F5F1F4FC8010E94400BC801D6
:101850000E94A4152D2D3C2DC901DC012F2D3E2DFC
:10186000C901FC0180E101900D928150E1F78D2DBD
:101870009C2D60960FB6F894DEBF0FBECDBFCF9102
:10188000DF911F910F91FF90EF90DF90CF9008951F
:10189000CF92DF92EF92FF920F931F93CF93DF933C
:1018A000D82EC92EEB0180913A04882351F48D2D56
:1018B0009C01D901FB0180E101900D928150E1F77B
:1018C000D1C189819A818F589240D1F4E090060469
:1018D000F090070400910804109109040E94F91780
:1018E000E616F7060807190758F480EC8B831C826C
:1018F0001D821E8287E2888780E1898781E08F8749
:1019000089819A818059924009F06EC04C81242FC0
:1019100030E08091EC03992787FD909528173907CF
:10192000E1F52D8130E08091ED03992787FD9095B9
:101930002817390791F52E8130E08091EE03992721
:1019400087FD90952817390741F52F8130E0809168
:10195000EF03992787FD909528173907F1F428851B
:1019600030E08091F003992787FD9095281739077B
:10197000A1F4298530E08091F103992787FD9095A6
:101980002817390751F42A8530E08091F20399270E
:1019900087FD909528173907A1F04093EC038D81BE
:1019A0008093ED038E818093EE038F818093EF030C
:1019B00088858093F00389858093F1038A858093DD
:1019C000F2030E94CE09FC0180818C8381818D838A
:1019D00082818E8383818F838481888785818987B3
:1019E00086818A8781E08F8789819A818159924097
:1019F00009F054C04C81242F30E08091F3039927E3
:101A000087FD90952817390741F52D8130E08091A9
:101A1000F403992787FD909528173907F1F42E8153
:101A200030E08091F503992787FD909528173907B5
:101A3000A1F42F8130E08091F603992787FD9095DE
:101A40002817390751F4288530E08091F70399274A
:101A500087FD90952817390791F04093F3038D8106
:101A60008093F4038E818093F5038F818093F60336
:101A700088858093F7038CED95E00E94B2090E945F
:101A8000CE09FC0187818C8380858D8381858E833F
:101A900082858F838385888781E08F8789819A817A
:101AA00080509240C9F58FED93E063E473E00E94AB
:101AB000AA016D8170E066527040762F66272E81F4
:101AC000620F711D882777FD8095982F0E946F22E5
:101AD00020E030E04AE752E40E94FB220E943C22D0
:101AE0008B019C017093420460934104CB0168EE2A
:101AF00073E00E947D237093440460934304C80103
:101B000068EE73E00E947D2364E670E00E947D230E
:101B1000709346046093450489819A81885E97405A
:101B200059F48E8127E0829FC001112495958795F5
:101B3000909348048093470489819A81885E9740F6
:101B400091F48D818C3379F49E8180E02F81820F16
:101B5000911D6AE070E00E947D236852704070938E
:101B60004A046093490489819A81885E974099F478
:101B70008D81813181F48E818B3669F488852AE0EC
:101B8000829FC0011124959587959595879590938F
:101B90004C0480934B0489819A818F539740E9F4D8
:101BA0008D818935D1F48E818A36B9F49F8180E0A8
:101BB0002885820F911D2BE030E0DC01A29FC0013F
:101BC000A39F900DB29F900D112464E670E00E94D7
:101BD0007D2370934E0460934D044DB75EB74A5019
:101BE00050400FB6F8945EBF0FBE4DBFEDB7FEB7C5
:101BF00031968FED93E0ADB7BEB712969C938E935E
:101C0000119780E593E093838283809143049091C0
:101C1000440495838483809145049091460497837E
:101C200086838091490490914A04918780870E941D
:101C3000B1014DB75EB7465F5F4F0FB6F8945EBF18
:101C40000FBE4DBF89819A818150924009F41F8651
:101C50008D2D9C2D9C01D901FE0180E101900D92FA
:101C60008150E1F78D2D9C2DDF91CF911F910F9128
:101C7000FF90EF90DF90CF900895EF92FF920F9337
:101C80001F93DF93CF93CDB7DEB7C057D0400FB6C9
:101C9000F894DEBF0FBECDBF7C01DE011196FC01C2
:101CA00080E101900D928150E1F78E010F5E1F4F90
:101CB000C801BE016F5F7F4F0E94FE0BD701F80184
:101CC00080E101900D928150E1F7CE0141960E9492
:101CD000A415CE0101960E94A415DE019196F7018C
:101CE00080E101900D928150E1F78E010F5C1F4F52
:101CF000C801BE016F5D7F4F0E94480CD701F801FB
:101D000080E101900D928150E1F7CE01C1960E94D1
:101D1000A415CE0181960E94A415DE01AF5BBF4FD2
:101D2000F70180E101900D928150E1F78E010F5A89
:101D30001F4FC801BE016F5B7F4F0E945204D70145
:101D4000F80180E101900D928150E1F7CE018F5AA8
:101D50009F4F0E94A415CE018F5B9F4F0E94A41538
:101D6000F7018785882399F0DE01AF59BF4F80E1E5
:101D700001900D928150E1F78E010F591F4F80E8BD
:101D800094E0B8010E943906C8010E94A415C05908
:101D9000DF4F0FB6F894DEBF0FBECDBFCF91DF91FE
:101DA0001F910F91FF90EF900895EF92FF920F9384
:101DB0001F93DF93CF93CDB7DEB7E0970FB6F894BC
:101DC000DEBF0FBECDBF7C010E94E41280937F0472
:101DD00080FF2EC08E010F5E1F4FC8010E94A1150B
:101DE00080917F048C8F1D8EF701838594859F8F52
:101DF0008E8FC701B801AE014C5E5F4F9E012E5E13
:101E00003F4F0E948013DE011196F80180E101909E
:101E10000D928150E1F78E010F5F1F4FC8010E94A4
:101E20003D0EC8010E94A415CE0141960E94A41542
:101E300080917F0481FF2EC08E010F5E1F4FC8016D
:101E40000E94A11580917F048C8F1D8EF7018385E0
:101E500094859F8F8E8FC701B801AE014C5E5F4F96
:101E60009E012E5E3F4F0E941613DE019196F801EF
:101E700080E101900D928150E1F78E010F5D1F4FBF
:101E8000C8010E943D0EC8010E94A415CE014196D2
:101E90000E94A415E0960FB6F894DEBF0FBECDBF2A
:101EA000CF91DF911F910F91FF90EF9008950F93C5
:101EB0001F938B0100D000D029EF33E0EDB7FEB7C0
:101EC00032832183948383830E94B1010F900F900A
:101ED0000F900F90C8010E9496091F910F910895CD
:101EE0001F938091D9030E94C51864E670E00E9498
:101EF0007D236330710589F0643071053CF46130F5
:101F0000710589F06230710551F40FC065307105BB
:101F100041F06730710519F40AC010E809C010E0FB
:101F200007C010E405C010E203C010E101C018E0D2
:101F30008091DB030E94C51864E670E00E947D2357
:101F40006230710541F06330710539F0613071051F
:101F500029F41C5F03C01E5F01C01F5F812F1F910A
:101F600008952F923F924F925F926F927F928F923D
:101F70009F92AF92BF92CF92DF92EF92FF920F9318
:101F80001F93DF93CF93CDB7DEB7C857D0400FB6BE
:101F9000F894DEBF0FBECDBF0E94700F982F8091C6
:101FA000DA048917B1F19093DA04903471F0913426
:101FB00028F4903181F0903261F50AC0923471F0CA
:101FC000903839F58DE593E020C08AE693E01DC096
:101FD00087E793E01AC084E893E017C040E080915F
:101FE0003A04882309F441E040933A048CED94E0EC
:101FF00060E070E00E94AC1580913A04882319F0EB
:1020000081E993E002C08EE993E060ED77E00E9401
:10201000570F0E94ED0A0E9488098E01085F1F4F2A
:10202000C80168E574E00E949104C8010E94D50EC1
:10203000CE010C960E94EC208E010B5E1F4FC80152
:1020400065E674E00E949104C8010E94D50ECE019D
:1020500049960E94EC208E010E5D1F4FC80162E779
:1020600074E00E949104C8010E94D50ECE018696AC
:102070000E94EC208091DB048823E1F080918604AB
:1020800090918704892BB1F08AE295E06BEA73E0C6
:102090000E94351C60918604709187048AE295E065
:1020A0004AE050E00E94221C8AE295E060E072E083
:1020B0000E94381C01E019E4E12EF12CEC0EFD1E0B
:1020C000BDE02B2E312CA9E56A2E712C6C0E7D1EE5
:1020D000FCE38F2E912C8C0E9D1EE4E04E2E512C95
:1020E000480C591C79E6A72EB12CAC0EBD1E6E0112
:1020F0000894C11CD11CA0C020918804309189048F
:10210000C90164E0880F991F6A95E1F7E0918204A4
:10211000F0918304D701E80FF91F80E101900D923F
:102120008150E1F7C9010196909389048093880456
:10213000FA013197F0938704E09386042091840498
:10214000309185048217930721F41092890410922C
:102150008804309789F0C90164E070E00E947D2313
:102160006E177F074CF0C90162E070E00E947D238A
:1021700080E894E00E94CC05F70185859685829DD4
:10218000B001839D700D929D700D112461587B4F9D
:10219000CE018F960E949104D301F70180E1019056
:1021A0000D928150E1F7C401BE01615D7F4F0E9435
:1021B0009104C301B4010E94C306082FC2010E940A
:1021C000EC20C3010E94A415002379F5D501F70185
:1021D00080E101900D928150E1F780E894E0B50133
:1021E0000E943906C5010E94A4158091DB04882352
:1021F000E1F0C60168EB73E00E94B020F70185852D
:102200009685829DB001839D700D929D700D112465
:102210006D577B4FC6010E945F20BC018AE295E0AA
:102220000E947E1CC6010E94F220CE01C3960E942D
:10223000EC20C7010E94A4154091860450918704A8
:102240004115510519F0002309F056CFC858DF4F4A
:102250000FB6F894DEBF0FBECDBFCF91DF911F91B7
:102260000F91FF90EF90DF90CF90BF90AF909F9035
:102270008F907F906F905F904F903F902F90089538
:10228000882319F48CB5806202C08CB58F7D8CBD1B
:1022900008959CB5937F982B9CBD08952CB5382F3D
:1022A00033702C7F322B3CBD2DB590E095958795F2
:1022B0009595879581702E7F822B8DBD089581E144
:1022C00061E00E948A1981E161E00E94FD188CB5ED
:1022D00080618CBD8CB580648CBD8FE061E00E9414
:1022E000FD1880E161E00E94FD180895DF92EF92F1
:1022F000FF920F931F93CF93DF938C01D62EEA01A9
:10230000F22EE32EFC01808160E00E948A1984E4B1
:102310008EBD0DB407FEFDCF8EB5CE0123E09695A0
:1023200087952A95E1F78EBD0DB407FEFDCF8EB5DA
:102330009E012295220F207E2EBD0DB407FEFDCFFB
:102340008EB51EBC0DB407FEFDCF8EB51EBC0DB400
:1023500007FEFDCF8EB5DEBC0DB407FEFDCF8EB5FA
:102360008F2D9E2D9C01F90190E008C080818EBDCB
:102370000DB407FEFDCF8EB59F5F31969D15B0F36E
:10238000F801808161E00E948A19DF91CF911F914D
:102390000F91FF90EF90DF900895DF92EF92FF9200
:1023A0000F931F93CF93DF938C01D62EEA01F22E69
:1023B000E32EFC01808160E00E948A1982E48EBDD8
:1023C0000DB407FEFDCF8EB5CE0133E0969587950F
:1023D0003A95E1F78EBD0DB407FEFDCF8EB59E0197
:1023E0002295220F207E2EBD0DB407FEFDCF8EB5A7
:1023F0001EBC0DB407FEFDCF8EB51EBC0DB407FE8E
:10240000FDCF8EB5DEBC0DB407FEFDCF8EB58F2D92
:102410009E2D9C01F90190E008C080818EBD0DB415
:1024200007FEFDCF8EB59F5F31969D15B0F3F80185
:10243000808161E00E948A19DF91CF911F910F91F5
:10244000FF90EF90DF900895DF92EF92FF920F934D
:102450001F93CF93DF938C01D62EEA01F22EE32E49
:10246000FC01808160E00E948A1980E48EBD0DB479
:1024700007FEFDCF8EB5CE0143E0969587954A9530
:10248000E1F78EBD0DB407FEFDCF8EB59E012295FE
:10249000220F207E2EBD0DB407FEFDCF8EB51EBCD3
:1024A0000DB407FEFDCF8EB51EBC0DB407FEFDCFEB
:1024B0008EB5DEBC0DB407FEFDCF8EB58F2D9E2DE3
:1024C0009C01F90190E008C080818EBD0DB407FE2B
:1024D000FDCF8EB59F5F31969D15B0F3F8018081D9
:1024E00061E00E948A19DF91CF911F910F91FF90B7
:1024F000EF90DF9008951F93CF93DF93EC018881D5
:1025000060E00E948A1983E08EBD0DB407FEFDCF06
:102510008EB58FE08EBD0DB407FEFDCF8EB58FEF6B
:102520008EBD0DB407FEFDCF1EB5888161E00E940F
:102530008A19812FDF91CF911F9108951F93CF9317
:10254000DF93EC01888160E00E948A1983E08EBDF0
:102550000DB407FEFDCF8EB58BE28EBD0DB407FE28
:10256000FDCF8EB58FEF8EBD0DB407FEFDCF1EB52E
:10257000888161E00E948A19812FDF91CF911F919C
:1025800008951F93CF93DF93EC01162F888160E0AD
:102590000E948A1983E08EBD0DB407FEFDCF8EB573
:1025A0001EBD0DB407FEFDCF8EB58FEF8EBD0DB4F1
:1025B00007FEFDCF1EB5888161E00E948A19812F38
:1025C000DF91CF911F9108951F93CF93DF93EC017B
:1025D000888160E00E948A1980EA8EBD0DB407FEF2
:1025E000FDCF8EB58FEF8EBD0DB407FEFDCF1EB5AE
:1025F000888161E00E948A19812FDF91CF911F911C
:1026000008950E94E41282FD03C020E030E00CC077
:1026100084FD03C021E030E007C086FD03C022E056
:1026200030E002C02FEF3FEFC90108959F92AF92B3
:10263000BF92CF92DF92EF92FF920F931F93CF93AF
:10264000DF93EC017B01B42EA52E6901888160E047
:102650000E948A1984E98EBD0DB407FEFDCF8EB5A8
:102660008FEF8EBD0DB407FEFDCF9EB48FEF8EBDF4
:102670000DB407FEFDCF0EB58FEF8EBD0DB407FE76
:10268000FDCF8EB58FEF8EBD0DB407FEFDCF8EB59D
:102690008FEF8EBD0DB407FEFDCF1EB51F708B2DC5
:1026A0009A2D9C01F90190E02FEF07C02EBD0DB4CB
:1026B00007FEFDCF8EB581939F5F9117B8F3888198
:1026C00061E00E948A19F701108302950695077050
:1026D000892D90E053E0880F991F5A95E1F7800FFC
:1026E000911DF60191838083DF91CF911F910F910E
:1026F000FF90EF90DF90CF90BF90AF909F900895A4
:102700009F92AF92BF92CF92DF92EF92FF920F9380
:102710001F93CF93DF93EC017B01042FB52E69014A
:10272000888160E00E948A1980E98EBD0DB407FEA1
:10273000FDCF8EB58FEF8EBD0DB407FEFDCF9EB4DD
:102740008FEF8EBD0DB407FEFDCFAEB48FEF8EBD03
:102750000DB407FEFDCF8EB58FEF8EBD0DB407FE15
:10276000FDCF8EB58FEF8EBD0DB407FEFDCF1EB52C
:102770001F70802F9B2D9C01F90190E02FEF07C067
:102780002EBD0DB407FEFDCF8EB581939F5F9117CF
:10279000B8F3888161E00E948A19F70110832A2D1D
:1027A00030E075E0369527957A95E1F7892D90E030
:1027B00063E0880F991F6A95E1F7280F391FF6012A
:1027C00031832083DF91CF911F910F91FF90EF9084
:1027D000DF90CF90BF90AF909F900895CF93DF93FD
:1027E000EC01888160E00E948A1983E88EBD0DB4F7
:1027F00007FEFDCF8EB5888161E00E948A19DF91C6
:10280000CF910895CF93DF93EC01888160E00E941F
:102810008A1982E88EBD0DB407FEFDCF8EB5888182
:1028200061E00E948A19DF91CF910895CF93DF93E1
:10283000EC01888160E00E948A1981E88EBD0DB4A8
:1028400007FEFDCF8EB5888161E00E948A19DF9175
:10285000CF9108951F93CF93DF93EC016230710500
:10286000A9F0633071053CF46115710559F06130D0
:10287000710589F409C06330710551F06430710548
:1028800051F408C010E807C010E005C010E203C012
:1028900010E601C010E4888160E00E948A1985E09A
:1028A0008EBD0DB407FEFDCF8EB58FE08EBD0DB48D
:1028B00007FEFDCF8EB580EE8EBD0DB407FEFDCFB9
:1028C0008EB51EBD0DB407FEFDCF8EB5888161E0CB
:1028D0000E948A19DF91CF911F910895FF920F9363
:1028E0001F93CF93DF93EC016436710541F1653698
:1028F000710554F464317105D9F062337105E9F062
:102900006A30710541F512C06A3F7105E1F06B3F15
:10291000710524F46D377105F1F413C081E0643F53
:10292000780799F0685E7340B1F411C011E301C0FB
:1029300018E108EBF5E0FF2E0EC019E0FACF14E025
:10294000F8CF13E0F6CF11E0F4CF10E0F2CF10E8AB
:1029500000E9E2E0FE2E888160E00E948A196AE0C8
:1029600070E080E090E00E945D1882E08EBD0DB4C2
:1029700007FEFDCF8EB58AE28EBD0DB407FEFDCFFA
:102980008EB51EBD0DB407FEFDCF8EB56AE070E0BA
:1029900080E090E00E945D18888161E00E948A19C1
:1029A0006AE070E080E090E00E945D18888160E05D
:1029B0000E948A196AE070E080E090E00E945D1851
:1029C00082E08EBD0DB407FEFDCF8EB589E28EBDCF
:1029D0000DB407FEFDCF8EB50EBD0DB407FEFDCFC5
:1029E0008EB56AE070E080E090E00E945D1888811A
:1029F00061E00E948A196AE070E080E090E00E9445
:102A00005D18888160E00E948A196AE070E080E0C9
:102A100090E00E945D1882E08EBD0DB407FEFDCFF0
:102A20008EB588E28EBD0DB407FEFDCF8EB5FEBC1F
:102A30000DB407FEFDCF8EB56AE070E080E090E057
:102A40000E945D18888161E00E948A196AE070E046
:102A500080E090E00E945D18DF91CF911F910F916F
:102A6000FF9008950F931F938C018FE061E00E9407
:102A7000FD188EE060E00E94FD1880E161E00E9498
:102A8000FD18F801808161E00E94FD18F801828143
:102A900061E00E94FD180E945F1180E00E944911D0
:102AA00080E00E944E1181E00E944011F801828175
:102AB00060E00E948A1962E370E080E090E00E948A
:102AC0005D18F801828161E00E948A1964E670E075
:102AD00080E090E00E945D181F910F9108956F9221
:102AE0007F928F929F92AF92BF92CF92DF92EF929E
:102AF000FF920F931F937C015B014A013901A4E00F
:102B0000CA2ED12CC80ED91EC60160ED73E00E94FA
:102B10009620F701B182A0829382828274866386B6
:102B2000C601B8010E94CA201F910F91FF90EF903B
:102B3000DF90CF90BF90AF909F908F907F906F90DD
:102B40000895FC01178608950895F999FECF72BD86
:102B500061BDF89A80B50895F999FECF1FBA72BD8C
:102B600061BD40BD0FB6F894FA9AF99A0FBE089568
:102B70000F931F93CF93DF93BC018230910510F424
:102B800062E070E0E0914E05F0914F05A0E0B0E00A
:102B900040E050E024C08081918186179707D0F0F3
:102BA0008617970771F482819381109729F0139605
:102BB0009C938E9312972CC090934F0580934E0553
:102BC00027C04115510519F08417950718F4EF0136
:102BD0008D01AC01DF01828193819C01F901309765
:102BE000D1F641155105F9F0CA01861B970B8430C7
:102BF000910580F48A819B810115110521F0F8016E
:102C00009383828304C090934F0580934E05FE0109
:102C100032962FC0FE01E80FF91F6193719302975E
:102C20009983888326C08DB79EB78857904020919E
:102C30000B0430910C0428173907C8F4AC01421B6F
:102C4000530B4617570798F0CB01029648175907C0
:102C500070F0820F931F90930C0480930B04909359
:102C60000E0480930D04F9016193719302C0E0E0BA
:102C7000F0E0CF01DF91CF911F910F910895CF9395
:102C8000DF939C01009709F48FC0EC0122971B820F
:102C90001A8260914E0570914F056115710581F49E
:102CA00088819981820F931F20910B0430910C042D
:102CB0002817390739F5D0930C04C0930B0474C05E
:102CC000DB0140E050E0AC17BD0708F1BB83AA83ED
:102CD000FE0121913191E20FF31FAE17BF0779F486
:102CE0008D919C911197280F391F2E5F3F4F39838B
:102CF000288312968D919C9113979B838A8341150B
:102D0000510571F4D0934F05C0934E054DC01296F6
:102D10008D919C911397AD01009711F0DC01D3CFF9
:102D2000DA011396DC93CE931297FA012191319137
:102D3000E20FF31FCE17DF0769F488819981280F0E
:102D4000391F2E5F3F4FFA01318320838A819B8197
:102D500093838283E0E0F0E0DB0112968D919C91F9
:102D60001397009719F0BC01FD01F6CFAB014E5F40
:102D70005F4FDB018D919C91840F951F20910B0477
:102D800030910C042817390779F4309729F4109200
:102D90004F0510924E0502C01382128242505040DD
:102DA00050930C0440930B04DF91CF9108956F92E0
:102DB0007F928F929F92AF92BF92CF92DF92EF92CB
:102DC000FF920F931F93CF93DF938C01009729F409
:102DD000CB010E94B8158C01B4C08EEFE82E8FEFA6
:102DE000F82EE00EF11E5801A60EB71EAE14BF0459
:102DF00008F4A5C0D7014D915C911197461757076C
:102E0000B8F04530510508F49CC0CA0104978617F4
:102E1000970708F496C042505040461B570BF501E7
:102E2000419351936D937C93CF010E943F1689C0CB
:102E30004B01841A950A3801640E751EA0914E0547
:102E4000B0914F05CC24DD24E0E0F0E047C0A615AA
:102E5000B705A9F5CD91DC911197CE0102968815A1
:102E6000990568F1CE0188199909029612962C915C
:102E7000129713963C91059758F0F50122833383FE
:102E8000C819D909D183C083D7016D937C9309C038
:102E90004E5F5F4F4C0F5D1FF70151834083C901A7
:102EA000FC01C114D10431F0D6011396FC93EE93CA
:102EB000129747C0F0934F05E0934E0542C08D91A5
:102EC0009C911197E817F90708F4FC016D0112961F
:102ED0008C91129713969C919C01D901109709F03F
:102EE000B6CF80910B0490910C0486159705B1F430
:102EF000E617F70798F48DB79EB788579040A81645
:102F0000B906E8F4B0920C04A0920B04B0920E043F
:102F1000A0920D04F7017183608313C0CB010E945E
:102F2000B815EC01009759F0D7014D915C91B801AB
:102F30000E94A101C8010E943F168E0102C000E05C
:102F400010E0C801DF91CF911F910F91FF90EF909A
:102F5000DF90CF90BF90AF909F908F907F906F90B9
:102F600008951F920F920FB60F9211242F933F9343
:102F70008F939F93AF93BF938091E1049091E2046C
:102F8000A091E304B091E4043091E5040196A11D01
:102F9000B11D232F2D5F2D3720F02D570196A11D38
:102FA000B11D2093E5048093E1049093E204A09383
:102FB000E304B093E4048091DD049091DE04A091D9
:102FC000DF04B091E0040196A11DB11D8093DD04E2
:102FD0009093DE04A093DF04B093E004BF91AF911F
:102FE0009F918F913F912F910F900FBE0F901F9047
:102FF00018958FB7F8942091E1043091E204409144
:10300000E3045091E4048FBFB901CA010895789494
:1030100084B5826084BD84B5816084BD85B58260DD
:1030200085BD85B5816085BDEEE6F0E0808181607B
:103030008083E1E8F0E0108280818260808380817B
:1030400081608083E0E8F0E0808181608083E1E955
:10305000F0E0808182608083808181608083E0E90C
:10306000F0E0808181608083E1ECF0E08081846029
:103070008083808182608083808181608083E3ECB3
:10308000F0E0808181608083E0ECF0E0808182600C
:103090008083E2ECF0E0808181608083EAE7F0E009
:1030A0008081846080838081826080838081816070
:1030B00080838081806880830895EF92FF920F93D0
:1030C0001F93CF93DF937B018C013FB7F8948091DE
:1030D000DD049091DE04A091DF04B091E00426B5F8
:1030E000A89B05C02F3F19F00196A11DB11D3FBF40
:1030F000BA2FA92F982F8827820F911DA11DB11DCE
:1031000052E0880F991FAA1FBB1F5A95D1F7EC01F7
:1031100030C00E94F8203FB7F8948091DD04909170
:10312000DE04A091DF04B091E00426B5A89B05C0A1
:103130002F3F19F00196A11DB11D3FBFBA2FA92F36
:10314000982F8827820F911DA11DB11D32E0880F95
:10315000991FAA1FBB1F3A95D1F78C1B9D0B885E48
:103160009340B8F20894E108F10801091109C85127
:10317000DC4FE114F1040105110559F6DF91CF91FF
:103180001F910F91FF90EF900895823108F08251C6
:10319000E82FF0E0E05DFE4FE49120917B008E2F60
:1031A00086958695869590E08170907035E0880FC1
:1031B000991F3A95E1F72F7D282B20937B00E7702C
:1031C00080910F048295880F880F807C8E2B8093CE
:1031D0007C0080917A00806480937A0080917A00EC
:1031E00086FDFCCF2091780040917900942F80E0FB
:1031F00030E0282B392BC9010895CF93DF93482F56
:1032000050E0CA018C509F4FFC0134914A525F4FED
:10321000FA018491882369F190E0880F991FFC01DD
:10322000E455FF4FA591B491FC01E654FF4FC591C1
:10323000D491662351F42FB7F8948C91932F9095E5
:1032400089238C93888189230BC0623061F42FB766
:10325000F8948C91932F909589238C938881832B5C
:1032600088832FBF06C09FB7F8948C91832B8C93D3
:103270009FBFDF91CF910895883071F1893068F454
:10328000823031F1833020F4813009F042C01DC01A
:10329000833089F08430E9F512C08B3059F18C30DD
:1032A00028F48930E9F08A30A1F51EC08C3031F164
:1032B0008E3079F529C0809180008F7703C080918E
:1032C00080008F7D80938000089584B58F7702C041
:1032D00084B58F7D84BD0895809190008F7707C05D
:1032E000809190008F7D03C080919000877F8093B4
:1032F000900008958091C0008F7703C08091C00036
:103300008F7D8093C00008958091C200877F809355
:10331000C2000895FF920F931F93F62E482F50E09E
:10332000CA018E5E9E4FFC012491CA018C509F4FB2
:10333000FC0114914A525F4FFA0104910023C9F035
:10334000222319F0822F0E943C19E02FF0E0EE0FAB
:10335000FF1FE654FF4FA591B4919FB7F894FF204B
:1033600021F48C911095812302C08C91812B8C9338
:103370009FBF1F910F91FF900895089520912605FA
:10338000309127058091280590912905281B390B3C
:103390002F733070C90108952091260530912705BB
:1033A00080912805909129052817390719F42FEFE6
:1033B0003FEF09C0E0912805F0912905EA51FB4F44
:1033C0008081282F30E0C901089520912605309191
:1033D000270580912805909129052817390719F4A8
:1033E0002FEF3FEF13C0E0912805F0912905EA5136
:1033F000FB4F2081809128059091290501968F73BC
:103400009070909329058093280530E0C9010895B4
:1034100010922D0510922C0588EE93E0A0E0B0E00C
:1034200080932E0590932F05A0933005B09331051E
:103430008EE194E090932B0580932A0508950F93D5
:103440001F93DF93CF930F92CDB7DEB78C016983C3
:1034500080911704882369F083E0BE016F5F7F4F7E
:1034600041E050E00E94641D1816190614F49C01F6
:1034700007C081E090E0F8019383828320E030E090
:10348000C9010F90CF91DF911F910F91089583E0B3
:103490000E943B1D0895CF93DF9312C082E00E94EB
:1034A000C61C2FEF8F3F9207C9F0E0912605F091DF
:1034B0002705EA51FB4F8083D0932705C09326054B
:1034C000C0912605D09127052196CF73D0708091A9
:1034D000280590912905C817D90701F7DF91CF91E9
:1034E0000895FC0180818E5F808380E86CE371E049
:1034F00042E450E00E94DF1C0895FC01818190812C
:10350000913A59F4813209F04CC080E060E174E0F6
:1035100047E050E00E94DF1C42C0913209F041C0F8
:10352000803239F480E194E067E070E00E94231D6E
:1035300036C0823209F035C08281809317048091B1
:10354000100490911104A0911204B0911304805BB7
:103550009440A040B04019F58091170480FD12C03E
:1035600087E797E790930108809300082BE088E1B4
:1035700090E00FB6F894A895809360000FBE20935A
:1035800060000DC088E10FB6F8948093600010923F
:1035900060000FBEA895109201081092000881E00B
:1035A000089580E00895CF93DF930E94071880E488
:1035B00095E00E94461D0E943107C0E0D0E00E94C5
:1035C000B10F2097E1F30E940000F9CFCF92DF9274
:1035D000EF92FF920F931F93CF93DF937C016B01C8
:1035E0008A01C0E0D0E00FC0D6016D916D01D70116
:1035F000ED91FC910190F081E02DC7010995C80F74
:10360000D91F015010400115110571F7CE01DF914E
:10361000CF911F910F91FF90EF90DF90CF90089581
:10362000EF92FF920F931F938C01DC01ED91FC91BF
:103630000190F081E02D6DE009957C01D801ED91BC
:10364000FC910190F081E02DC8016AE009959C0190
:103650002E0D3F1DC9011F910F91FF90EF9008950E
:10366000CF93DF93EC016115710519F420E030E090
:103670000FC0DB010D900020E9F71197A61BB70BD7
:10368000E881F9810280F381E02DAD0109959C016B
:10369000C901DF91CF9108954F925F927F928F92EF
:1036A0009F92AF92BF92CF92DF92EF92FF920F93D1
:1036B0001F93DF93CF93CDB7DEB7A1970FB6F894E2
:1036C000DEBF0FBECDBF2C01742ECB01223008F41B
:1036D0002AE019A231E2C32ED12CCC0EDD1E822E9F
:1036E0009924AA24BB24672D752FA50194010E945B
:1036F000902379018A01C801B701A50194010E94B4
:103700005E23472D461B0894C108D1084A3014F4A3
:10371000405D01C0495CF6014083E114F1040105FC
:10372000110521F07E2C5F2DC801DDCFC201B6014D
:103730000E94301BA1960FB6F894DEBF0FBECDBF1E
:10374000CF91DF911F910F91FF90EF90DF90CF907D
:10375000BF90AF909F908F907F905F904F90089513
:10376000DC012115310541F4ED91FC910190F081CE
:10377000E02D642F099508950E944C1B0895EF9247
:10378000FF920F931F939A017B0100E010E0B801B4
:10379000A7010E94B01B1F910F91FF90EF90089519
:1037A000EF92FF920F931F939A01E62EFF2400E001
:1037B00010E0B801A7010E94B01B1F910F91FF906C
:1037C000EF900895CF92DF92EF92FF920F931F93A5
:1037D000CF93DF93EC016A017B012115310541F4A0
:1037E000E881F9810190F081E02D642F09951FC0D7
:1037F0002A303105D1F477FF17C0E881F9810190B3
:10380000F081E02D6DE209958C0144275527BA011E
:103810004C195D096E097F09CE012AE00E944C1BFC
:103820009801280F391F04C02AE00E944C1B9C01FC
:10383000C901DF91CF911F910F91FF90EF90DF9021
:10384000CF900895EF92FF920F931F937B019A01FF
:103850000027F7FC0095102FB801A7010E94E21B7A
:103860001F910F91FF90EF9008950E94301B0895D3
:10387000EF92FF920F931F937C010E94301B8C01EB
:10388000C7010E94101B080F191FC8011F910F913B
:10389000FF90EF900895AF92BF92CF92DF92EF9298
:1038A000FF920F931F93CF93DF935C016B01EE2484
:1038B000FF24C0E0D0E010C0D501ED91FC91008163
:1038C0001181C601BE010E94D91F682FC501F801F0
:1038D0000995E80EF91E2196F60184819581C81795
:1038E000D90750F3C701DF91CF911F910F91FF903E
:1038F000EF90DF90CF90BF90AF900895EF92FF923E
:103900000F931F937C010E944B1C8C01C7010E94E6
:10391000101B9C01200F311FC9011F910F91FF90B7
:10392000EF900895282F80913A058823C1F057FF22
:103930001AC015C02898909339058091F1008193A1
:10394000E217F307B9F74115510539F08091F200FC
:10395000882319F48BE68093E800AFBF02C04FEFD5
:103960005FEFCA010895AFB7F89427702093E9007C
:103970008091F200282F30E0241735070CF4A901BC
:10398000FB019B01240F311D94E6DACFDF93CF9327
:103990000F92CDB7DEB7BE016F5F7F4F41E050E0C1
:1039A0000E94921C019719F02FEF3FEF03C089810D
:1039B000282F30E0C9010F90CF91DF910895FF9239
:1039C0000F931F93F82E142F052F40913D05509112
:1039D0003E05212F302FC901DC01FB016EEF29C00C
:1039E000F7FE02C0949101C0908120913B05309177
:1039F0003C0524173507ACF48091E8008570E1F3AD
:103A00008091E80082FF03C02FEF3FEF17C0909333
:103A1000F100C90101968F739070892B11F46093A6
:103A2000E8002F5F3F4F30933C0520933B051197F3
:103A300031961097A9F6812F902F9C01C9011F91F3
:103A40000F91FF9008959C018091E80082FFFCCFC8
:103A5000F901260F311D03C08091F1008193E21717
:103A6000F307D1F7289884E6809339058BEF80938C
:103A7000E800CB0108958093E9008091F20088234B
:103A800019F08AE38093E8000895089510923A05AA
:103A900081E08093D70080EA8093D80082E189BDDD
:103AA00009B400FEFDCF61E070E080E090E00E948C
:103AB0005D1880E98093D8008CE08093E20010923A
:103AC000E000559A209A08955F926F927F928F92AC
:103AD0009F92AF92BF92CF92DF92EF92FF920F939D
:103AE0001F93CF93DF93E82E842E752E80913A0595
:103AF000882371F18B01242F352FC901EC017AEF56
:103B0000F72E67E0962E9E2050E4552E8E2D90E0E5
:103B100040E2A42EB12CA822B9223AE3632E20E47D
:103B2000C22ED12CC822D92258C09FB7F8949092A7
:103B3000E9008091E80085FD02C020E004C080918A
:103B4000F200252D281B9FBF222361F4FA9419F45B
:103B50002FEF3FEF4DC061E070E080E090E00E9409
:103B60005D183BC0822F90E0C817D9070CF42C2FAA
:103B7000C21BD1094FB7F8949092E900A114B10487
:103B800021F406C01092F10021502223D9F719C068
:103B9000E7FC03C0F801922F10C0C801322F06C005
:103BA000FC010196E491E093F10031503323C1F719
:103BB00006C081918093F10091509923D1F7020FB3
:103BC000111D8091E80085FF05C0209729F4C114DC
:103BD000D10411F06092E8004FBF209709F0A5CF03
:103BE0005D9884E680933805282D372DC9019C0106
:103BF000C901DF91CF911F910F91FF90EF90DF905E
:103C0000CF90BF90AF909F908F907F906F905F907C
:103C100008951F920F920FB60F9211242F933F9386
:103C20004F935F936F937F938F939F93AF93BF93C4
:103C3000EF93FF938091E1001092E100982F83FFB2
:103C40000FC01092E90081E08093EB001092EC002D
:103C500082E38093ED0010923A0588E08093F000B3
:103C600092FF34C083E08093E9008091F2008823C2
:103C700019F08AE38093E8008FB7F89492E090936C
:103C8000E9009091F2008FBF992321F08AE295E03C
:103C90000E944B1A80913805882351F08091380595
:103CA00081508093380580913805882309F45D9A06
:103CB00080913905882351F0809139058150809396
:103CC000390580913905882309F4289AFF91EF91ED
:103CD000BF91AF919F918F917F916F915F914F9124
:103CE0003F912F910F900FBE0F901F9018950F933B
:103CF0001F93DF93CF930F92CDB7DEB719828E015A
:103D00000F5F1F4FC8010E94711AC8010E94302224
:103D1000898190E00F90CF91DF911F910F910895CD
:103D20001F920F920FB60F921124EF92FF921F93E2
:103D30002F933F934F935F936F937F938F939F93B3
:103D4000AF93BF93EF93FF93DF93CF93CDB7DEB7DE
:103D50006197DEBFCDBF1092E9008091E80083FF3C
:103D60000FC1FE0131969E01275F3F4F03C0809136
:103D7000F1008193E217F307D1F7289884E6809346
:103D8000390582EF8093E800998197FF05C0809103
:103D9000E80080FFFCCF03C08EEF8093E800292F5E
:103DA00030E0C90180769070892B09F0C2C08A8109
:103DB000882329F41092F1001092F100D6C08130CE
:103DC00009F4D3C0833009F4D0C0853049F4809120
:103DD000E80080FFFCCF8B8180688093E300C5C042
:103DE000863009F07CC01C81EF80F8841230C1F568
:103DF0001092E90010923C0510923B0510923E058E
:103E000010923D050E94771E99E0FE013996DF0170
:103E1000292F1D922A95E9F799871A8791E09E87A5
:103E200090E8988B9AEF998B20913B0530913C0557
:103E3000275F3F4F3C872B878D871092E9001092B8
:103E40003C0510923B05F0923E05E0923D0580E076
:103E5000BF0149E050E00E94DF1C0E94771E85C030
:103E60001092E90010923C0510923B05F0923E053D
:103E7000E0923D05123241F482E290E00E94282255
:103E8000892B09F476C071C0113079F488E0E81606
:103E9000F10419F481E080933F0580913F05882368
:103EA00009F06BC0ECEBF1E013C0133009F061C016
:103EB0008B81882319F4EEE7F1E00AC0823019F40F
:103EC000E2E8F1E005C0813009F053C0E4EAF1E036
:103ED000449180E8BF0150E00E94DF1C46C087305B
:103EE00009F447C0883021F481E08093F1003DC09F
:103EF0008930D9F523703070232BD9F5E1EEF1E04C
:103F000091E031E026E39093E9003093EB00849157
:103F10008093EC002093ED009F5F3196953099F7E8
:103F20008EE78093EA001092EA008B8180933A0535
:103F30001CC08F8198851092E90010923C05109268
:103F40003B0590933E0580933D058D81882329F4A0
:103F5000CE0101960E947D1A06C0823051F4CE0136
:103F600001960E94F920882321F08EEF8093E800CB
:103F700007C081E28093EB0003C0EEECF1E0A8CF34
:103F80006196DEBFCDBFCF91DF91FF91EF91BF91E1
:103F9000AF919F918F917F916F915F914F913F91E1
:103FA0002F911F91FF90EF900F900FBE0F901F90D9
:103FB0001895FC01848195816817790748F4019070
:103FC000F081E02D309721F0E60FF71F80810895F2
:103FD00080E008950F931F93CF93DF93EC018B0143
:103FE0006F5F7F4F888199810E94D716009711F4E7
:103FF00080E005C0998388831B830A8381E0DF9179
:10400000CF911F910F910895CF93DF93EC01888199
:104010009981892B29F08A819B818617970760F403
:10402000CE010E94EA1F882341F08C819D81892B5B
:1040300019F4E881F981108281E0DF91CF91089530
:10404000EF92FF920F931F93CF93DF93EC017B01CD
:104050006C817D81E114F104C1F04115510599F0A5
:104060008A01060F171FB8010E940420882369F0F7
:10407000888199812C813D81820F931FB7010E9415
:10408000AA011D830C8381E001C080E0DF91CF9104
:104090001F910F91FF90EF900895CF93DF93EC0164
:1040A00088819981009711F00E943F161982188229
:1040B0001D821C821B821A82DF91CF9108950F937B
:1040C0001F93182F092FFB01608171814481558155
:1040D0000E942020882321F4812F902F0E944D20C0
:1040E000812F902F1F910F910895EF92FF920F93C0
:1040F0001F93CF93DF93EC017B018A01BA010E94E9
:104100000420882321F4CE010E944D2007C01D8386
:104110000C8388819981B7010E94AA01CE01DF91A9
:10412000CF911F910F91FF90EF900895CF93DF9360
:10413000EC01198218821B821A821D821C821E8247
:104140006115710551F0DB010D900020E9F7119721
:10415000A61BB70BAD010E947520DF91CF9108958A
:10416000CF93DF93EC01198218821B821A821D8281
:104170001C821E826115710551F0DB010D9000203B
:10418000E9F71197A61BB70BAD010E947520DF91CF
:10419000CF910895CF93DF93EC01FB01861797072A
:1041A00061F0608171816115710529F0448155814B
:1041B0000E94752002C00E944D20CE01DF91CF9158
:1041C0000895FC01118210821382128215821482DA
:1041D00016820E94CA200895FC01808191810E946C
:1041E0003F160895FC01808191810E943F16089539
:1041F0000895FC0191818081813A31F4913089F0F8
:1042000080E0933089F40DC0813269F49B3021F451
:1042100082818093180405C09A3029F482818093AA
:10422000190481E0089580E00895EF92FF920F93C2
:104230001F938C01E62EDC01ED91FC910480F58149
:10424000E02D0995F82ED801ED91FC910680F781BB
:10425000E02DC8016E2D09958F2D90E01F910F91D3
:10426000FF90EF900895109241051092450510922D
:10427000440580E394E090934305809342050895BC
:10428000EF92FF920F931F93DF93CF930F92CDB7CF
:10429000DEB789838B017A0184E0BE016F5F7F4FB7
:1042A00041E050E00E94641D84E4B801A7010E942F
:1042B000641D0F90CF91DF911F910F91FF90EF90B0
:1042C000089582E048E050E00E9440210895FC01FA
:1042D00016821782108611861286138614823496EF
:1042E000BF010E9461210895DC01683810F0685810
:1042F00029C0E62FF0E067FF13C0E058F04081E0EE
:1043000090E002C0880F991FEA95E2F78095149615
:104310002C911497282314962C93149760E012C0C4
:10432000ED59FD4F6491662319F420E030E01DC083
:1043300067FF08C014968C9114978D7F14968C9308
:1043400014976F77FD0190E0662321F08681861730
:1043500009F416829F5F31969630B1F7CD0114961D
:10436000BD010E94612121E030E0C9010895CF9391
:10437000DF93DC01683810F0685825C0E62FF0E0C4
:1043800067FF12C0E058F04081E090E002C0880F63
:10439000991FEA95E2F714962C911497282B1496FE
:1043A0002C93149760E00FC0ED59FD4F6491662384
:1043B000D9F167FF08C014968C9114978260149607
:1043C0008C9314976F7716968C9116978617A9F190
:1043D00017968C911797861781F118968C911897DC
:1043E000861759F119968C911997861731F11A96FB
:1043F0008C911A97861709F11B968C911B9786173B
:10440000E1F0ED01E0E0F0E09E2F8E81882321F4C1
:10441000EA0FFB1F668306C09F5F31962196E63048
:10442000F10591F7963049F481E090E013969C9362
:104430008E93129720E030E007C0CD011496BD01A5
:104440000E94612121E030E0C901DF91CF91089500
:1044500080E865EE71E045E650E00E94DF1C0895BB
:10446000FC0180818F5F808380E86AE472E049E12B
:1044700050E00E94DF1C089504D06894B111B5C0CB
:10448000089598D088F09F5790F0B92F9927B75189
:10449000A0F0D1F0660F771F881F991F1AF0BA9508
:1044A000C9F712C0B13081F09FD0B1E008959CC02F
:1044B000672F782F8827B85F39F0B93FCCF38695FE
:1044C00077956795B395D9F73EF49095809570955B
:1044D00061957F4F8F4F9F4F0895E89409C097FBD8
:1044E0003EF490958095709561957F4F8F4F9F4FCB
:1044F0009923A9F0F92F96E9BB279395F69587950F
:1045000077956795B795F111F8CFFAF4BB0F11F4D1
:1045100060FF1BC06F5F7F4F8F4F9F4F16C0882378
:1045200011F096E911C0772321F09EE8872F762FAE
:1045300005C0662371F096E8862F70E060E02AF0EF
:104540009A95660F771F881FDAF7880F96958795DB
:1045500097F9089597F99F6780E870E060E0089503
:104560009FEF80EC089500240A941616170618068B
:104570000906089500240A94121613061406050667
:104580000895092E0394000C11F4882352F0BB0FF8
:1045900040F4BF2B11F460FF04C06F5F7F4F8F4F5B
:1045A0009F4F089557FD9058440F551F59F05F3F96
:1045B00071F04795880F97FB991F61F09F3F79F045
:1045C00087950895121613061406551FF2CF4695C7
:1045D000F1DF08C0161617061806991FF1CF869549
:1045E0007105610508940895E894BB27662777272D
:1045F000CB0197F908950BD0C4CFB5DF28F0BADF0F
:1046000018F0952309F0A6CFABCF1124EECFCADF67
:10461000A0F3959FD1F3950F50E0551F629FF001D5
:10462000729FBB27F00DB11D639FAA27F00DB11D2E
:10463000AA1F649F6627B00DA11D661F829F2227B7
:10464000B00DA11D621F739FB00DA11D621F839F3E
:10465000A00D611D221F749F3327A00D611D231F14
:10466000849F600D211D822F762F6A2F11249F5762
:1046700050408AF0E1F088234AF0EE0FFF1FBB1F85
:10468000661F771F881F91505040A9F79E3F510524
:1046900070F060CFAACF5F3FECF3983EDCF38695D5
:1046A00077956795B795F795E7959F5FC1F7FE2BCF
:1046B000880F911D9695879597F90895629FD0016F
:1046C000739FF001829FE00DF11D649FE00DF11DCD
:1046D000929FF00D839FF00D749FF00D659FF00D7C
:1046E0009927729FB00DE11DF91F639FB00DE11D69
:1046F000F91FBD01CF011124089597FB092E07264C
:104700000AD077FD04D02ED006D000201AF4709580
:1047100061957F4F0895F6F7909581959F4F089585
:10472000A1E21A2EAA1BBB1BFD010DC0AA1FBB1FB5
:10473000EE1FFF1FA217B307E407F50720F0A21B27
:10474000B30BE40BF50B661F771F881F991F1A9494
:1047500069F760957095809590959B01AC01BD01BE
:10476000CF010895AA1BBB1B51E107C0AA1FBB1FA5
:10477000A617B70710F0A61BB70B881F991F5A95ED
:10478000A9F780959095BC01CD010895EE0FFF1F0C
:104790000590F491E02D09942F923F924F925F92F1
:1047A0006F927F928F929F92AF92BF92CF92DF9241
:1047B000EF92FF920F931F93CF93DF93CDB7DEB7A6
:1047C000CA1BDB0B0FB6F894DEBF0FBECDBF09943A
:1047D0002A88398848885F846E847D848C849B8491
:1047E000AA84B984C884DF80EE80FD800C811B819F
:1047F000AA81B981CE0FD11D0FB6F894DEBF0FBECE
:10480000CDBFED01089512E0CCEED2E004C0FE0170
:104810000E94C8232296CE3ED107C9F7F894FFCF55
:104820004275732031004275732032004275732047
:10483000330051554555453A20696E737566666972
:104840006369656E74206D656D6F727920746F2079
:10485000696E697469616C697A65207175657565E1
:104860002E0051554555453A206572726F7220648D
:10487000756520746F20756E646573697261626C12
:10488000652073697A6520666F722071756575653C
:104890002073697A652E0051554555453A20696E59
:1048A00073756666696369656E74206D656D6F7298
:1048B0007920746F20696E697469616C697A65200A
:1048C00074656D706F726172792071756575652E92
:1048D0000053656E7420612030783744460053657C
:1048E0006E742061206D657373616765206F6E2043
:1048F00054584200207669612062757320007B2243
:104900006576656E74223A226C6F674275734669EC
:104910006C746572222C20226D6F6465223A20002F
:104920007D007B226576656E74223A226C6F674D3E
:104930006F6465222C20226D6F6465223A20002C62
:10494000202266696C746572223A20007B226576AB
:10495000656E74223A226368616E6E656C446562AE
:104960007567222C20226E616D65223A2200222C6E
:10497000202263616E6374726C223A2200222C2022
:1049800022737461747573223A2200222C202265EE
:1049900072726F72223A2200222C2022696E746594
:1049A000223A2200222C20226E65787454784275B7
:1049B00066666572223A2200227D007B226576655A
:1049C0006E74223A2276657273696F6E222C2022F1
:1049D0006E616D65223A2243414E427573205472D6
:1049E00069706C65204D617A6461222C20227665A5
:1049F0007273696F6E223A22302E312E32227D0080
:104A00007B227061636B6574223A207B2273746130
:104A1000747573223A2200222C226368616E6E65DF
:104A20006C223A2200222C226C656E677468223A4E
:104A30002200222C226964223A2200222C2274694C
:104A40006D657374616D70223A2200222C227061B0
:104A5000796C6F6164223A5B2200222C2200225D75
:104A60007D7D0020202020202020202020202000CC
:104A7000413A25642E256420453A2564004C45467C
:104A80005420202020202020200044455250202067
:104A90002020202020200048455250202020202087
:104AA000202020004E455250202020202020202071
:104AB000004D617A64614C4544204F4E20004D61A9
:104AC0007A64614C4544204F4646007B717565759C
:104AD00065436F756E743A00414C4C205458204227
:104AE0005546464552532046554C4C204F4E2000CB
:104AF0000044656661756C740012001300F4014394
:104B0000414E427573547269706C650020202020FC
:104B100020202020202020200020202020202020B5
:104B2000202020202000A00F000007500564000175
:104B300000E10000000000000101000000001F1A59
:104B4000E61ABE19E519CC19471A4B1A00000000E5
:0A4B50001521E61AB7217421672130
:00000001FF
