:100000000C942B020C94CD180C94FA180C9427190C
:100010000C9454190C9453020C9453020C948119AF
:100020000C9453020C9453020C94E5220C94B121CD
:100030000C9453020C9453020C9453020C945302EC
:100040000C9453020C9453020C9453020C945302DC
:100050000C9453020C9453020C9453020C94AE195A
:100060000C9453020C949F1D0C94D11D0C945302BC
:100070000C9453020C9453020C9453020C945302AC
:100080000C9453020C9453020C9453020C9453029C
:100090000C9453020C9453020C9453020C9453028C
:1000A0000C9453020C9453020C945302BD1AC01AC0
:1000B000AF1AB31AB91AE11AE11AE11AC41AC81A26
:1000C000CC1AD21AD61AE11ADC1A227D00222C2070
:1000D000226E6578745478427566666572223A229B
:1000E00000222C20226572726F72223A2200222C8A
:1000F0002022737461747573223A2200222C20220C
:1001000063616E6374726C223A22007B2265223A2C
:1001100022627573646762222C20226E616D6522F3
:100120003A2200227D007B226576656E74223A2297
:1001300076657273696F6E222C20226E616D652266
:100140003A2243414E42757320547269706C6520A7
:100150004D617A6461222C202276657273696F6E1C
:10016000223A22302E342E30222C20226D656D6FE3
:100170007279223A2200227D007B226576656E74B8
:10018000223A22656570726F6D44617461222C2081
:1001900022726573756C74223A226661696C75729D
:1001A00065222C20226368756E6B223A22007B2226
:1001B0006576656E74223A22656570726F6D536163
:1001C0007665222C2022726573756C74223A227334
:1001D000756363657373227D00227D007B226576E3
:1001E000656E74223A22656570726F6D4461746148
:1001F000222C2022726573756C74223A2273756307
:1002000063657373222C20226368756E6B223A2219
:10021000007B226576656E74223A22656570726F86
:100220006D5265736574222C2022726573756C742F
:10023000223A2273756363657373227D00000000A8
:100240000200090F0000030401000C000000000080
:10025000000000000000000000000004080201107F
:1002600040804010204080408008020401804020EF
:100270001002011080102040400404040404030410
:100280000502020202040302020202060606060634
:1002900006040402020204000000002300260029D4
:1002A000002C002F0000000000250028002B002E4D
:1002B00000310000000000240027002A002D00303B
:1002C00000080B0002020201000904000001020202
:1002D0000000052400100105240101010424020688
:1002E00005240600010705810310004009040100F0
:1002F000020A000000070502024000000705830211
:1003000040000000C18081C11201000202000040D3
:1003100041233680000101020001120100020000A9
:1003200000404123368000010102000141726475E2
:10033000696E6F204C4C430041726475696E6F208A
:100340004C656F6E6172646F000403090400000065
:1003500000000000002A2B28000000000000000020
:10036000000000000000000000000000002C9EB40F
:10037000A0A1A2A434A6A7A5AE362D3738271E1FEC
:1003800020212223242526B333B62EB7B89F848597
:10039000868788898A8B8C8D8E8F90919293949585
:1003A000969798999A9B9C9D2F3130A3AD35040563
:1003B000060708090A0B0C0D0E0F10111213141565
:1003C000161718191A1B1C1DAFB1B0B5000904028D
:1003D000000103000000092101010001226500075E
:1003E00005840340000105010902A1010901A100E2
:1003F00085010509190129031500250195037501DA
:10040000810295017505810305010930093109381B
:100410001581257F750895038106C0C00501090671
:10042000A1018502050719E029E7150025017501DD
:1004300095088102950175088103950675081500D8
:1004400025650507190029658100C000BB123D1C08
:10045000011E3425561311241FBECFEFDAE0DEBF94
:10046000CDBF14E0A0E0B1E0E4E1F9E502C0059001
:100470000D92A23DB107D9F727E0A2EDB4E001C08B
:100480001D92AE3AB207E1F714E0C4E5D4E004C02F
:100490002297FE010E947727CC34D107C9F70E942A
:1004A000451E0C947D2C0C940000089508952F9205
:1004B0003F924F925F926F927F928F929F92AF92F4
:1004C000BF92CF92DF92EF92FF920F931F93CF9341
:1004D000DF93CDB7DEB72E970FB6F894DEBF0FBE11
:1004E000CDBF4C01798768876A01DB011496ED91D5
:1004F000FC9115978081E82FF0E0FB87EA87F2E214
:100500008F9F800111240D5C1A4FE12CF12C8F5F1D
:100510008C87A885B9851496ED91FC9115978081FB
:1005200090E001962A853B852E0D3F1D821793078B
:100530000CF4BBC0980129513109F80175978081ED
:100540003196811104C09081992309F4A8C090E0EC
:10055000982F88274081840F911D0896D601119607
:100560004D915C9112974817590709F098C080E0A7
:1005700090E0F901E80FF91F4485442359F0D601B2
:10058000A40FB11D5C914585541389C00296863035
:10059000910579F7F801379780818695869586953C
:1005A0008250F601E80FF11D6381D80116978C91F6
:1005B00070E0803129F4762F66278481680F711DE1
:1005C000F8013597A080B12CBA2CAA2431968081ED
:1005D000A80EB11C3196208130E0322F22273196AF
:1005E0008081280F311D31962080312C322C22241D
:1005F000F8018081280E311C2115310511F421E00C
:1006000030E080E090E02D873E870E943A262B0163
:100610003C012D853E85B90180E090E00E943A269C
:100620009B01AC01C301B2010E94A6252B013C0134
:10063000B50180E090E00E943A269B01AC01C30125
:10064000B2010E94C8262B013C01B10180E090E07C
:100650000E943A269B01AC01C301B2010E944225CF
:100660000E940E26F80177972081318126173707DF
:10067000B1F071836083F7EEF98323E82A832C8538
:100680002E0D2B837C836D833DE03E838AE08F8338
:10069000BE016F5F7F4F87EF96E00E94B51E9FEF10
:1006A000E91AF90A0E5D1F4F34CF80E1F601D4013B
:1006B00001900D928A95E1F7C4012E960FB6F89439
:1006C000DEBF0FBECDBFDF91CF911F910F91FF9085
:1006D000EF90DF90CF90BF90AF909F908F907F90E2
:1006E0006F905F904F903F902F90089561E08DE064
:1006F0000E94E21A61E08DE00E941B1B6AEF70E02D
:1007000080E090E00E94271A60E08DE00E941B1BB1
:100710006AEF70E080E090E00E94271AEBCF00972C
:1007200011F00E94E41E0E9476036115710581F0AC
:10073000DB010D900020E9F7AD0141505109461B46
:10074000570BDC01ED91FC910280F381E02D0994BF
:1007500080E090E00895DC01ED91FC910190F08142
:10076000E02D09940F931F93CF93DF93EC018B013E
:10077000FB018081918199838883828193819B830E
:100780008A836C5F7F4FCE0104960E94F423F801A8
:10079000828593859B878A87DF91CF911F910F91E7
:1007A00008954EE351E060E070E00C94882BCF9305
:1007B000DF93C0E0D0E040E0BE0183E996E00E9414
:1007C00007142196C11582E0D807A9F7DF91CF91D0
:1007D00008950F931F93CF93DF93CDB7DEB7CE531A
:1007E000D1400FB6F894DEBF0FBECDBF0E94D70335
:1007F0008EE391E0E2E1F1E0DE01119601900D92CD
:100800000197E1F7CE0101960E94D1030E943304C3
:1008100061E172E087EA96E00E94D21E06E010E0F5
:1008200061E08DE00E941B1B64EF71E080E090E0CE
:100830000E94271A60E08DE00E941B1B64EF71E0AC
:1008400080E090E00E94271A0150110949F7C25C2C
:10085000DE4F0FB6F894DEBF0FBECDBFDF91CF9154
:100860001F910F9108958EE391E0ECE0F5E0DF0138
:100870009C011D9221503040E1F74EE351E060E0D1
:1008800070E0CF010E94702B80910D0581508E3F4A
:1008900010F00C94E90308950F931F93CF93DF9307
:1008A000EC018B0181E894E099838883CE0108965E
:1008B0000E94C1181D830C831F821E8287EA96E066
:1008C0009B838A83DF91CF911F910F910895EF92BF
:1008D000FF920F931F93CF93DF93EC018B01DB010A
:1008E0001D962D913C911E97A9014150510981E01F
:1008F00090E0042E01C0880F0A94EAF79F819823A4
:1009000009F489C08A819B81B6E0873F9B07E9F49F
:10091000FB0141815281F9013396EE0FFF1FEC0F6D
:10092000FD1F6081772767FD70956417750769F073
:10093000F901EE0FFF1FEC0FFD1F2781332727FD65
:1009400030952417350709F066C0DC01ED91FC9164
:100950000190F081E02D63E009958A819B81DC01A3
:10096000ED91FC910190F081E02DD8011D966C91E4
:1009700009958A819B81DC01ED91FC91D801129649
:100980006C910190F081E02D09958A819B81DC01B9
:10099000ED91FC910190F081E02DD80111966C91C0
:1009A0000995E12CF12C8A819B81DC01ED91FC9170
:1009B000D801AE0DBF1D0190F081E02D13966C9112
:1009C0000995BFEFEB1AFB0AE8E0EE16F10459F7C0
:1009D0008A819B81DC01ED91FC910190F081E02DF9
:1009E000D8016C9109958A819B81DC01ED91FC9184
:1009F0000190F081E02DD8011B966C91099569E674
:100A000072E08A819B81DF91CF911F910F91FF90BE
:100A1000EF900C949503DF91CF911F910F91FF9070
:100A2000EF900895EF92FF920F931F93CF93DF9370
:100A3000CDB7DEB760970FB6F894DEBF0FBECDBF5F
:100A40008C01CB017A0120E1FA01DE0111960190BF
:100A50000D922A95E1F7BE016F5F7F4F0E946704F8
:100A6000CE0101960E94CC1880E1F701D8010190D7
:100A70000D928A95E1F7C80160960FB6F894DEBF33
:100A80000FBECDBFDF91CF911F910F91FF90EF90DF
:100A90000895CF92DF92EF92FF920F931F93CF931F
:100AA000DF937C016A01EB0100E010E00C151D05ED
:100AB000E0F4D70112968D919C911397DC01ED9192
:100AC000FC910480F581E02D0995892B71F0F701E7
:100AD00082819381DC01ED91FC910680F781E02D0C
:100AE000099589930F5F1F4FE1CFC801DF91CF9127
:100AF0001F910F91FF90EF90DF90CF9008950F938B
:100B00001F93CF93DF9300D000D01F92CDB7DEB7F5
:100B10008C0145E050E0BE016F5F7F4F0E944905A8
:100B20008981843080F490E0FC013396EE0FFF1F42
:100B3000E00FF11F2B812083FC01EE0FFF1FE00F60
:100B4000F11F8D8187830F900F900F900F900F9062
:100B5000DF91CF911F910F910895EF92FF920F9324
:100B60001F93CF93DF93CDB7DEB762970FB6F8949C
:100B7000DEBF0FBECDBF8C01BE01635F7F4F86E03D
:100B8000DB011D928A95E9F746E050E0C8010E941A
:100B900049057C012D858FEF820F833060F0F801CD
:100BA00082819381DC01ED91FC910190F081E02D37
:100BB00060E8099567C030E0215031098CE0829FE0
:100BC000B001839F700D1124665B794FCE010196B1
:100BD0000E94B2032E85222359F08D85815001C0D9
:100BE000220F8A95EAF7F8018781822B878303C059
:100BF000D80117961C92B3E0EB16F1046CF160E09B
:100C000070E0CE0101960E94B215CE0101960E94BD
:100C1000C8176F8570E0288930E0498950E0EA897B
:100C2000F0E0CB01820F931F840F951F8E0F9F1F43
:100C3000892B61F0542F44274E0F5F1F762F6627B4
:100C4000620F731FCE0101960E946F1761E070E082
:100C5000CE0101960E94B215F80182819381DC01D8
:100C6000ED91FC910190F081E02D6FEF099569E61F
:100C700072E0F801828193810E949503CE0105966E
:100C80000E94592362960FB6F894DEBF0FBECDBF07
:100C9000DF91CF911F910F91FF90EF9008950F93E7
:100CA0001F93CF93DF93CDB7DEB7A1970FB6F8941C
:100CB000DEBF0FBECDBF8C0142E250E0BE016F5FD0
:100CC0007F4F0E944905829789F58AA1813A71F583
:100CD000A98180E2A89FD0011124A45FBA4F80E2CD
:100CE000FE01329601900D928A95E1F76CED71E06C
:100CF000F801828193810E94821E4AE050E069815E
:100D0000F801828193810E94AE1F69ED71E0F801C4
:100D1000828193810E94D21E89818F30E9F48CE018
:100D200095E00E94D1036EEA71E011C069E771E0BD
:100D3000F801828193810E94821E4AE050E069811D
:100D4000F801828193810E94AE1F66E771E0F8018D
:100D5000828193810E94D21EA1960FB6F894DEBFC5
:100D60000FBECDBFDF91CF911F910F9108950F93CB
:100D70001F93CF93DF931F92CDB7DEB78C0141E075
:100D800050E0BE016F5F7F4F0E944905898182302C
:100D900029F08330F1F4F80116821BC081E0F801DC
:100DA000868361E08DE00E941B1B64E670E080E0BA
:100DB00090E00E94271A60E08DE00E941B1B64E611
:100DC00070E080E090E00E94271A61E08DE00E94D0
:100DD0001B1B0F90DF91CF911F910F910895CF931F
:100DE000DF93EC018A819B81DC01ED91FC91048011
:100DF000F581E02D0995892B51F08A819B81DC01D9
:100E0000ED91FC910680F781E02D0995EBCFDF9104
:100E1000CF9108950F931F93CF93DF93EC018B0134
:100E20006BE071E08A819B810E94821EB8016C5F39
:100E30007F4F8A819B810E94A71E6CEF70E08A81A0
:100E40009B810E94821E6FE070E0C8010E9416170D
:100E500040E150E0682F8A819B810E94AE1F6EEEB8
:100E600070E08A819B810E94821EC8010E94EA165E
:100E700040E150E0682F8A819B810E94AE1F61EEA5
:100E800070E08A819B810E94821E6DE270E0C80141
:100E90000E94161740E150E0682F8A819B810E94D2
:100EA000AE1F6DEC70E08A819B810E94821EC8019A
:100EB0000E9402174AE050E0BC018A819B810E9497
:100EC000991F6AEC70E08A819B81DF91CF911F911D
:100ED0000F910C94D21E0F931F93CF93DF93CDB736
:100EE000DEB72D970FB6F894DEBF0FBECDBF8C01D5
:100EF00041E050E0BE01635F7F4F0E9449052D85B0
:100F00002430C8F430E0215031098CE0829FB001D8
:100F1000839F700D1124665B794FCE0101960E946C
:100F2000B203BE016F5F7F4FC8010E940A07CE0166
:100F300005960E9459232D960FB6F894DEBF0FBE7A
:100F4000CDBFDF91CF911F910F91089520910B0597
:100F5000283078F4822F90E0FC01EE0FFF1FE80F9D
:100F6000F91FED50FB4F6083528341832F5F209325
:100F70000B050895F89481E08093E00080E280936F
:100F8000D8001092C90065E070E080E090E00E9417
:100F9000271A1DBA109268001CBC10BE1FBA10920E
:100FA0007A0010926E0010926F00109271000C94F3
:100FB000003808950F931F93CF93DF938C01C0E007
:100FC000D0E0BE0183E996E00E94041440E150E0C5
:100FD000682FF801828193810E94AE1FCF3FF1E01C
:100FE000DF0739F06BE672E0F801828193810E949D
:100FF000B51E2196C115F2E0DF0719F7DF91CF91F9
:101000001F910F910895CF93DF9300D0CDB7DEB736
:101010002091AA073091AB072115310511F42EEA72
:1010200037E0CE010196821B930B0F900F90DF915A
:10103000CF910895CF93DF93EC0166E271E08A814E
:101040009B810E94821ECE010E9403084AE050E06C
:10105000BC018A819B810E94991F63E271E08A81B1
:101060009B81DF91CF910C94D21E0F931F93CF934E
:10107000DF931F92CDB7DEB78C0141E050E0BE0197
:101080006F5F7F4F0E94490589818330B1F040F442
:10109000813079F08230E1F4C8010E94DA0718C08B
:1010A000803179F0863189F0843091F40E94E9032F
:1010B0000FC0C8010E941A080BC0C8010E944F0649
:1010C00007C0C8010E946B0703C0C8010E94BA078D
:1010D0000F90DF91CF911F910F910895EF92FF92A2
:1010E0000F931F93CF93DF93EC01CA012BE834E0F9
:1010F000398328837B836A8321E02A8BAE0166E1F2
:101100000E94A6071C821D821E821F8284EF91E02E
:10111000998788878E0102591F4FF801118210822A
:101120001A861B861C861D861E861F86188A198AAB
:101130006DE672E0CE0143960E9475297E01F0E2D1
:10114000EF0EF11C6EEA72E0C7010E9475296AE792
:1011500072E0CE018D960E947529C359DF4F8CE055
:101160008883B701C801DF91CF911F910F91FF9044
:10117000EF900C947529CF92DF92EF92FF92CF936C
:10118000DF93EC01CA84DB84EC84FD840E94F819AF
:101190006C157D058E059F0518F4CE01809610C054
:1011A000CE84DF84E888F9880E94F8196C157D05E3
:1011B0008E059F0518F4CE018D9602C0CE01439690
:1011C000DF91CF91FF90EF90DF90CF9008950F9334
:1011D0001F93CF93DF93EC018B010E94F819222714
:1011E00017FD2095322F600F711F821F931F6A8792
:1011F0007B878C879D87DF91CF911F910F910895F9
:10120000AF92BF92CF92DF92EF92FF920F931F9314
:10121000CF93DF935C018B01EA01FB018289882374
:1012200009F47EC189819A818F38924069F4FB016B
:10123000C284D384E484F5840E94F819C616D706C4
:10124000E806F90608F47FC189819A8180399240C5
:1012500009F063C04C81242F30E0F80180A1992768
:1012600087FD909528173907B1F52D8130E081A1D0
:10127000992787FD90952817390769F52E8130E069
:1012800082A1992787FD90952817390721F52F818D
:1012900030E083A1992787FD909528173907D9F465
:1012A000288530E084A1992787FD90952817390774
:1012B00091F4298530E085A1992787FD909528171D
:1012C000390749F42A8530E086A1992787FD909552
:1012D0002817390771F0F80140A38D8181A38E8111
:1012E00082A38F8183A3888584A3898585A38A852A
:1012F00086A3C8010E94BB08FC0180818C83818188
:101300008D8382818E8383818F8384818887858189
:10131000898786818A8781E08F8789819A8181394F
:10132000924009F04EC04C81242F30E0F80187A193
:10133000992787FD90952817390721F52D8130E0F1
:1013400080A5992787FD909528173907D9F42E8114
:1013500030E081A5992787FD90952817390791F4EA
:101360002F8130E082A5992787FD909528173907AE
:1013700049F4288530E083A5992787FD90952817A3
:10138000390779F0F80147A38D8180A78E8181A765
:101390008F8182A7888583A76CED75E0C8010E94C4
:1013A000E708C8010E94BB08FC0187818C83808507
:1013B0008D8381858E8382858F838385888781E075
:1013C0008F87D0900E058D2D90E0079714F4D3945D
:1013D00001C0D12C7801F3E1EF0EF11C6EEA72E04E
:1013E000C7010E947529A0910E0522E2A29FD0019B
:1013F0001124A45FBA4F1F968C911F9798962C9139
:10140000989780FF23C050968D919C9151976AE0E8
:1014100070E00E942B279F938F937F936F93822F6F
:10142000992787FD90959F932F938BEB92E09F9345
:101430008F93FF92EF920E947C298DB79EB70A96F8
:101440000FB6F8949EBF0FBE8DBF1DC051968C91F4
:1014500051978F9350968C918F93822F992787FD68
:1014600090959F932F9384EC92E09F938F93FF929C
:10147000EF920E947C29EDB7FEB738960FB6F8942C
:10148000FEBF0FBEEDBF22E2D29EF0011124E45F49
:10149000FA4F878520A5075E1F4F80FF21C08089F6
:1014A00091896AE070E00E942B279F938F937F932E
:1014B0006F93822F992787FD90959F932F938BEBA6
:1014C00092E09F938F931F930F930E947C298DB777
:1014D0009EB70A960FB6F8949EBF0FBE8DBF1AC076
:1014E00081898F9380898F93822F992787FD90958B
:1014F0009F932F9384EC92E09F938F931F930F936E
:101500000E947C29EDB7FEB738960FB6F894FEBF5F
:101510000FBEEDBF89819A818130924009F41F8608
:1015200080E1FE01D50101900D928A95E1F7C50198
:10153000DF91CF911F910F91FF90EF90DF90CF90AF
:10154000BF90AF90089580EC8B831C821D821E8219
:1015500087E2888780E1898781E08F8775CE0F9346
:101560001F93CF93DF93EC018B010E94F819222780
:1015700017FD2095322F600F711F821F931F6E87FA
:101580007F87888B998BC259DF4F19821882DF9130
:10159000CF911F910F9108950F931F93CF93DF93D6
:1015A000EC018A017F936F938D969F938F930E9496
:1015B0007C290F900F900F900F90B801CE01DF9112
:1015C000CF911F910F910C94AF0A1F93CF93DF938C
:1015D000CDB7DEB7C154D1090FB6F894DEBF0FBE48
:1015E000CDBFDB01FE0131969F01240F351FBF01E6
:1015F000E217F30719F01D911193FACFFC01E2599C
:10160000FF4F4D30510574F0518340833197408333
:10161000E8ECE49F9001E59F300D1124A9014056AC
:10162000504F04C01182108248E55BE10E94CC0A51
:10163000CF5BDF4F0FB6F894DEBF0FBECDBFDF919B
:10164000CF911F9108950F931F93CF93DF93DC01E8
:1016500014960D911C911597E801E8816E2F70E0AA
:10166000D2E2ED9FF0011124E15EFA4F40E050E03C
:101670001296E801288130E02F5F3F4FCA01860FA4
:10168000971F28173907A4F0CF010197EC01288193
:1016900030E0322F22278081280F311D285F3F4FF5
:1016A00019963C932E9318974F5F5F4FB296E0CFF9
:1016B000DF91CF911F910F9108950F931F93CF93B7
:1016C000DF93EC018B0185E994E0998388830E9484
:1016D000F8196E837F83888799878EE095E09D83D4
:1016E0008C831B830A83CE01DF91CF911F910F91D1
:1016F0000C94230BCF93DF930E94330461E070E0DE
:1017000080E090E00E94271AE091D404F091D50483
:1017100081E090910C05911101C080E0828B809155
:10172000D6049091D7040E94230B40E052EC61E074
:1017300070E087EA96E00E94371C26E040E051EE18
:1017400060E070E087EF96E00E943D1D6A9A729A11
:1017500061E088E00E94E21A61E088E00E941B1BC1
:1017600061E08DE00E94E21A60E083E00E94E21AEC
:1017700060E082E00E94E21A60E087E00E94E21AE4
:1017800061E084E00E94E21A61E08CE00E94E21ACB
:1017900061E08BE00E94E21A61E089E00E94E21AB7
:1017A00061E08AE00E94E21A61E085E00E94E21AAC
:1017B00060E084E00E941B1B60E08CE00E941B1B29
:1017C00060E08BE00E941B1B86E896E00E944114BB
:1017D00061E070E086E896E00E9483156DE770E0B6
:1017E00086E896E00E947C1461E086E896E00E941C
:1017F000631524E044E060E686E896E00E94381530
:1018000020E240E268E286E896E00E94381586E829
:1018100096E00E94C81761E070E086E896E00E94BA
:10182000B2158AE796E00E9441146DE770E08AE7FE
:1018300096E00E947C1461E08AE796E00E946315BE
:1018400024E044E060E68EE696E00E9438158AE7E0
:1018500096E00E94C81761E070E08AE796E00E9477
:10186000B2158EE696E00E9441146DE770E08EE6B8
:1018700096E00E947C1461E08EE696E00E9463157B
:1018800024E044E060E68EE696E00E9438158EE69D
:1018900096E00E94C81761E070E08EE696E00E9434
:1018A000B21560E070E08AE796E00E94B215E09120
:1018B000D604F091D70444855585628573858AE7FF
:1018C00096E00E946F1761E070E08AE796E00E9460
:1018D000B215C5E0D0E061E08DE00E941B1B62E321
:1018E00070E080E090E00E94271A60E08DE00E94A6
:1018F0001B1B62E370E080E090E00E94271A2197B2
:1019000051F7DF91CF9108950F931F93CF93DF93FA
:10191000EC018B018F858823C9F161E08DE00E9485
:101920001B1BC8010E9402178130910591F0823083
:101930009105E1F0892B61F59E012D5F3F4F4981B3
:101940005A816881C8010E94DA17C8010E94E61511
:1019500019C09E012D5F3F4F49815A816881C8019E
:101960000E942718C8010E94F6150CC09E012D5F29
:101970003F4F49815A816881C8010E947418C8018B
:101980000E94061660E08DE00E941B1B81E001C0F2
:1019900080E0DF91CF911F910F910895CF93DF9356
:1019A000EC011D821C821F821E82198618861B86EE
:1019B0001A861982188280E290E00E947B279B831E
:1019C0008A83892B11F40E94760382E090E09D8344
:1019D0008C83DF91CF910895AF92BF92CF92DF9227
:1019E000EF92FF920F931F93CF93DF93EC018B0144
:1019F000161617061CF067E673E012C0CB0164E010
:101A0000880F991F6A95E1F70E947B277C01009758
:101A100029F06C0120E030E040E106C06CE973E0A1
:101A2000888199810E948F038E819F81AA80BB80CB
:101A300028173907E4F488859985820F931F6C81F4
:101A40007D810E943F2754E0880F991F5A95E1F746
:101A50008A0D9B1DFC01D601842F01900D928A9561
:101A6000E1F72F5F3F4F80E1C80ED11CDDCFC501EC
:101A70000E941328FB82EA82198618868E819F8134
:101A80009B878A871D830C83DF91CF911F910F91D4
:101A9000FF90EF90DF90CF90BF90AF9008950F939D
:101AA0001F93CF93DF93EC018B018E819F812C815B
:101AB0003D818217930731F4BC01660F771FCE0179
:101AC0000E94EC0CAA81BB818A859B859C012F5FBB
:101AD0003F4F3B872A8774E0880F991F7A95E1F77B
:101AE000A80FB91F80E1F80101900D928A95E1F7E6
:101AF0002A853B858C819D812817390711F41B8627
:101B00001A868E819F8101969F838E83DF91CF916C
:101B10001F910F9108950F931F93CF93DF93CDB72C
:101B2000DEB7AC970FB6F894DEBF0FBECDBF8C0109
:101B30004CE050E0BE016F5D7F4F0E944905CE0131
:101B400041960E94C11889A190E09F8F8E8F2AA193
:101B500030E0322F22278BA1280F311D3B8B2A8B9F
:101B60008CA18C8B8DA18D8B8EA18E8B8FA18F8B59
:101B700088A5888F89A5898F8AA58A8F8BA58B8F49
:101B80008CA5898B81E088A380E1FE017196DE013E
:101B9000119601900D928A95E1F7BE016F5F7F4F1C
:101BA000F801848195810E944F0DCE0101960E941B
:101BB000CC18CE0141960E94CC18AC960FB6F89482
:101BC000DEBF0FBECDBFDF91CF911F910F91089562
:101BD000CF92DF92EF92FF920F931F93CF93DF93F9
:101BE000CDB7DEB7C054D1090FB6F894DEBF0FBE33
:101BF000CDBF8C017B0165E070E080E090E00E9449
:101C0000271A23E0E216F10411F14CF4A1E0EA16E0
:101C1000F104A9F0B2E0EB16F104A9F008C024E049
:101C2000E216F104C1F088E0E816F104C1F08091F9
:101C30000B0590E0E3EFF4E0C12CD12C17C0C801F4
:101C40000E9435083FC0C8010E948B0D3BC0C801EF
:101C50000E94AD0537C0C8010E947F0533C0C8018E
:101C60000E94B7062FC0BFEFCB1ADB0AC816D906F1
:101C70004CF5208130E033962E153F05A1F740E466
:101C800050E0BE016F5F7F4FC8010E9449057C0193
:101C900061E070E080E090E00E94271AF601EE0F0C
:101CA000FF1FEC0DFD1DED50FB4F81819281DC018A
:101CB000ED91FC910480F581E02DA701BE016F5FDD
:101CC0007F4F0995C8010E94EF06C05CDF4F0FB639
:101CD000F894DEBF0FBECDBFDF91CF911F910F9162
:101CE000FF90EF90DF90CF9008959F92AF92BF92B8
:101CF000CF92DF92EF92FF920F931F93CF93DF93D8
:101D0000CDB7DEB7C054D1090FB6F894DEBF0FBE11
:101D1000CDBF7C010E94BB088C01CE01C1960E9400
:101D2000C118B3E0CB2ED12CDFAECEAE80E992E06D
:101D30009BAB8AAB80EC982E9CAAF80180818DAB7E
:101D400081818EAB82818FAB838188AF848189AFA3
:101D500085818AAF86818BAF98E0A92EA9AABB2482
:101D6000B3942196BFAE219780E1FE01F196DE018A
:101D7000119601900D928A95E1F7BE016F5F7F4F3A
:101D8000F701828193810E944F0DCE0101960E943E
:101D9000CC18CE0181960E94C118DFA6CEA681E99B
:101DA00092E09BA38AA387E88CA3F80187818DA387
:101DB00080858EA381858FA3828588A7838589A747
:101DC000A9A2B8AA80E1FE01B196DE0111960190A8
:101DD0000D928A95E1F7BE016F5F7F4FF701828117
:101DE00093810E944F0DCE0101960E94CC18CE0126
:101DF00041960E94C11881E090E09F8F8E8F8FE8FE
:101E000092E09B8B8A8B9C8A1D8A1E8A1F8AB88EC1
:101E100087E2898F80E18A8F80E48B8FA98AB8A2BC
:101E200080E1FE017196DE01119601900D928A9576
:101E3000E1F7BE016F5F7F4FF701828193810E94BE
:101E40004F0DCE0101960E94CC18CE0141960E9402
:101E5000CC18CE0181960E94CC18CE01C1960E946A
:101E6000CC18C05CDF4F0FB6F894DEBF0FBECDBFFD
:101E7000DF91CF911F910F91FF90EF90DF90CF9066
:101E8000BF90AF909F900895CF92DF92EF92FF9214
:101E9000CF93DF93EC018A89882349F1C884D984E0
:101EA000EE24D7FCE094FE2C8C819D81AE81BF8115
:101EB000C80ED91EEA1EFB1E0E94F819C616D706C8
:101EC000E806F906A0F4CA84DB84EC84FD840E9451
:101ED000F819C616D706E806F90648F4CE010E949E
:101EE000750E0E94F8196C837D838E839F83DF912A
:101EF000CF91FF90EF90DF90CF9008955F926F9217
:101F00007F928F929F92AF92BF92CF92DF92EF9289
:101F1000FF920F931F93CF93DF93CDB7DEB7A097B8
:101F20000FB6F894DEBF0FBECDBF7C018B01DC0184
:101F30001496ED91FC9115978081A82EB12CB2E2F8
:101F40008B9F000D111D11240A5F1F4FC12CD12C36
:101F500038E0532E7724739440E1642ED701149611
:101F6000ED91FC911597808190E0019696012A0DE4
:101F70003B1D821793070CF456C04801E6E08E1A09
:101F80009108D8018C91882309F447C0F40180811D
:101F9000882309F442C0CE0141960E94C118D401A1
:101FA0008C9190E09F8F8E8FF8013297808190E026
:101FB000982F882731962081820F911D9B8B8A8BC9
:101FC000FE01759620E030E0D401A20FB31F1696F3
:101FD0008C91882331F02F5F3F4F8193263031055C
:101FE00099F72C8B598A78A2FE017196DE01119621
:101FF000862D01900D928A95E1F7BE016F5F7F4FAC
:10200000F701828193810E944F0DCE0101960E94BB
:10201000CC18CE0141960E94CC18FFEFCF1ADF0AF0
:102020000E5D1F4F9BCFA0960FB6F894DEBF0FBE7C
:10203000CDBFDF91CF911F910F91FF90EF90DF9077
:10204000CF90BF90AF909F908F907F906F905F9058
:1020500008950F931F93CF93DF93EC010E94F8191B
:102060000E811F8128853985025E1F4F2F4F3F4FFC
:10207000061717072807390778F40E94F8196E83A6
:102080007F83888799876AE175E0CE01DF91CF91E0
:102090001F910F910C947E0FDF91CF911F910F91A3
:1020A00008950F931F93CF93DF93CDB7DEB7A0971B
:1020B0000FB6F894DEBF0FBECDBF8C012091EC04AB
:1020C0003091ED048091EA049091EB0428173907D0
:1020D00009F47AC0C8010E94EA168093F20480FFD6
:1020E00032C0CE0141960E94C1188091F20490E066
:1020F0009D8F8C8FF801828593859F8F8E8F9E0197
:102100002E5E3F4FAE014C5E5F4FBE016F5E7F4F54
:10211000C8010E94161680E1FE017196DE0111963B
:1021200001900D928A95E1F7BE016F5F7F4F86EEB9
:1021300094E00E944F0DCE0101960E94CC18CE0172
:1021400041960E94CC182091EC043091ED048091CE
:10215000EA049091EB0428173907B1F18091F20459
:1021600081FF32C0CE0141960E94C1188091F204D5
:1021700090E09D8F8C8FF801828593859F8F8E8F45
:102180009E012E5E3F4FAE014C5E5F4FBE016F5E03
:102190007F4FC8010E94841680E1FE017196DE0126
:1021A000119601900D928A95E1F7BE016F5F7F4F06
:1021B00086EE94E00E944F0DCE0101960E94CC184D
:1021C000CE0141960E94CC18A0960FB6F894DEBFBF
:1021D0000FBECDBFDF91CF911F910F910895BF9298
:1021E000CF92DF92EF92FF920F931F93CF93DF93E3
:1021F000CDB7DEB7A0970FB6F894DEBF0FBECDBF48
:102200008C0152EDC52E54E0D52EE12CF12C60E16D
:10221000B62E8091060190910701E816F90664F543
:10222000D6016D917D916D01DB01ED91FC912281D3
:102230003381F801DE0151968B2D01900D928A9524
:10224000E1F7AE014F5E5F4FCE010196F9010995AE
:10225000FE013196D8018B2D01900D928A95E1F700
:10226000CE0101960E94CC18CE0141960E94CC1856
:10227000FFEFEF1AFF0ACDCFD8011F968C9188236C
:1022800099F080E1F801DE01119601900D928A9596
:10229000E1F7BE016F5F7F4F8AED94E00E944F0D22
:1022A000CE0101960E94CC18A0960FB6F894DEBF1E
:1022B0000FBECDBFDF91CF911F910F91FF90EF9097
:1022C000DF90CF90BF9008950F931F93CF93DF932C
:1022D0008C01EB018E819F81892B31F466ED73E0D7
:1022E000888199810E948F03EA81FB818885998585
:1022F0009C012F5F3F4F39872887A4E0880F991FE3
:10230000AA95E1F7E80FF91F80E1D80101900D923D
:102310008A95E1F72E813F81215031093F832E8339
:102320006C817D81888599858617970711F41986B8
:1023300018862115310599F0CB0177FD0396959507
:10234000879595958795821793074CF077FF02C084
:102350006F5F7F4F75956795CE010E94EC0CC801A9
:10236000DF91CF911F910F910895EF92FF920F93FC
:102370001F93CF93DF93CDB7DEB7E8970FB6F894EE
:10238000DEBF0FBECDBF12EDE12E14E0F12E00E056
:1023900010E080910601909107010817190774F465
:1023A000D7018D919D917D01DC01ED91FC91019012
:1023B000F081E02D09950F5F1F4FEBCF83E00E9466
:1023C000511B892B71F466E876E0CE0101960E94DC
:1023D000B203CE0101960E945110CE0105960E94D3
:1023E000592382E00E94511B892B71F46AE776E041
:1023F000CE0101960E94B203CE0101960E945110B7
:10240000CE0105960E94592387E00E94511B892B1B
:1024100071F46EE676E0CE0101960E94B203CE0121
:1024200001960E945110CE0105960E945923809179
:10243000EC049091ED04892B59F02091E004309147
:10244000E1048091DE049091DF042817390771F4CC
:1024500011E0BCE0FB2E00E12091E0043091E104AA
:10246000232B09F465C0111110C062C066EE74E040
:10247000CE0101960E946411CE0101960E94EF10D8
:10248000CE0101960E94CC18E3CF6AED74E0CE0134
:1024900041960E9464118E8D9F8D0197F89EB00128
:1024A000F99E700D1124665B794FCE018D960E94C6
:1024B000B203BE01635D7F4FCE0181960E94B203DD
:1024C000FE017196DE011196802F01900D928A9582
:1024D000E1F7BE016F5D7F4FCE0101960E94840C33
:1024E000182FCE0101960E94CC18CE0185960E942D
:1024F0005923111114C0FE017196DE011196802F2F
:1025000001900D928A95E1F7BE016F5F7F4F8AEDD2
:1025100094E00E944F0DCE0101960E94CC18CE018E
:10252000C1960E945923CE0141960E94CC1894CFA7
:10253000E8960FB6F894DEBF0FBECDBFDF91CF9106
:102540001F910F91FF90EF900895CF93DF93EC01CF
:102550008A819B810E9413281B821A821982188209
:102560001D821C821F821E82198618861B861A866F
:10257000DF91CF9108950F931F93CF93DF9300D0F6
:1025800000D000D0CDB7DEB768E074E0CE01019690
:102590000E94C7238E010F5F1F4F21E030E044E00F
:1025A00050E069E070E086E896E00E941214C801ED
:1025B0000E9459236EE074E0C8010E94C72322E004
:1025C00030E04CE050E06AE070E08AE796E00E947C
:1025D0001214C8010E94592364E174E0C8010E94EA
:1025E000C72323E030E04BE050E065E070E08EE68A
:1025F00096E00E941214C8010E94592366E876E012
:102600008AE496E00E94B2036AE776E086E596E007
:102610000E94B2036EE676E082E696E00E94B20384
:1026200086EE94E00E94CE0C8AED94E00E94CE0CDF
:1026300088E190E00E94581E8C016AED74E00E94CF
:102640004C041093D9040093D8048EE090E00E94CB
:10265000581E8C016AED74E00E945D0B1093D70444
:102660000093D60480E790E00E94581E8C014091B0
:10267000D8045091D9046AED74E00E946E0810935A
:10268000D5040093D4048091D8049091D9049093F8
:10269000D3048093D20426960FB6F894DEBF0FBE03
:1026A000CDBFDF91CF911F910F910895CF93DF930D
:1026B000CCEDD4E0888199810E9413281982188278
:1026C0001092DB041092DA041092DF041092DE0400
:1026D0001092E1041092E0041092E3041092E204DC
:1026E0001092E5041092E40486EE94E00E94A51294
:1026F00086E696E00E9459238AE596E00E945923D7
:102700008EE496E00E94592382E796E00E945923C6
:102710008EE796E00E9459238AE896E0DF91CF91F8
:102720000C945923CF93DF93EC018E81882301F120
:1027300087EA96E00E94A41B892B51F087EA96E075
:102740000E94B41BBC0187EF96E00E94AB03F0CF60
:1027500087EF96E00E945A1C892B71F187EF96E073
:102760000E94731C682F87EA96E00E947A1BF0CFC4
:1027700087EF96E00E945A1C1816190654F487EF4A
:1027800096E09B838A830E94731CBC01CE010E9449
:10279000E80D87EA96E00E94A41B1816190664F457
:1027A00087EA96E09B838A830E94B41BBC01CE011A
:1027B000DF91CF910C94E80DDF91CF910895CF93E5
:1027C000CFB7F89480919206811116C061E081E143
:1027D0000E941B1B61E081E10E94E21A8CB58061BE
:1027E0008CBD8CB580648CBD61E08FE00E94E21AE4
:1027F00061E080E10E94E21A809192068F5F8093EF
:102800009206CFBFCF910895CB010C94802BCB01C2
:10281000642F0C94922B8EBD00000DB407FEFDCFEB
:102820008EB508958F929F92AF92BF92CF92DF9212
:10283000EF92FF920F931F93CF93DF93EC016B0105
:102840005A0149017C0184E0E80EF11C6AE672E05D
:10285000C7010E94C723D982C882BB82AA829B86F5
:102860008A86B801C701DF91CF911F910F91FF9028
:10287000EF90DF90CF90BF90AF909F908F900C948F
:10288000DD23CF93DF93EC0161E08FE00E94E21A39
:1028900060E08EE00E94E21A61E080E10E94E21AAC
:1028A00061E088810E94E21A61E08A810E94E21A56
:1028B0000E94DF138CB5837F8CBD8CB58C7F8CBD63
:1028C0008DB581608DBD8CB58F7D8CBD60E08A81BA
:1028D0000E941B1B62E370E080E090E00E94271AD8
:1028E00061E08A810E941B1B62E370E080E090E05F
:1028F000DF91CF910C94271AEF92FF920F931F93C1
:10290000CF93DF931F92CDB7DEB77C01643671059C
:1029100061F16CF46431710501F16233710509F103
:102920006A30710569F515E008EB21E329C06A3FBB
:102930007105F9F03CF46D37710511F515E008EB00
:1029400023E01EC0643F81E07807B9F0683E734021
:10295000B9F412E000E920E813C015E008EB28E123
:102960000FC015E008EB29E00BC015E008EB24E0F0
:1029700007C015E008EB21E003C015E008EB20E0FC
:1029800060E0F701808129830E941B1B61E070E0F9
:1029900080E090E00E94271A82E00E940B148AE2F5
:1029A0000E940B142981822F0E940B1461E070E0B9
:1029B00080E090E00E94271A61E0F70180810E9488
:1029C0001B1B61E070E080E090E00E94271A60E04D
:1029D000F70180810E941B1B61E070E080E090E0C5
:1029E0000E94271A82E00E940B1489E20E940B14B5
:1029F000802F0E940B1461E070E080E090E00E9464
:102A0000271A61E0F70180810E941B1B61E070E0E2
:102A100080E090E00E94271A60E0F70180810E9428
:102A20001B1B61E070E080E090E00E94271A82E0CA
:102A30000E940B1488E20E940B14812F0E940B1439
:102A400061E070E080E090E00E94271A61E0F70109
:102A500080810E941B1B61E070E080E090E00F909D
:102A6000DF91CF911F910F91FF90EF900C94271A57
:102A7000EF92FF921F93CF93DF9300D0CDB7DEB7D5
:102A80007C01162F60E0FC01808129834A830E942B
:102A90001B1B85E00E940B14812F0E940B142981BF
:102AA000822F0E940B144A81842F0E940B1461E034
:102AB000F70180810F900F90DF91CF911F91FF90D0
:102AC000EF900C941B1B1F93CF93DF93EC016623B5
:102AD00011F013E001C010E060E088810E941B1B30
:102AE00085E00E940B148BE20E940B1483E00E948D
:102AF0000B14812F0E940B1461E08881DF91CF912C
:102B00001F910C941B1B1F93CF93DF93EC0162303A
:102B1000710571F02CF46130710569F410E00BC09F
:102B20006430710539F06830710529F413E003C091
:102B300011E001C012E060E088810E941B1B85E06B
:102B40000E940B148FE00E940B1483E00E940B1470
:102B5000812F0E940B1461E08881DF91CF911F913A
:102B60000C941B1B1F93CF93DF93EC016230710514
:102B700089F044F46115710589F06130710579F4CB
:102B800010E00DC06330710539F06430710539F41F
:102B900010E405C010E203C010E601C010E860E0D8
:102BA00088810E941B1B85E00E940B148FE00E940D
:102BB0000B1480EE0E940B14812F0E940B1461E015
:102BC0008881DF91CF911F910C941B1BCF93DF93D2
:102BD000EC0160E088810E941B1B81E80E940B14BD
:102BE00061E08881DF91CF910C941B1BCF93DF9321
:102BF000EC0160E088810E941B1B82E80E940B149C
:102C000061E08881DF91CF910C941B1BCF93DF9300
:102C1000EC0160E088810E941B1B83E80E940B147A
:102C200061E08881DF91CF910C941B1B4F925F92E2
:102C30007F928F929F92AF92BF92CF92DF92EF924C
:102C4000FF920F931F93CF93DF9300D0CDB7DEB7E2
:102C50008C015B01790160E0FC01808149835A832A
:102C60000E941B1B80E90E940B148FEF0E940B1423
:102C7000C82ED12C8FEF0E940B14882E8FEF0E944C
:102C80000B148FEF0E940B148FEF0E940B148F70A8
:102C9000982E4981742E442E5A81552E842D8719E1
:102CA000891538F48FEF0E940B14F20181932F01E4
:102CB000F5CF61E0F80180810E941B1BF501908235
:102CC000882D807E90E025E0969587952A95E1F7FE
:102CD00033E0CC0CDD1C3A95E1F78C0D9D1DF7011E
:102CE000918380830F900F90DF91CF911F910F916F
:102CF000FF90EF90DF90CF90BF90AF909F908F901C
:102D00007F905F904F9008954F925F927F928F9245
:102D10009F92AF92BF92CF92DF92EF92FF920F936A
:102D20001F93CF93DF931F92CDB7DEB78C016B015A
:102D3000A42E790160E0FC01808159830E941B1B55
:102D400084E90E940B148FEF0E940B14982E8FEFD2
:102D50000E940B14882E8FEF0E940B148FEF0E949D
:102D60000B148FEF0E940B148F70B82E7A2C4A2C04
:102D70005981552E842D87198B1538F48FEF0E94B9
:102D80000B14F20181932F01F5CF61E0F8018081EE
:102D90000E941B1BF601B0828294869447E0842235
:102DA000F8E09F9EA0011124480D511DF7015183A9
:102DB00040830F90DF91CF911F910F91FF90EF9083
:102DC000DF90CF90BF90AF909F908F907F905F905B
:102DD0004F9008951F93CF93DF93EC0160E08881BB
:102DE0000E941B1B80EA0E940B148FEF0E940B14A1
:102DF000182F61E088810E941B1B812FDF91CF91EA
:102E00001F9108950E94EA1682FF07C084FF08C040
:102E100086FF09C08FEF9FEF089580E090E008954E
:102E200081E090E0089582E090E008951F93CF93B1
:102E3000DF93EC01162F60E088810E941B1B83E06A
:102E40000E940B14812F0E940B148FEF0E940B1411
:102E5000182F61E088810E941B1B812FDF91CF9189
:102E60001F910895EF92FF921F93CF93DF9300D0AD
:102E7000CDB7DEB77C01162F60E0FC0180812A838C
:102E800049830E941B1B61E070E080E090E00E949B
:102E9000271A82E00E940B14812F0E940B14498193
:102EA000842F0E940B142A81822F0E940B1461E050
:102EB00070E080E090E00E94271A61E0F7018081D5
:102EC0000E941B1B61E070E080E090E00F900F908B
:102ED000DF91CF911F91FF90EF900C94271AEF9202
:102EE000FF920F931F93CF93DF93EC017A018B0135
:102EF00053E0159507955A95E1F7162F1295110F86
:102F0000107E212F402F60E070E00E943217212FA9
:102F1000402F68E070E0CE010E943217870163E025
:102F2000159507956A95E1F7E294EE0C70EEE722AD
:102F30002E2D402F64E070E0CE010E9432172E2D1E
:102F4000402F60E170E0CE010E9432172E2D402FFD
:102F500064E170E0CE010E9432172E2D402F68E10F
:102F600070E0CE010E94321720EE4FE160E270E087
:102F7000CE010E94321720EE4FE164E270E0CE01F4
:102F8000DF91CF911F910F91FF90EF900C9432172A
:102F9000CF93DF93EC0120E040E060E270E00E941C
:102FA000321720E040E064E270E0CE01DF91CF9183
:102FB0000C943217CF92DF92EF92FF920F931F93F0
:102FC000CF93DF9300D0CDB7DEB78C01F62E6A0128
:102FD00060E0FC01808129833A830E941B1B80E40E
:102FE0000E940B14C601E3E096958795EA95E1F7F8
:102FF0000E940B148C2D8295880F807E0E940B14EA
:1030000080E00E940B1480E00E940B148F2D0E9420
:103010000B142981E22EC22E3A81D32E8C2D8E19CB
:103020008F1530F4F60181916F010E940B14F6CFD9
:1030300061E0F80180810F900F90DF91CF911F9197
:103040000F91FF90EF90DF90CF900C941B1BCF92CD
:10305000DF92EF92FF920F931F93CF93DF9300D0F5
:10306000CDB7DEB78C01F62E6A0160E0FC018081ED
:1030700029833A830E941B1B82E40E940B14C60121
:10308000F3E096958795FA95E1F70E940B148C2D45
:103090008295880F807E0E940B1480E00E940B14A2
:1030A00080E00E940B148F2D0E940B142981E22EC8
:1030B000C22E3A81D32E8C2D8E198F1530F4F60145
:1030C00081916F010E940B14F6CF61E0F8018081BD
:1030D0000F900F90DF91CF911F910F91FF90EF9084
:1030E000DF90CF900C941B1BCF92DF92EF92FF9258
:1030F0000F931F93CF93DF9300D0CDB7DEB78C0132
:10310000F62E6A0160E0FC01808129833A830E94E7
:103110001B1B84E40E940B14C601A3E096958795BF
:10312000AA95E1F70E940B148C2D8295880F807E62
:103130000E940B1480E00E940B1480E00E940B148C
:103140008F2D0E940B142981E22EC22E3A81D32E9C
:103150008C2D8E198F1530F4F60181916F010E942C
:103160000B14F6CF61E0F80180810F900F90DF9192
:10317000CF911F910F91FF90EF90DF90CF900C9423
:103180001B1BFC0117861286118610861782168279
:10319000158214821382089508951F920F920FB61C
:1031A0000F9211242F933F934F935F936F937F93CD
:1031B0008F939F93AF93BF93EF93FF938091940668
:1031C00090919506892B29F0E0919406F09195064F
:1031D0000995FF91EF91BF91AF919F918F917F9151
:1031E0006F915F914F913F912F910F900FBE0F9074
:1031F0001F9018951F920F920FB60F9211242F93C4
:103200003F934F935F936F937F938F939F93AF936E
:10321000BF93EF93FF938091960690919706892B29
:1032200029F0E0919606F09197060995FF91EF91AC
:10323000BF91AF919F918F917F916F915F914F91CE
:103240003F912F910F900FBE0F901F9018951F92D6
:103250000F920FB60F9211242F933F934F935F93CA
:103260006F937F938F939F93AF93BF93EF93FF934E
:103270008091980690919906892B29F0E091980603
:10328000F09199060995FF91EF91BF91AF919F91B0
:103290008F917F916F915F914F913F912F910F90FF
:1032A0000FBE0F901F9018951F920F920FB60F929E
:1032B00011242F933F934F935F936F937F938F933B
:1032C0009F93AF93BF93EF93FF9380919A06909152
:1032D0009B06892B29F0E0919A06F0919B060995AF
:1032E000FF91EF91BF91AF919F918F917F916F91DE
:1032F0005F914F913F912F910F900FBE0F901F90B4
:1033000018951F920F920FB60F9211242F933F938F
:103310004F935F936F937F938F939F93AF93BF93DD
:10332000EF93FF9380919C0690919D06892B29F045
:10333000E0919C06F0919D060995FF91EF91BF9158
:10334000AF919F918F917F916F915F914F913F913D
:103350002F910F900FBE0F901F9018951F920F92F4
:103360000FB60F9211242F933F938F939F93AF9398
:10337000BF9380919F069091A006A091A106B09165
:10338000A20630919E0623E0230F2D3720F40196EC
:10339000A11DB11D05C026E8230F0296A11DB11D78
:1033A00020939E0680939F069093A006A093A1066B
:1033B000B093A2068091A3069091A406A091A506C1
:1033C000B091A6060196A11DB11D8093A30690930E
:1033D000A406A093A506B093A606BF91AF919F91B6
:1033E0008F913F912F910F900FBE0F901F901895C6
:1033F0002FB7F89460919F067091A0068091A10666
:103400009091A2062FBF08953FB7F8948091A3062C
:103410009091A406A091A506B091A60626B5A89BFA
:1034200005C02F3F19F00196A11DB11D3FBF6627B2
:10343000782F892F9A2F620F711D811D911D42E0F7
:10344000660F771F881F991F4A95D1F70895CF926D
:10345000DF92EF92FF92CF93DF936B017C010E948A
:10346000041AEB01C114D104E104F10489F00E94B3
:10347000FD230E94041A6C1B7D0B683E734090F381
:1034800081E0C81AD108E108F108C851DC4FEACF41
:10349000DF91CF91FF90EF90DF90CF9008957894D7
:1034A00084B5826084BD84B5816084BD85B5826049
:1034B00085BD85B5816085BDEEE6F0E080818160E7
:1034C0008083E1E8F0E010828081826080838081E7
:1034D00081608083E0E8F0E0808181608083E1E9C1
:1034E000F0E0808182608083808181608083E0E978
:1034F000F0E0808181608083E1ECF0E08081846095
:103500008083808182608083808181608083E3EC1E
:10351000F0E0808181608083E0ECF0E08081826077
:103520008083E2ECF0E0808181608083EAE7F0E074
:1035300080818460808380818260808380818160DB
:103540008083808180688083089590E0FC013197BA
:10355000EF30F105B0F5EA5AFF4F0C9475278091D2
:1035600080008F7703C0809180008F7D80938000E2
:10357000089580918000877FF9CF84B58F7702C04E
:1035800084B58F7D84BD0895809190008F7707C0AA
:10359000809190008F7D03C080919000877F809301
:1035A000900008958091C0008F7703C08091C00083
:1035B0008F7D8093C00008958091C200877F8093A3
:1035C000C2000895CF93DF9390E0FC01E55AFD4FD0
:1035D0002491FC01E758FD4F8491882349F190E044
:1035E000880F991FFC01ED54FD4FA591B4918B55A7
:1035F0009D4FFC01C591D4919FB7611108C0F8940B
:103600008C91209582238C93888182230AC062301A
:1036100051F4F8948C91322F309583238C938881C8
:10362000822B888304C0F8948C91822B8C939FBF4B
:10363000DF91CF9108950F931F93CF93DF931F9244
:10364000CDB7DEB7282F30E0F901E35CFD4F849160
:10365000F901E55AFD4F1491F901E758FD4F049126
:103660000023C9F0882321F069830E94A51A69818B
:10367000E02FF0E0EE0FFF1FEB55FD4FA591B49149
:103680009FB7F8948C91611103C01095812301C0FC
:10369000812B8C939FBF0F90DF91CF911F910F9142
:1036A0000895CF93DF93282F30E0F901E35CFD4FBD
:1036B0008491F901E55AFD4FD491F901E758FD4F86
:1036C000C491CC2391F081110E94A51AEC2FF0E057
:1036D000EE0FFF1FE956FD4FA591B4912C912D23BC
:1036E00081E090E021F480E002C080E090E0DF9192
:1036F000CF910895CF93DF931F92CDB7DEB7698343
:10370000DC01ED91FC910280F381E02D41E050E07D
:10371000BE016F5F7F4F09950F90DF91CF910895A4
:10372000CF93DF93EC018C859D8597FF05C082E0E8
:103730000E9486209D878C878C859D85DF91CF9107
:10374000089583E00C94DB22FC018485958597FD28
:1037500006C082E00E942E2090E00196089582E04B
:103760000E942E2090E00895FC018485958597FDA8
:1037700005C02FEF3FEF35872487089582E00C9432
:103780008620CF93DF93EC0180910F01882331F0E5
:1037900083E00E94B7201816190634F081E090E00B
:1037A0009B838A8380E090E0DF91CF910895FC01B4
:1037B00020812E5F208342E450E061EC72E080E8DB
:1037C0000C945221FC0181819081913A59F481320B
:1037D00009F03CC047E050E068E071E080E00E9402
:1037E000522143C0913291F5803239F467E070E0A4
:1037F00088E091E00E94832106C0823209F035C042
:10380000828180930F018091080190910901A0911C
:103810000A01B0910B01803B9440A105B105C1F4B0
:1038200080910F0180FD14C087E797E7909301080E
:10383000809300082BE088E190E00FB6F894A895FB
:10384000809360000FBE209360000FC080E0089559
:1038500088E10FB6F89480936000109260000FBE6C
:10386000A895109201081092000881E008952FEFAA
:103870003FEFFC013587248708951092AA06109225
:10388000A90688EE93E0A0E0B0E08093AB069093A9
:10389000AC06A093AD06B093AE0687EA94E0909391
:1038A000A8068093A7068FEF9FEF9093B4068093AE
:1038B000B3060895FC01818D228D90E0805C9F4FBE
:1038C000821B91098F7399270895FC01918D828D38
:1038D000981731F0828DE80FF11D858D90E00895E5
:1038E0008FEF9FEF0895FC01918D828D981761F005
:1038F000828DDF01A80FB11D5D968C91928D9F5F27
:103900009F73928F90E008958FEF9FEF089587EF58
:103910009DE1892B49F080E090E0892B29F00E94FD
:10392000F71D81110C9400000895FC01848DDF01C6
:10393000A80FB11DA35ABF4F2C91848D90E0019622
:103940008F739927848FA689B7892C93A089B18911
:103950008C9180648C93938D848D981306C002881B
:10396000F389E02D80818F7D80830895CF93DF934D
:10397000EC01888D8823C9F0EA89FB89808185FD67
:1039800005C0A889B9898C9186FD0FC00FB607FCC8
:10399000F5CF808185FFF2CFA889B9898C9185FF09
:1039A000EDCFCE010E94951CE7CFDF91CF91089516
:1039B000CF92DF92FF920F931F93CF93DF931F92CB
:1039C000CDB7DEB76C01DC015B969C915B975C9692
:1039D0008C915C97981307C05096ED91FC9151978C
:1039E000808185FD32C0F601038D10E00F5F1F4F0F
:1039F0000F731127F02EF601848DF81211C00FB647
:103A000007FCF9CFD6015096ED91FC91519780813A
:103A100085FFF1CFC60169830E94951C6981EBCFB8
:103A2000838DE80FF11DE35AFF4F6083D6015B964B
:103A30000C935B975296ED91FC9153978081806235
:103A4000808381E058968C930DC0D6015696ED91F7
:103A5000FC91579760835096ED91FC91519780812E
:103A60008064808381E090E00F90DF91CF911F917F
:103A70000F91FF90DF90CF900895BF92CF92DF9289
:103A8000EF92FF92CF93DF93EC016A017B01B22E9C
:103A9000E889F98982E08083411581EE5807610544
:103AA0007105A1F060E079E08DE390E0A701960157
:103AB0000E945327215031094109510956954795D4
:103AC00037952795211580E1380798F0E889F9891D
:103AD000108260E874E88EE190E0A70196010E94F0
:103AE000532721503109410951095695479537957A
:103AF0002795EC85FD853083EE85FF852083188E24
:103B0000EC89FD89B082EA89FB89808180618083AC
:103B1000EA89FB89808188608083EA89FB898081CA
:103B200080688083EA89FB8980818F7D8083DF9133
:103B3000CF91FF90EF90DF90CF90BF9008951F92AC
:103B40000F920FB60F9211242F938F939F93EF93A1
:103B5000FF93E0910707F09108078081E0910D073E
:103B6000F0910E0782FD12C09081809110078F5F47
:103B70008F7320911107821751F0E0911007F0E048
:103B8000E950F94F958F8093100701C08081FF9114
:103B9000EF919F918F912F910F900FBE0F901F90DB
:103BA00018951F920F920FB60F9211242F933F93E7
:103BB0004F935F936F937F938F939F93AF93BF9335
:103BC000EF93FF9387EF96E00E94951CFF91EF9192
:103BD000BF91AF919F918F917F916F915F914F9125
:103BE0003F912F910F900FBE0F901F90189587EF68
:103BF00096E00E945A1C21E0892B09F420E0822FD4
:103C000008951092FA061092F90688EE93E0A0E06B
:103C1000B0E08093FB069093FC06A093FD06B09362
:103C2000FE0687EB94E09093F8068093F7068DEC00
:103C300090E090930407809303078CEC90E09093BE
:103C400006078093050788EC90E09093080780931F
:103C5000070789EC90E090930A07809309078AECA4
:103C600090E090930C0780930B078EEC90E090937C
:103C70000E0780930D0710921007109211071092F3
:103C8000120710921307089508950E944F1A0E9478
:103C9000441E84E997E00E943B230E947A0BC7E808
:103CA000DCE10E94B5112097E1F30E94871CF9CF57
:103CB0000C947B27CF92DF92EF92FF920F931F938A
:103CC000CF93DF936C017A01EB01E60EF71E00E063
:103CD00010E0CE15DF0561F06991D601ED91FC9100
:103CE0000190F081E02DC6010995080F191FF1CF51
:103CF000C801DF91CF911F910F91FF90EF90DF905E
:103D0000CF900895EF92FF920F931F93CF93DF937D
:103D10008C01FB01C0E0D0E064917F018FEFE81AD5
:103D2000F80A662361F0D801ED91FC910190F081D1
:103D3000E02DC8010995C80FD91FF701EDCFCE01BD
:103D4000DF91CF911F910F91FF90EF900895DC01CB
:103D5000ED91FC91DB0114964D915C9115976D915D
:103D60007C910280F381E02D09940C949503DC0191
:103D7000ED91FC910190F081E02D09940F931F9338
:103D8000CF93DF93EC016DE00E94B71E8C016AE0D7
:103D9000CE010E94B71E800F911FDF91CF911F911E
:103DA0000F9108950F931F93CF93DF93EC010E941F
:103DB000821E8C01CE010E94BE1E800F911FDF91DA
:103DC000CF911F910F9108950F931F93CF93DF937E
:103DD000EC010E9495038C01CE010E94BE1E800F53
:103DE000911FDF91CF911F910F9108958F929F9214
:103DF000AF92BF92CF92DF92EF92FF920F931F93F9
:103E0000CF93DF93CDB7DEB7A1970FB6F894DEBF9F
:103E10000FBECDBF7C01C42EE52FCB01D22E19A23F
:103E200021E02D1510F02AE0D22E8E010F5D1F4FDC
:103E30008D2C912CA12CB12C6C2D7E2FA5019401E1
:103E40000E9453278C2DD29E8019112401501109F4
:103E50008A3014F4805D01C0895CF80180832115EB
:103E600031054105510521F0C22EE32FCA01E4CFEF
:103E7000B801C7010E949503A1960FB6F894DEBF62
:103E80000FBECDBFDF91CF911F910F91FF90EF90AB
:103E9000DF90CF90BF90AF909F908F900895CF927A
:103EA000DF92EF92FF920F931F93CF93DF93EC017A
:103EB0006A017B012115310579F4E881F9810190CE
:103EC000F081E02D642FDF91CF911F910F91FF9032
:103ED000EF90DF90CF9009942A303105E9F477FF15
:103EE0001AC06DE20E94B71E8C0144275527BA0103
:103EF0004C195D096E097F092AE0CE010E94F61E69
:103F0000800F911FDF91CF911F910F91FF90EF9044
:103F1000DF90CF9008952AE0B701A601CE01DF918E
:103F2000CF911F910F91FF90EF90DF90CF900C9465
:103F3000F61E9A01AB01662757FD6095762F0C940B
:103F40004F1F2115310541F4DC01ED91FC910190E9
:103F5000F081E02D642F09940C94F61E9A01462FEF
:103F600050E060E070E00C94A11F409198075091E0
:103F70009907209196073091970742175307B4F499
:103F80009091E8009570E1F39091E80092FD19C0DE
:103F90008093F100809198079091990701968F7313
:103FA0009927892B19F48EEF8093E8008091980768
:103FB000909199070196909399078093980781E0D3
:103FC000089580E00895CF92DF92FF920F931F93A0
:103FD000CF93DF931F92CDB7DEB7082F162F862F12
:103FE000880F8E5F99830E94B51F83E00E94B51FE2
:103FF000F02EC02E9981D92E8C2D8F19811778F42F
:10400000F60184910E94B51F082F80E00E94B51F21
:104010008023FFEFCF1ADF0A8111EECF01C081E0CC
:104020000F90DF91CF911F910F91FF90DF90CF9074
:104030000895615030F02091F100FC012083019639
:10404000F8CF289884E680939B0708952FB7FC014A
:104050002083F89467706093E9000895CF93DF930D
:104060001F92CDB7DEB7682FCE0101960E942620A1
:104070008091F20099819FBF0F90DF91CF910895B9
:10408000FF920F931F93CF93DF9300D0CDB7DEB78E
:10409000F62E8A0190919A07992311F057FF03C0D9
:1040A0008FEF9FEF2BC0682FCE0101967A830E947D
:1040B00026208091F20090E0A8017A818017910774
:1040C0000CF4AC01EF2DF72FF40E84E6FE1639F058
:1040D000289880939B079091F1009193F7CF411519
:1040E000510521F08091F200882321F089818FBF52
:1040F000CA0104C08BE68093E800F8CF0F900F90C0
:10410000DF91CF911F910F91FF900895CF93DF938F
:104110001F92CDB7DEB741E050E0BE016F5F7F4F29
:104120000E944020019719F4898190E002C08FEF2E
:104130009FEF0F90DF91CF910895CF93DF931F9260
:10414000CDB7DEB7682FCE0101960E942620909150
:10415000E800892F807295FF04C09091F20080E4FE
:10416000891B99819FBF0F90DF91CF9108956F9226
:104170007F928F929F92AF92BF92CF92DF92EF92F7
:10418000FF920F931F93CF93DF931F92CDB7DEB7AC
:10419000782E7B01C42EB52E80919A07882369F072
:1041A000042F152F8AEFD82E872D8072982E9AE330
:1041B000A92E872D8074882E11C08FEF9FEF57C0D6
:1041C000872D0E949D20682E81110CC0DA94A9F3DE
:1041D00061E070E080E090E00E94271A011511056F
:1041E00079F73BC0282F30E0021713070CF4602E3C
:1041F000672DCE0101960E9426208091E80085FF60
:1042000029C0262D30E0021B130B992039F06A9447
:104210008FEF6816B1F01092F100F9CFF701862DFB
:1042200077FE07C0815058F094919093F100319639
:10423000F9CF815020F091919093F100FACFE20EE6
:10424000F31E8091E80085FF0FC00115110511F4E0
:1042500081100AC089818FBFC1CF5D9884E68093A9
:104260009C078C2D9B2D03C0A092E800F3CF0F90EC
:10427000DF91CF911F910F91FF90EF90DF90CF9042
:10428000BF90AF909F908F907F906F900895109205
:10429000E9001092990710929807909397078093DE
:1042A00096070895CF92DF92FF920F931F93CF93BB
:1042B000DF9300D0CDB7DEB7F82E8A016B01011570
:1042C0001105B1F0F601F7FE02C0849101C08081B2
:1042D00049835A830E94B51F01501109FFEFCF1A7D
:1042E000DF0A49815A818111EACF8FEF9FEF01C028
:1042F000CA010F900F90DF91CF911F910F91FF9006
:10430000DF90CF9008951F93CF93DF931F92CDB787
:10431000DEB7162F2091E80022FFFCCF612F7983B2
:104320000E9419208BEF8093E800812F7981972FCD
:104330000F90DF91CF911F910895CF93DF931F923C
:10434000CDB7DEB71982CE0101960E94D71BCE01F0
:1043500001960E941C24898190E00F90DF91CF91FB
:1043600008951F920F920FB60F921124EF92FF92B1
:104370000F931F932F933F934F935F936F937F936D
:104380008F939F93AF93BF93EF93FF93CF93DF935D
:10439000CDB7DEB76297DEBFCDBF1092E900809146
:1043A000E80083FFEBC068E0CE010A960E94192066
:1043B00082EF8093E8009A8597FF05C08091E8001E
:1043C00080FFFCCF03C08EEF8093E800892F8076BA
:1043D00009F0B9C08B85811105C01092F1001092CF
:1043E000F100C5C0282F2D7F213009F4C0C08530D1
:1043F00049F48091E80080FFFCCF8C858068809331
:10440000E300B5C0863009F076C02D85E888F988CC
:10441000223071F580E090E02A8B0E9447210E94B3
:104420009D2199E08E010F5F1F4FF801392F1192E6
:104430003A95E9F799832A892A8391E09E8390E847
:1044400098879AEF99872091980730919907275F6D
:104450003F4F3C832B838D83C7010E94472149E056
:1044600050E0B80180E00E9452210E949D217FC04F
:10447000C7012A8B0E9447212A89223241F482E215
:1044800090E00E942724892B09F071C074C021306C
:1044900069F488899989089711F420939507809188
:1044A0009507811118C06AE173E01AC0233009F042
:1044B00062C08C85882391F0823021F460E188E32A
:1044C00093E006C0813009F056C06BE08CE293E0C7
:1044D0000E94E31F4AC068E073E002C069E473E031
:1044E0006115710509F447C0FB01449150E080E873
:1044F0000E9452213CC0873009F43DC0883021F42D
:1045000081E08093F10033C0893089F5937099F58B
:10451000E4E0F3E081E021E096E38093E90020937A
:10452000EB0034913093EC009093ED008F5F319667
:10453000853099F78EE78093EA001092EA008C8527
:1045400080939A0714C0888999890E9447218E8593
:10455000811105C0CE010A960E94E21B06C082307E
:1045600051F4CE010A960E944F24882321F08EEF49
:104570008093E80003C081E28093EB0062960FB65F
:10458000F894DEBF0FBECDBFDF91CF91FF91EF91C9
:10459000BF91AF919F918F917F916F915F914F915B
:1045A0003F912F911F910F91FF90EF900F900FBEB1
:1045B0000F901F9018958093E9008091F200882356
:1045C00019F08AE38093E80008951F920F920FB6C6
:1045D0000F9211242F933F934F935F936F937F9389
:1045E0008F939F93AF93BF93EF93FF938091E100DD
:1045F0001092E10083FF0FC01092E90091E09093C8
:10460000EB001092EC0092E39093ED0010929A0769
:1046100098E09093F00082FF1DC083E00E94DB22AF
:1046200080919C07882339F080919C07815080936A
:104630009C07882369F080919B07882359F080911B
:104640009B07815080939B07811104C0289A02C068
:104650005D9AF1CFFF91EF91BF91AF919F918F91B3
:104660007F916F915F914F913F912F910F900FBE6E
:104670000F901F90189510929A0781E08093D700B1
:1046800080EA8093D80082E189BD09B400FEFDCFA5
:1046900061E070E080E090E00E94271A80E980935A
:1046A000D8008CE08093E2001092E000559A209AA6
:1046B0000895FC01808191810C941328CF93DF939E
:1046C000EC0188819981009711F00E9413281982CA
:1046D00018821D821C821B821A82DF91CF9108955D
:1046E0000F931F93CF93DF93EC018B016F5F7F4F8D
:1046F000888199810E94A228009731F0998388834C
:104700001B830A8381E001C080E0DF91CF911F917C
:104710000F910895CF93DF93EC0188819981892BC4
:1047200029F08A819B818617970760F4CE010E9449
:104730007023882341F08C819D81892B19F4E881B5
:10474000F981108281E0DF91CF910895EF92FF927D
:104750000F931F93CF93DF93EC017B018A01BA0182
:104760000E948A23811104C0CE010E945E2307C0EB
:104770001D830C83B701888199810E947529CE0120
:10478000DF91CF911F910F91FF90EF900895FC0161
:1047900011821082138212821582148261157105B2
:1047A00059F0FB0101900020E9F7AF014150510998
:1047B000461B570B0C94A6230895CF93DF93EC016F
:1047C000FB018617970761F06081718161157105A2
:1047D00029F0448155810E94A62302C00E945E23D5
:1047E000CE01DF91CF910895FC01118210821382D6
:1047F0001282158214820C94DD230895FF920F9388
:104800001F93CF93DF93EC01F62EE881F9810480AA
:10481000F581E02D09958C01E881F9810680F78109
:10482000E02D6F2DCE010995C8019927DF91CF9119
:104830001F910F91FF900895FC0120812F5F20832D
:1048400049E150E06DEC73E080E80C94522145E6BC
:1048500050E066EE73E080E80C945221EF92FF92F4
:104860000F931F93CF93DF931F92CDB7DEB789834A
:104870008B017A0141E050E0BE016F5F7F4F84E021
:104880000E94B720A701B80184E40E94B7200F90CE
:10489000DF91CF911F910F91FF90EF900895FC0150
:1048A00091818081813A31F481E0913091F09330AF
:1048B00089F411C0813271F49B3021F4828180939C
:1048C000110105C09A3031F482818093100181E09A
:1048D0000895089580E0089548E050E082E00C9447
:1048E0002E24CF93DF93DC01683818F0E8E7E60F59
:1048F00025C0E62FF0E067FF11C0E058F10981E024
:1049000090E001C0880FEA95EAF714969C911497FD
:10491000982B14969C931497E0E010C0E35BFC4F37
:10492000E491EE2309F440C0E7FF08C014968C918F
:104930001497826014968C931497EF7716968C9147
:1049400016978E1741F117968C9117978E1719F1BC
:1049500018968C9118978E17F1F019968C911997DB
:104960008E17C9F01A968C911A978E17A1F01B9684
:104970008C911B978E1779F080E090E0ED01C80FC5
:10498000D91F2E81211102C0EE8305C00196863009
:104990009105A1F709C0BD016C5F7F4FCD010E9459
:1049A0006C2481E090E008C081E090E013969C9335
:1049B0008E93129780E090E0DF91CF910895683850
:1049C00018F0E8E7E60F25C0E62FF0E067FF12C019
:1049D000E058F10921E030E001C0220FEA95EAF742
:1049E0002095DC0114963C911497322314963C9345
:1049F000E0E00FC0E35BFC4FE491EE2329F1E7FF19
:104A000008C0DC0114962C9114972D7F14962C93DA
:104A1000EF7720E030E0EE2351F0DC01A20FB31F6E
:104A200016964C9116974E1302C016961C922F5F45
:104A30003F4F2630310579F7BC016C5F7F4F0E94F4
:104A40006C2481E090E0089580E090E00895FC01FE
:104A50001682178210861186128613861482BC0174
:104A60006C5F7F4F0C946C241092A9071092A007E2
:104A700010929F0787EC94E090939E0780939D0788
:104A800008955058BB27AA270ED048C139D130F01D
:104A90003ED120F031F49F3F11F41EF42EC10EF4EC
:104AA000E095E7FB24C1E92F4AD180F3BA176207EA
:104AB00073078407950718F071F49EF562C10EF430
:104AC000E0950B2EBA2FA02D0B01B90190010C011E
:104AD000CA01A0011124FF27591B99F0593F50F436
:104AE000503E68F11A16F040A22F232F342F44278E
:104AF000585FF3CF469537952795A795F040539586
:104B0000C9F77EF41F16BA0B620B730B840BBAF055
:104B10009150A1F0FF0FBB1F661F771F881FC2F7C0
:104B20000EC0BA0F621F731F841F48F487957795D4
:104B30006795B795F7959E3F08F0B3CF9395880F8B
:104B400008F09927EE0F9795879508950CD0E6C049
:104B5000DED040F0D5D030F021F45F3F19F0C7C06F
:104B6000511110C1CAC0EBD098F39923C9F3552352
:104B7000B1F3951B550BBB27AA2762177307840750
:104B800038F09F5F5F4F220F331F441FAA1FA9F306
:104B900033D00E2E3AF0E0E830D091505040E695F8
:104BA000001CCAF729D0FE2F27D0660F771F881F59
:104BB000BB1F261737074807AB07B0E809F0BB0B48
:104BC000802DBF01FF2793585F4F2AF09E3F51056C
:104BD00068F08DC0D7C05F3FECF3983EDCF386955C
:104BE00077956795B795F7959F5FC9F7880F911DE2
:104BF0009695879597F90895E1E0660F771F881FCE
:104C0000BB1F621773078407BA0720F0621B730B80
:104C1000840BBA0BEE1F88F7E095089598D088F0C2
:104C20009F5790F0B92F9927B751A0F0D1F0660F98
:104C3000771F881F991F1AF0BA95C9F712C0B130B3
:104C400081F09FD0B1E008959CC0672F782F88270E
:104C5000B85F39F0B93FCCF3869577956795B395F2
:104C6000D9F73EF490958095709561957F4F8F4F61
:104C70009F4F0895E89409C097FB3EF49095809566
:104C8000709561957F4F8F4F9F4F9923A9F0F92F12
:104C900096E9BB279395F695879577956795B79590
:104CA000F111F8CFFAF4BB0F11F460FF1BC06F5F76
:104CB0007F4F8F4F9F4F16C0882311F096E911C088
:104CC000772321F09EE8872F762F05C0662371F0A9
:104CD00096E8862F70E060E02AF09A95660F771FBD
:104CE000881FDAF7880F9695879597F9089597F9B1
:104CF0009F6780E870E060E008959FEF80EC089582
:104D000000240A94161617061806090608950024AA
:104D10000A9412161306140605060895092E039424
:104D2000000C11F4882352F0BB0F40F4BF2B11F498
:104D300060FF04C06F5F7F4F8F4F9F4F089557FDF7
:104D40009058440F551F59F05F3F71F04795880FF9
:104D500097FB991F61F09F3F79F087950895121690
:104D600013061406551FF2CF4695F1DF08C016163C
:104D700017061806991FF1CF8695710561050894ED
:104D80000895E894BB2766277727CB0197F9089504
:104D90000BD0C4CFB5DF28F0BADF18F0952309F0A7
:104DA000A6CFABCF1124EECFCADFA0F3959FD1F3EE
:104DB000950F50E0551F629FF001729FBB27F00DC9
:104DC000B11D639FAA27F00DB11DAA1F649F66271E
:104DD000B00DA11D661F829F2227B00DA11D621F6D
:104DE000739FB00DA11D621F839FA00D611D221F27
:104DF000749F3327A00D611D231F849F600D211D0B
:104E0000822F762F6A2F11249F5750408AF0E1F0AD
:104E100088234AF0EE0FFF1FBB1F661F771F881FF6
:104E200091505040A9F79E3F510570F060CFAACF36
:104E30005F3FECF3983EDCF3869577956795B795E1
:104E4000F795E7959F5FC1F7FE2B880F911D96950B
:104E5000879597F90895AA1BBB1B51E107C0AA1FAC
:104E6000BB1FA617B70710F0A61BB70B881F991F0B
:104E70005A95A9F780959095BC01CD01089597FBAF
:104E8000072E16F4009407D077FD09D00E942B2737
:104E900007FC05D03EF4909581959F4F089570953D
:104EA00061957F4F0895A1E21A2EAA1BBB1BFD013D
:104EB0000DC0AA1FBB1FEE1FFF1FA217B307E407F9
:104EC000F50720F0A21BB30BE40BF50B661F771F51
:104ED000881F991F1A9469F7609570958095909531
:104EE0009B01AC01BD01CF010895EE0FFF1F05909E
:104EF000F491E02D0994CF93DF938230910510F463
:104F000082E090E0E091AC07F091AD0720E030E066
:104F1000A0E0B0E0309739F140815181481759073E
:104F2000B8F04817590771F482819381109729F0DE
:104F300013969C938E9312972CC09093AD078093F9
:104F4000AC0727C02115310531F04217530718F07F
:104F5000A901DB0101C0EF019A01BD01DF0102805F
:104F6000F381E02DD7CF21153105F9F0281B390B3E
:104F70002430310580F48A819B816115710521F00F
:104F8000FB019383828304C09093AD078093AC07A9
:104F9000FE01329644C0FE01E20FF31F819391930C
:104FA00022503109398328833AC02091AA073091D1
:104FB000AB07232B41F42091020130910301309380
:104FC000AB072093AA072091000130910101211520
:104FD000310541F42DB73EB74091040150910501D0
:104FE000241B350BE091AA07F091AB07E217F307FA
:104FF000A0F42E1B3F0B2817390778F0AC014E5F49
:105000005F4F2417350748F04E0F5F1F5093AB07D3
:105010004093AA078193919302C0E0E0F0E0CF01B2
:10502000DF91CF910895CF93DF93009709F487C064
:10503000FC01329713821282C091AC07D091AD0768
:10504000209781F420813181280F391F8091AA0790
:105050009091AB078217930779F5F093AB07E09334
:10506000AA076DC0DE0120E030E0AE17BF0750F4A4
:1050700012964D915C9113979D014115510509F1CF
:10508000DA01F3CFB383A28340815181840F951F4E
:105090008A179B0771F48D919C911197840F951F2E
:1050A00002969183808312968D919C91139793839E
:1050B00082832115310529F4F093AD07E093AC0705
:1050C0003EC0D9011396FC93EE9312974D915D91DA
:1050D000A40FB51FEA17FB0779F480819181840F33
:1050E000951F0296D90111969C938E93828193818C
:1050F00013969C938E931297E0E0F0E08A819B8157
:10510000009719F0FE01EC01F9CFCE01029628813B
:105110003981820F931F2091AA073091AB0728177E
:10512000390769F4309729F41092AD071092AC0753
:1051300002C013821282D093AB07C093AA07DF91FB
:10514000CF910895A0E0B0E0E8EAF8E20C944A2C90
:10515000EC01CB01209719F40E947B27B8C0FE0117
:10516000E60FF71F9E0122503109E217F30708F4FA
:10517000ACC0D9010D911C91119706171707B8F013
:105180000530110508F49FC0A80144505109461785
:10519000570708F498C002501109061B170B01931A
:1051A00011936D937C93CF010E9413288CC05B01F7
:1051B000A01AB10A4E01800E911EA091AC07B091C9
:1051C000AD07612C712C60E070E0109709F449C0C4
:1051D000A815B905C9F5ED90FC901197670142E05B
:1051E000C40ED11CCA14DB0478F147018A189B084D
:1051F000640142E0C40ED11C1296BC901297139623
:10520000AC91B5E0CB16D10440F0B282A383918279
:105210008082D9018D939C9309C00E5F1F4F0E0DA4
:105220001F1DF90111830083EB2DFA2F6115710504
:1052300031F0DB011396FC93EE93129744C0F09388
:10524000AD07E093AC073FC06D917C911197661656
:10525000770608F43B01BD0112960D90BC91A02D7C
:10526000B4CF6091AA077091AB0768157905E9F48E
:1052700068167906D0F44091000150910101411562
:10528000510541F44DB75EB760910401709105017D
:10529000461B570BE417F507C0F4F093AB07E093F8
:1052A000AA07F901918380830EC00E947B277C01AD
:1052B000009759F0A801BE010E946C29CE010E94FE
:1052C0001328C70104C0CE0102C080E090E0CDB732
:1052D000DEB7EEE00C94662CFB01DC0102C001900D
:1052E0000D9241505040D8F70895FB01DC01019028
:1052F0000D920020E1F70895AEE0B0E0E2E8F9E2B7
:105300000C94542C0D891E8986E08C831A830983A2
:105310008FEF9FE79E838D83AE01475E5F4F6F895E
:10532000788DCE0101960E949E29EF81F885E00FCD
:10533000F11F10822E96E4E00C94702CACE0B0E0EB
:10534000E4EAF9E20C94462C7C016B018A01FC0131
:1053500017821682838181FFBDC1CE0101964C0167
:10536000F7019381F60193FD859193FF81916F0180
:10537000882309F4ABC1853239F493FD859193FFFD
:1053800081916F01853229F4B70190E00E94B62B1C
:10539000E7CF512C312C20E02032A0F48B3269F081
:1053A00030F4803259F0833269F420612CC08D32A0
:1053B00039F0803339F4216026C02260246023C094
:1053C000286021C027FD27C030ED380F3A3078F42F
:1053D00026FF06C0FAE05F9E300D1124532E13C045
:1053E0008AE0389E300D1124332E20620CC08E329C
:1053F00021F426FD6BC1206406C08C3611F42068B0
:1054000002C0883641F4F60193FD859193FF8191A6
:105410006F018111C1CF982F9F7D9554933028F44F
:105420000C5F1F4FFFE3F9830DC0833631F08337E4
:1054300071F0833509F05BC022C0F8018081898357
:105440000E5F1F4F44244394512C540115C0380162
:10545000F2E06F0E711CF801A080B18026FF03C03E
:10546000652D70E002C06FEF7FEFC5012C870E94B1
:10547000AB2B2C0183012C852F77222E17C03801EE
:10548000F2E06F0E711CF801A080B18026FF03C00E
:10549000652D70E002C06FEF7FEFC5012C870E9481
:1054A000A02B2C012C852068222E830123FC1BC0FD
:1054B000832D90E048165906B0F4B70180E290E0E1
:1054C0000E94B62B3A94F4CFF50127FC859127FE74
:1054D00081915F01B70190E00E94B62B31103A94A0
:1054E000F1E04F1A51084114510471F7E5C08436B8
:1054F00011F0893639F5F80127FF07C06081718105
:10550000828193810C5F1F4F08C060817181882761
:1055100077FD8095982F0E5F1F4F2F76B22E97FF45
:1055200009C090958095709561957F4F8F4F9F4FE3
:105530002068B22E2AE030E0A4010E94E82BA82EB9
:10554000A81844C0853729F42F7EB22E2AE030E017
:1055500025C0F22FF97FBF2E8F36C1F018F48835A1
:1055600079F0B4C0803719F0883721F0AFC02F2F01
:105570002061B22EB4FE0DC08B2D8460B82E09C000
:1055800024FF0AC09F2F9660B92E06C028E030E0A5
:1055900005C020E130E002C020E132E0F801B7FEB2
:1055A00007C060817181828193810C5F1F4F06C0AB
:1055B0006081718180E090E00E5F1F4FA4010E9426
:1055C000E82BA82EA818FB2DFF77BF2EB6FE0BC028
:1055D0002B2D2E7FA51450F4B4FE0AC0B2FC08C0D7
:1055E0002B2D2E7E05C07A2C2B2D03C07A2C01C0CA
:1055F000752C24FF0DC0FE01EA0DF11D8081803362
:1056000011F4297E09C022FF06C07394739404C06C
:10561000822F867809F0739423FD13C020FF06C003
:105620005A2C731418F4530C5718732C731468F411
:10563000B70180E290E02C870E94B62B73942C85F2
:10564000F5CF731410F4371801C0312C24FF12C0A9
:10565000B70180E390E02C870E94B62B2C8522FFB7
:1056600017C021FF03C088E590E002C088E790E002
:10567000B7010CC0822F867859F021FD02C080E26C
:1056800001C08BE227FD8DE2B70190E00E94B62BAE
:10569000A51438F4B70180E390E00E94B62B5A9429
:1056A000F7CFAA94F401EA0DF11D8081B70190E0D3
:1056B0000E94B62BA110F5CF332009F451CEB701CB
:1056C00080E290E00E94B62B3A94F6CFF7018681F3
:1056D000978102C08FEF9FEF2C96E2E10C94622C31
:1056E000DC01CB01FC01F999FECF06C0F2BDE1BDA2
:1056F000F89A319600B40D9241505040B8F7089591
:10570000F999FECF92BD81BDF89A992780B5089589
:10571000DC01CB0103C02D910E94932B41505040DE
:10572000D0F70895262FF999FECF1FBA92BD81BDFB
:1057300020BD0FB6F894FA9AF99A0FBE0196089513
:10574000FC010590615070400110D8F7809590954C
:105750008E0F9F1F0895FC01615070400190011051
:10576000D8F7809590958E0F9F1F08950F931F93E4
:10577000CF93DF93182F092FEB018B8181FD03C09D
:105780008FEF9FEF20C082FF10C04E815F812C8180
:105790003D81421753077CF4E881F9819F012F5F17
:1057A0003F4F39832883108306C0E885F985812F10
:1057B0000995892B29F72E813F812F5F3F4F3F832A
:1057C0002E83812F902FDF91CF911F910F910895FC
:1057D000FA01AA27283051F1203181F1E8946F9322
:1057E0006E7F6E5F7F4F8F4F9F4FAF4FB1E03ED0C8
:1057F000B4E03CD0670F781F891F9A1FA11D680F66
:10580000791F8A1F911DA11D6A0F711D811D911D98
:10581000A11D20D009F468943F912AE0269F11240D
:105820003019305D3193DEF6CF010895462F477071
:10583000405D4193B3E00FD0C9F7F6CF462F4F70CC
:10584000405D4A3318F0495D31FD4052419302D02A
:10585000A9F7EACFB4E0A6959795879577956795D0
:10586000BA95C9F700976105710508959B01AC01D0
:105870000A2E06945795479537952795BA95C9F7F7
:10588000620F731F841F951FA01D08952F923F92D2
:105890004F925F926F927F928F929F92AF92BF9240
:1058A000CF92DF92EF92FF920F931F93CF93DF93EC
:1058B000CDB7DEB7CA1BDB0B0FB6F894DEBF0FBE49
:1058C000CDBF09942A88398848885F846E847D8496
:1058D0008C849B84AA84B984C884DF80EE80FD8098
:1058E0000C811B81AA81B981CE0FD11D0FB6F8940E
:1058F000DEBF0FBECDBFED01089514E0C4E5D4E0D6
:1059000004C0FE010E9477272296C635D107C9F749
:04591000F894FFCF39
:105914000000AE078000010000E10000000000006C
:1059240001010101007D00F4017D00000000000080
:105934000200000007E0013C000000000441053CB7
:10594400000028100001000AFFD8454754202020F9
:1059540020200201000007E001340000000004419F
:10596400053400002810000F0D20000041462020BF
:10597400202020200201000007E022DA8500000038
:10598400046205DA06853008001700140000414659
:10599400524F424420200200000007E02203EC00A2
:1059A40000000462050306EC30100001000500004D
:1059B4004B4E4F434B2020200200000007E022F40E
:1059C40023000000046205F406233010001D0014B7
:1059D4000000465052004B2020200200000007E047
:1059E40022031800000004620503061830100006A4
:1059F4000001000043414D444547202002000000BF
:105A0400073722596A00000004620559066A3010FB
:105A1400000B0064000050574549474854200200D9
:105A2400000007E02203CA0000000462050306CA5E
:105A3400300800090005FFD842415454455259200A
:105A4400FFFFFFFFFFFFFFFFFFFFFFFFFFFFFFFF62
:105A5400FFFFFFFFFFFFFFFFFFFFFFFFFFFFFFFF52
:105A640043414E3120496E746572727570742054CE
:105A74007269676765726564000D003A0043414EC0
:105A8400427573547269706C6500202020202020B8
:105A94002020202020202020202020202020202002
:105AA40020202020202020202020202020202020F2
:105AB40020202020202020202020202020202020E2
:105AC400202020202020202020200025633A256447
:105AD4002E25640025633A2564002025632563256B
