:100000000C94E7020C9475180C94A2180C94CF1859
:100010000C94FC180C940F030C940F030C942919E6
:100020000C940F030C940F030C948D220C94592103
:100030000C940F030C940F030C940F030C940F03F8
:100040000C940F030C940F030C940F030C940F03E8
:100050000C940F030C940F030C940F030C9456197B
:100060000C940F030C94471D0C94791D0C940F03F2
:100070000C940F030C940F030C940F030C940F03B8
:100080000C940F030C940F030C940F030C940F03A8
:100090000C940F030C940F030C940F030C940F0398
:1000A0000C940F030C940F030C940F036E0B720B44
:1000B000760B7A0B970B970B970B7D0B8C0B970B93
:1000C000970B970B970B970B970B900B970B970B27
:1000D000970B970B970B940B651A681A571A5B1AB4
:1000E000611A891A891A891A6C1A701A741A7A1A7A
:1000F0007E1A891A841A227D002C20226E6578745B
:100100005478427566666572223A2200222C2022BB
:100110006572726F72223A2200222C20227374615F
:10012000747573223A2200222C202263616E63745C
:10013000726C223A22007B226576656E74223A2226
:10014000627573646267222C20226E616D65223AAB
:100150002200202D204E6F204572726F7273220094
:100160002C200A22225265636569766520427566F5
:100170006665722031204F766572666C6F7722005B
:100180002C200A2252656365697665204275666691
:1001900065722030204F766572666C6F7722002C76
:1001A000200A22427573204F6666202D2054454355
:1001B0002065786365656465642032353522002CDE
:1001C000200A225472616E736D6974204572726FD9
:1001D00072205761726E696E67202D20544543204E
:1001E0003E3D2031323822002C200A2252656365C0
:1001F000697665204572726F72205761726E696E02
:1002000067202D20524543203E3D203132382200C8
:100210002C200A225472616E736D697420457272CB
:100220006F72205761726E696E67202D2054455899
:10023000203E3D20393622002C200A22526563657B
:10024000697665204572726F72205761726E696EB1
:1002500067202D20524543203E3D20393622002282
:100260000A2252656365697665204572726F722055
:100270005761726E696E67202D20544543206F725E
:1002800020524543203E3D2039362200227D002267
:100290007D007B226576656E74223A2265657072F8
:1002A0006F6D44617461222C2022726573756C74C9
:1002B000223A226661696C757265222C202263687D
:1002C000756E6B223A22007B226576656E74223A47
:1002D00022656570726F6D53617665222C202272E3
:1002E0006573756C74223A22737563636573732248
:1002F0007D00227D007B226576656E74223A226540
:100300006570726F6D44617461222C202272657376
:10031000756C74223A2273756363657373222C20A3
:10032000226368756E6B223A22007D002C202772B2
:10033000617465273A007B2765273A2762617564F7
:10034000272C2027627573273A007B2765273A27D9
:100350006175746F62617564436F6D706C6574650F
:10036000272C202772617465273A007B2765766504
:100370006E74273A276175746F6261756454657392
:1003800074272C202772617465273A007B226576DA
:10039000656E74223A22656570726F6D5265736581
:1003A00074222C2022726573756C74223A22737544
:1003B0006363657373227D000000000200090F0073
:1003C00000030401000C0000000000000000000019
:1003D00000000000000004080201104080401020CE
:1003E00040804080080204018040201002011080FB
:1003F0001020404004040404040304050202020225
:1004000004030202020206060606060604040202AD
:100410000204000000002300260029002C002F0009
:1004200000000000250028002B002E0031000000F5
:100430000000240027002A002D003000080B0002D5
:10044000020201000904000001020200000524006C
:1004500010010524010101042402060524060001FF
:100460000705810310004009040100020A00000092
:10047000070502024000000705830240000000C19A
:100480008081C11201000202000040412336800039
:100490000101020001120100020000004041233668
:1004A0008000010102000141726475696E6F204C89
:1004B0004C430043414E42757320547269706C6521
:1004C000000403090400000000000000002A2B289B
:1004D000000000000000000000000000000000001C
:1004E00000000000002C9EB4A0A1A2A434A6A7A5E1
:1004F000AE362D3738271E1F20212223242526B370
:1005000033B62EB7B89F8485868788898A8B8C8D71
:100510008E8F909192939495969798999A9B9C9D83
:100520002F3130A3AD350405060708090A0B0C0D61
:100530000E0F101112131415161718191A1B1C1D63
:10054000AFB1B0B5000904020001030000000921A9
:100550000101000122650007058403400001050137
:100560000902A1010901A100850105091901290359
:10057000150025019503750181029501750581031B
:1005800005010930093109381581257F7508950362
:100590008106C0C005010906A1018502050719E011
:1005A00029E7150025017501950881029501750857
:1005B000810395067508150025650507190029654D
:1005C0008100C0000F12E51BA91D352599121124C9
:1005D0001FBECFEFDAE0DEBFCDBF13E0A0E0B1E099
:1005E000ECE3F4E502C005900D92A63BB107D9F704
:1005F00026E0A6EBB3E001C01D92A039B207E1F7F7
:1006000015E0CCECD5E004C02297FE010E949127B2
:10061000C43CD107C9F70E94ED1D0C94112A0C941B
:100620000000089508952F923F924F925F926F922B
:100630007F928F929F92AF92BF92CF92DF92EF9272
:10064000FF920F931F93CF93DF93CDB7DEB72E9713
:100650000FB6F894DEBF0FBECDBF4C017987688717
:100660006A01DB011496ED91FC9115978081E82FCA
:10067000F0E0FB87EA87F2E28F9F800111240B5E96
:100680001B4FE12CF12C8F5F8C87A885B9851496C0
:10069000ED91FC911597808190E001962A853B852C
:1006A0002E0D3F1D821793070CF4BBC098012951F2
:1006B0003109F801759780813196811104C09081CC
:1006C000992309F4A8C090E0982F88274081840FCF
:1006D000911D0896D60111964D915C91129748177D
:1006E000590709F098C080E090E0F901E80FF91F80
:1006F0004485442359F0D601A40FB11D5C91458572
:10070000541389C002968630910579F7F80137971E
:1007100080818695869586958250F601E80FF11DB9
:100720006381D80116978C9170E0803129F4762F7F
:1007300066278481680F711DF8013597A080B12C60
:10074000BA2CAA2431968081A80EB11C3196208142
:1007500030E0322F222731968081280F311D3196CB
:100760002080312C322C2224F8018081280E311C6B
:100770002115310511F421E030E080E090E02D8773
:100780003E870E9444262B013C012D853E85B90100
:1007900080E090E00E9444269B01AC01C301B201BD
:1007A0000E94AB252B013C01B50180E090E00E9446
:1007B00044269B01AC01C301B2010E94F6262B0125
:1007C0003C01B10180E090E00E9444269B01AC0115
:1007D000C301B2010E9443250E941826F8017797B1
:1007E0002081318126173707B1F071836083F7EEDE
:1007F000F98323E82A832C852E0D2B837C836D833C
:100800003DE03E838AE08F83BE016F5F7F4F89EDBD
:1008100095E00E945D1E9FEFE91AF90A0E5D1F4FD9
:1008200034CF80E1F601D40101900D928A95E1F771
:10083000C4012E960FB6F894DEBF0FBECDBFDF9178
:10084000CF911F910F91FF90EF90DF90CF90BF90CD
:10085000AF909F908F907F906F905F904F903F9060
:100860002F90089561E08DE00E948A1A61E08DE08A
:100870000E94C31A6AEF70E080E090E00E94CF19F6
:1008800060E08DE00E94C31A6AEF70E080E090E0C3
:100890000E94CF19EBCF009711F00E948C1E0E948E
:1008A00032046115710581F0DB010D900020E9F73C
:1008B000AD0141505109461B570BDC01ED91FC91F4
:1008C0000280F381E02D099480E090E008950F9379
:1008D0001F93CF93DF93EC018B01FB01808191810A
:1008E00099838883828193819B838A836C5F7F4F06
:1008F000CE0104960E949C23F801828593859B87F4
:100900008A87DF91CF911F910F9108954EE351E0B7
:1009100060E070E00C94C2299FEF980F933078F458
:100920001616170664F4E82FF0E0EE0FFF1FE451EF
:10093000FC4F748363838EEE93E00C9486040895D9
:100940009FEF980F933048F4E82FF0E0EE0FFF1F71
:10095000E451FC4F83819481089580E090E00895F4
:10096000CF93DF93C0E0D0E040E0BE0185E795E0A3
:100970000E9450132196C11582E0D807A9F7DF9194
:10098000CF9108950F931F93CF93DF93CDB7DEB729
:10099000CE53D1400FB6F894DEBF0FBECDBF0E943C
:1009A000B0048EE391E0E2E1F1E0DE011196019006
:1009B0000D920197E1F7CE0101960E9486040E94F4
:1009C0000C056CE873E089E895E00E947A1E06E069
:1009D00010E061E08DE00E94C31A64EF71E080E0F6
:1009E00090E00E94CF1960E08DE00E94C31A64EF8E
:1009F00071E080E090E00E94CF190150110949F7A1
:100A0000C25CDE4F0FB6F894DEBF0FBECDBFDF91E4
:100A1000CF911F910F9108958EE391E0EEEEF3E0F8
:100A2000DF019C011D9221503040E1F74EE351E07F
:100A300060E070E0CF010E94AA298091EF0381500D
:100A40008E3F10F00C94C20408955F926F927F92D3
:100A50008F929F92AF92BF92CF92DF92EF92FF92CE
:100A60000F931F93CF93DF93CDB7DEB76E970FB67B
:100A7000F894DEBF0FBECDBF982E5B018FEF890DBE
:100A8000833008F0D3C0292D30E0215031098CE0AB
:100A9000829FB001839F700D1124645D7A4F7E01A7
:100AA00083E1E80EF11CC7010E9467046FE070E06B
:100AB000C7010E94BE16582E6BE270E0C7010E946B
:100AC000BE16682E92E1E0E5F2E0DE01119601909B
:100AD0000D929A95E1F7FE0131966F01712C812CF0
:100AE0006BE673E0C5010E942A1EF6010191119187
:100AF0006F014AE050E0B801C5010E94411F62E663
:100B000072E0C5010E948C1E60E070E0C7010E9487
:100B10005A1565E070E080E090E00E94CF19B801BE
:100B2000C7010E94C51365E070E080E090E00E947C
:100B3000CF1963E070E0C7010E945A1565E070E0CC
:100B400080E090E00E94CF192FEF40E06CE2C701F7
:100B50000E94E01465E070E080E090E00E94CF1910
:100B600068EC70E080E090E00E94CF196CE270E0E9
:100B7000C7010E94BE1687FD02C0811102C0072D69
:100B8000182DCE14DF0419F0702E812EA9CF60E04D
:100B900070E0C6010E945A156AE070E080E090E0C3
:100BA0000E94CF19B801C6010E94C51361E070E030
:100BB00080E090E00E94CF192FEF452D6FE0C60135
:100BC0000E94E01461E070E080E090E00E94CF19A4
:100BD0002FEF462D6BE2C6010E94E01461E070E049
:100BE00080E090E00E94CF1961E070E0C6010E94B1
:100BF0005A156AE473E0C5010E942A1E4AE050E0DB
:100C0000B801C5010E94411F62E672E0C5010E9461
:100C10008C1E0115110521F0B801892D0E948C044C
:100C2000CE0147960E940123C80102C080E090E0F7
:100C30006E960FB6F894DEBF0FBECDBFDF91CF9199
:100C40001F910F91FF90EF90DF90CF90BF90AF90EA
:100C50009F908F907F906F905F9008950F931F9358
:100C6000CF93DF93EC018B018FE693E09983888328
:100C7000CE0108960E9469181D830C831F821E8274
:100C800089E895E09B838A83DF91CF911F910F9133
:100C90000895EF92FF920F931F93CF93DF93EC0190
:100CA0008B01DB011D962D913C911E97A9014150AE
:100CB000510981E090E0042E01C0880F0A94EAF700
:100CC0009F81982309F489C08A819B81B5E0893D81
:100CD0009B07E9F4FB0141815281F9013396EE0F44
:100CE000FF1FEC0FFD1F6081772767FD709564176C
:100CF000750769F0F901EE0FFF1FEC0FFD1F27814B
:100D0000332727FD30952417350709F066C0DC012D
:100D1000ED91FC910190F081E02D63E009958A81CD
:100D20009B81DC01ED91FC910190F081E02DD801D7
:100D30001D966C9109958A819B81DC01ED91FC9156
:100D4000D80112966C910190F081E02D09958A816D
:100D50009B81DC01ED91FC910190F081E02DD801A7
:100D600011966C910995E12CF12C8A819B81DC0113
:100D7000ED91FC91D801AE0DBF1D0190F081E02DE9
:100D800013966C910995BFEFEB1AFB0AE8E0EE169B
:100D9000F10459F78A819B81DC01ED91FC9101906E
:100DA000F081E02DD8016C9109958A819B81DC014D
:100DB000ED91FC910190F081E02DD8011B966C9192
:100DC000099564E672E08A819B81DF91CF911F9142
:100DD0000F91FF90EF900C945104DF91CF911F91F0
:100DE0000F91FF90EF900895EF92FF920F931F9352
:100DF000CF93DF93CDB7DEB760970FB6F894DEBF21
:100E00000FBECDBF8C01CB017A0120E1FA01DE01DA
:100E1000119601900D922A95E1F7BE016F5F7F4F09
:100E20000E944906CE0101960E94741880E1F701E4
:100E3000D80101900D928A95E1F7C80160960FB62E
:100E4000F894DEBF0FBECDBFDF91CF911F910F9100
:100E5000FF90EF900895CF92DF92EF92FF920F9361
:100E60001F93CF93DF937C016A01EB0100E010E058
:100E70000C151D05E0F4D70112968D919C911397E6
:100E8000DC01ED91FC910480F581E02D0995892B21
:100E900071F0F70182819381DC01ED91FC91068074
:100EA000F781E02D099589930F5F1F4FE1CFC801AE
:100EB000DF91CF911F910F91FF90EF90DF90CF9036
:100EC00008950F931F93CF93DF9300D000D01F920C
:100ED000CDB7DEB78C0145E050E0BE016F5F7F4FBC
:100EE0000E942B078981843080F490E0FC013396C6
:100EF000EE0FFF1FE00FF11F2B812083FC01EE0F8F
:100F0000FF1FE00FF11F8D8187830F900F900F90CF
:100F10000F900F90DF91CF911F910F9108950F9334
:100F20001F93CF93DF9300D01F92CDB7DEB78C0114
:100F300043E050E0BE016F5F7F4F0E942B0783307C
:100F400051F46A8170E0762F66278B81680F711DDE
:100F500089810E948C0466E373E0F80182819381A9
:100F60000E942A1E4AE050E06981F8018281938143
:100F70000E94561F6CE273E0F801828193810E9407
:100F80002A1E89810E94A0044AE050E0BC01F801B9
:100F9000828193810E94411F6AE273E0F80182819D
:100FA00093810E947A1E0F900F900F90DF91CF9146
:100FB0001F910F910895EF92FF920F931F93CF937C
:100FC000DF93CDB7DEB762970FB6F894DEBF0FBEE2
:100FD000CDBF8C01BE01635F7F4F86E0DB011D92B8
:100FE0008A95E9F746E050E0C8010E942B077C0192
:100FF0002D858FEF820F833060F0F801828193811D
:10100000DC01ED91FC910190F081E02D60E8099503
:1010100067C030E0215031098CE0829FB001839F8E
:10102000700D1124645D7A4FCE0101960E94670411
:101030002E85222359F08D85815001C0220F8A957B
:10104000EAF7F8018781822B878303C0D8011796BE
:101050001C92B3E0EB16F1046CF160E070E0CE019D
:1010600001960E945A15CE0101960E9470176F8555
:1010700070E0288930E0498950E0EA89F0E0CB014E
:10108000820F931F840F951F8E0F9F1F892B61F076
:10109000542F44274E0F5F1F762F6627620F731F52
:1010A000CE0101960E94171761E070E0CE01019613
:1010B0000E945A15F80182819381DC01ED91FC9127
:1010C0000190F081E02D6FEF099564E672E0F80180
:1010D000828193810E945104CE0105960E940123D2
:1010E00062960FB6F894DEBF0FBECDBFDF91CF91F1
:1010F0001F910F91FF90EF9008950F931F93CF933F
:10110000DF93CDB7DEB7A1970FB6F894DEBF0FBE61
:10111000CDBF8C0142E250E0BE016F5F7F4F0E9465
:101120002B07829789F58AA1813A71F5A98180E21E
:10113000A89FD0011124A251BC4F80E2FE0132963B
:1011400001900D928A95E1F765EF72E0F8018281D6
:1011500093810E942A1E4AE050E06981F801828151
:1011600093810E94561F62EF72E0F80182819381A1
:101170000E947A1E89818F30E9F48EEE93E00E94FE
:10118000860467EC72E011C062E972E0F8018281C6
:1011900093810E942A1E4AE050E06981F801828111
:1011A00093810E94561F6FE872E0F801828193815B
:1011B0000E947A1EA1960FB6F894DEBF0FBECDBF77
:1011C000DF91CF911F910F9108950F931F93CF93AC
:1011D000DF931F92CDB7DEB78C0141E050E0BE0136
:1011E0006F5F7F4F0E942B078981823029F0833007
:1011F000F1F4F80116821BC081E0F801868361E0FA
:101200008DE00E94C31A64E670E080E090E00E94E6
:10121000CF1960E08DE00E94C31A64E670E080E0C0
:1012200090E00E94CF1961E08DE00E94C31A0F90F8
:10123000DF91CF911F910F910895CF93DF93EC0130
:101240008A819B81DC01ED91FC910480F581E02D88
:101250000995892B51F08A819B81DC01ED91FC91EC
:101260000680F781E02D0995EBCFDF91CF910895AE
:101270000F931F93CF93DF93EC018B016DE270E02E
:10128000C8010E94BE1680FF06C06FE572E08A8129
:101290009B810E942A1E6DE270E0C8010E94BE166A
:1012A00081FF06C068E372E08A819B810E942A1E4A
:1012B0006DE270E0C8010E94BE1682FF06C060E1C8
:1012C00072E08A819B810E942A1E6DE270E0C80153
:1012D0000E94BE1683FF06C068EE71E08A819B8182
:1012E0000E942A1E6DE270E0C8010E94BE1684FFB3
:1012F00006C06FEB71E08A819B810E942A1E6DE21D
:1013000070E0C8010E94BE1685FF06C06FE971E05B
:101310008A819B810E942A1E6DE270E0C8010E94B2
:10132000BE1686FF06C060E871E08A819B810E943C
:101330002A1E6DE270E0C8010E94BE1687FF06C03B
:1013400060E671E08A819B810E942A1E6DE270E056
:10135000C8010E94BE1681110AC062E571E08A814F
:101360009B81DF91CF911F910F910C942A1EDF91E9
:10137000CF911F910F910895EF92FF920F931F93BA
:10138000CF93DF93CDB7DEB72C970FB6F894DEBFBF
:101390000FBECDBF8C017B0166E371E0FC01828151
:1013A00093810E942A1EB7016C5F7F4FF8018281F2
:1013B00093810E944F1E67E271E0F8018281938160
:1013C0000E942A1E6FE070E0C7010E94BE1640E135
:1013D00050E0682FF801828193810E94561F69E1D5
:1013E00071E0F801828193810E942A1EC7010E9448
:1013F000921640E150E0682FF801828193810E94AB
:10140000561F6CE071E0F801828193810E942A1ED0
:101410006DE270E0C7010E94BE1642E050E0682F06
:10142000F801828193810E94561FB701CE01019677
:101430000E946704BE016F5F7F4FC8010E94380998
:10144000CE0105960E94012369EF70E0F8018281C8
:1014500093810E942A1EC7010E94AA164AE050E00A
:10146000BC01F801828193810E94411F66EF70E008
:10147000F801828193810E947A1E2C960FB6F8940F
:10148000DEBF0FBECDBFDF91CF911F910F91FF90B7
:10149000EF9008950F931F93CF93DF93CDB7DEB7EF
:1014A0002D970FB6F894DEBF0FBECDBF8C0141E083
:1014B00050E0BE01635F7F4F0E942B072D852430D3
:1014C000C8F430E0215031098CE0829FB001839F45
:1014D000700D1124645D7A4FCE0101960E9467045D
:1014E000BE016F5F7F4FC8010E94BC09CE01059607
:1014F0000E9401232D960FB6F894DEBF0FBECDBF1C
:10150000DF91CF911F910F910895F89481E080931E
:10151000E00080E28093D8001092C90065E070E09E
:1015200080E090E00E94CF191DBA109268001CBCA8
:1015300010BE1FBA10927A0010926E0010926F00C7
:10154000109271000C9400380895FF920F931F932E
:10155000CF93DF938C01C0E0D0E0BE0185E795E03A
:101560000E944D13F82E8FE08F1538F066E672E07A
:10157000F801828193810E945D1E40E150E06F2D51
:10158000F801828193810E94561FCF3FF1E0DF076F
:1015900039F068E672E0F801828193810E945D1E55
:1015A0002196C115F2E0DF07C1F6DF91CF911F91BF
:1015B0000F91FF900895CF93DF9300D0CDB7DEB7A2
:1015C00020918C0630918D062115310511F420E90A
:1015D00036E0CE010196821B930B0F900F90DF91A6
:1015E000CF9108950F931F93CF93DF93CDB7DEB7BD
:1015F00062970FB6F894DEBF0FBECDBF8C016AE6CE
:1016000072E0CE0101960E946F2360E772E0CE0186
:101610000D960E946F236EE772E0CE0107960E943E
:101620006F23BE01635F7F4FCE0107960E94D123D7
:101630006BE972E00E94E423BE016F5F7F4F0E945E
:10164000D1236AEA72E00E94E423BC01F80182819E
:1016500093810E944F1ECE0107960E940123CE0166
:101660000D960E940123CE0101960E940123C8011C
:101670000E94DB0A4AE050E0BC01F80182819381BC
:101680000E94411F6CE872E0F801828193810E9400
:101690007A1E62960FB6F894DEBF0FBECDBFDF9103
:1016A000CF911F910F9108950F931F93CF93DF93C5
:1016B0001F92CDB7DEB78C0141E050E0BE016F5FF5
:1016C0007F4F0E942B07498150E0FA013197E631A4
:1016D000F10568F5EA5AFF4F0C948F27C8010E9464
:1016E000F20A25C0C8010E94A50A21C0C8010E94B3
:1016F0007D081DC00E94C2041AC041E050E0BE0136
:101700006F5F7F4FC8010E942B07F80162817381D0
:1017100089810E9425050BC0C8010E948F0707C060
:10172000C8010E944A0A03C0C8010E94850A0F909E
:10173000DF91CF911F910F9108950F931F93CF9336
:10174000DF93DC0114960D911C911597E801E88157
:101750006E2F70E0D2E2ED9FF0011124EF5FFB4F9E
:1017600040E050E01296E801288130E02F5F3F4FC3
:10177000CA01860F971F28173907A4F0CF010197D8
:10178000EC01288130E0322F22278081280F311D83
:10179000285F3F4F19963C932E9318974F5F5F4FEA
:1017A000B296E0CFDF91CF911F910F9108950F93E3
:1017B0001F93CF93DF93EC018B0189E793E099832B
:1017C00088830E94A0196E837F838887998780EF22
:1017D00093E09D838C831B830A83CE01DF91CF919D
:1017E0001F910F910C949D0BCF93DF930E940C05DA
:1017F00061E070E080E090E00E94CF198091B80332
:101800009091B9030E949D0B40E052EC61E070E0C2
:1018100089E895E00E94DF1B26E040E051EE60E0A1
:1018200070E089ED95E00E94E51C6A9A729A61E089
:1018300088E00E948A1A61E088E00E94C31A61E091
:101840008DE00E948A1A60E083E00E948A1A60E0BC
:1018500082E00E948A1A60E087E00E948A1A61E0B2
:1018600084E00E948A1A61E08CE00E948A1A61E09A
:101870008BE00E948A1A61E089E00E948A1A61E086
:101880008AE00E948A1A61E085E00E948A1A60E07C
:1018900084E00E94C31A60E08CE00E94C31A60E0FA
:1018A0008BE00E94C31A88E695E00E948A1361E0EB
:1018B00070E088E695E00E942B156091F10370912D
:1018C000F20388E695E00E94C51361E088E695E0A2
:1018D0000E940B1524E044E060E688E695E00E9453
:1018E000E01420E240E269E288E695E00E94E0141C
:1018F00088E695E00E94701761E070E088E695E068
:101900000E945A158CE595E00E948A136091F303BA
:101910007091F4038CE595E00E94C51361E08CE5BD
:1019200095E00E940B1524E044E060E680E595E038
:101930000E94E0148CE595E00E94701763E070E06F
:101940008CE595E00E945A1580E595E00E948A1387
:101950006091F5037091F60380E595E00E94C51350
:1019600061E080E595E00E940B1524E044E060E62C
:1019700080E595E00E94E01480E595E00E947017F4
:1019800061E070E080E595E00E945A15C5E0D0E086
:1019900061E08DE00E94C31A62E370E080E090E0B5
:1019A0000E94CF1960E08DE00E94C31A62E370E0EC
:1019B00080E090E00E94CF19219751F7DF91CF91FD
:1019C00008950F931F93CF93DF93EC018B018F85C5
:1019D0008823C9F161E08DE00E94C31AC8010E940A
:1019E000AA168130910591F082309105E1F0892BA2
:1019F00061F59E012D5F3F4F49815A816881C80181
:101A00000E948217C8010E948E1519C09E012D5F89
:101A10003F4F49815A816881C8010E94CF17C80190
:101A20000E949E150CC09E012D5F3F4F49815A8137
:101A30006881C8010E941C18C8010E94AE1560E0B0
:101A40008DE00E94C31A81E001C080E0DF91CF9158
:101A50001F910F910895CF93DF93EC011D821C829B
:101A60001F821E82198618861B861A861982188282
:101A700080E290E00E94A9279B838A83892B11F43E
:101A80000E94320482E090E09D838C83DF91CF91AD
:101A90000895AF92BF92CF92DF92EF92FF920F9391
:101AA0001F93CF93DF93EC018B01161617061CF0E2
:101AB00068EB72E012C0CB0164E0880F991F6A9551
:101AC000E1F70E94A9277C01009729F06C0120E032
:101AD00030E040E106C06DEE72E0888199810E949D
:101AE0004B048E819F81AA80BB8028173907E4F4BC
:101AF00088859985820F931F6C817D810E9459276B
:101B000054E0880F991F5A95E1F78A0D9B1DFC013F
:101B1000D601842F01900D928A95E1F72F5F3F4FF8
:101B200080E1C80ED11CDDCFC5010E944128FB8297
:101B3000EA82198618868E819F819B878A871D83FA
:101B40000C83DF91CF911F910F91FF90EF90DF9069
:101B5000CF90BF90AF9008950F931F93CF93DF93D3
:101B6000EC018B018E819F812C813D81821793072F
:101B700031F4BC01660F771FCE010E94490DAA8186
:101B8000BB818A859B859C012F5F3F4F3B872A87BE
:101B900074E0880F991F7A95E1F7A80FB91F80E1CB
:101BA000F80101900D928A95E1F72A853B858C8199
:101BB0009D812817390711F41B861A868E819F8113
:101BC00001969F838E83DF91CF911F910F9108958E
:101BD0000F931F93CF93DF93CDB7DEB7AC970FB6BC
:101BE000F894DEBF0FBECDBF8C014CE050E0BE01CB
:101BF0006F5D7F4F0E942B07CE0141960E946918AE
:101C000089A190E09F8F8E8F2AA130E0322F22276A
:101C10008BA1280F311D3B8B2A8B8CA18C8B8DA126
:101C20008D8B8EA18E8B8FA18F8B88A5888F89A598
:101C3000898F8AA58A8F8BA58B8F8CA5898B81E054
:101C400088A380E1FE017196DE01119601900D924C
:101C50008A95E1F7BE016F5F7F4FF801848195811E
:101C60000E94AC0DCE0101960E947418CE014196DF
:101C70000E947418AC960FB6F894DEBF0FBECDBFAD
:101C8000DF91CF911F910F910895CF92DF92EF9244
:101C9000FF920F931F93CF93DF93CDB7DEB7C0545E
:101CA000D1090FB6F894DEBF0FBECDBF8C017B010A
:101CB00060E270E080E090E00E94CF1923E0E2163D
:101CC000F10411F14CF4A1E0EA16F104A9F0B2E03C
:101CD000EB16F104A9F008C024E0E216F104C1F00B
:101CE00088E0E816F104C1F08091ED0390E0E5EDA5
:101CF000F3E0C12CD12C17C0C8010E94540B3FC087
:101D0000C8010E94E80D3BC0C8010E94DB0737C034
:101D1000C8010E94610733C0C8010E94E5082FC0B6
:101D2000BFEFCB1ADB0AC816D9064CF5208130E08C
:101D300033962E153F05A1F740E450E0BE016F5FDA
:101D40007F4FC8010E942B077C0161E070E080E0BA
:101D500090E00E94CF19F601EE0FFF1FEC0DFD1D64
:101D6000EB52FC4F81819281DC01ED91FC9104806A
:101D7000F581E02DA701BE016F5F7F4F0995C80176
:101D80000E941D09C05CDF4F0FB6F894DEBF0FBE86
:101D9000CDBFDF91CF911F910F91FF90EF90DF901A
:101DA000CF9008955F926F927F928F929F92AF92A1
:101DB000BF92CF92DF92EF92FF920F931F93CF9338
:101DC000DF93CDB7DEB7A0970FB6F894DEBF0FBE96
:101DD000CDBF7C018B01DC011496ED91FC91159730
:101DE0008081A82EB12CB2E28B9F000D111D112411
:101DF0000A5F1F4FC12CD12C88E0582E7724739492
:101E000090E1692ED7011496ED91FC911597808190
:101E100090E0019696012A0D3B1D821793070CF462
:101E200056C04801E6E08E1A9108D8018C918823AB
:101E300009F447C0F4018081882309F442C0CE012F
:101E400041960E946918D4018C9190E09F8F8E8FEB
:101E5000F8013297808190E0982F88273196208171
:101E6000820F911D9B8B8A8BFE01759620E030E0DE
:101E7000D401A20FB31F16968C91882331F02F5FE7
:101E80003F4F81932630310599F72C8B598A78A2E0
:101E9000FE017196DE011196862D01900D928A95B4
:101EA000E1F7BE016F5F7F4FF701828193810E944E
:101EB000AC0DCE0101960E947418CE0141960E948D
:101EC0007418FFEFCF1ADF0A0E5D1F4F9BCFA0964D
:101ED0000FB6F894DEBF0FBECDBFDF91CF911F913B
:101EE0000F91FF90EF90DF90CF90BF90AF909F90B9
:101EF0008F907F906F905F9008950F931F93CF9373
:101F0000DF93EC010E94A0190E811F81288539857D
:101F1000025E1F4F2F4F3F4F06171707280739073D
:101F200078F40E94A0196E837F83888799876CEF6D
:101F300073E0CE01DF91CF911F910F910C94D20EDF
:101F4000DF91CF911F910F9108950F931F93CF931E
:101F5000DF93CDB7DEB7A0970FB6F894DEBF0FBE04
:101F6000CDBF8C012091CE033091CF038091CC0363
:101F70009091CD032817390709F47AC0C8010E944F
:101F800092168093D40380FF32C0CE0141960E9406
:101F900069188091D40390E09D8F8C8FF801828521
:101FA00093859F8F8E8F9E012E5E3F4FAE014C5EBC
:101FB0005F4FBE016F5E7F4FC8010E94BE1580E17A
:101FC000FE017196DE01119601900D928A95E1F75E
:101FD000BE016F5F7F4F88EC93E00E94AC0DCE0195
:101FE00001960E947418CE0141960E9474182091A7
:101FF000CE033091CF038091CC039091CD0328176D
:102000003907B1F18091D40381FF32C0CE014196EE
:102010000E9469188091D40390E09D8F8C8FF80105
:10202000828593859F8F8E8F9E012E5E3F4FAE01DE
:102030004C5E5F4FBE016F5E7F4FC8010E942C1641
:1020400080E1FE017196DE01119601900D928A9554
:10205000E1F7BE016F5F7F4F88EC93E00E94AC0D0B
:10206000CE0101960E947418CE0141960E94741808
:10207000A0960FB6F894DEBF0FBECDBFDF91CF9113
:102080001F910F910895BF92CF92DF92EF92FF922E
:102090000F931F93CF93DF93CDB7DEB7A0970FB603
:1020A000F894DEBF0FBECDBF8C0126EBC22E23E01D
:1020B000D22EE12CF12C30E1B32E809106019091CB
:1020C0000701E816F90664F5D6016D917D916D0161
:1020D000DB01ED91FC9122813381F801DE01519603
:1020E0008B2D01900D928A95E1F7AE014F5E5F4F07
:1020F000CE010196F9010995FE013196D8018B2D8B
:1021000001900D928A95E1F7CE0101960E94741814
:10211000CE0141960E947418FFEFEF1AFF0ACDCF4F
:10212000D8011F968C91882399F080E1F801DE0197
:10213000119601900D928A95E1F7BE016F5F7F4F76
:102140008CEB93E00E94AC0DCE0101960E947418B6
:10215000A0960FB6F894DEBF0FBECDBFDF91CF9132
:102160001F910F91FF90EF90DF90CF90BF90089557
:102170000F931F93CF93DF938C01EB018E819F818F
:10218000892B31F467E273E0888199810E944B04C6
:10219000EA81FB81888599859C012F5F3F4F3987B4
:1021A000288764E0880F991F6A95E1F7E80FF91F07
:1021B00080E1D80101900D928A95E1F72E813F814F
:1021C000215031093F832E836C817D8188859985DB
:1021D0008617970711F4198618862115310599F08D
:1021E000CB0177FD039695958795959587958217F1
:1021F00093074CF077FF02C06F5F7F4F759567952F
:10220000CE010E94490DC801DF91CF911F910F911E
:102210000895EF92FF920F931F93CF93DF93CDB763
:10222000DEB7E8970FB6F894DEBF0FBECDBFE6EB82
:10223000EE2EE3E0FE2E00E010E08091060190918A
:1022400007010817190774F4D7018D919D917D013D
:10225000DC01ED91FC910190F081E02D09950F5F7B
:102260001F4FEBCF83E00E94F91A892B71F468E6C7
:1022700075E0CE0101960E946704CE0101960E948E
:10228000A50FCE0105960E94012382E00E94F91A53
:10229000892B71F46CE575E0CE0101960E9467040C
:1022A000CE0101960E94A50FCE0105960E94012342
:1022B00087E00E94F91A892B71F460E575E0CE0180
:1022C00001960E946704CE0101960E94A50FCE01DF
:1022D00005960E9401238091CE039091CF03892B14
:1022E00059F02091C2033091C3038091C0039091B3
:1022F000C1032817390771F411E07CE0F72E00E1E3
:102300002091C2033091C303232B09F465C011113E
:1023100010C062C068EC73E0CE0101960E94B81054
:10232000CE0101960E944310CE0101960E947418BE
:10233000E3CF6CEB73E0CE0141960E94B8108E8D16
:102340009F8D0197F89EB001F99E700D1124645D78
:102350007A4FCE018D960E946704BE01635D7F4F68
:10236000CE0181960E946704FE017196DE011196EE
:10237000802F01900D928A95E1F7BE016F5D7F4F2E
:10238000CE0101960E94E10C182FCE0101960E9409
:102390007418CE0185960E940123111114C0FE010C
:1023A0007196DE011196802F01900D928A95E1F7CA
:1023B000BE016F5F7F4F8CEB93E00E94AC0DCE01AE
:1023C00001960E947418CE01C1960E940123CE018D
:1023D00041960E94741894CFE8960FB6F894DEBF29
:1023E0000FBECDBFDF91CF911F910F91FF90EF9066
:1023F0000895CF93DF93EC018A819B810E9441284D
:102400001B821A82198218821D821C821F821E82E0
:10241000198618861B861A86DF91CF9108950F932F
:102420001F93CF93DF9300D000D000D0CDB7DEB79D
:1024300069E573E0CE0101960E946F238E010F5F64
:102440001F4F21E030E044E050E069E070E088E6B2
:1024500095E00E945B13C8010E9401236FE573E0C1
:10246000C8010E946F2322E030E04CE050E06AE0B7
:1024700070E08CE595E00E945B13C8010E94012387
:1024800065E673E0C8010E946F2323E030E04BE073
:1024900050E065E070E080E595E00E945B13C801C4
:1024A0000E94012368E675E08CE295E00E946704D3
:1024B0006CE575E088E395E00E94670460E575E0EF
:1024C00084E495E00E94670488EC93E00E942B0D61
:1024D0008CEB93E00E942B0D88E190E00E94001E9F
:1024E0008C016CEB73E00E942E061093BB030093EB
:1024F000BA038EE090E00E94001E8C016CEB73E04A
:102500000E94D70B1093B9030093B8038091BA03CC
:102510009091BB039093B7038093B60326960FB6B2
:10252000F894DEBF0FBECDBFDF91CF911F910F9109
:102530000895CF93DF93CEEBD3E0888199810E94F9
:102540004128198218821092BD031092BC03109288
:10255000C1031092C0031092C3031092C2031092E1
:10256000C5031092C4031092C7031092C60388ECEF
:1025700093E00E94F91188E495E00E9401238CE326
:1025800095E00E94012380E395E00E94012384E509
:1025900095E00E94012380E695E00E9401238CE6ED
:1025A00095E0DF91CF910C940123CF93DF93EC0161
:1025B0008E81882331F189E895E00E944C1B892B9C
:1025C00081F089E895E00E945C1BE091D905F091CB
:1025D000DA050190F081E02D682F89ED95E00995ED
:1025E000EACF89ED95E00E94021C892B71F189EDFB
:1025F00095E00E941B1C682F89E895E00E94221B31
:10260000F0CF89ED95E00E94021C1816190654F4CB
:1026100089ED95E09B838A830E941B1CBC01CE013F
:102620000E94450E89E895E00E944C1B1816190679
:1026300064F489E895E09B838A830E945C1BBC015B
:10264000CE01DF91CF910C94450EDF91CF9108958B
:10265000CF93CFB7F89480917405811116C061E0D3
:1026600081E10E94C31A61E081E10E948A1A8CB55F
:1026700080618CBD8CB580648CBD61E08FE00E9470
:102680008A1A61E080E10E948A1A809174058F5F46
:1026900080937405CFBFCF910895CB010C94BA29D4
:1026A000CB01642F0C94CC298EBD00000DB407FE25
:1026B000FDCF8EB508958F929F92AF92BF92CF9229
:1026C000DF92EF92FF920F931F93CF93DF93EC0172
:1026D0006B015A0149017C0184E0E80EF11C65E6BA
:1026E00072E0C7010E946F23D982C882BB82AA828E
:1026F0009B868A86B801C701DF91CF911F910F9108
:10270000FF90EF90DF90CF90BF90AF909F908F9011
:102710000C948523CF93DF93EC0161E08FE00E945E
:102720008A1A60E08EE00E948A1A61E080E10E94CD
:102730008A1A61E088810E948A1A61E08A810E9477
:102740008A1A0E9428138CB5837F8CBD8CB58C7F30
:102750008CBD8DB581608DBD8CB58F7D8CBD60E0ED
:102760008A810E94C31A62E370E080E090E00E94D8
:10277000CF1961E08A810E94C31A62E370E080E0B1
:1027800090E0DF91CF910C94CF196F927F928F924E
:102790009F92AF92BF92CF92DF92EF92FF920F93F0
:1027A0001F93CF93DF93EC01882777FD8095982FB7
:1027B0000E9446269B01AC0160E070E080E89FE348
:1027C0000E94AB2520E030E04AE754E40E94F62660
:1027D0004B015C0101E010E077247A94700EB8019F
:1027E000882777FD8095982F0E9446269B01AC0193
:1027F0000E94432520E030E040E85DE30E94F62699
:102800009B01AC01C501B4010E94AB256B017C01A9
:1028100020E030E048EC51E40E94A7251816CCF0E7
:10282000C701B6010E941326662E7727882777FDF9
:102830008095982F0E9446269B01AC01C701B601E6
:102840000E94422520E030E0A9010E94A7258823AC
:1028500041F00F5F1F4F0930110509F0BDCF48E06F
:10286000742E662D70E080E090E00E9446262DECEC
:102870003CEC4CE45FE30E94F6260E941826862F6B
:1028800090E08C010150110917FD8C0115950795F9
:102890006150E62EE01A661A8FEF860DF12CA80122
:1028A0004E0D5F1D282F30E0421753070CF478C0FF
:1028B000823008F475C060E088810E94C31A61E02C
:1028C00070E080E090E00E94CF1982E00E945413F3
:1028D0008AE20E945413872D0E94541361E070E035
:1028E00080E090E00E94CF1961E088810E94C31AC5
:1028F00061E070E080E090E00E94CF1960E08881A4
:102900000E94C31A61E070E080E090E00E94CF195D
:1029100082E00E94541389E20E945413015000681F
:10292000C701019723E0880F991F2A95E1F7802BB3
:102930000E94541361E070E080E090E00E94CF19A3
:1029400061E088810E94C31A61E070E080E090E05D
:102950000E94CF1960E088810E94C31A61E070E094
:1029600080E090E00E94CF1982E00E94541388E238
:102970000E9454138EEF860D0E94541361E070E0A4
:1029800080E090E00E94CF1961E088810E94C31A24
:1029900061E070E080E090E00E94CF1981E001C02A
:1029A00080E0DF91CF911F910F91FF90EF90DF902A
:1029B000CF90BF90AF909F908F907F906F90089531
:1029C000EF92FF921F93CF93DF9300D0CDB7DEB786
:1029D0007C01162F60E0FC01808129834A830E94DC
:1029E000C31A85E00E945413812F0E945413298139
:1029F000822F0E9454134A81842F0E94541361E055
:102A0000F70180810F900F90DF91CF911F91FF9080
:102A1000EF900C94C31A1F93CF93DF93EC016623BE
:102A200011F013E001C010E060E088810E94C31A39
:102A300085E00E9454138BE20E94541383E00E94AD
:102A40005413812F0E94541361E08881DF91CF914C
:102A50001F910C94C31A1F93CF93DF93EC01623044
:102A6000710571F02CF46130710569F410E00BC050
:102A70006430710539F06830710529F413E003C042
:102A800011E001C012E060E088810E94C31A85E075
:102A90000E9454138FE00E94541383E00E94541349
:102AA000812F0E94541361E08881DF91CF911F91A3
:102AB0000C94C31A1F93CF93DF93EC01623071051E
:102AC00089F044F46115710589F06130710579F47C
:102AD00010E00DC06330710539F06430710539F4D0
:102AE00010E405C010E203C010E601C010E860E089
:102AF00088810E94C31A85E00E9454138FE00E94CF
:102B0000541380EE0E945413812F0E94541361E0ED
:102B10008881DF91CF911F910C94C31ACF93DF93DB
:102B2000EC0160E088810E94C31A81E80E9454137E
:102B300061E08881DF91CF910C94C31ACF93DF932A
:102B4000EC0160E088810E94C31A82E80E9454135D
:102B500061E08881DF91CF910C94C31ACF93DF930A
:102B6000EC0160E088810E94C31A83E80E9454133C
:102B700061E08881DF91CF910C94C31A4F925F92EC
:102B80007F928F929F92AF92BF92CF92DF92EF92FD
:102B9000FF920F931F93CF93DF9300D0CDB7DEB793
:102BA0008C015B01790160E0FC01808149835A83DB
:102BB0000E94C31A80E90E9454138FEF0E9454139D
:102BC000C82ED12C8FEF0E945413882E8FEF0E94B5
:102BD00054138FEF0E9454138FEF0E9454138F7081
:102BE000982E4981742E442E5A81552E842D871992
:102BF000891538F48FEF0E945413F20181932F014D
:102C0000F5CF61E0F80180810E94C31AF50190823E
:102C1000882D807E90E055E0969587955A95E1F74E
:102C200063E0CC0CDD1C6A95E1F78C0D9D1DF7016E
:102C3000918380830F900F90DF91CF911F910F911F
:102C4000FF90EF90DF90CF90BF90AF909F908F90CC
:102C50007F905F904F9008954F925F927F928F92F6
:102C60009F92AF92BF92CF92DF92EF92FF920F931B
:102C70001F93CF93DF931F92CDB7DEB78C016B010B
:102C8000A42E790160E0FC01808159830E94C31A5F
:102C900084E90E9454138FEF0E945413982E8FEFF3
:102CA0000E945413882E8FEF0E9454138FEF0E94BE
:102CB00054138FEF0E9454138F70B82E7A2C4A2C25
:102CC0005981552E842D87198B1538F48FEF0E946A
:102CD0005413F20181932F01F5CF61E0F801808157
:102CE0000E94C31AF601B0828294869477E087220C
:102CF000F8E09F9EA0011124480D511DF70151835A
:102D000040830F90DF91CF911F910F91FF90EF9033
:102D1000DF90CF90BF90AF909F908F907F905F900B
:102D20004F9008951F93CF93DF93EC0160E088816B
:102D30000E94C31A80EA0E9454138FEF0E9454131A
:102D4000182F61E088810E94C31A812FDF91CF91F3
:102D50001F9108950E94921682FF07C084FF08C049
:102D600086FF09C08FEF9FEF089580E090E00895FF
:102D700081E090E0089582E090E008951F93CF9362
:102D8000DF93EC01162F60E088810E94C31A83E074
:102D90000E945413812F0E9454138FEF0E945413EA
:102DA000182F61E088810E94C31A812FDF91CF9193
:102DB0001F910895EF92FF921F93CF93DF9300D05E
:102DC000CDB7DEB77C01162F60E0FC0180812A833D
:102DD00049830E94C31A61E070E080E090E00E94A5
:102DE000CF1982E00E945413812F0E94541349810D
:102DF000842F0E9454132A81822F0E94541361E071
:102E000070E080E090E00E94CF1961E0F7018081DE
:102E10000E94C31A61E070E080E090E00F900F9094
:102E2000DF91CF911F91FF90EF900C94CF19EF920B
:102E3000FF920F931F93CF93DF93EC017A018B01E5
:102E4000E3E015950795EA95E1F7162F1295110F16
:102E5000107E212F402F60E070E00E94DA16212FB3
:102E6000402F68E070E0CE010E94DA168701F3E09F
:102E700015950795FA95E1F7E294EE0CA0EEEA229B
:102E80002E2D402F64E070E0CE010E94DA162E2D28
:102E9000402F60E170E0CE010E94DA162E2D402F07
:102EA00064E170E0CE010E94DA162E2D402F68E119
:102EB00070E0CE010E94DA1620EE4FE160E270E091
:102EC000CE010E94DA1620EE4FE164E270E0CE01FE
:102ED000DF91CF911F910F91FF90EF900C94DA1634
:102EE000CF93DF93EC0120E040E060E270E00E94CD
:102EF000DA1620E040E064E270E0CE01DF91CF918D
:102F00000C94DA16CF92DF92EF92FF920F931F93F9
:102F1000CF93DF9300D0CDB7DEB78C01F62E6A01D8
:102F200060E0FC01808129833A830E94C31A80E417
:102F30000E945413C601B3E096958795BA95E1F7C0
:102F40000E9454138C2D8295880F807E0E9454130A
:102F500080E00E94541380E00E9454138F2D0E9441
:102F600054132981E22EC22E3A81D32E8C2D8E1934
:102F70008F1530F4F60181916F010E945413F6CF42
:102F800061E0F80180810F900F90DF91CF911F9148
:102F90000F91FF90EF90DF90CF900C94C31ACF92D7
:102FA000DF92EF92FF920F931F93CF93DF9300D0A6
:102FB000CDB7DEB78C01F62E6A0160E0FC0180819E
:102FC00029833A830E94C31A82E40E945413C601E3
:102FD00023E0969587952A95E1F70E9454138C2D4E
:102FE0008295880F807E0E94541380E00E945413C3
:102FF00080E00E9454138F2D0E9454132981E22EE9
:10300000C22E3A81D32E8C2D8E198F1530F4F601F5
:1030100081916F010E945413F6CF61E0F801808125
:103020000F900F90DF91CF911F910F91FF90EF9034
:10303000DF90CF900C94C31ACF92DF92EF92FF9261
:103040000F931F93CF93DF9300D0CDB7DEB78C01E2
:10305000F62E6A0160E0FC01808129833A830E9498
:10306000C31A84E40E945413C60133E096958795F1
:103070003A95E1F70E9454138C2D8295880F807E3B
:103080000E94541380E00E94541380E00E94541365
:103090008F2D0E9454132981E22EC22E3A81D32E05
:1030A0008C2D8E198F1530F4F60181916F010E94DD
:1030B0005413F6CF61E0F80180810F900F90DF91FB
:1030C000CF911F910F91FF90EF90DF90CF900C94D4
:1030D000C31AFC0117861286118610861782168283
:1030E000158214821382089508951F920F920FB6CD
:1030F0000F9211242F933F934F935F936F937F937E
:103100008F939F93AF93BF93EF93FF938091760537
:1031100090917705892B29F0E0917605F09177055C
:103120000995FF91EF91BF91AF919F918F917F9101
:103130006F915F914F913F912F910F900FBE0F9024
:103140001F9018951F920F920FB60F9211242F9374
:103150003F934F935F936F937F938F939F93AF931F
:10316000BF93EF93FF938091780590917905892B18
:1031700029F0E0917805F09179050995FF91EF919B
:10318000BF91AF919F918F917F916F915F914F917F
:103190003F912F910F900FBE0F901F9018951F9287
:1031A0000F920FB60F9211242F933F934F935F937B
:1031B0006F937F938F939F93AF93BF93EF93FF93FF
:1031C00080917A0590917B05892B29F0E0917A0511
:1031D000F0917B050995FF91EF91BF91AF919F9180
:1031E0008F917F916F915F914F913F912F910F90B0
:1031F0000FBE0F901F9018951F920F920FB60F924F
:1032000011242F933F934F935F936F937F938F93EB
:103210009F93AF93BF93EF93FF9380917C05909121
:103220007D05892B29F0E0917C05F0917D050995BC
:10323000FF91EF91BF91AF919F918F917F916F918E
:103240005F914F913F912F910F900FBE0F901F9064
:1032500018951F920F920FB60F9211242F933F9340
:103260004F935F936F937F938F939F93AF93BF938E
:10327000EF93FF9380917E0590917F05892B29F034
:10328000E0917E05F0917F050995FF91EF91BF9147
:10329000AF919F918F917F916F915F914F913F91EE
:1032A0002F910F900FBE0F901F9018951F920F92A5
:1032B0000FB60F9211242F933F938F939F93AF9349
:1032C000BF938091810590918205A0918305B09173
:1032D00084053091800523E0230F2D3720F40196DB
:1032E000A11DB11D05C026E8230F0296A11DB11D29
:1032F000209380058093810590938205A093830598
:10330000B09384058091850590918605A0918705ED
:10331000B09188050196A11DB11D809385059093FC
:103320008605A0938705B0938805BF91AF919F91C3
:103330008F913F912F910F900FBE0F901F90189576
:103340002FB7F89460918105709182058091830573
:10335000909184052FBF08953FB7F894809185051B
:1033600090918605A0918705B091880526B5A89B08
:1033700005C02F3F19F00196A11DB11D3FBF662763
:10338000782F892F9A2F620F711D811D911D42E0A8
:10339000660F771F881F991F4A95D1F70895CF921E
:1033A000DF92EF92FF92CF93DF936B017C010E943B
:1033B000AC19EB01C114D104E104F10489F00E94BD
:1033C000FE230E94AC196C1B7D0B683E734090F38A
:1033D00081E0C81AD108E108F108C851DC4FEACFF2
:1033E000DF91CF91FF90EF90DF90CF900895789488
:1033F00084B5826084BD84B5816084BD85B58260FA
:1034000085BD85B5816085BDEEE6F0E08081816097
:103410008083E1E8F0E01082808182608083808197
:1034200081608083E0E8F0E0808181608083E1E971
:10343000F0E0808182608083808181608083E0E928
:10344000F0E0808181608083E1ECF0E08081846045
:103450008083808182608083808181608083E3ECCF
:10346000F0E0808181608083E0ECF0E08081826028
:103470008083E2ECF0E0808181608083EAE7F0E025
:10348000808184608083808182608083808181608C
:103490008083808180688083089590E0FC0131976B
:1034A000EF30F105B0F5E459FF4F0C948F27809170
:1034B00080008F7703C0809180008F7D8093800093
:1034C000089580918000877FF9CF84B58F7702C0FF
:1034D00084B58F7D84BD0895809190008F7707C05B
:1034E000809190008F7D03C080919000877F8093B2
:1034F000900008958091C0008F7703C08091C00034
:103500008F7D8093C00008958091C200877F809353
:10351000C2000895CF93DF9390E0FC01EA52FC4F84
:103520002491FC01EC50FC4F8491882349F190E0F8
:10353000880F991FFC01E25DFB4FA591B491805E5D
:103540009B4FFC01C591D4919FB7611108C0F894BD
:103550008C91209582238C93888182230AC06230CB
:1035600051F4F8948C91322F309583238C93888179
:10357000822B888304C0F8948C91822B8C939FBFFC
:10358000DF91CF9108950F931F93CF93DF931F92F5
:10359000CDB7DEB7282F30E0F901E854FC4F849115
:1035A000F901EA52FC4F1491F901EC50FC4F0491DF
:1035B0000023C9F0882321F069830E944D1A698194
:1035C000E02FF0E0EE0FFF1FE05EFB4FA591B491FE
:1035D0009FB7F8948C91611103C01095812301C0AD
:1035E000812B8C939FBF0F90DF91CF911F910F91F3
:1035F0000895CF93DF93282F30E0F901E854FC4F72
:103600008491F901EA52FC4FD491F901EC50FC4F3E
:10361000C491CC2391F081110E944D1AEC2FF0E05F
:10362000EE0FFF1FEE5EFB4FA591B4912C912D2361
:1036300081E090E021F480E002C080E090E0DF9142
:10364000CF910895CF93DF931F92CDB7DEB76983F3
:10365000DC01ED91FC910280F381E02D41E050E02E
:10366000BE016F5F7F4F09950F90DF91CF91089555
:10367000CF93DF93EC018C859D8597FF05C082E099
:103680000E942E209D878C878C859D85DF91CF9110
:10369000089583E00C948322FC018485958597FD31
:1036A00006C082E00E94D61F90E00196089582E055
:1036B0000E94D61F90E00895FC018485958597FDB2
:1036C00005C02FEF3FEF35872487089582E00C94E3
:1036D0002E20CF93DF93EC0180910F01882331F0EE
:1036E00083E00E945F201816190634F081E090E014
:1036F0009B838A8380E090E0DF91CF910895FC0165
:1037000020812E5F208342E450E06CE374E080E887
:103710000C94FA20FC0181819081913A59F4813214
:1037200009F03CC047E050E068E071E080E00E94B2
:10373000FA2043C0913291F5803239F467E070E0AD
:1037400088E091E00E942B2106C0823209F035C04A
:10375000828180930F018091080190910901A091CD
:103760000A01B0910B01803B9440A105B105C1F461
:1037700080910F0180FD14C087E797E790930108BF
:10378000809300082BE088E190E00FB6F894A895AC
:10379000809360000FBE209360000FC080E008950A
:1037A00088E10FB6F89480936000109260000FBE1D
:1037B000A895109201081092000881E008952FEF5B
:1037C0003FEFFC0135872487089510928C051092F5
:1037D0008B0588EE93E0A0E0B0E080938D05909398
:1037E0008E05A0938F05B09390058BE893E090939E
:1037F0008A05809389058FEF9FEF909396058093BC
:1038000095050895FC01818D228D90E0805C9F4F8D
:10381000821B91098F7399270895FC01918D828DE8
:10382000981731F0828DE80FF11D858D90E0089595
:103830008FEF9FEF0895FC01918D828D981761F0B5
:10384000828DDF01A80FB11D5D968C91928D9F5FD7
:103850009F73928F90E008958FEF9FEF08958FE907
:103860009DE1892B49F080E090E0892B29F00E94AE
:103870009F1D81110C9400000895FC01848DDF01CF
:10388000A80FB11DA35ABF4F2C91848D90E00196D3
:103890008F739927848FA689B7892C93A089B189C2
:1038A0008C9180648C93938D848D981306C00288CC
:1038B000F389E02D80818F7D80830895CF93DF93FE
:1038C000EC01888D8823C9F0EA89FB89808185FD18
:1038D00005C0A889B9898C9186FD0FC00FB607FC79
:1038E000F5CF808185FFF2CFA889B9898C9185FFBA
:1038F000EDCFCE010E943D1CE7CFDF91CF9108951F
:10390000CF92DF92FF920F931F93CF93DF931F927B
:10391000CDB7DEB76C01DC015B969C915B975C9642
:103920008C915C97981307C05096ED91FC9151973C
:10393000808185FD32C0F601038D10E00F5F1F4FBF
:103940000F731127F02EF601848DF81211C00FB6F7
:1039500007FCF9CFD6015096ED91FC9151978081EB
:1039600085FFF1CFC60169830E943D1C6981EBCFC1
:10397000838DE80FF11DE35AFF4F6083D6015B96FC
:103980000C935B975296ED91FC91539780818062E6
:10399000808381E058968C930DC0D6015696ED91A8
:1039A000FC91579760835096ED91FC9151978081DF
:1039B0008064808381E090E00F90DF91CF911F9130
:1039C0000F91FF90DF90CF900895BF92CF92DF923A
:1039D000EF92FF92CF93DF93EC016A017B01B22E4D
:1039E000E889F98982E08083411581EE58076105F5
:1039F0007105A1F060E079E08DE390E0A701960108
:103A00000E946D272150310941095109569547956A
:103A100037952795211580E1380798F0E889F989CD
:103A2000108260E874E88EE190E0A70196010E94A0
:103A30006D27215031094109510956954795379510
:103A40002795EC85FD853083EE85FF852083188ED4
:103A5000EC89FD89B082EA89FB898081806180835D
:103A6000EA89FB89808188608083EA89FB8980817B
:103A700080688083EA89FB8980818F7D8083DF91E4
:103A8000CF91FF90EF90DF90CF90BF9008951F925D
:103A90000F920FB60F9211242F938F939F93EF9352
:103AA000FF93E091E905F091EA058081E091EF054F
:103AB000F091F00582FD12C090818091F2058F5F38
:103AC0008F732091F305821751F0E091F205F0E039
:103AD000E752FA4F958F8093F20501C08081FF91E4
:103AE000EF919F918F912F910F900FBE0F901F908C
:103AF00018951F920F920FB60F9211242F933F9398
:103B00004F935F936F937F938F939F93AF93BF93E5
:103B1000EF93FF9389ED95E00E943D1CFF91EF919B
:103B2000BF91AF919F918F917F916F915F914F91D5
:103B30003F912F910F900FBE0F901F90189589ED18
:103B400095E00E94021C21E0892B09F420E0822FDD
:103B500008951092DC051092DB0588EE93E0A0E05A
:103B6000B0E08093DD059093DE05A093DF05B09370
:103B7000E0058BE993E09093DA058093D9058DEC0D
:103B800090E09093E6058093E5058CEC90E09093AF
:103B9000E8058093E70588EC90E09093EA05809330
:103BA000E90589EC90E09093EC058093EB058AECB5
:103BB00090E09093EE058093ED058EEC90E090936D
:103BC000F0058093EF051092F2051092F305109224
:103BD000F4051092F505089508950E94F7190E94C2
:103BE000EC1D86E796E00E94E3220E94F40BCFE2F0
:103BF000DCE10E9409112097E1F30E942F1CF9CF0C
:103C00000C94A927CF92DF92EF92FF920F931F930C
:103C1000CF93DF936C017A01EB01E60EF71E00E013
:103C200010E0CE15DF0561F06991D601ED91FC91B0
:103C30000190F081E02DC6010995080F191FF1CF01
:103C4000C801DF91CF911F910F91FF90EF90DF900E
:103C5000CF900895EF92FF920F931F93CF93DF932E
:103C60008C01FB01C0E0D0E064917F018FEFE81A86
:103C7000F80A662361F0D801ED91FC910190F08182
:103C8000E02DC8010995C80FD91FF701EDCFCE016E
:103C9000DF91CF911F910F91FF90EF900895DC017C
:103CA000ED91FC91DB0114964D915C9115976D910E
:103CB0007C910280F381E02D09940C945104DC0185
:103CC000ED91FC910190F081E02D09940F931F93E9
:103CD000CF93DF93EC016DE00E945F1E8C016AE0E0
:103CE000CE010E945F1E800F911FDF91CF911F9127
:103CF0000F9108950F931F93CF93DF93EC010E94D0
:103D00002A1E8C01CE010E94661E800F911FDF913A
:103D1000CF911F910F9108950F931F93CF93DF932E
:103D2000EC010E9451048C01CE010E94661E800F9E
:103D3000911FDF91CF911F910F9108958F929F92C4
:103D4000AF92BF92CF92DF92EF92FF920F931F93A9
:103D5000CF93DF93CDB7DEB7A1970FB6F894DEBF50
:103D60000FBECDBF7C01C42EE52FCB01D22E19A2F0
:103D700021E02D1510F02AE0D22E8E010F5D1F4F8D
:103D80008D2C912CA12CB12C6C2D7E2FA501940192
:103D90000E946D278C2DD29E80191124015011098B
:103DA0008A3014F4805D01C0895CF801808321159C
:103DB00031054105510521F0C22EE32FCA01E4CFA0
:103DC000B801C7010E945104A1960FB6F894DEBF56
:103DD0000FBECDBFDF91CF911F910F91FF90EF905C
:103DE000DF90CF90BF90AF909F908F900895CF922B
:103DF000DF92EF92FF920F931F93CF93DF93EC012B
:103E00006A017B012115310579F4E881F98101907E
:103E1000F081E02D642FDF91CF911F910F91FF90E2
:103E2000EF90DF90CF9009942A303105E9F477FFC5
:103E30001AC06DE20E945F1E8C0144275527BA010B
:103E40004C195D096E097F092AE0CE010E949E1E71
:103E5000800F911FDF91CF911F910F91FF90EF90F5
:103E6000DF90CF9008952AE0B701A601CE01DF913F
:103E7000CF911F910F91FF90EF90DF90CF900C9416
:103E80009E1E9A01AB01662757FD6095762F0C9414
:103E9000F71E2115310541F4DC01ED91FC910190F3
:103EA000F081E02D642F09940C949E1E9A01462FF8
:103EB00050E060E070E00C94491F40917A06509108
:103EC0007B06209178063091790642175307B4F4A7
:103ED0009091E8009570E1F39091E80092FD19C08F
:103EE0008093F10080917A0690917B0601968F7302
:103EF0009927892B19F48EEF8093E80080917A0638
:103F000090917B06019690937B0680937A0681E0E0
:103F1000089580E00895CF92DF92FF920F931F9350
:103F2000CF93DF931F92CDB7DEB7082F162F862FC2
:103F3000880F8E5F99830E945D1F83E00E945D1F42
:103F4000F02EC02E9981D92E8C2D8F19811778F4DF
:103F5000F60184910E945D1F082F80E00E945D1F82
:103F60008023FFEFCF1ADF0A8111EECF01C081E07D
:103F70000F90DF91CF911F910F91FF90DF90CF9025
:103F80000895615030F02091F100FC0120830196EA
:103F9000F8CF289884E680937D0608952FB7FC011A
:103FA0002083F89467706093E9000895CF93DF93BE
:103FB0001F92CDB7DEB7682FCE0101960E94CE1FAB
:103FC0008091F20099819FBF0F90DF91CF9108956A
:103FD000FF920F931F93CF93DF9300D0CDB7DEB73F
:103FE000F62E8A0190917C06992311F057FF03C0A9
:103FF0008FEF9FEF2BC0682FCE0101967A830E942E
:10400000CE1F8091F20090E0A8017A81801791077D
:104010000CF4AC01EF2DF72FF40E84E6FE1639F008
:10402000289880937D069091F1009193F7CF4115E8
:10403000510521F08091F200882321F089818FBF02
:10404000CA0104C08BE68093E800F8CF0F900F9070
:10405000DF91CF911F910F91FF900895CF93DF9340
:104060001F92CDB7DEB741E050E0BE016F5F7F4FDA
:104070000E94E81F019719F4898190E002C08FEF38
:104080009FEF0F90DF91CF910895CF93DF931F9211
:10409000CDB7DEB7682FCE0101960E94CE1F90915A
:1040A000E800892F807295FF04C09091F20080E4AF
:1040B000891B99819FBF0F90DF91CF9108956F92D7
:1040C0007F928F929F92AF92BF92CF92DF92EF92A8
:1040D000FF920F931F93CF93DF931F92CDB7DEB75D
:1040E000782E7B01C42EB52E80917C06882369F042
:1040F000042F152F8AEFD82E872D8072982E9AE3E1
:10410000A92E872D8074882E11C08FEF9FEF57C086
:10411000872D0E944520682E81110CC0DA94A9F3E6
:1041200061E070E080E090E00E94CF190115110578
:1041300079F73BC0282F30E0021713070CF4602EEC
:10414000672DCE0101960E94CE1F8091E80085FF69
:1041500029C0262D30E0021B130B992039F06A94F8
:104160008FEF6816B1F01092F100F9CFF701862DAC
:1041700077FE07C0815058F094919093F1003196EA
:10418000F9CF815020F091919093F100FACFE20E97
:10419000F31E8091E80085FF0FC00115110511F491
:1041A00081100AC089818FBFC1CF5D9884E680935A
:1041B0007E068C2D9B2D03C0A092E800F3CF0F90BC
:1041C000DF91CF911F910F91FF90EF90DF90CF90F3
:1041D000BF90AF909F908F907F906F9008951092B6
:1041E000E90010927B0610927A06909379068093EC
:1041F00078060895CF92DF92FF920F931F93CF938B
:10420000DF9300D0CDB7DEB7F82E8A016B01011520
:104210001105B1F0F601F7FE02C0849101C0808162
:1042200049835A830E945D1F01501109FFEFCF1A85
:10423000DF0A49815A818111EACF8FEF9FEF01C0D8
:10424000CA010F900F90DF91CF911F910F91FF90B6
:10425000DF90CF9008951F93CF93DF931F92CDB738
:10426000DEB7162F2091E80022FFFCCF612F798363
:104270000E94C11F8BEF8093E800812F7981972FD7
:104280000F90DF91CF911F910895CF93DF931F92ED
:10429000CDB7DEB71982CE0101960E947F1BCE01F9
:1042A00001960E941D24898190E00F90DF91CF91AB
:1042B00008951F920F920FB60F921124EF92FF9262
:1042C0000F931F932F933F934F935F936F937F931E
:1042D0008F939F93AF93BF93EF93FF93CF93DF930E
:1042E000CDB7DEB76297DEBFCDBF1092E9008091F7
:1042F000E80083FFEBC068E0CE010A960E94C11F70
:1043000082EF8093E8009A8597FF05C08091E800CE
:1043100080FFFCCF03C08EEF8093E800892F80766A
:1043200009F0B9C08B85811105C01092F10010927F
:10433000F100C5C0282F2D7F213009F4C0C0853081
:1043400049F48091E80080FFFCCF8C8580688093E1
:10435000E300B5C0863009F076C02D85E888F9887D
:10436000223071F580E090E02A8B0E94EF200E94BD
:10437000452199E08E010F5F1F4FF801392F1192EF
:104380003A95E9F799832A892A8391E09E8390E8F8
:1043900098879AEF998720917A0630917B06275F5C
:1043A0003F4F3C832B838D83C7010E94EF2049E060
:1043B00050E0B80180E00E94FA200E9445217FC0B1
:1043C000C7012A8B0E94EF202A89223241F482E21F
:1043D00090E00E942824892B09F071C074C021301C
:1043E00069F488899989089711F420937706809158
:1043F0007706811118C065E974E01AC0233009F00E
:1044000062C08C85882391F0823021F46DE083EBCB
:1044100094E006C0813009F056C06BE087EA94E072
:104420000E948B1F4AC063E874E002C061EC74E034
:104430006115710509F447C0FB01449150E080E823
:104440000E94FA203CC0873009F43DC0883021F436
:1044500081E08093F10033C0893089F5937099F53C
:10446000EFE7F4E081E021E096E38093E900209318
:10447000EB0034913093EC009093ED008F5F319618
:10448000853099F78EE78093EA001092EA008C85D8
:1044900080937C0614C0888999890E94EF208E85BC
:1044A000811105C0CE010A960E948A1B06C0823087
:1044B00051F4CE010A960E945024882321F08EEFF9
:1044C0008093E80003C081E28093EB0062960FB610
:1044D000F894DEBF0FBECDBFDF91CF91FF91EF917A
:1044E000BF91AF919F918F917F916F915F914F910C
:1044F0003F912F911F910F91FF90EF900F900FBE62
:104500000F901F9018958093E9008091F200882306
:1045100019F08AE38093E80008951F920F920FB676
:104520000F9211242F933F934F935F936F937F9339
:104530008F939F93AF93BF93EF93FF938091E1008D
:104540001092E10083FF0FC01092E90091E0909378
:10455000EB001092EC0092E39093ED0010927C0639
:1045600098E09093F00082FF1DC083E00E948322B8
:1045700080917E06882339F080917E068150809359
:104580007E06882369F080917D06882359F080910A
:104590007D06815080937D06811104C0289A02C057
:1045A0005D9AF1CFFF91EF91BF91AF919F918F9164
:1045B0007F916F915F914F913F912F910F900FBE1F
:1045C0000F901F90189510927C0681E08093D70081
:1045D00080EA8093D80082E189BD09B400FEFDCF56
:1045E00061E070E080E090E00E94CF1980E9809364
:1045F000D8008CE08093E2001092E000559A209A57
:104600000895FC01808191810C944128CF93DF9320
:10461000EC0188819981009711F00E94412819824C
:1046200018821D821C821B821A82DF91CF9108950D
:104630000F931F93CF93DF93EC018B016F5F7F4F3D
:10464000888199810E94D028009731F099838883CE
:104650001B830A8381E001C080E0DF91CF911F912D
:104660000F910895CF93DF93EC0188819981892B75
:1046700029F08A819B818617970760F4CE010E94FA
:104680001823882341F08C819D81892B19F4E881BE
:10469000F981108281E0DF91CF910895EF92FF922E
:1046A0000F931F93CF93DF93EC017B018A01BA0133
:1046B0000E943223811104C0CE010E94062307C04C
:1046C0001D830C83B701888199810E94A329CE01A3
:1046D000DF91CF911F910F91FF90EF900895FC0112
:1046E0001182108213821282158214826115710563
:1046F00059F0FB0101900020E9F7AF014150510949
:10470000461B570B0C944E230895CF93DF93EC0177
:10471000FB018617970761F0608171816115710552
:1047200029F0448155810E944E2302C00E94062335
:10473000CE01DF91CF910895FC0111821082138286
:104740001282158214820C948523EF92FF920F93AC
:104750001F93CF93DF93EC017B010C811D816115C9
:10476000710511F480E016C04115510591F0040F58
:10477000151FB8010E9432238823A1F328813981B3
:104780008C819D81B701820F931F0E94A3291D83F5
:104790000C8381E0DF91CF911F910F91FF90EF90FB
:1047A0000895CF93DF93EC01FB0144815581608133
:1047B00071810E94A523811103C0CE010E940623AE
:1047C000CE01DF91CF910895CF93DF93EC01611576
:1047D000710569F0FB0101900020E9F7AF0141503C
:1047E0005109461B570B0E94A523811103C0CE011E
:1047F0000E940623CE01DF91CF9108950895FF9284
:104800000F931F93CF93DF93EC01F62EE881F9818C
:104810000480F581E02D09958C01E881F9810680FD
:10482000F781E02D6F2DCE010995C8019927DF9101
:10483000CF911F910F91FF900895FC0120812F5F70
:10484000208349E150E065E475E080E80C94FA20AB
:1048500045E650E06EE575E080E80C94FA20EF92B2
:10486000FF920F931F93CF93DF931F92CDB7DEB7C5
:1048700089838B017A0141E050E0BE016F5F7F4F79
:1048800084E00E945F20A701B80184E40E945F20B9
:104890000F90DF91CF911F910F91FF90EF900895AE
:1048A000FC0191818081813A31F481E0913091F075
:1048B000933089F411C0813271F49B3021F48281EC
:1048C0008093110105C09A3031F4828180931001E8
:1048D00081E00895089580E0089548E050E082E086
:1048E0000C942F24CF93DF93DC01683818F0E8E7AD
:1048F000E60F25C0E62FF0E067FF11C0E058F10990
:1049000081E090E001C0880FEA95EAF714969C9147
:104910001497982B14969C931497E0E010C0EB53D7
:10492000FB4FE491EE2309F440C0E7FF08C0149662
:104930008C911497826014968C931497EF77169647
:104940008C9116978E1741F117968C9117978E17A9
:1049500019F118968C9118978E17F1F019968C9181
:1049600019978E17C9F01A968C911A978E17A1F085
:104970001B968C911B978E1779F080E090E0ED01EB
:10498000C80FD91F2E81211102C0EE8305C00196E8
:1049900086309105A1F709C0BD016C5F7F4FCD0145
:1049A0000E946D2481E090E008C081E090E01396C1
:1049B0009C938E93129780E090E0DF91CF910895C1
:1049C000683818F0E8E7E60F25C0E62FF0E067FF4B
:1049D00012C0E058F10921E030E001C0220FEA9551
:1049E000EAF72095DC0114963C9114973223149633
:1049F0003C93E0E00FC0EB53FB4FE491EE2329F131
:104A0000E7FF08C0DC0114962C9114972D7F1496B3
:104A10002C93EF7720E030E0EE2351F0DC01A20F81
:104A2000B31F16964C9116974E1302C016961C9201
:104A30002F5F3F4F2630310579F7BC016C5F7F4F08
:104A40000E946D2481E090E0089580E090E0089558
:104A5000FC01168217821086118612861386148234
:104A6000BC016C5F7F4F0C946D2410928B061092EA
:104A70008206109281068BEA93E0909380068093E1
:104A80007F0608955058BB27AA270ED075C166D15E
:104A900030F06BD120F031F49F3F11F41EF45BC174
:104AA0000EF4E095E7FB51C1E92F77D180F3BA17F7
:104AB000620773078407950718F071F49EF58FC19C
:104AC0000EF4E0950B2EBA2FA02D0B01B901900129
:104AD0000C01CA01A0011124FF27591B99F0593F6D
:104AE00050F4503E68F11A16F040A22F232F342FB5
:104AF0004427585FF3CF469537952795A795F04003
:104B00005395C9F77EF41F16BA0B620B730B840B17
:104B1000BAF09150A1F0FF0FBB1F661F771F881FCF
:104B2000C2F70EC0BA0F621F731F841F48F4879527
:104B300077956795B795F7959E3F08F0B3CF939516
:104B4000880F08F09927EE0F979587950895D9D08B
:104B500008F481E008950CD00FC107D140F0FED0D9
:104B600030F021F45F3F19F0F0C0511139C1F3C0AA
:104B700014D198F39923C9F35523B1F3951B550B21
:104B8000BB27AA2762177307840738F09F5F5F4F20
:104B9000220F331F441FAA1FA9F333D00E2E3AF061
:104BA000E0E830D091505040E695001CCAF729D07B
:104BB000FE2F27D0660F771F881FBB1F26173707CA
:104BC0004807AB07B0E809F0BB0B802DBF01FF27FA
:104BD00093585F4F2AF09E3F510568F0B6C000C160
:104BE0005F3FECF3983EDCF3869577956795B79534
:104BF000F7959F5FC9F7880F911D9695879597F94F
:104C00000895E1E0660F771F881FBB1F62177307C7
:104C10008407BA0720F0621B730B840BBA0BEE1FDC
:104C200088F7E095089504D06894B111D9C008952B
:104C3000BCD088F09F5790F0B92F9927B751A0F0BA
:104C4000D1F0660F771F881F991F1AF0BA95C9F720
:104C500012C0B13081F0C3D0B1E00895C0C0672F59
:104C6000782F8827B85F39F0B93FCCF386957795D0
:104C70006795B395D9F73EF49095809570956195B9
:104C80007F4F8F4F9F4F0895E89409C097FB3EF4E4
:104C900090958095709561957F4F8F4F9F4F992389
:104CA000A9F0F92F96E9BB279395F6958795779507
:104CB0006795B795F111F8CFFAF4BB0F11F460FFC7
:104CC0001BC06F5F7F4F8F4F9F4F16C0882311F01F
:104CD00096E911C0772321F09EE8872F762F05C033
:104CE000662371F096E8862F70E060E02AF09A95CE
:104CF000660F771F881FDAF7880F9695879597F9C3
:104D00000895990F0008550FAA0BE0E8FEEF16165C
:104D10001706E807F907C0F012161306E407F507AF
:104D200098F0621B730B840B950B39F40A2661F023
:104D3000232B242B252B21F408950A2609F4A140C6
:104D4000A6958FEF811D811D089597F99F6780E8D3
:104D500070E060E008959FEF80EC089500240A94CD
:104D60001616170618060906089500240A94121646
:104D70001306140605060895092E0394000C11F479
:104D8000882352F0BB0F40F4BF2B11F460FF04C026
:104D90006F5F7F4F8F4F9F4F089557FD9058440F7F
:104DA000551F59F05F3F71F04795880F97FB991F8A
:104DB00061F09F3F79F08795089512161306140647
:104DC000551FF2CF4695F1DF08C0161617061806D4
:104DD000991FF1CF86957105610508940895E894AF
:104DE000BB2766277727CB0197F908950BD0C4CF4F
:104DF000B5DF28F0BADF18F0952309F0A6CFABCFC6
:104E00001124EECFCADFA0F3959FD1F3950F50E0A8
:104E1000551F629FF001729FBB27F00DB11D639F6C
:104E2000AA27F00DB11DAA1F649F6627B00DA11D12
:104E3000661F829F2227B00DA11D621F739FB00DB8
:104E4000A11D621F839FA00D611D221F749F332728
:104E5000A00D611D231F849F600D211D822F762FC1
:104E60006A2F11249F5750408AF0E1F088234AF0BE
:104E7000EE0FFF1FBB1F661F771F881F915050400A
:104E8000A9F79E3F510570F060CFAACF5F3FECF3CA
:104E9000983EDCF3869577956795B795F795E795F6
:104EA0009F5FC1F7FE2B880F911D9695879597F907
:104EB000089597FB072E16F4009407D077FD09D0CC
:104EC0000E94952707FC05D03EF4909581959F4F51
:104ED0000895709561957F4F0895A1E21A2EAA1B3F
:104EE000BB1BFD010DC0AA1FBB1FEE1FFF1FA2179A
:104EF000B307E407F50720F0A21BB30BE40BF50B97
:104F0000661F771F881F991F1A9469F7609570951F
:104F1000809590959B01AC01BD01CF010895EE0FE6
:104F2000FF1F0590F491E02D0994AA1BBB1B51E1D2
:104F300007C0AA1FBB1FA617B70710F0A61BB70B09
:104F4000881F991F5A95A9F780959095BC01CD01AE
:104F50000895CF93DF938230910510F482E090E0C2
:104F6000E0918E06F0918F0620E030E0A0E0B0E006
:104F7000309739F14081518148175907B8F04817E7
:104F8000590771F482819381109729F013969C93AD
:104F90008E9312972CC090938F0680938E0627C015
:104FA0002115310531F04217530718F0A901DB0133
:104FB00001C0EF019A01BD01DF010280F381E02D04
:104FC000D7CF21153105F9F0281B390B24303105D5
:104FD00080F48A819B816115710521F0FB01938327
:104FE000828304C090938F0680938E06FE013296D2
:104FF00044C0FE01E20FF31F8193919322503109C7
:10500000398328833AC020918C0630918D06232B5A
:1050100041F4209102013091030130938D062093D9
:105020008C0620910001309101012115310541F4D8
:105030002DB73EB74091040150910501241B350B5B
:10504000E0918C06F0918D06E217F307A0F42E1B79
:105050003F0B2817390778F0AC014E5F5F4F2417DC
:10506000350748F04E0F5F1F50938D0640938C0616
:105070008193919302C0E0E0F0E0CF01DF91CF9106
:105080000895CF93DF93009709F487C0FC0132970E
:1050900013821282C0918E06D0918F06209781F4E0
:1050A00020813181280F391F80918C0690918D06C7
:1050B0008217930779F5F0938D06E0938C066DC007
:1050C000DE0120E030E0AE17BF0750F412964D919C
:1050D0005C9113979D014115510509F1DA01F3CF58
:1050E000B383A28340815181840F951F8A179B0748
:1050F00071F48D919C911197840F951F0296918365
:10510000808312968D919C911397938382832115AE
:10511000310529F4F0938F06E0938E063EC0D90145
:105120001396FC93EE9312974D915D91A40FB51FCA
:10513000EA17FB0779F480819181840F951F02960D
:10514000D90111969C938E938281938113969C939F
:105150008E931297E0E0F0E08A819B81009719F02E
:10516000FE01EC01F9CFCE01029628813981820F30
:10517000931F20918C0630918D062817390769F40A
:10518000309729F410928F0610928E0602C0138277
:105190001282D0938D06C0938C06DF91CF91089533
:1051A000A0E0B0E0E6EDF8E20C94DE29EC01CB01E2
:1051B000209719F40E94A927B8C0FE01E60FF71F37
:1051C0009E0122503109E217F30708F4ACC0D9015F
:1051D0000D911C91119706171707B8F005301105AE
:1051E00008F49FC0A801445051094617570708F416
:1051F00098C002501109061B170B019311936D9370
:105200007C93CF010E9441288CC05B01A01AB10A97
:105210004E01800E911EA0918E06B0918F06612CDA
:10522000712C60E070E0109709F449C0A815B90529
:10523000C9F5ED90FC901197670142E0C40ED11CB6
:10524000CA14DB0478F147018A189B08640142E024
:10525000C40ED11C1296BC9012971396AC91B5E077
:10526000CB16D10440F0B282A38391828082D9010F
:105270008D939C9309C00E5F1F4F0E0D1F1DF901EA
:1052800011830083EB2DFA2F6115710531F0DB01DD
:105290001396FC93EE93129744C0F0938F06E0931D
:1052A0008E063FC06D917C9111976616770608F4C3
:1052B0003B01BD0112960D90BC91A02DB4CF609121
:1052C0008C0670918D0668157905E9F468167906E3
:1052D000D0F440910001509101014115510541F474
:1052E0004DB75EB76091040170910501461B570BE5
:1052F000E417F507C0F4F0938D06E0938C06F901EE
:10530000918380830EC00E94A9277C01009759F0E9
:10531000A801BE010E949A29CE010E944128C7011E
:1053200004C0CE0102C080E090E0CDB7DEB7EEE071
:105330000C94FA29FB01DC0102C001900D9241504E
:105340005040D8F70895FB01DC0101900D92002038
:10535000E1F70895DC01CB01FC01F999FECF06C00D
:10536000F2BDE1BDF89A319600B40D924150504023
:10537000B8F70895F999FECF92BD81BDF89A9927A3
:1053800080B50895DC01CB0103C02D910E94CD2989
:1053900041505040D0F70895262FF999FECF1FBAFB
:1053A00092BD81BD20BD0FB6F894FA9AF99A0FBE4E
:1053B000019608952F923F924F925F926F927F9243
:1053C0008F929F92AF92BF92CF92DF92EF92FF9215
:1053D0000F931F93CF93DF93CDB7DEB7CA1BDB0BC1
:1053E0000FB6F894DEBF0FBECDBF09942A88398866
:1053F00048885F846E847D848C849B84AA84B9846D
:10540000C884DF80EE80FD800C811B81AA81B98178
:10541000CE0FD11D0FB6F894DEBF0FBECDBFED018C
:10542000089515E0CCECD5E004C0FE010E94912760
:0C5430002296CE3CD107C9F7F894FFCFBC
:10543C00000090068000010000E100000000000068
:10544C0001010101007D007D007D000000000000D5
:10545C000200000007E0013C000000000441053C94
:10546C00000028100001000AFFD8454754202020D6
:10547C0020200201000007E001340000000004417C
:10548C00053400002810000F0D200000414620209C
:10549C00202020200201000007E022DA8500000015
:1054AC00046205DA06853008001700140000414636
:1054BC00524F424420200200000007E02203EC007F
:1054CC0000000462050306EC30100001000500002A
:1054DC004B4E4F434B2020200200000007E022F4EB
:1054EC0023000000046205F406233010001D001494
:1054FC000000465052004B2020200200000007E024
:10550C002203180000000462050306183010000680
:10551C000001000043414D4445472020020000009B
:10552C00073722596A00000004620559066A3010D8
:10553C00000B0064000050574549474854200200B6
:10554C00000007E02203CA0000000462050306CA3B
:10555C00300800090005FFD84241545445525920E7
:10556C00FFFFFFFFFFFFFFFFFFFFFFFFFFFFFFFF3F
:10557C00FFFFFFFFFFFFFFFFFFFFFFFFFFFFFFFF2F
:10558C000A0014003200530064007D00FA00F4019C
:10559C00E8037D000D0030003A00302E342E33002D
:1055AC0043414E42757320547269706C65007B22C6
:1055BC006576656E74223A2276657273696F6E2217
:1055CC002C20226E616D65223A2200222C2022763C
:1055DC00657273696F6E223A2200222C20226D654F
:1055EC006D6F7279223A220051554555453A206526
:1055FC0072726F722064756520746F20756E6465AD
:10560C0073697261626C652073697A6520666F726A
:10561C002071756575652073697A652E0051554545
:10562C0055453A20696E73756666696369656E7473
:10563C00206D656D6F727920746F20696E69746965
:10564C00616C697A652074656D706F726172792016
:10565C0071756575652E0051554555453A20636148
:10566C006E277420706F70206974656D2066726F80
:10567C006D2071756575653A207175657565206964
:10568C007320656D7074792E004275732031004261
:10569C00757320320042757320330000000000D572
:1056AC0012F4061103000000007D0F1303120344D3
:1056BC00656661756C740000000000221B691B4C50
:1056CC001B5C1B381B491B00000000801C021E02C7
:1056DC001C1B1C0D1C5E1C00000000FF23021E7214
:0656EC0024E02428250043
:00000001FF
