:100000000C9438020C945A170C9487170C94B4175C
:100010000C94E1170C9460020C9460020C940E187E
:100020000C9460020C9460020C9418220C94E4204E
:100030000C9460020C9460020C9460020C946002B8
:100040000C9460020C9460020C9460020C946002A8
:100050000C9460020C9460020C9460020C943B18A7
:100060000C9460020C94D21C0C94041D0C9460023D
:100070000C9460020C9460020C9460020C94600278
:100080000C9460020C9460020C9460020C94600268
:100090000C9460020C9460020C9460020C94600258
:1000A0000C9460020C9460020C94600258195D1963
:1000B00062196C197619C019C019C01980198A19EA
:1000C00094199E19AB19C019B319E119E419D31980
:1000D000D719DD19051A051A051AE819EC19F019CE
:1000E000F619FA19051A001A227D00222C20226E18
:1000F0006578745478427566666572223A220022E9
:100100002C20226572726F72223A2200222C202249
:10011000737461747573223A2200222C2022636169
:100120006E6374726C223A22007B2265223A22624C
:100130007573646762222C20226E616D65223A22FB
:1001400000227D007B226576656E74223A227665F8
:100150007273696F6E222C20226E616D65223A22C5
:1001600043414E42757320547269706C65204D6135
:100170007A6461222C202276657273696F6E223A4E
:1001800022302E342E30222C20226D656D6F727934
:10019000223A2200227D007B226576656E74223A27
:1001A00022656570726F6D44617461222C20227229
:1001B0006573756C74223A226661696C757265228A
:1001C0002C20226368756E6B223A22007B226576B2
:1001D000656E74223A22656570726F6D5361766543
:1001E000222C2022726573756C74223A2273756317
:1001F00063657373227D00227D007B226576656EC8
:1002000074223A22656570726F6D44617461222CAC
:100210002022726573756C74223A2273756363656C
:100220007373222C20226368756E6B223A22007B46
:10023000226576656E74223A22656570726F6D5222
:1002400065736574222C2022726573756C74223A72
:100250002273756363657373227D000000000200E2
:10026000090F0000030401000C0000000000000062
:10027000000000000000000000040802011040809F
:10028000401020408040800802040180402010027D
:1002900001108010204040040404040403040502FB
:1002A0000202020403020202020606060606060411
:1002B0000402020204000000002300260029002C92
:1002C000002F0000000000250028002B002E003128
:1002D0000000000000240027002A002D0030000844
:1002E0000B000202020100090400000102020000EA
:1002F000052400100105240101010424020605243F
:100300000600010705810310004009040100020AEC
:1003100000000007050202400000070583024000BC
:100320000000C18081C1120100020200004041238F
:1003300036800001010200011201000200000040AD
:100340004123368000010102000141726475696E2B
:100350006F204C4C430043414E42757320547269E8
:10036000706C650004030904000000000000000038
:100370002A2B280000000000000000000000000000
:1003800000000000000000002C9EB4A0A1A2A43434
:10039000A6A7A5AE362D3738271E1F2021222324DD
:1003A0002526B333B62EB7B89F8485868788898A79
:1003B0008B8C8D8E8F909192939495969798999A15
:1003C0009B9C9D2F3130A3AD350405060708090A13
:1003D0000B0C0D0E0F101112131415161718191AF5
:1003E0001B1C1DAFB1B0B5000904020001030000E1
:1003F0000009210101000122650007058403400076
:100400000105010902A1010901A1008501050919E0
:1004100001290315002501950375018102950175D8
:1004200005810305010930093109381581257F75DA
:100430000895038106C0C005010906A101850205D2
:100440000719E029E7150025017501950881029536
:1004500001750881039506750815002565050719BE
:100460000029658100C0BF10701B341D67246F1107
:1004700011241FBECFEFDAE0DEBFCDBF13E0A0E056
:10048000B1E0E6E4F2E502C005900D92A636B107B0
:10049000D9F726E0A6E6B3E001C01D92A634B20764
:1004A000E1F714E0CEE6D4E004C02297FE010E94FA
:1004B0009626C636D107C9F70E94781D0C941629D6
:1004C0000C94000008950895FA01258536852230A0
:1004D000310561F02330310559F02130310569F4DF
:1004E00023E030E03687258721E006C0178605C067
:1004F00021E030E036872587278720E1DC01019065
:100500000D922A95E1F708950895089521E0FB01E1
:100510003081311101C020E0FC0122830895FA01ED
:1005200041815281DB0117962D913C91189742171A
:10053000530731F413961D921D921D921C9216972B
:1005400020E1DC0101900D922A95E1F708952F92A8
:100550003F924F925F926F927F928F929F92AF9253
:10056000BF92CF92DF92EF92FF920F931F93CF93A0
:10057000DF93CDB7DEB72E970FB6F894DEBF0FBE70
:10058000CDBF4C01798768876A01DB011496ED9134
:10059000FC9115978081E82FF0E0FB87EA87F2E273
:1005A0008F9F8001112405531C4FE12CF12C8F5F8C
:1005B0008C87A885B9851496ED91FC91159780815B
:1005C00090E001962A853B852E0D3F1D82179307EB
:1005D0000CF4BBC0980129513109F801759780814D
:1005E0003196811104C09081992309F4A8C090E04C
:1005F000982F88274081840F911D0896D601119667
:100600004D915C9112974817590709F098C080E006
:1006100090E0F901E80FF91F4485442359F0D60111
:10062000A40FB11D5C914585541389C00296863094
:10063000910579F7F801379780818695869586959B
:100640008250F601E80FF11D6381D80116978C9155
:1006500070E0803129F4762F66278481680F711D40
:10066000F8013597A080B12CBA2CAA24319680814C
:10067000A80EB11C3196208130E0322F222731960E
:100680008081280F311D31962080312C322C22247C
:10069000F8018081280E311C2115310511F421E06B
:1006A00030E080E090E02D873E870E946D252B0191
:1006B0003C012D853E85B90180E090E00E946D25CA
:1006C0009B01AC01C301B2010E94D9242B013C0162
:1006D000B50180E090E00E946D259B01AC01C30153
:1006E000B2010E94FB252B013C01B10180E090E0AA
:1006F0000E946D259B01AC01C301B2010E947524CB
:100700000E944125F801779720813181261737070C
:10071000B1F071836083F7EEF98323E82A832C8597
:100720002E0D2B837C836D833DE03E838AE08F8397
:10073000BE016F5F7F4F8FE895E00E94E81D9FEF3D
:10074000E91AF90A0E5D1F4F34CF80E1F601D4019A
:1007500001900D928A95E1F7C4012E960FB6F89498
:10076000DEBF0FBECDBFDF91CF911F910F91FF90E4
:10077000EF90DF90CF90BF90AF909F908F907F9041
:100780006F905F904F903F902F90089580E00E946F
:100790003C1781E00E943C1784E00C943C17AF9218
:1007A000BF92CF92DF92EF92FF920F931F93CF935E
:1007B000DF9300D01F92CDB7DEB78C01FC018281A0
:1007C000882361F043815481658176814F5F5F4F5B
:1007D0006F4F7F4F4383548365837683F801838112
:1007E0009481A581B68181329E44A105B10508F4AA
:1007F0003DC1F80113821482158216828FE395E0C1
:100800000E94611B811132C160E088E00E943F1AA2
:1008100088E10FB6F89480936000109260000FBEDC
:10082000A8E0FA2E729A64E670E080E090E00E9400
:10083000B4188EB11EB864E670E080E090E00E94CB
:10084000B418FA9479F7FCEDEF2EF12CB7018DE096
:100850000E94321961E070E080E090E00E94B418DC
:10086000F1E0EF1AF10891F760E070E082EE94E0B9
:100870000E94D113F80167817085AB0182EE94E08C
:100880000E948E1523E040E06CE282EE94E00E942C
:10089000571361E070E082EE94E00E94D11362E0B1
:1008A00070E080E090E00E94B418EAEFEE2EE4E001
:1008B000FE2E6E01F4E0CF0ED11CCE0101965C013C
:1008C0006FE070E0C7010E943515F60182936F0159
:1008D00028E048E06CE0C7010E94571322E040E0A6
:1008E0006CE0C7010E94571320E240E26CE0C701B0
:1008F0000E945713CA14DB0429F062E070E0C701BC
:100900000E94D11323E040E06CE2C7010E9457131C
:10091000FCE0EF1AF108CA14DB0491F640E050E065
:1009200066EC73E080E00E94EC1640E050E066EC7C
:1009300073E081E00E94EC1640E050E066EC73E06A
:1009400084E00E94EC1683B7817F846083BFF894B3
:1009500083B7816083BF78948091640081608093C5
:100960006400889564E070E080E090E00E94B41834
:1009700083B78E7F83BF809164008E7F80936400F5
:1009800062E070E080E090E00E94B41872EEE72E22
:1009900074E0F72EC12CD12C20E440E46CE2C701B6
:1009A0000E94571320E440E46BE2C7010E945713F2
:1009B00062E070E080E090E00E94B41820E440E043
:1009C0006BE2C7010E94571320E440E06CE2C701CC
:1009D0000E9457132FEF40E06CE2C7010E945713AB
:1009E00020E240E06CE0C7010E94571361E070E034
:1009F00080E090E00E94B418C114D10481F462E058
:100A000070E080E090E00E94B41860E070E082EE58
:100A100094E00E94D11382EE94E00E94E715F50164
:100A200041915F0120EE6FE0C7010E94571362E021
:100A300070E080E090E00E94B418FFEFCF1ADF0A68
:100A40002CE0E20EF11C83E0C816D10409F0A4CF1B
:100A5000729A60E08DE00E943F1A61E088E00E9497
:100A60003F1AF80113821482158216820F900F909C
:100A70000F90DF91CF911F910F91FF90EF90DF903A
:100A8000CF90BF90AF90089561E08DE00E94061A6C
:100A900061E08DE00E943F1A6AEF70E080E090E034
:100AA0000E94B41860E08DE00E943F1A6AEF70E087
:100AB00080E090E00E94B418EBCF009711F00E9404
:100AC000171E0E9444056115710581F0DB010D9030
:100AD0000020E9F7AD0141505109461B570BDC01DD
:100AE000ED91FC910280F381E02D099480E090E08B
:100AF00008950F931F93CF93DF93EC018B01FB01BC
:100B00008081918199838883828193819B838A8369
:100B10006C5F7F4FCE0104960E942723F8018285E7
:100B200093859B878A87DF91CF911F910F910895BD
:100B30004EE351E060E070E00C94C728CF93DF9360
:100B4000C0E0D0E040E0BE018BE295E00E942612BA
:100B50002196C11582E0D807A9F7DF91CF910895BA
:100B60000F931F93CF93DF93CDB7DEB7CE53D14012
:100B70000FB6F894DEBF0FBECDBF0E949E058EE378
:100B800091E0E2E1F1E0DE01119601900D92019712
:100B9000E1F7CE0101960E9498050E94FA056FE2E6
:100BA00072E08FE395E00E94051E06E010E061E030
:100BB0008DE00E943F1A64EF71E080E090E00E94B7
:100BC000B41860E08DE00E943F1A64EF71E080E0AD
:100BD00090E00E94B4180150110949F7C25CDE4F41
:100BE0000FB6F894DEBF0FBECDBFDF91CF911F913E
:100BF0000F9108958EE391E0E4EAF3E0DF019C01B8
:100C00001D9221503040E1F74EE351E060E070E08A
:100C1000CF010E94AF288091A50381508E3F10F034
:100C20000C94B00508950F931F93CF93DF93EC01BD
:100C30008B0185E193E099838883CE0108960E9419
:100C4000E0161D830C831F821E828FE395E09B8339
:100C50008A83DF91CF911F910F910895EF92FF92B8
:100C60000F931F93CF93DF93EC018B01DB011D9654
:100C70002D913C911E97A9014150510981E090E0CE
:100C8000042E01C0880F0A94EAF79F81982309F483
:100C900089C08A819B81B5E08F389B07E9F4FB010D
:100CA00041815281F9013396EE0FFF1FEC0FFD1FBA
:100CB0006081772767FD70956417750769F0F90102
:100CC000EE0FFF1FEC0FFD1F2781332727FD309507
:100CD0002417350709F066C0DC01ED91FC91019005
:100CE000F081E02D63E009958A819B81DC01ED9123
:100CF000FC910190F081E02DD8011D966C91099531
:100D00008A819B81DC01ED91FC91D80112966C9156
:100D10000190F081E02D09958A819B81DC01ED91A4
:100D2000FC910190F081E02DD80111966C9109950C
:100D3000E12CF12C8A819B81DC01ED91FC91D801A1
:100D4000AE0DBF1D0190F081E02D13966C910995B9
:100D5000BFEFEB1AFB0AE8E0EE16F10459F78A81BF
:100D60009B81DC01ED91FC910190F081E02DD80197
:100D70006C9109958A819B81DC01ED91FC91019038
:100D8000F081E02DD8011B966C91099560E572E029
:100D90008A819B81DF91CF911F910F91FF90EF90FE
:100DA0000C946305DF91CF911F910F91FF90EF900D
:100DB0000895EF92FF920F931F93CF93DF93CDB7D8
:100DC000DEB760970FB6F894DEBF0FBECDBF8C01C3
:100DD000CB017A0120E1FA01DE01119601900D921A
:100DE0002A95E1F7BE016F5F7F4F0E942E06CE016C
:100DF00001960E94EB1680E1F701D80101900D9257
:100E00008A95E1F7C80160960FB6F894DEBF0FBE71
:100E1000CDBFDF91CF911F910F91FF90EF9008957B
:100E2000CF92DF92EF92FF920F931F93CF93DF93B6
:100E30007C016A01EB0100E010E00C151D05E0F4F7
:100E4000D70112968D919C911397DC01ED91FC9145
:100E50000480F581E02D0995892B71F0F7018281DD
:100E60009381DC01ED91FC910680F781E02D0995DD
:100E700089930F5F1F4FE1CFC801DF91CF911F9181
:100E80000F91FF90EF90DF90CF9008950F931F93F5
:100E9000CF93DF9300D000D01F92CDB7DEB78C0187
:100EA00045E050E0BE016F5F7F4F0E9410078981CF
:100EB000843080F490E0FC013396EE0FFF1FE00FCA
:100EC000F11F2B812083FC01EE0FFF1FE00FF11FAC
:100ED0008D8187830F900F900F900F900F90DF916F
:100EE000CF911F910F910895EF92FF920F931F934F
:100EF000CF93DF93CDB7DEB762970FB6F894DEBF1E
:100F00000FBECDBF8C01BE01635F7F4F86E0DB016A
:100F10001D928A95E9F746E050E0C8010E9410074B
:100F20007C012D858FEF820F833060F0F801828184
:100F30009381DC01ED91FC910190F081E02D60E85E
:100F4000099567C030E0215031098CE0829FB001E3
:100F5000839F700D11246E517B4FCE0101960E942C
:100F600079052E85222359F08D85815001C0220FED
:100F70008A95EAF7F8018781822B878303C0D8011D
:100F800017961C92B3E0EB16F1046CF160E070E090
:100F9000CE0101960E94D113CE0101960E94E71561
:100FA0006F8570E0288930E0498950E0EA89F0E0F7
:100FB000CB01820F931F840F951F8E0F9F1F892BCC
:100FC00061F0542F44274E0F5F1F762F6627620F64
:100FD000731FCE0101960E948E1561E070E0CE0174
:100FE00001960E94D113F80182819381DC01ED9179
:100FF000FC910190F081E02D6FEF099560E572E0C2
:10100000F801828193810E946305CE0105960E94BA
:101010008C2262960FB6F894DEBF0FBECDBFDF9173
:10102000CF911F910F91FF90EF9008950F931F9311
:10103000CF93DF93CDB7DEB7A1970FB6F894DEBF9D
:101040000FBECDBF8C0142E250E0BE016F5F7F4F0B
:101050000E941007829789F58AA1813A71F5A981CA
:1010600080E2A89FD0011124AC55BC4F80E2FE0164
:10107000329601900D928A95E1F76AEF71E0F801DE
:10108000828193810E94B51D4AE050E06981F80198
:10109000828193810E94E11E67EF71E0F8018281F5
:1010A00093810E94051E89818F30E9F484EA93E0E0
:1010B0000E9498056CEC71E011C067E971E0F801DD
:1010C000828193810E94B51D4AE050E06981F80158
:1010D000828193810E94E11E64E971E0F8018281BE
:1010E00093810E94051EA1960FB6F894DEBF0FBE35
:1010F000CDBFDF91CF911F910F9108950F931F9353
:10110000CF93DF931F92CDB7DEB78C0141E050E063
:10111000BE016F5F7F4F0E9410078981823029F0E6
:101120008330F1F4F80116821BC081E0F801868358
:1011300061E08DE00E943F1A64E670E080E090E09C
:101140000E94B41860E08DE00E943F1A64E670E0EF
:1011500080E090E00E94B41861E08DE00E943F1AA8
:101160000F90DF91CF911F910F910895CF93DF934F
:10117000EC018A819B81DC01ED91FC910480F58179
:10118000E02D0995892B51F08A819B81DC01ED913D
:10119000FC910680F781E02D0995EBCFDF91CF918F
:1011A00008950F931F93CF93DF93EC018B0169E2B6
:1011B00071E08A819B810E94B51DB8016C5F7F4FF1
:1011C0008A819B810E94DA1D6AE171E08A819B819C
:1011D0000E94B51D6FE070E0C8010E94351540E126
:1011E00050E0682F8A819B810E94E11E6CE071E0D3
:1011F0008A819B810E94B51DC8010E94091540E1AA
:1012000050E0682F8A819B810E94E11E6FEF70E0A1
:101210008A819B810E94B51D6DE270E0C8010E9429
:10122000351540E150E0682F8A819B810E94E11EC4
:101230006BEE70E08A819B810E94B51DC8010E94FF
:1012400021154AE050E0BC018A819B810E94CC1E9E
:1012500068EE70E08A819B81DF91CF911F910F91A1
:101260000C94051E0F931F93CF93DF93CDB7DEB77A
:101270002D970FB6F894DEBF0FBECDBF8C0141E0B5
:1012800050E0BE01635F7F4F0E9410072D85243020
:10129000C8F430E0215031098CE0829FB001839F77
:1012A000700D11246E517B4FCE0101960E9479057D
:1012B000BE016F5F7F4FC8010E94D108CE01059625
:1012C0000E948C222D960FB6F894DEBF0FBECDBFC4
:1012D000DF91CF911F910F9108952091A3032830A2
:1012E00078F4822F90E0FC01EE0FFF1FE80FF91F4A
:1012F000E557FC4F6083528341832F5F2093A30304
:101300000895F89481E08093E00080E28093D80013
:101310001092C90065E070E080E090E00E94B4188F
:101320001DBA109268001CBC10BE1FBA10927A0041
:1013300010926E0010926F00109271000C940038A1
:1013400008950F931F93CF93DF938C01C0E0D0E0FB
:10135000BE018BE295E00E94231240E150E0682F2D
:10136000F801828193810E94E11ECF3FF1E0DF0707
:1013700039F062E572E0F801828193810E94E81DF4
:101380002196C115F2E0DF0719F7DF91CF911F9188
:101390000F910895CF93DF9300D0CDB7DEB72091A2
:1013A0004206309143062115310511F426E436E05A
:1013B000CE010196821B930B0F900F90DF91CF917E
:1013C0000895CF93DF93EC0164E471E08A819B81FF
:1013D0000E94B51DCE010E94CA094AE050E0BC013E
:1013E0008A819B810E94CC1E61E471E08A819B818D
:1013F000DF91CF910C94051E0F931F93CF93DF9332
:101400001F92CDB7DEB78C0141E050E0BE016F5FA7
:101410007F4F0E94100789818330B1F040F4813002
:1014200079F08230E1F4C8010E94A10918C080312E
:1014300079F0863189F0843091F40E94B0050FC0B4
:10144000C8010E94E1090BC0C8010E94160807C02C
:10145000C8010E94320903C0C8010E9481090F908F
:10146000DF91CF911F910F9108950F931F93CF9309
:10147000DF93DC0114960D911C911597E801E8812A
:101480006E2F70E0D2E2ED9FF0011124E954FC4F81
:1014900040E050E01296E801288130E02F5F3F4F96
:1014A000CA01860F971F28173907A4F0CF010197AB
:1014B000EC01288130E0322F22278081280F311D56
:1014C000285F3F4F19963C932E9318974F5F5F4FBD
:1014D000B296E0CFDF91CF911F910F9108950F93B6
:1014E0001F93CF93DF93EC018B018FE193E09983FE
:1014F00088830E9485186E837F838887998786EA10
:1015000093E09D838C831B830A83CE01DF91CF916F
:101510001F910F910C94350AFC01CA0129E233E0B6
:101520003183208313821482158216827087678329
:1015300021E02283AF016EE40C946D09CF93DF9319
:101540000E94FA0561E070E080E090E00E94B4182B
:1015500080916E0390916F030E94350A40E052EC37
:1015600061E070E08FE395E00E945B1B26E040E0C5
:1015700051EE60E070E08FE895E00E94701C6A9A7E
:10158000729A61E088E00E94061A61E088E00E9499
:101590003F1A61E08DE00E94061A60E083E00E943D
:1015A000061A60E082E00E94061A60E087E00E946E
:1015B000061A61E084E00E94061A61E08CE00E9455
:1015C000061A61E08BE00E94061A61E089E00E9441
:1015D000061A61E08AE00E94061A61E085E00E9436
:1015E000061A60E084E00E943F1A60E08CE00E94EE
:1015F0003F1A60E08BE00E943F1A8EE195E00E9466
:10160000601261E070E08EE195E00E94A2136091AB
:10161000A7037091A8038EE195E00E949B1261E000
:101620008EE195E00E94821324E044E060E68EE1C2
:1016300095E00E94571320E240E268E28EE195E0D7
:101640000E9457138EE195E00E94E71561E070E07B
:101650008EE195E00E94D11382E195E00E94601234
:101660006091A9037091AA0382E195E00E949B1208
:101670006DE770E082E195E00E949B1261E082E1FB
:1016800095E00E94821324E044E060E686E095E065
:101690000E94571382E195E00E94E71561E070E037
:1016A00082E195E00E94D11386E095E00E946012ED
:1016B0006091AB037091AC0386E095E00E949B12B1
:1016C00061E086E095E00E94821324E044E060E659
:1016D00086E095E00E94571386E095E00E94E715AA
:1016E00061E070E086E095E00E94D113C5E0D0E0B3
:1016F00061E08DE00E943F1A62E370E080E090E0DC
:101700000E94B41860E08DE00E943F1A62E370E02E
:1017100080E090E00E94B418219751F7DF91CF91BB
:1017200008950F931F93CF93DF93EC018B018F8567
:101730008823C9F161E08DE00E943F1AC8010E9430
:1017400021158130910591F082309105E1F0892BCE
:1017500061F59E012D5F3F4F49815A816881C80123
:101760000E94F915C8010E94051419C09E012D5F41
:101770003F4F49815A816881C8010E944616C801BD
:101780000E9415140CC09E012D5F3F4F49815A8164
:101790006881C8010E949316C8010E94251460E068
:1017A0008DE00E943F1A81E001C080E0DF91CF917F
:1017B0001F910F910895CF93DF93EC011D821C823E
:1017C0001F821E82198618861B861A861982188225
:1017D00080E290E00E94AE269B838A83892B11F4DD
:1017E0000E94440582E090E09D838C83DF91CF913D
:1017F0000895AF92BF92CF92DF92EF92FF920F9334
:101800001F93CF93DF93EC018B01161617061CF084
:1018100064E572E012C0CB0164E0880F991F6A95FD
:10182000E1F70E94AE267C01009729F06C0120E0D0
:1018300030E040E106C069E872E0888199810E9449
:101840005D058E819F81AA80BB8028173907E4F44B
:1018500088859985820F931F6C817D810E945E2609
:1018600054E0880F991F5A95E1F78A0D9B1DFC01E2
:10187000D601842F01900D928A95E1F72F5F3F4F9B
:1018800080E1C80ED11CDDCFC5010E944627FB8236
:10189000EA82198618868E819F819B878A871D839D
:1018A0000C83DF91CF911F910F91FF90EF90DF900C
:1018B000CF90BF90AF9008950F931F93CF93DF9376
:1018C000EC018B018E819F812C813D8182179307D2
:1018D00031F4BC01660F771FCE010E94F90BAA817B
:1018E000BB818A859B859C012F5F3F4F3B872A8761
:1018F00074E0880F991F7A95E1F7A80FB91F80E16E
:10190000F80101900D928A95E1F72A853B858C813B
:101910009D812817390711F41B861A868E819F81B5
:1019200001969F838E83DF91CF911F910F91089530
:101930000F931F93CF93DF93CDB7DEB7AC970FB65E
:10194000F894DEBF0FBECDBF8C014CE050E0BE016D
:101950006F5D7F4F0E941007CE0141960E94E016F6
:1019600089A190E09F8F8E8F2AA130E0322F22270D
:101970008BA1280F311D3B8B2A8B8CA18C8B8DA1C9
:101980008D8B8EA18E8B8FA18F8B88A5888F89A53B
:10199000898F8AA58A8F8BA58B8F8CA5898B81E0F7
:1019A00088A380E1FE017196DE01119601900D92EF
:1019B0008A95E1F7BE016F5F7F4FF80184819581C1
:1019C0000E945C0CCE0101960E94EB16CE0141965E
:1019D0000E94EB16AC960FB6F894DEBF0FBECDBFDB
:1019E000DF91CF911F910F910895CF92DF92EF92E7
:1019F000FF920F931F93CF93DF93CDB7DEB7C05401
:101A0000D1090FB6F894DEBF0FBECDBF8C017B01AC
:101A100065E070E080E090E00E94B41823E0E216F8
:101A2000F10411F14CF4A1E0EA16F104A9F0B2E0DE
:101A3000EB16F104A9F008C024E0E216F104C1F0AD
:101A400088E0E816F104C1F08091A30390E0EBE890
:101A5000F3E0C12CD12C17C0C8010E94FC093FC083
:101A6000C8010E94980C3BC0C8010E94740737C08F
:101A7000C8010E94460733C0C8010E947E082FC0DB
:101A8000BFEFCB1ADB0AC816D9064CF5208130E02F
:101A900033962E153F05A1F740E450E0BE016F5F7D
:101AA0007F4FC8010E9410077C0161E070E080E078
:101AB00090E00E94B418F601EE0FFF1FEC0DFD1D23
:101AC000E557FC4F81819281DC01ED91FC9104800E
:101AD000F581E02DA701BE016F5F7F4F0995C80119
:101AE0000E94B608C05CDF4F0FB6F894DEBF0FBE91
:101AF000CDBFDF91CF911F910F91FF90EF90DF90BD
:101B0000CF9008955F926F927F928F929F92AF9243
:101B1000BF92CF92DF92EF92FF920F931F93CF93DA
:101B2000DF93CDB7DEB7A0970FB6F894DEBF0FBE38
:101B3000CDBF7C018B01DC011496ED91FC911597D2
:101B40008081A82EB12CB2E28B9F000D111D1124B3
:101B50000A5F1F4FC12CD12C88E0582E7724739434
:101B600090E1692ED7011496ED91FC911597808133
:101B700090E0019696012A0D3B1D821793070CF405
:101B800056C04801E6E08E1A9108D8018C9188234E
:101B900009F447C0F4018081882309F442C0CE01D2
:101BA00041960E94E016D4018C9190E09F8F8E8F19
:101BB000F8013297808190E0982F88273196208114
:101BC000820F911D9B8B8A8BFE01759620E030E081
:101BD000D401A20FB31F16968C91882331F02F5F8A
:101BE0003F4F81932630310599F72C8B598A78A283
:101BF000FE017196DE011196862D01900D928A9557
:101C0000E1F7BE016F5F7F4FF701828193810E94F0
:101C10005C0CCE0101960E94EB16CE0141960E940B
:101C2000EB16FFEFCF1ADF0A0E5D1F4F9BCFA0967A
:101C30000FB6F894DEBF0FBECDBFDF91CF911F91DD
:101C40000F91FF90EF90DF90CF90BF90AF909F905B
:101C50008F907F906F905F9008950F931F93CF9315
:101C6000DF93EC010E9485180E811F81288539853C
:101C7000025E1F4F2F4F3F4F0617170728073907E0
:101C800078F40E9485186E837F838887998762EB3A
:101C900073E0CE01DF91CF911F910F910C94820DD3
:101CA000DF91CF911F910F9108950F931F93CF93C1
:101CB000DF93CDB7DEB7A0970FB6F894DEBF0FBEA7
:101CC000CDBF8C01209184033091850380918203E4
:101CD000909183032817390709F47AC0C8010E943C
:101CE000091580938A0380FF32C0CE0141960E947D
:101CF000E01680918A0390E09D8F8C8FF801828599
:101D000093859F8F8E8F9E012E5E3F4FAE014C5E5E
:101D10005F4FBE016F5E7F4FC8010E94351480E1A6
:101D2000FE017196DE01119601900D928A95E1F700
:101D3000BE016F5F7F4F8EE793E00E945C0CCE0187
:101D400001960E94EB16CE0141960E94EB1620915F
:101D50008403309185038091820390918303281737
:101D60003907B1F180918A0381FF32C0CE014196DB
:101D70000E94E01680918A0390E09D8F8C8FF8017D
:101D8000828593859F8F8E8F9E012E5E3F4FAE0181
:101D90004C5E5F4FBE016F5E7F4FC8010E94A3146F
:101DA00080E1FE017196DE01119601900D928A95F7
:101DB000E1F7BE016F5F7F4F8EE793E00E945C0CFE
:101DC000CE0101960E94EB16CE0141960E94EB16C1
:101DD000A0960FB6F894DEBF0FBECDBFDF91CF91B6
:101DE0001F910F910895BF92CF92DF92EF92FF92D1
:101DF0000F931F93CF93DF93CDB7DEB7A0970FB6A6
:101E0000F894DEBF0FBECDBF8C0126E6C22E23E0C4
:101E1000D22EE12CF12C30E1B32E8091060190916D
:101E20000701E816F90664F5D6016D917D916D0103
:101E3000DB01ED91FC9122813381F801DE015196A5
:101E40008B2D01900D928A95E1F7AE014F5E5F4FA9
:101E5000CE010196F9010995FE013196D8018B2D2D
:101E600001900D928A95E1F7CE0101960E94EB1642
:101E7000CE0141960E94EB16FFEFEF1AFF0ACDCF7D
:101E8000D8011F968C91882399F080E1F801DE013A
:101E9000119601900D928A95E1F7BE016F5F7F4F19
:101EA00082E793E00E945C0CCE0101960E94EB1643
:101EB000A0960FB6F894DEBF0FBECDBFDF91CF91D5
:101EC0001F910F91FF90EF90DF90CF90BF900895FA
:101ED0000F931F93CF93DF938C01EB018E819F8132
:101EE000892B31F463EC72E0888199810E945D0551
:101EF000EA81FB81888599859C012F5F3F4F398757
:101F0000288764E0880F991F6A95E1F7E80FF91FA9
:101F100080E1D80101900D928A95E1F72E813F81F1
:101F2000215031093F832E836C817D81888599857D
:101F30008617970711F4198618862115310599F02F
:101F4000CB0177FD03969595879595958795821793
:101F500093074CF077FF02C06F5F7F4F75956795D1
:101F6000CE010E94F90BC801DF91CF911F910F9113
:101F70000895EF92FF920F931F93CF93DF93CDB706
:101F8000DEB7E8970FB6F894DEBF0FBECDBFE6E62A
:101F9000EE2EE3E0FE2E00E010E08091060190912D
:101FA00007010817190774F4D7018D919D917D01E0
:101FB000DC01ED91FC910190F081E02D09950F5F1E
:101FC0001F4FEBCF83E00E94751A892B71F46EE1ED
:101FD00075E0CE0101960E947905CE0101960E941E
:101FE000550ECE0105960E948C2282E00E94751A41
:101FF000892B71F462E175E0CE0101960E947905AA
:10200000CE0101960E94550ECE0105960E948C22AB
:1020100087E00E94751A892B71F466E075E0CE01A5
:1020200001960E947905CE0101960E94550ECE01BF
:1020300005960E948C228091840390918503892BC0
:1020400059F0209178033091790380917603909133
:1020500077032817390771F411E07CE0F72E00E1CF
:102060002091780330917903232B09F465C0111175
:1020700010C062C06EE773E0CE0101960E94680F47
:10208000CE0101960E94F30ECE0101960E94EB163E
:10209000E3CF62E773E0CE0141960E94680F8E8D18
:1020A0009F8D0197F89EB001F99E700D11246E511D
:1020B0007B4FCE018D960E947905BE01635D7F4FF7
:1020C000CE0181960E947905FE017196DE0111967E
:1020D000802F01900D928A95E1F7BE016F5D7F4FD1
:1020E000CE0101960E94910B182FCE0101960E94FD
:1020F000EB16CE0185960E948C22111114C0FE01B0
:102100007196DE011196802F01900D928A95E1F76C
:10211000BE016F5F7F4F82E793E00E945C0CCE01AF
:1021200001960E94EB16CE01C1960E948C22CE0130
:1021300041960E94EB1694CFE8960FB6F894DEBF56
:102140000FBECDBFDF91CF911F910F91FF90EF9008
:102150000895CF93DF93EC018A819B810E944627EB
:102160001B821A82198218821D821C821F821E8283
:10217000198618861B861A86DF91CF9108950F93D2
:102180001F93CF93DF9300D000D000D0CDB7DEB740
:1021900065EF72E0CE0101960E94FA228E010F5F78
:1021A0001F4F21E030E044E050E069E070E08EE154
:1021B00095E00E943112C8010E948C226BEF72E000
:1021C000C8010E94FA2222E030E04CE050E06AE0D0
:1021D00070E082E195E00E943112C8010E948C22D9
:1021E00061E073E0C8010E94FA2223E030E04BE096
:1021F00050E065E070E086E095E00E943112C80191
:102200000E948C226EE175E082EE94E00E947905D6
:1022100062E175E08EEE94E00E94790566E075E07B
:102220008AEF94E00E9479058EE793E00E94DB0B31
:1022300082E793E00E94DB0B88E190E00E948B1D17
:102240008C0162E773E00E94130610937103009300
:1022500070038EE090E00E948B1D8C0162E773E0BA
:102260000E946F0A10936F0300936E0380917003B6
:1022700090917103909367038093660382E090E0EE
:102280000E948B1D2BE033E0FC013183208390936F
:1022900069038093680380916E0390916F0390931C
:1022A0006B0380936A0389E090E00E948B1D8C0190
:1022B000409170035091710362E774E00E948C0AB0
:1022C00010936D0300936C0326960FB6F894DEBF4F
:1022D0000FBECDBFDF91CF911F910F910895CF9386
:1022E000DF93C4E7D3E0888199810E944627198251
:1022F0001882109273031092720310927703109257
:102300007603109279031092780310927B03109257
:102310007A0310927D0310927C038EE793E00E9473
:10232000A9108EEF94E00E948C2282EF94E00E942C
:102330008C2286EE94E00E948C228AE095E00E9436
:102340008C2286E195E00E948C2282E295E0DF916A
:10235000CF910C948C22CF93DF93EC018E81882354
:1023600031F18FE395E00E94C81A892B81F08FE349
:1023700095E00E94D81AE0918F05F09190050190A8
:10238000F081E02D682F8FE895E00995EACF8FE87E
:1023900095E00E948D1B892B71F18FE895E00E94DA
:1023A000A61B682F8FE395E00E949E1AF0CF8FE85E
:1023B00095E00E948D1B1816190654F48FE895E0DD
:1023C0009B838A830E94A61BBC01CE010E94F50C50
:1023D0008FE395E00E94C81A1816190664F48FE37B
:1023E00095E09B838A830E94D81ABC01CE01DF91BD
:1023F000CF910C94F50CDF91CF910895CF93CFB787
:10240000F89480912A05811116C061E081E10E9453
:102410003F1A61E081E10E94061A8CB580618CBD93
:102420008CB580648CBD61E08FE00E94061A61E08B
:1024300080E10E94061A80912A058F5F80932A0509
:10244000CFBFCF910895CB010C94BF28CB01642F4F
:102450000C94D1288EBD00000DB407FEFDCF8EB5C3
:1024600008958F929F92AF92BF92CF92DF92EF9298
:10247000FF920F931F93CF93DF93EC016B015A01EF
:1024800049017C0184E0E80EF11C61E572E0C701BE
:102490000E94FA22D982C882BB82AA829B868A863F
:1024A000B801C701DF91CF911F910F91FF90EF907D
:1024B000DF90CF90BF90AF909F908F900C9410239F
:1024C000CF93DF93EC0161E08FE00E94061A60E099
:1024D0008EE00E94061A61E080E10E94061A61E027
:1024E00088810E94061A61E08A810E94061A0E9471
:1024F000FE118CB5837F8CBD8CB58C7F8CBD8DB56A
:1025000081608DBD8CB58F7D8CBD60E08A810E941D
:102510003F1A62E370E080E090E00E94B41861E04E
:102520008A810E943F1A62E370E080E090E0DF91D0
:10253000CF910C94B418EF92FF920F931F93CF9307
:10254000DF931F92CDB7DEB77C016436710561F170
:102550006CF46431710501F16233710509F16A307F
:10256000710569F515E008EB21E329C06A3F7105A3
:10257000F9F03CF46D37710511F515E008EB23E037
:102580001EC0643F81E07807B9F0683E7340B9F43B
:1025900012E000E920E813C015E008EB28E10FC0C5
:1025A00015E008EB29E00BC015E008EB24E007C0BC
:1025B00015E008EB21E003C015E008EB20E060E047
:1025C000F701808129830E943F1A61E070E080E07A
:1025D00090E00E94B41882E00E942A128AE20E94CF
:1025E0002A122981822F0E942A1261E070E080E085
:1025F00090E00E94B41861E0F70180810E943F1AC8
:1026000061E070E080E090E00E94B41860E0F701C3
:1026100080810E943F1A61E070E080E090E00E94BB
:10262000B41882E00E942A1289E20E942A12802FA6
:102630000E942A1261E070E080E090E00E94B418ED
:1026400061E0F70180810E943F1A61E070E080E064
:1026500090E00E94B41860E0F70180810E943F1A68
:1026600061E070E080E090E00E94B41882E00E9497
:102670002A1288E20E942A12812F0E942A1261E007
:1026800070E080E090E00E94B41861E0F701808182
:102690000E943F1A61E070E080E090E00F90DF91CF
:1026A000CF911F910F91FF90EF900C94B418EF927F
:1026B000FF921F93CF93DF9300D0CDB7DEB77C019D
:1026C000162F60E0FC01808129834A830E943F1A13
:1026D00085E00E942A12812F0E942A122981822FCE
:1026E0000E942A124A81842F0E942A1261E0F70177
:1026F00080810F900F90DF91CF911F91FF90EF900D
:102700000C943F1A1F93CF93DF93EC01662311F0D3
:1027100013E001C010E060E088810E943F1A85E06C
:102720000E942A128BE20E942A1283E00E942A123F
:10273000812F0E942A1261E08881DF91CF911F9141
:102740000C943F1A1F93CF93DF93EC016230710515
:1027500071F02CF46130710569F410E00BC0643045
:10276000710539F06830710529F413E003C011E0F8
:1027700001C012E060E088810E943F1A85E00E945B
:102780002A128FE00E942A1283E00E942A12812FCF
:102790000E942A1261E08881DF91CF911F910C94F1
:1027A0003F1A1F93CF93DF93EC016230710589F0DC
:1027B00044F46115710589F06130710579F410E018
:1027C0000DC06330710539F06430710539F410E4DF
:1027D00005C010E203C010E601C010E860E0888187
:1027E0000E943F1A85E00E942A128FE00E942A125E
:1027F00080EE0E942A12812F0E942A1261E08881B5
:10280000DF91CF911F910C943F1ACF93DF93EC018E
:1028100060E088810E943F1A81E80E942A1261E0EC
:102820008881DF91CF910C943F1ACF93DF93EC0115
:1028300060E088810E943F1A82E80E942A1261E0CB
:102840008881DF91CF910C943F1ACF93DF93EC01F5
:1028500060E088810E943F1A83E80E942A1261E0AA
:102860008881DF91CF910C943F1A4F925F927F92B3
:102870008F929F92AF92BF92CF92DF92EF92FF9290
:102880000F931F93CF93DF9300D0CDB7DEB78C01AA
:102890005B01790160E0FC01808149835A830E94D9
:1028A0003F1A80E90E942A128FEF0E942A12C82E36
:1028B000D12C8FEF0E942A12882E8FEF0E942A12AD
:1028C0008FEF0E942A128FEF0E942A128F70982E8B
:1028D0004981742E442E5A81552E842D87198915CD
:1028E00038F48FEF0E942A12F20181932F01F5CF65
:1028F00061E0F80180810E943F1AF5019082882DE5
:10290000807E90E025E0969587952A95E1F733E063
:10291000CC0CDD1C3A95E1F78C0D9D1DF7019183E0
:1029200080830F900F90DF91CF911F910F91FF90B7
:10293000EF90DF90CF90BF90AF909F908F907F905F
:102940005F904F9008954F925F927F928F929F92E7
:10295000AF92BF92CF92DF92EF92FF920F931F93AD
:10296000CF93DF931F92CDB7DEB78C016B01A42EFE
:10297000790160E0FC01808159830E943F1A84E95B
:102980000E942A128FEF0E942A12982E8FEF0E9427
:102990002A12882E8FEF0E942A128FEF0E942A128D
:1029A0008FEF0E942A128F70B82E7A2C4A2C5981F0
:1029B000552E842D87198B1538F48FEF0E942A121B
:1029C000F20181932F01F5CF61E0F80180810E942F
:1029D0003F1AF601B0828294869447E08422F8E0A0
:1029E0009F9EA0011124480D511DF7015183408382
:1029F0000F90DF91CF911F910F91FF90EF90DF909B
:102A0000CF90BF90AF909F908F907F905F904F90AE
:102A100008951F93CF93DF93EC0160E088810E94BB
:102A20003F1A80EA0E942A128FEF0E942A12182F62
:102A300061E088810E943F1A812FDF91CF911F9121
:102A400008950E94091582FF07C084FF08C086FF11
:102A500009C08FEF9FEF089580E090E0089581E036
:102A600090E0089582E090E008951F93CF93DF9364
:102A7000EC01162F60E088810E943F1A83E00E94DB
:102A80002A12812F0E942A128FEF0E942A12182FD9
:102A900061E088810E943F1A812FDF91CF911F91C1
:102AA0000895EF92FF921F93CF93DF9300D0CDB79D
:102AB000DEB77C01162F60E0FC0180812A83498308
:102AC0000E943F1A61E070E080E090E00E94B4183C
:102AD00082E00E942A12812F0E942A124981842FAB
:102AE0000E942A122A81822F0E942A1261E070E03D
:102AF00080E090E00E94B41861E0F70180810E94BC
:102B00003F1A61E070E080E090E00F900F90DF915D
:102B1000CF911F91FF90EF900C94B418EF92FF9219
:102B20000F931F93CF93DF93EC017A018B0153E056
:102B3000159507955A95E1F7162F1295110F107EEE
:102B4000212F402F60E070E00E945115212F402F6F
:102B500068E070E0CE010E945115870163E0159591
:102B600007956A95E1F7E294EE0C70EEE7222E2DC0
:102B7000402F64E070E0CE010E9451152E2D402FB1
:102B800060E170E0CE010E9451152E2D402F64E1CE
:102B900070E0CE010E9451152E2D402F68E170E0AB
:102BA000CE010E94511520EE4FE160E270E0CE01AF
:102BB0000E94511520EE4FE164E270E0CE01DF91FA
:102BC000CF911F910F91FF90EF900C945115CF93DF
:102BD000DF93EC0120E040E060E270E00E945115DC
:102BE00020E040E064E270E0CE01DF91CF910C94F0
:102BF0005115CF92DF92EF92FF920F931F93CF93D5
:102C0000DF9300D0CDB7DEB78C01F62E6A0160E00D
:102C1000FC01808129833A830E943F1A80E40E944C
:102C20002A12C601E3E096958795EA95E1F70E949E
:102C30002A128C2D8295880F807E0E942A1280E0B5
:102C40000E942A1280E00E942A128F2D0E942A12CE
:102C50002981E22EC22E3A81D32E8C2D8E198F150A
:102C600030F4F60181916F010E942A12F6CF61E0E3
:102C7000F80180810F900F90DF91CF911F910F91FC
:102C8000FF90EF90DF90CF900C943F1ACF92DF929D
:102C9000EF92FF920F931F93CF93DF9300D0CDB7A6
:102CA000DEB78C01F62E6A0160E0FC018081298389
:102CB0003A830E943F1A82E40E942A12C601F3E07E
:102CC00096958795FA95E1F70E942A128C2D8295A8
:102CD000880F807E0E942A1280E00E942A1280E0E3
:102CE0000E942A128F2D0E942A122981E22EC22EC2
:102CF0003A81D32E8C2D8E198F1530F4F6018191E7
:102D00006F010E942A12F6CF61E0F80180810F90D6
:102D10000F90DF91CF911F910F91FF90EF90DF9077
:102D2000CF900C943F1ACF92DF92EF92FF920F93C5
:102D30001F93CF93DF9300D0CDB7DEB78C01F62E73
:102D40006A0160E0FC01808129833A830E943F1A76
:102D500084E40E942A12C601A3E096958795AA955D
:102D6000E1F70E942A128C2D8295880F807E0E94A6
:102D70002A1280E00E942A1280E00E942A128F2DDF
:102D80000E942A122981E22EC22E3A81D32E8C2D46
:102D90008E198F1530F4F60181916F010E942A126D
:102DA000F6CF61E0F80180810F900F90DF91CF9115
:102DB0001F910F91FF90EF90DF90CF900C943F1AEE
:102DC000FC011786128611861086178216821582DC
:102DD0001482138208950895853008F04CC0E82FBE
:102DE000F0E0EE0FFF1FE45DFA4F718360838230E5
:102DF000E1F018F4813069F004C0833019F18430B7
:102E000071F1809169008C7F842B80936900E89A2E
:102E1000089580916900440F551F440F551F837F0B
:102E2000842B80936900E99A08958091690034E0C9
:102E3000440F551F3A95E1F78F7C842B80936900EE
:102E4000EA9A08958091690026E0440F551F2A955B
:102E5000E1F78F73842B80936900EB9A089580913A
:102E60006A0094E0440F551F9A95E1F78F7C842BFC
:102E700080936A00EE9A08958530D8F4823061F02C
:102E800018F4813039F004C0833041F0843041F0CF
:102E9000E89807C0E99805C0EA9803C0EB9801C01C
:102EA000EE98E82FF0E0EE0FFF1FE45DFA4F11827D
:102EB000108208951F920F920FB60F9211242F9334
:102EC0003F934F935F936F937F938F939F93AF93B2
:102ED000BF93EF93FF9380912C0590912D05892B43
:102EE00029F0E0912C05F0912D050995FF91EF91C6
:102EF000BF91AF919F918F917F916F915F914F9112
:102F00003F912F910F900FBE0F901F9018951F9219
:102F10000F920FB60F9211242F933F934F935F930D
:102F20006F937F938F939F93AF93BF93EF93FF9391
:102F300080912E0590912F05892B29F0E0912E0587
:102F4000F0912F050995FF91EF91BF91AF919F915E
:102F50008F917F916F915F914F913F912F910F9042
:102F60000FBE0F901F9018951F920F920FB60F92E1
:102F700011242F933F934F935F936F937F938F937E
:102F80009F93AF93BF93EF93FF9380913005909100
:102F90003105892B29F0E0913005F0913105099533
:102FA000FF91EF91BF91AF919F918F917F916F9121
:102FB0005F914F913F912F910F900FBE0F901F90F7
:102FC00018951F920F920FB60F9211242F933F93D3
:102FD0004F935F936F937F938F939F93AF93BF9321
:102FE000EF93FF938091320590913305892B29F05F
:102FF000E0913205F09133050995FF91EF91BF9172
:10300000AF919F918F917F916F915F914F913F9180
:103010002F910F900FBE0F901F9018951F920F9237
:103020000FB60F9211242F933F934F935F936F939B
:103030007F938F939F93AF93BF93EF93FF93809171
:10304000340590913505892B29F0E0913405F091F4
:1030500035050995FF91EF91BF91AF919F918F91A8
:103060007F916F915F914F913F912F910F900FBE84
:103070000F901F9018951F920F920FB60F92112468
:103080002F933F938F939F93AF93BF938091370577
:1030900090913805A0913905B0913A0530913605E7
:1030A00023E0230F2D3720F40196A11DB11D05C08B
:1030B00026E8230F0296A11DB11D209336058093AB
:1030C000370590933805A0933905B0933A05809160
:1030D0003B0590913C05A0913D05B0913E050196C0
:1030E000A11DB11D80933B0590933C05A0933D0528
:1030F000B0933E05BF91AF919F918F913F912F91DA
:103100000F900FBE0F901F9018952FB7F8946091F5
:103110003705709138058091390590913A052FBF98
:1031200008953FB7F89480913B0590913C05A0919C
:103130003D05B0913E0526B5A89B05C02F3F19F06F
:103140000196A11DB11D3FBF6627782F892F9A2FA9
:10315000620F711D811D911D42E0660F771F881F50
:10316000991F4A95D1F70895CF92DF92EF92FF927F
:10317000CF93DF936B017C010E949118EB01C11486
:10318000D104E104F10489F00E9430230E949118D7
:103190006C1B7D0B683E734090F381E0C81AD10828
:1031A000E108F108C851DC4FEACFDF91CF91FF90E1
:1031B000EF90DF90CF900895789484B5826084BDBD
:1031C00084B5816084BD85B5826085BD85B581602B
:1031D00085BDEEE6F0E0808181608083E1E8F0E08B
:1031E0001082808182608083808181608083E0E8BA
:1031F000F0E0808181608083E1E9F0E0808182609D
:103200008083808181608083E0E9F0E0808181605B
:103210008083E1ECF0E08081846080838081826043
:103220008083808181608083E3ECF0E08081816035
:103230008083E0ECF0E0808182608083E2ECF0E06B
:10324000808181608083EAE7F0E080818460808310
:1032500080818260808380818160808380818068BA
:10326000808308951F93CF93DF93182FEB0161E0C4
:103270000E94061A209711F460E004C0CF3FD105E8
:1032800039F461E0812FDF91CF911F910C943F1AA7
:10329000E12FF0E0E55AFD4F449150E0FA013197FB
:1032A000EF30F10508F06CC0EA5AFF4F0C949426F9
:1032B00084B5806884BDC7BD68C084B5806284BDA4
:1032C000C8BD63C080918000806880938000D093E7
:1032D0008900C093880059C08091800080628093EB
:1032E0008000D0938B00C0938A004FC080918000F3
:1032F000886080938000D0938D00C0938C0045C07F
:1033000080919000806880939000D0939900C09342
:1033100098003BC080919000806280939000D09391
:103320009B00C0939A0031C0809190008860809388
:103330009000D0939D00C0939C0027C08091C00056
:1033400080688093C0008091C0008F7B8093C00014
:10335000C093CF001AC08091C00080628093C000EB
:10336000C093D00012C08091C20088608093C200D8
:103370008091C2008B7F8093C200C093D20005C0B1
:10338000C038D1050CF07DCF77CFDF91CF911F9161
:10339000089590E0FC013197EF30F105B0F5EB595D
:1033A000FF4F0C949426809180008F7703C080910A
:1033B00080008F7D80938000089580918000877FBA
:1033C000F9CF84B58F7702C084B58F7D84BD089511
:1033D000809190008F7707C0809190008F7D03C00F
:1033E00080919000877F8093900008958091C00025
:1033F0008F7703C08091C0008F7D8093C0000895B7
:103400008091C200877F8093C2000895CF93DF939D
:1034100090E0FC01E758FD4F2491FC01E956FD4F77
:103420008491882349F190E0880F991FFC01EF52A5
:10343000FD4FA591B4918D539D4FFC01C591D49141
:103440009FB7611108C0F8948C91209582238C93CA
:10345000888182230AC0623051F4F8948C91322F13
:10346000309583238C938881822B888304C0F894C1
:103470008C91822B8C939FBFDF91CF9108950F93F6
:103480001F93CF93DF931F92CDB7DEB7282F30E085
:10349000F901E55AFD4F8491F901E758FD4F149168
:1034A000F901E956FD4F04910023C9F0882321F06A
:1034B00069830E94C9196981E02FF0E0EE0FFF1FB8
:1034C000ED53FD4FA591B4919FB7F8948C91611184
:1034D00003C01095812301C0812B8C939FBF0F9057
:1034E000DF91CF911F910F910895CF93DF93282FF4
:1034F00030E0F901E55AFD4F8491F901E758FD4F9D
:10350000D491F901E956FD4FC491CC2391F081117A
:103510000E94C919EC2FF0E0EE0FFF1FEB54FD4F96
:10352000A591B4912C912D2381E090E021F480E0CD
:1035300002C080E090E0DF91CF910895CF93DF93B8
:103540001F92CDB7DEB76983DC01ED91FC9102805B
:10355000F381E02D41E050E0BE016F5F7F4F0995A0
:103560000F90DF91CF910895CF93DF93EC018C857D
:103570009D8597FF05C082E00E94B91F9D878C87BB
:103580008C859D85DF91CF91089583E00C940E2268
:10359000FC018485958597FD06C082E00E94611F2D
:1035A00090E00196089582E00E94611F90E00895E6
:1035B000FC018485958597FD05C02FEF3FEF35878A
:1035C0002487089582E00C94B91FCF93DF93EC0118
:1035D00080910F01882331F083E00E94EA1F1816C2
:1035E000190634F081E090E09B838A8380E090E0CC
:1035F000DF91CF910895FC0120812E5F208342E46A
:1036000050E06FED72E080E80C948520FC01818130
:103610009081913A59F4813209F03CC047E050E082
:1036200068E071E080E00E94852043C0913291F50E
:10363000803239F467E070E088E091E00E94B620C3
:1036400006C0823209F035C0828180930F018091DB
:10365000080190910901A0910A01B0910B01803BF2
:103660009440A105B105C1F480910F0180FD14C003
:1036700087E797E790930108809300082BE088E1A3
:1036800090E00FB6F894A895809360000FBE209349
:1036900060000FC080E0089588E10FB6F894809331
:1036A0006000109260000FBEA89510920108109261
:1036B000000881E008952FEF3FEFFC013587248754
:1036C0000895CF93C0910F016AE070E080E090E030
:1036D0000E94B41881E0C11101C080E0CF9108952B
:1036E000109242051092410588EE93E0A0E0B0E010
:1036F0008093430590934405A0934505B0934605F8
:103700008BE393E09093400580933F058FEF9FEF0D
:1037100090934C0580934B050895FC01818D228D7B
:1037200090E0805C9F4F821B91098F7399270895C9
:10373000FC01918D828D981731F0828DE80FF11D7B
:10374000858D90E008958FEF9FEF0895FC01918D96
:10375000828D981761F0828DDF01A80FB11D5D96F3
:103760008C91928D9F5F9F73928F90E008958FEF61
:103770009FEF08958AE29DE1892B49F080E090E077
:10378000892B29F00E942A1D81110C9400000895B4
:10379000FC01848DDF01A80FB11DA35ABF4F2C91EE
:1037A000848D90E001968F739927848FA689B789BD
:1037B0002C93A089B1898C9180648C93938D848D96
:1037C000981306C00288F389E02D80818F7D808365
:1037D0000895CF93DF93EC01888D8823C9F0EA899F
:1037E000FB89808185FD05C0A889B9898C9186FDFA
:1037F0000FC00FB607FCF5CF808185FFF2CFA889F7
:10380000B9898C9185FFEDCFCE010E94C81BE7CF0F
:10381000DF91CF910895CF92DF92FF920F931F9384
:10382000CF93DF931F92CDB7DEB76C01DC015B96BF
:103830009C915B975C968C915C97981307C050960F
:10384000ED91FC915197808185FD32C0F601038D89
:1038500010E00F5F1F4F0F731127F02EF601848DBC
:10386000F81211C00FB607FCF9CFD6015096ED91B2
:10387000FC915197808185FFF1CFC60169830E9439
:10388000C81B6981EBCF838DE80FF11DE35AFF4F11
:103890006083D6015B960C935B975296ED91FC91F9
:1038A000539780818062808381E058968C930DC00D
:1038B000D6015696ED91FC91579760835096ED9105
:1038C000FC91519780818064808381E090E00F902B
:1038D000DF91CF911F910F91FF90DF90CF900895CE
:1038E000BF92CF92DF92EF92FF92CF93DF93EC01E2
:1038F0006A017B01B22EE889F98982E08083411553
:1039000081EE580761057105A1F060E079E08DE373
:1039100090E0A70196010E947226215031094109C9
:1039200051095695479537952795211580E1380718
:1039300098F0E889F989108260E874E88EE190E0F7
:10394000A70196010E9472262150310941095109AF
:103950005695479537952795EC85FD853083EE85FF
:10396000FF852083188EEC89FD89B082EA89FB8966
:10397000808180618083EA89FB898081886080837F
:10398000EA89FB89808180688083EA89FB8980815C
:103990008F7D8083DF91CF91FF90EF90DF90CF906C
:1039A000BF9008951F920F920FB60F9211242F937C
:1039B0008F939F93EF93FF93E0919F05F091A00564
:1039C0008081E091A505F091A60582FD12C090814D
:1039D0008091A8058F5F8F732091A905821751F000
:1039E000E091A805F0E0E157FA4F958F8093A80584
:1039F00001C08081FF91EF919F918F912F910F9046
:103A00000FBE0F901F9018951F920F920FB60F9236
:103A100011242F933F934F935F936F937F938F93D3
:103A20009F93AF93BF93EF93FF938FE895E00E942E
:103A3000C81BFF91EF91BF91AF919F918F917F91A3
:103A40006F915F914F913F912F910F900FBE0F900B
:103A50001F9018958FE895E00E948D1B21E0892B1F
:103A600009F420E0822F089510929205109291059A
:103A700088EE93E0A0E0B0E08093930590939405E6
:103A8000A0939505B09396058BE493E090939005F1
:103A900080938F058DEC90E090939C0580939B051F
:103AA0008CEC90E090939E0580939D0588EC90E0CF
:103AB0009093A00580939F0589EC90E09093A205D8
:103AC0008093A1058AEC90E09093A4058093A305D0
:103AD0008EEC90E09093A6058093A5051092A80522
:103AE0001092A9051092AA051092AB0508950895A9
:103AF0000E94DC180E94771D8CE296E00E946E22E4
:103B00000E949E0ACAEBDBE10E94B90F2097E1F305
:103B10000E94BA1BF9CF0C94AE26CF92DF92EF929F
:103B2000FF920F931F93CF93DF936C017A01EB0108
:103B3000E60EF71E00E010E0CE15DF0561F069919A
:103B4000D601ED91FC910190F081E02DC60109951F
:103B5000080F191FF1CFC801DF91CF911F910F916D
:103B6000FF90EF90DF90CF900895EF92FF920F9328
:103B70001F93CF93DF938C01FB01C0E0D0E06491F1
:103B80007F018FEFE81AF80A662361F0D801ED9102
:103B9000FC910190F081E02DC8010995C80FD91F53
:103BA000F701EDCFCE01DF91CF911F910F91FF90E3
:103BB000EF900895DC01ED91FC91DB0114964D919D
:103BC0005C9115976D917C910280F381E02D0994B1
:103BD0000C946305DC01ED91FC910190F081E02DE6
:103BE00009940F931F93CF93DF93EC016DE00E9434
:103BF000EA1D8C016AE0CE010E94EA1D800F911F30
:103C0000DF91CF911F910F9108950F931F93CF9341
:103C1000DF93EC010E94B51D8C01CE010E94F11DC5
:103C2000800F911FDF91CF911F910F9108950F93F6
:103C30001F93CF93DF93EC010E9463058C01CE01AB
:103C40000E94F11D800F911FDF91CF911F910F9165
:103C500008958F929F92AF92BF92CF92DF92EF9290
:103C6000FF920F931F93CF93DF93CDB7DEB7A1974A
:103C70000FB6F894DEBF0FBECDBF7C01C42EE52F7A
:103C8000CB01D22E19A221E02D1510F02AE0D22E60
:103C90008E010F5D1F4F8D2C912CA12CB12C6C2D02
:103CA0007E2FA50194010E9472268C2DD29E801930
:103CB0001124015011098A3014F4805D01C0895C1F
:103CC000F8018083211531054105510521F0C22EEF
:103CD000E32FCA01E4CFB801C7010E946305A19692
:103CE0000FB6F894DEBF0FBECDBFDF91CF911F910D
:103CF0000F91FF90EF90DF90CF90BF90AF909F908B
:103D00008F900895CF92DF92EF92FF920F931F93BF
:103D1000CF93DF93EC016A017B012115310579F422
:103D2000E881F9810190F081E02D642FDF91CF913E
:103D30001F910F91FF90EF90DF90CF9009942A3060
:103D40003105E9F477FF1AC06DE20E94EA1D8C018B
:103D500044275527BA014C195D096E097F092AE0ED
:103D6000CE010E94291E800F911FDF91CF911F91DC
:103D70000F91FF90EF90DF90CF9008952AE0B70168
:103D8000A601CE01DF91CF911F910F91FF90EF908F
:103D9000DF90CF900C94291E9A01AB01662757FD46
:103DA0006095762F0C94821E2115310541F4DC01BB
:103DB000ED91FC910190F081E02D642F09940C9419
:103DC000291E9A01462F50E060E070E00C94D41E4A
:103DD000409130065091310620912E0630912F06E9
:103DE00042175307B4F49091E8009570E1F3909175
:103DF000E80092FD19C08093F10080913006909107
:103E0000310601968F739927892B19F48EEF8093D1
:103E1000E80080913006909131060196909331062A
:103E20008093300681E0089580E00895CF92DF927C
:103E3000FF920F931F93CF93DF931F92CDB7DEB7FF
:103E4000082F162F862F880F8E5F99830E94E81EF9
:103E500083E00E94E81EF02EC02E9981D92E8C2D71
:103E60008F19811778F4F60184910E94E81E082FBB
:103E700080E00E94E81E8023FFEFCF1ADF0A811145
:103E8000EECF01C081E00F90DF91CF911F910F9194
:103E9000FF90DF90CF900895615030F02091F100B5
:103EA000FC0120830196F8CF289884E6809333069E
:103EB00008952FB7FC012083F89467706093E900A0
:103EC0000895CF93DF931F92CDB7DEB7682FCE0151
:103ED00001960E94591F8091F20099819FBF0F9017
:103EE000DF91CF910895FF920F931F93CF93DF93AC
:103EF00000D0CDB7DEB7F62E8A0190913206992315
:103F000011F057FF03C08FEF9FEF2BC0682FCE013A
:103F100001967A830E94591F8091F20090E0A801D7
:103F20007A81801791070CF4AC01EF2DF72FF40E76
:103F300084E6FE1639F02898809333069091F100BC
:103F40009193F7CF4115510521F08091F20088231C
:103F500021F089818FBFCA0104C08BE68093E800FD
:103F6000F8CF0F900F90DF91CF911F910F91FF909D
:103F70000895CF93DF931F92CDB7DEB741E050E0B5
:103F8000BE016F5F7F4F0E94731F019719F48981F3
:103F900090E002C08FEF9FEF0F90DF91CF910895D7
:103FA000CF93DF931F92CDB7DEB7682FCE01019676
:103FB0000E94591F9091E800892F807295FF04C0DC
:103FC0009091F20080E4891B99819FBF0F90DF914F
:103FD000CF9108956F927F928F929F92AF92BF92EE
:103FE000CF92DF92EF92FF920F931F93CF93DF93C5
:103FF0001F92CDB7DEB7782E7B01C42EB52E8091EF
:104000003206882369F0042F152F8AEFD82E872DCA
:104010008072982E9AE3A92E872D8074882E11C065
:104020008FEF9FEF57C0872D0E94D01F682E811100
:104030000CC0DA94A9F361E070E080E090E00E94A7
:10404000B4180115110579F73BC0282F30E002178D
:1040500013070CF4602E672DCE0101960E94591FA4
:104060008091E80085FF29C0262D30E0021B130B4C
:10407000992039F06A948FEF6816B1F01092F10030
:10408000F9CFF701862D77FE07C0815058F0949143
:104090009093F1003196F9CF815020F09191909357
:1040A000F100FACFE20EF31E8091E80085FF0FC009
:1040B0000115110511F481100AC089818FBFC1CF8C
:1040C0005D9884E6809334068C2D9B2D03C0A092CE
:1040D000E800F3CF0F90DF91CF911F910F91FF90E8
:1040E000EF90DF90CF90BF90AF909F908F907F9098
:1040F0006F9008951092E9001092310610923006E8
:1041000090932F0680932E060895CF92DF92FF9210
:104110000F931F93CF93DF9300D0CDB7DEB7F82E68
:104120008A016B0101151105B1F0F601F7FE02C01D
:10413000849101C0808149835A830E94E81E015006
:104140001109FFEFCF1ADF0A49815A818111EACFA5
:104150008FEF9FEF01C0CA010F900F90DF91CF91B9
:104160001F910F91FF90DF90CF9008951F93CF93F1
:10417000DF931F92CDB7DEB7162F2091E80022FF04
:10418000FCCF612F79830E944C1F8BEF8093E80056
:10419000812F7981972F0F90DF91CF911F910895F3
:1041A000CF93DF931F92CDB7DEB71982CE01019670
:1041B0000E94FB1ACE0101960E944F23898190E054
:1041C0000F90DF91CF9108951F920F920FB60F922B
:1041D0001124EF92FF920F931F932F933F934F93CE
:1041E0005F936F937F938F939F93AF93BF93EF935F
:1041F000FF93CF93DF93CDB7DEB76297DEBFCDBF1E
:104200001092E9008091E80083FFEBC068E0CE01E6
:104210000A960E944C1F82EF8093E8009A8597FFD0
:1042200005C08091E80080FFFCCF03C08EEF809333
:10423000E800892F807609F0B9C08B85811105C00F
:104240001092F1001092F100C5C0282F2D7F21306F
:1042500009F4C0C0853049F48091E80080FFFCCFAC
:104260008C8580688093E300B5C0863009F076C005
:104270002D85E888F988223071F580E090E02A8B5E
:104280000E947A200E94D02099E08E010F5F1F4F7C
:10429000F801392F11923A95E9F799832A892A83EF
:1042A00091E09E8390E898879AEF99872091300655
:1042B00030913106275F3F4F3C832B838D83C701AD
:1042C0000E947A2049E050E0B80180E00E948520F9
:1042D0000E94D0207FC0C7012A8B0E947A202A89A1
:1042E000223241F482E290E00E945A23892B09F0A5
:1042F00071C074C0213069F488899989089711F4D4
:1043000020932D0680912D06811118C068E373E07B
:104310001AC0233009F062C08C85882391F0823066
:1043200021F46DE086E593E006C0813009F056C0C7
:104330006BE08AE493E00E94161F4AC066E273E0D5
:1043400002C064E673E06115710509F447C0FB0122
:10435000449150E080E80E9485203CC0873009F4F9
:104360003DC0883021F481E08093F10033C0893072
:1043700089F5937099F5E2E2F3E081E021E096E3BC
:104380008093E9002093EB0034913093EC009093FC
:10439000ED008F5F3196853099F78EE78093EA00C4
:1043A0001092EA008C858093320614C0888999891E
:1043B0000E947A208E85811105C0CE010A960E9446
:1043C000061B06C0823051F4CE010A960E94822359
:1043D000882321F08EEF8093E80003C081E2809370
:1043E000EB0062960FB6F894DEBF0FBECDBFDF9133
:1043F000CF91FF91EF91BF91AF919F918F917F915D
:104400006F915F914F913F912F911F910F91FF906D
:10441000EF900F900FBE0F901F9018958093E900BA
:104420008091F200882319F08AE38093E8000895D0
:104430001F920F920FB60F9211242F933F934F9319
:104440005F936F937F938F939F93AF93BF93EF93FC
:10445000FF938091E1001092E10083FF0FC0109262
:10446000E90091E09093EB001092EC0092E39093BE
:10447000ED001092320698E09093F00082FF1DC08C
:1044800083E00E940E2280913406882339F08091C7
:104490003406815080933406882369F08091330676
:1044A000882359F08091330681508093330681111F
:1044B00004C0289A02C05D9AF1CFFF91EF91BF919D
:1044C000AF919F918F917F916F915F914F913F91AC
:1044D0002F910F900FBE0F901F90189510923206DB
:1044E00081E08093D70080EA8093D80082E189BD83
:1044F00009B400FEFDCF61E070E080E090E00E9432
:10450000B41880E98093D8008CE08093E200109288
:10451000E000559A209A0895FC01808191810C94C5
:104520004627CF93DF93EC0188819981009711F0A2
:104530000E944627198218821D821C821B821A82C1
:10454000DF91CF9108950F931F93CF93DF93EC01E9
:104550008B016F5F7F4F888199810E94D5270097DB
:1045600031F0998388831B830A8381E001C080E056
:10457000DF91CF911F910F910895CF93DF93EC01BD
:1045800088819981892B29F08A819B8186179707D9
:1045900060F4CE010E94A322882341F08C819D818A
:1045A000892B19F4E881F981108281E0DF91CF91A4
:1045B0000895EF92FF920F931F93CF93DF93EC0137
:1045C0007B018A01BA010E94BD22811104C0CE0183
:1045D0000E94912207C01D830C83B70188819981B5
:1045E0000E94A828CE01DF91CF911F910F91FF90DB
:1045F000EF900895FC0111821082138212821582BD
:1046000014826115710559F0FB0101900020E9F752
:10461000AF0141505109461B570B0C94D922089504
:10462000CF93DF93EC01FB018617970761F0608160
:1046300071816115710529F0448155810E94D9224B
:1046400002C00E949122CE01DF91CF910895FC011A
:104650001182108213821282158214820C9410230C
:104660000895FF920F931F93CF93DF93EC01F62EE3
:10467000E881F9810480F581E02D09958C01E881BC
:10468000F9810680F781E02D6F2DCE010995C801D3
:104690009927DF91CF911F910F91FF900895FC0111
:1046A00020812F5F208349E150E068EE73E080E8CD
:1046B0000C94852045E650E061E074E080E80C94BD
:1046C0008520EF92FF920F931F93CF93DF931F925A
:1046D000CDB7DEB789838B017A0141E050E0BE019E
:1046E0006F5F7F4F84E00E94EA1FA701B80184E456
:1046F0000E94EA1F0F90DF91CF911F910F91FF90C1
:10470000EF900895FC0191818081813A31F481E03C
:10471000913091F0933089F411C0813271F49B3063
:1047200021F482818093110105C09A3031F4828195
:104730008093100181E00895089580E0089548E095
:1047400050E082E00C946123CF93DF93DC01683862
:1047500018F0E8E7E60F25C0E62FF0E067FF11C08C
:10476000E058F10981E090E001C0880FEA95EAF78E
:1047700014969C911497982B14969C931497E0E0B0
:1047800010C0E859FC4FE491EE2309F440C0E7FF64
:1047900008C014968C911497826014968C93149789
:1047A000EF7716968C9116978E1741F117968C918C
:1047B00017978E1719F118968C9118978E17F1F09C
:1047C00019968C9119978E17C9F01A968C911A9791
:1047D0008E17A1F01B968C911B978E1779F080E0B5
:1047E00090E0ED01C80FD91F2E81211102C0EE8388
:1047F00005C0019686309105A1F709C0BD016C5F27
:104800007F4FCD010E949F2381E090E008C081E0AE
:1048100090E013969C938E93129780E090E0DF9146
:10482000CF910895683818F0E8E7E60F25C0E62F25
:10483000F0E067FF12C0E058F10921E030E001C06C
:10484000220FEA95EAF72095DC0114963C91149723
:10485000322314963C93E0E00FC0E859FC4FE491FA
:10486000EE2329F1E7FF08C0DC0114962C91149780
:104870002D7F14962C93EF7720E030E0EE2351F05B
:10488000DC01A20FB31F16964C9116974E1302C06F
:1048900016961C922F5F3F4F2630310579F7BC01E9
:1048A0006C5F7F4F0E949F2381E090E0089580E03D
:1048B00090E00895FC0116821782108611861286F8
:1048C00013861482BC016C5F7F4F0C949F2310925F
:1048D000410610923806109237068BE593E09093CC
:1048E00036068093350608955058BB27AA270ED068
:1048F00048C139D130F03ED120F031F49F3F11F45E
:104900001EF42EC10EF4E095E7FB24C1E92F4AD135
:1049100080F3BA17620773078407950718F071F4DC
:104920009EF562C10EF4E0950B2EBA2FA02D0B015F
:10493000B90190010C01CA01A0011124FF27591BE4
:1049400099F0593F50F4503E68F11A16F040A22FEA
:10495000232F342F4427585FF3CF4695379527955B
:10496000A795F0405395C9F77EF41F16BA0B620B5A
:10497000730B840BBAF09150A1F0FF0FBB1F661FA1
:10498000771F881FC2F70EC0BA0F621F731F841FE4
:1049900048F4879577956795B795F7959E3F08F00A
:1049A000B3CF9395880F08F09927EE0F97958795C9
:1049B00008950CD0E6C0DED040F0D5D030F021F420
:1049C0005F3F19F0C7C0511110C1CAC0EBD098F3B6
:1049D0009923C9F35523B1F3951B550BBB27AA2780
:1049E00062177307840738F09F5F5F4F220F331FF2
:1049F000441FAA1FA9F333D00E2E3AF0E0E830D0BE
:104A000091505040E695001CCAF729D0FE2F27D0C0
:104A1000660F771F881FBB1F261737074807AB078E
:104A2000B0E809F0BB0B802DBF01FF2793585F4F03
:104A30002AF09E3F510568F08DC0D7C05F3FECF370
:104A4000983EDCF3869577956795B795F7959F5FC8
:104A5000C9F7880F911D9695879597F90895E1E01C
:104A6000660F771F881FBB1F621773078407BA077B
:104A700020F0621B730B840BBA0BEE1F88F7E095D6
:104A8000089598D088F09F5790F0B92F9927B75183
:104A9000A0F0D1F0660F771F881F991F1AF0BA9502
:104AA000C9F712C0B13081F09FD0B1E008959CC029
:104AB000672F782F8827B85F39F0B93FCCF38695F8
:104AC00077956795B395D9F73EF490958095709555
:104AD00061957F4F8F4F9F4F0895E89409C097FBD2
:104AE0003EF490958095709561957F4F8F4F9F4FC5
:104AF0009923A9F0F92F96E9BB279395F695879509
:104B000077956795B795F111F8CFFAF4BB0F11F4CB
:104B100060FF1BC06F5F7F4F8F4F9F4F16C0882372
:104B200011F096E911C0772321F09EE8872F762FA8
:104B300005C0662371F096E8862F70E060E02AF0E9
:104B40009A95660F771F881FDAF7880F96958795D5
:104B500097F9089597F99F6780E870E060E00895FD
:104B60009FEF80EC089500240A9416161706180685
:104B70000906089500240A94121613061406050661
:104B80000895092E0394000C11F4882352F0BB0FF2
:104B900040F4BF2B11F460FF04C06F5F7F4F8F4F55
:104BA0009F4F089557FD9058440F551F59F05F3F90
:104BB00071F04795880F97FB991F61F09F3F79F03F
:104BC00087950895121613061406551FF2CF4695C1
:104BD000F1DF08C0161617061806991FF1CF869543
:104BE0007105610508940895E894BB276627772727
:104BF000CB0197F908950BD0C4CFB5DF28F0BADF09
:104C000018F0952309F0A6CFABCF1124EECFCADF61
:104C1000A0F3959FD1F3950F50E0551F629FF001CF
:104C2000729FBB27F00DB11D639FAA27F00DB11D28
:104C3000AA1F649F6627B00DA11D661F829F2227B1
:104C4000B00DA11D621F739FB00DA11D621F839F38
:104C5000A00D611D221F749F3327A00D611D231F0E
:104C6000849F600D211D822F762F6A2F11249F575C
:104C700050408AF0E1F088234AF0EE0FFF1FBB1F7F
:104C8000661F771F881F91505040A9F79E3F51051E
:104C900070F060CFAACF5F3FECF3983EDCF38695CF
:104CA00077956795B795F795E7959F5FC1F7FE2BC9
:104CB000880F911D9695879597F9089597FB072E74
:104CC00016F4009407D077FD09D00E949A2607FCBD
:104CD00005D03EF4909581959F4F0895709561950C
:104CE0007F4F0895A1E21A2EAA1BBB1BFD010DC028
:104CF000AA1FBB1FEE1FFF1FA217B307E407F5078C
:104D000020F0A21BB30BE40BF50B661F771F881F67
:104D1000991F1A9469F760957095809590959B01FD
:104D2000AC01BD01CF010895EE0FFF1F0590F49176
:104D3000E02D0994AA1BBB1B51E107C0AA1FBB1F92
:104D4000A617B70710F0A61BB70B881F991F5A9517
:104D5000A9F780959095BC01CD010895CF93DF937D
:104D60008230910510F482E090E0E0914406F091E9
:104D7000450620E030E0A0E0B0E0309739F1408116
:104D8000518148175907B8F04817590771F48281C3
:104D90009381109729F013969C938E9312972CC0B1
:104DA000909345068093440627C02115310531F0C4
:104DB0004217530718F0A901DB0101C0EF019A0166
:104DC000BD01DF010280F381E02DD7CF2115310530
:104DD000F9F0281B390B2430310580F48A819B813E
:104DE0006115710521F0FB019383828304C09093C8
:104DF000450680934406FE01329644C0FE01E20F50
:104E0000F31F8193919322503109398328833AC04B
:104E10002091420630914306232B41F42091020158
:104E20003091030130934306209342062091000104
:104E3000309101012115310541F42DB73EB7409164
:104E4000040150910501241B350BE0914206F091BD
:104E50004306E217F307A0F42E1B3F0B2817390770
:104E600078F0AC014E5F5F4F2417350748F04E0FC6
:104E70005F1F50934306409342068193919302C073
:104E8000E0E0F0E0CF01DF91CF910895CF93DF9381
:104E9000009709F487C0FC01329713821282C091F7
:104EA0004406D0914506209781F420813181280F56
:104EB000391F80914206909143068217930779F536
:104EC000F0934306E09342066DC0DE0120E030E03F
:104ED000AE17BF0750F412964D915C9113979D0148
:104EE0004115510509F1DA01F3CFB383A283408163
:104EF0005181840F951F8A179B0771F48D919C91A6
:104F00001197840F951F02969183808312968D913D
:104F10009C911397938382832115310529F4F09393
:104F20004506E09344063EC0D9011396FC93EE93E8
:104F300012974D915D91A40FB51FEA17FB0779F405
:104F400080819181840F951F0296D90111969C93BF
:104F50008E938281938113969C938E931297E0E0B7
:104F6000F0E08A819B81009719F0FE01EC01F9CFF6
:104F7000CE01029628813981820F931F209142062B
:104F8000309143062817390769F4309729F41092B5
:104F900045061092440602C013821282D093430643
:104FA000C0934206DF91CF910895A0E0B0E0EBED11
:104FB000F7E20C94E328EC01CB01209719F40E944E
:104FC000AE26B8C0FE01E60FF71F9E012250310940
:104FD000E217F30708F4ACC0D9010D911C911197A9
:104FE00006171707B8F00530110508F49FC0A8018F
:104FF000445051094617570708F498C00250110948
:10500000061B170B019311936D937C93CF010E94A4
:1050100046278CC05B01A01AB10A4E01800E911E7A
:10502000A0914406B0914506612C712C60E070E0BF
:10503000109709F449C0A815B905C9F5ED90FC9081
:105040001197670142E0C40ED11CCA14DB0478F149
:1050500047018A189B08640142E0C40ED11C1296D5
:10506000BC9012971396AC91B5E0CB16D10440F0EA
:10507000B282A38391828082D9018D939C9309C0CF
:105080000E5F1F4F0E0D1F1DF90111830083EB2DC5
:10509000FA2F6115710531F0DB011396FC93EE9345
:1050A000129744C0F0934506E09344063FC06D91CB
:1050B0007C9111976616770608F43B01BD011296A4
:1050C0000D90BC91A02DB4CF609142067091430623
:1050D00068157905E9F468167906D0F44091000165
:1050E000509101014115510541F44DB75EB76091F2
:1050F000040170910501461B570BE417F507C0F436
:10510000F0934306E0934206F901918380830EC039
:105110000E94AE267C01009759F0A801BE010E94B2
:105120009F28CE010E944627C70104C0CE0102C0BD
:1051300080E090E0CDB7DEB7EEE00C94FF28FB01F5
:10514000DC0102C001900D9241505040D8F7089503
:10515000FB01DC0101900D920020E1F70895DC01D4
:10516000CB01FC01F999FECF06C0F2BDE1BDF89A72
:10517000319600B40D9241505040B8F70895F99916
:10518000FECF92BD81BDF89A992780B50895DC01C4
:10519000CB0103C02D910E94D22841505040D0F73E
:1051A0000895262FF999FECF1FBA92BD81BD20BD6B
:1051B0000FB6F894FA9AF99A0FBE019608952F92B5
:1051C0003F924F925F926F927F928F929F92AF9297
:1051D000BF92CF92DF92EF92FF920F931F93CF93E4
:1051E000DF93CDB7DEB7CA1BDB0B0FB6F894DEBF7B
:1051F0000FBECDBF09942A88398848885F846E84A1
:105200007D848C849B84AA84B984C884DF80EE80EA
:10521000FD800C811B81AA81B981CE0FD11D0FB6F3
:10522000F894DEBF0FBECDBFED01089514E0CEE6C9
:10523000D4E004C0FE010E9496262296C037D10712
:06524000C9F7F894FFCF4E
:10524600000046068000040000E1000000000000A7
:1052560001010101007D00F4017D00000000000055
:105266000200000007E0013C000000000441053C8C
:10527600000028100001000AFFD8454754202020CE
:1052860020200201000007E0013400000000044174
:10529600053400002810000F0D2000004146202094
:1052A600202020200201000007E022DA850000000D
:1052B600046205DA0685300800170014000041462E
:1052C600524F424420200200000007E02203EC0077
:1052D60000000462050306EC301000010005000022
:1052E6004B4E4F434B2020200200000007E022F4E3
:1052F60023000000046205F406233010001D00148C
:105306000000465052004B2020200200000007E01B
:105316002203180000000462050306183010000678
:105326000001000043414D44454720200200000093
:10533600073722596A00000004620559066A3010D0
:10534600000B0064000050574549474854200200AE
:10535600000007E02203CA0000000462050306CA33
:10536600300800090005FFD84241545445525920DF
:10537600FFFFFFFFFFFFFFFFFFFFFFFFFFFFFFFF37
:10538600FFFFFFFFFFFFFFFFFFFFFFFFFFFFFFFF27
:105396000D003A0051554555453A206572726F72B7
:1053A6002064756520746F20756E6465736972611B
:1053B600626C652073697A6520666F722071756507
:1053C60075652073697A652E0051554555453A2015
:1053D600696E73756666696369656E74206D656D61
:1053E6006F727920746F20696E697469616C697A6D
:1053F600652074656D706F7261727920717565755F
:10540600652E0051554555453A2063616E27742037
:10541600706F70206974656D2066726F6D2071758E
:105426006575653A20717565756520697320656DCA
:105436007074792E004275732031004275732032E4
:1054460000427573203300000000006202640263AC
:105456000200000000AB11D9068402000000002DF6
:105466000EA702850200000000CF038F02860244C9
:10547600656661756C7400000000009E1AE51AC826
:105486001AD81AB41AC51A000000000B1C8D1D8DFF
:105496001BA61B981BE91B0000000031238D1DA4D1
:0654A6002312245A240029
:00000001FF
