:100000000C94FC020C94CC200C94F9200C94262126
:100010000C9453210C9424030C9424030C948021FD
:100020000C9424030C9424030C94BB2B0C94872A6B
:100030000C9424030C9424030C9424030C942403A4
:100040000C9424030C9424030C9424030C94240394
:100050000C9424030C9424030C9424030C94AD21DD
:100060000C9424030C9475260C94A7260C9424035A
:100070000C9424030C9424030C9424030C94240364
:100080000C9424030C9424030C9424030C94240354
:100090000C9424030C9424030C9424030C94240344
:1000A0000C9424030C9424030C942403ED0DF10D03
:1000B000F50DF90D160E160E160EFC0D0B0E160E86
:1000C000160E160E160E160E160E0F0E160E160E17
:1000D000160E160E160E130EFB22002305230F23F9
:1000E000192363236323632323232D2337234123EE
:1000F0004E23632356238423872376237A23802366
:10010000A823A823A8238B238F23932399239D23FC
:10011000A823A323227D002C20226E6578745478B6
:10012000427566666572223A2200222C2022657290
:10013000726F72223A2200222C202273746174752D
:1001400073223A2200222C202263616E6374726C47
:10015000223A22007B226576656E74223A2262750D
:1001600073646267222C20226E616D65223A220040
:10017000202D204E6F204572726F727322002C204A
:100180000A22225265636569766520427566666556
:10019000722031204F766572666C6F7722002C20BA
:1001A0000A225265636569766520427566666572E6
:1001B0002030204F766572666C6F7722002C200A03
:1001C00022427573204F6666202D205445432065DA
:1001D000786365656465642032353522002C200A19
:1001E000225472616E736D6974204572726F722051
:1001F0005761726E696E67202D20544543203E3D45
:100200002031323822002C200A225265636569763B
:1002100065204572726F72205761726E696E672039
:100220002D20524543203E3D2031323822002C20E3
:100230000A225472616E736D6974204572726F7216
:10024000205761726E696E67202D20544558203EFC
:100250003D20393622002C200A22526563656976DA
:1002600065204572726F72205761726E696E6720E9
:100270002D20524543203E3D2039362200220A22BD
:1002800052656365697665204572726F72205761A9
:10029000726E696E67202D20544543206F72205284
:1002A0004543203E3D2039362200227D00227D003C
:1002B0007B226576656E74223A22656570726F6D79
:1002C00044617461222C2022726573756C74223A29
:1002D000226661696C757265222C20226368756ED6
:1002E0006B223A22007B226576656E74223A226583
:1002F0006570726F6D53617665222C202272657372
:10030000756C74223A2273756363657373227D0082
:10031000227D007B226576656E74223A22656570C7
:10032000726F6D44617461222C2022726573756C4A
:1003300074223A2273756363657373222C202263DF
:1003400068756E6B223A22007D002C202772617442
:1003500065273A007B2765273A2762617564272C59
:100360002027627573273A007B2765273A27617536
:10037000746F62617564436F6D706C657465272C72
:10038000202772617465273A007B276576656E7455
:10039000273A276175746F626175645465737427B9
:1003A0002C202772617465273A007B226576656E82
:1003B00074223A22656570726F6D5265736574229E
:1003C0002C2022726573756C74223A2273756363F4
:1003D000657373227D00070605040100080A0B0CF3
:1003E0000D090000000200090F0000030401000CC9
:1003F00000000000000000000000000000000000FD
:100400000408020110408040102040804080080213
:10041000040180402010020110801020404004049C
:10042000040404030405020202020403020202029D
:100430000606060606060404020202040000000086
:100440002300260029002C002F00000000002500BA
:1004500028002B002E00310000000000240027009F
:100460002A002D003000080B0002020201000904DE
:100470000000010202000005240010010524010112
:10048000010424020605240600010705810310006B
:100490004009040100020A000000070502024000B2
:1004A000000705830240000000C18081C1120100E5
:1004B00002020000404123368000010102000112C7
:1004C00001000200000040412336800001010200CB
:1004D0000141726475696E6F204C4C430043414E7C
:1004E00042757320547269706C650004030904003E
:1004F000000000000000002A2B280000000000007F
:100500000000000000000000000000000000002CBF
:100510009EB4A0A1A2A434A6A7A5AE362D37382735
:100520001E1F20212223242526B333B62EB7B89FC1
:100530008485868788898A8B8C8D8E8F9091929303
:100540009495969798999A9B9C9D2F3130A3AD35A1
:100550000405060708090A0B0C0D0E0F10111213E3
:100560001415161718191A1B1C1DAFB1B0B50009C8
:1005700004020001030000000921010100012265BD
:10058000000705840340000105010902A1010901DA
:10059000A10085010509190129031500250195030D
:1005A0007501810295017505810305010930093145
:1005B00009381581257F750895038106C0C005019E
:1005C0000906A1018502050719E029E715002501A3
:1005D00075019508810295017508810395067508D6
:1005E000150025650507190029658100C0009F19C0
:1005F0001325D726632E821A11241FBECFEFDAE00F
:10060000DEBFCDBF14E0A0E0B1E0ECECFBE602C041
:1006100005900D92A836B107D9F727E0A8E6B4E017
:1006200001C01D92A435B207E1F715E0C6EFD5E091
:1006300004C02297FE010E94D330CE3ED107C9F7F5
:100640000E941B270C94D9350C940000089508953E
:1006500020E1FA01DC0101900D922A95E1F708955D
:10066000089508950895FA012585368522303105CB
:1006700061F02330310559F02130310569F423E070
:1006800030E03687258721E006C0178605C021E0C7
:1006900030E036872587278720E1DC0101900D9225
:1006A0002A95E1F7089521E0FB013081311101C065
:1006B00020E0FC0122830895FA0141815281DB018F
:1006C00017962D913C9118974217530731F41396C2
:1006D0001D921D921D921C92169720E1DC01019043
:1006E0000D922A95E1F708952F923F924F925F92D3
:1006F0006F927F928F929F92AF92BF92CF92DF9232
:10070000EF92FF920F931F93CF93DF93CDB7DEB796
:100710002E970FB6F894DEBF0FBECDBF4C01798780
:1007200068876A01DB011496ED91FC911597808131
:10073000E82FF0E0FB87EA87F2E28F9F8001112427
:1007400007521B4FE12CF12C8F5F8C87A885B98550
:100750001496ED91FC911597808190E001962A8581
:100760003B852E0D3F1D821793070CF4BBC09801EB
:1007700029513109F801759780813196811104C0A2
:100780009081992309F4A8C090E0982F8827408190
:10079000840F911D0896D60111964D915C91129788
:1007A0004817590709F098C080E090E0F901E80F78
:1007B000F91F4485442359F0D601A40FB11D5C9163
:1007C0004585541389C002968630910579F7F80162
:1007D000379780818695869586958250F601E80F39
:1007E000F11D6381D80116978C9170E0803129F456
:1007F000762F66278481680F711DF8013597A080D8
:10080000B12CBA2CAA2431968081A80EB11C319645
:10081000208130E0322F222731968081280F311D30
:1008200031962080312C322C2224F8018081280E30
:10083000311C2115310511F421E030E080E090E019
:100840002D873E870E94722F2B013C012D853E850E
:10085000B90180E090E00E94722F9B01AC01C301BE
:10086000B2010E94D92E2B013C01B50180E090E03D
:100870000E94722F9B01AC01C301B2010E9424307F
:100880002B013C01B10180E090E00E94722F9B019E
:10089000AC01C301B2010E94712E0E94462FF801E3
:1008A00077972081318126173707B1F071836083F4
:1008B000F7EEF98323E82A832C852E0D2B837C8386
:1008C0006D833DE03E838AE08F83BE016F5F7F4F83
:1008D0008DE996E00E948B279FEFE91AF90A0E5DD9
:1008E0001F4F34CF80E1F601D40101900D928A951B
:1008F000E1F7C4012E960FB6F894DEBF0FBECDBF50
:10090000DF91CF911F910F91FF90EF90DF90CF90EB
:10091000BF90AF909F908F907F906F905F904F901F
:100920003F902F90089580E00E94AE2081E00E94C9
:10093000AE2084E00C94AE20AF92BF92CF92DF92B3
:10094000EF92FF920F931F93CF93DF9300D01F92EC
:10095000CDB7DEB78C01FC018281882361F0438131
:100960005481658176814F5F5F4F6F4F7F4F438327
:10097000548365837683F80183819481A581B68150
:1009800081329E44A105B10508F43DC1F8011382EE
:100990001482158216828DE496E00E94042581114E
:1009A00032C160E088E00E94E22388E10FB6F8944B
:1009B00080936000109260000FBEA8E0FA2E729A39
:1009C00064E670E080E090E00E9426228EB11EB8BE
:1009D00064E670E080E090E00E942622FA9479F7C5
:1009E000FCEDEF2EF12CB7018DE00E94D52261E0E5
:1009F00070E080E090E00E942622F1E0EF1AF1081A
:100A000091F760E070E080EF95E00E94431DF801EF
:100A100067817085AB0180EF95E00E94001F23E0A5
:100A200040E06CE280EF95E00E94C91C61E070E05C
:100A300080EF95E00E94431D62E070E080E090E06E
:100A40000E942622E8E0EE2EE6E0FE2E6E01F4E0A3
:100A5000CF0ED11CCE0101965C016FE070E0C701A2
:100A60000E94A71EF60182936F0128E048E06CE027
:100A7000C7010E94C91C22E040E06CE0C7010E944F
:100A8000C91C20E240E26CE0C7010E94C91CCA14E4
:100A9000DB0429F062E070E0C7010E94431D23E0FF
:100AA00040E06CE2C7010E94C91CFCE0EF1AF108AB
:100AB000CA14DB0491F640E050E063E974E080E0A2
:100AC0000E945E2040E050E063E974E081E00E9413
:100AD0005E2040E050E063E974E084E00E945E2024
:100AE00083B7817F846083BFF89483B7816083BFBD
:100AF000789480916400816080936400889564E0BC
:100B000070E080E090E00E94262283B78E7F83BF52
:100B1000809164008E7F8093640062E070E080E0EA
:100B200090E00E94262270EFE72E75E0F72EC12C90
:100B3000D12C20E440E46CE2C7010E94C91C20E4EF
:100B400040E46BE2C7010E94C91C62E070E080E0F3
:100B500090E00E94262220E440E06BE2C7010E9460
:100B6000C91C20E440E06CE2C7010E94C91C2FEFC1
:100B700040E06CE2C7010E94C91C20E240E06CE04A
:100B8000C7010E94C91C61E070E080E090E00E9413
:100B90002622C114D10481F462E070E080E090E08C
:100BA0000E94262260E070E080EF95E00E94431DE5
:100BB00080EF95E00E94591FF50141915F0120EE01
:100BC0006FE0C7010E94C91C62E070E080E090E025
:100BD0000E942622FFEFCF1ADF0A2CE0E20EF11C62
:100BE00083E0C816D10409F0A4CF729A60E08DE0CA
:100BF0000E94E22361E088E00E94E223F801138270
:100C00001482158216820F900F900F90DF91CF9172
:100C10001F910F91FF90EF90DF90CF90BF90AF901A
:100C2000089561E08DE00E94A92361E08DE00E94BB
:100C3000E2236AEF70E080E090E00E94262260E00C
:100C40008DE00E94E2236AEF70E080E090E00E9475
:100C50002622EBCF009711F00E94BA270E941106BE
:100C60006115710581F0DB010D900020E9F7AD0100
:100C700041505109461B570BDC01ED91FC9102805C
:100C8000F381E02D099480E090E008950F931F9385
:100C9000CF93DF93EC018B01FB01808191819983DC
:100CA0008883828193819B838A836C5F7F4FCE018F
:100CB00004960E94CA2CF801828593859B878A87B7
:100CC000DF91CF911F910F9108954EE351E060E0C5
:100CD00070E00C94E4349FEF980F933078F416167C
:100CE000170664F4E82FF0E0EE0FFF1FE055FB4F0E
:100CF0007483638382EB94E00C94650608959FEF00
:100D0000980F933048F4E82FF0E0EE0FFF1FE05506
:100D1000FB4F83819481089580E090E00895CF9304
:100D2000DF93C0E0D0E040E0BE0189E396E00E949E
:100D3000391B2196C11582E0D807A9F7DF91CF9121
:100D400008950F931F93CF93DF93CDB7DEB7CE53A4
:100D5000D1400FB6F894DEBF0FBECDBF0E948F0604
:100D60008EE391E0E8E1F1E0DE01119601900D9251
:100D70000197E1F7CE0101960E9465060E94EB06FD
:100D80006AEA73E08DE496E00E94A82706E010E08E
:100D900061E08DE00E94E22364EF71E080E090E08A
:100DA0000E94262260E08DE00E94E22364EF71E061
:100DB00080E090E00E9426220150110949F7C25CB0
:100DC000DE4F0FB6F894DEBF0FBECDBFDF91CF91DF
:100DD0001F910F9108958EE391E0E2EBF4E0DF01C3
:100DE0009C011D9221503040E1F74EE351E060E05C
:100DF00070E0CF010E94CC348091B30481508E3FCB
:100E000010F00C94A10608955F926F927F928F92DA
:100E10009F92AF92BF92CF92DF92EF92FF920F9389
:100E20001F93CF93DF93CDB7DEB76E970FB6F894CD
:100E3000DEBF0FBECDBF982E5B018FEF890D8330D3
:100E400008F0D3C0292D30E0215031098CE0829F79
:100E5000B001839F700D112460517A4F7E0183E1B0
:100E6000E80EF11CC7010E9446066FE070E0C70162
:100E70000E94A71E582E6BE270E0C7010E94A71EB9
:100E8000682E92E1E6E5F2E0DE01119601900D9206
:100E90009A95E1F7FE0131966F01712C812C69E87A
:100EA00073E0C5010E945827F601019111916F016D
:100EB0004AE050E0B801C5010E946F2868E672E080
:100EC000C5010E94BA2760E070E0C7010E94431D7F
:100ED00065E070E080E090E00E942622B801C70142
:100EE0000E94AE1B65E070E080E090E00E94262248
:100EF00063E070E0C7010E94431D65E070E080E0A0
:100F000090E00E9426222FEF40E06CE2C7010E9491
:100F1000C91C65E070E080E090E00E94262268EC49
:100F200070E080E090E00E9426226CE270E0C70151
:100F30000E94A71E87FD02C0811102C0072D182D37
:100F4000CE14DF0419F0702E812EA9CF60E070E07E
:100F5000C6010E94431D6AE070E080E090E00E94BC
:100F60002622B801C6010E94AE1B61E070E080E05D
:100F700090E00E9426222FEF452D6FE0C6010E94CF
:100F8000C91C61E070E080E090E00E9426222FEF13
:100F9000462D6BE2C6010E94C91C61E070E080E052
:100FA00090E00E94262261E070E0C6010E94431D8D
:100FB00068E673E0C5010E9458274AE050E0B80196
:100FC000C5010E946F2868E672E0C5010E94BA2739
:100FD0000115110521F0B801892D0E946B06CE0183
:100FE00047960E942F2CC80102C080E090E06E96C8
:100FF0000FB6F894DEBF0FBECDBFDF91CF911F912A
:101000000F91FF90EF90DF90CF90BF90AF909F90A7
:101010008F907F906F905F900895282F30E070E060
:101020008091080190E0AB01481B590B4217530710
:1010300034F4680F791F81E0261737070CF080E041
:1010400008950F931F9380910B010E94A4226AE0E0
:1010500070E00E949B30062F6AE0802F0E940D08EE
:10106000811102C010E001C010E267E1802F0E94F0
:101070000D088111105F66E2802F0E940D0881111A
:10108000105867E3802F0E940D088111105C68E4FE
:10109000802F0E940D088111185F809109010E9424
:1010A000A4226AE070E00E949B30062F6AE0802F45
:1010B0000E940D0881111C5F67E1802F0E940D08BE
:1010C00081111E5F67E2802F0E940D0881111F5F52
:1010D00080916804181761F00E94F7216093AE04B4
:1010E0007093AF048093B0049093B104109368049C
:1010F0000E94F7210091AE041091AF042091B0043A
:101100003091B104601B710B820B930B6635710536
:101110008105910530F0809168049091AD04981399
:1011200005C08091AD041F910F9108958093AD0487
:10113000F8CF0F931F93CF93DF93EC018B018AEFCE
:1011400093E099838883CE0108960E9452201D83E4
:101150000C831F821E828DE496E09B838A83DF913D
:10116000CF911F910F910895EF92FF920F931F93CC
:10117000CF93DF93EC018B01DB011D962D913C9108
:101180001E97A9014150510981E090E0042E01C051
:10119000880F0A94EAF79F81982309F489C08A810D
:1011A0009B81B6E08D399B07E9F4FB0141815281B7
:1011B000F9013396EE0FFF1FEC0FFD1F60817727BB
:1011C00067FD70956417750769F0F901EE0FFF1F51
:1011D000EC0FFD1F2781332727FD30952417350796
:1011E00009F066C0DC01ED91FC910190F081E02DE9
:1011F00063E009958A819B81DC01ED91FC9101906E
:10120000F081E02DD8011D966C9109958A819B8112
:10121000DC01ED91FC91D80112966C910190F08166
:10122000E02D09958A819B81DC01ED91FC91019073
:10123000F081E02DD80111966C910995E12CF12CEB
:101240008A819B81DC01ED91FC91D801AE0DBF1D1F
:101250000190F081E02D13966C910995BFEFEB1A88
:10126000FB0AE8E0EE16F10459F78A819B81DC0164
:10127000ED91FC910190F081E02DD8016C910995E0
:101280008A819B81DC01ED91FC910190F081E02D40
:10129000D8011B966C9109956AE672E08A819B8160
:1012A000DF91CF911F910F91FF90EF900C9430063A
:1012B000DF91CF911F910F91FF90EF900895EF92E2
:1012C000FF920F931F93CF93DF93CDB7DEB7609755
:1012D0000FB6F894DEBF0FBECDBF8C01CB017A01F3
:1012E00020E1FA01DE01119601900D922A95E1F7B5
:1012F000BE016F5F7F4F0E94B408CE0101960E942D
:101300005D2080E1F701D80101900D928A95E1F707
:10131000C80160960FB6F894DEBF0FBECDBFDF9157
:10132000CF911F910F91FF90EF900895CF92DF9290
:10133000EF92FF920F931F93CF93DF937C016A018B
:10134000EB0100E010E00C151D05E0F4D70112964A
:101350008D919C911397DC01ED91FC910480F581B6
:10136000E02D0995892B71F0F70182819381DC01D1
:10137000ED91FC910680F781E02D099589930F5F2F
:101380001F4FE1CFC801DF91CF911F910F91FF90C7
:10139000EF90DF90CF9008950F931F93CF93DF933B
:1013A00000D000D01F92CDB7DEB78C0145E050E0F1
:1013B000BE016F5F7F4F0E9496098981843080F45F
:1013C00090E0FC013396EE0FFF1FE00FF11F2B8121
:1013D0002083FC01EE0FFF1FE00FF11F8D8187833B
:1013E0000F900F900F900F900F90DF91CF911F9162
:1013F0000F9108950F931F93CF93DF9300D01F9207
:10140000CDB7DEB78C0143E050E0BE016F5F7F4F88
:101410000E949609833051F46A8170E0762F662726
:101420008B81680F711D89810E946B0664E573E0F2
:10143000F801828193810E9458274AE050E0698137
:10144000F801828193810E9484286AE473E0F801A4
:10145000828193810E94582789810E947F064AE0F9
:1014600050E0BC01F801828193810E946F2868E4FA
:1014700073E0F801828193810E94A8270F900F905A
:101480000F90DF91CF911F910F910895EF92FF92EE
:101490000F931F93CF93DF93CDB7DEB762970FB64D
:1014A000F894DEBF0FBECDBF8C01BE01635F7F4FDE
:1014B00086E0DB011D928A95E9F746E050E0C8011D
:1014C0000E9496097C012D858FEF820F833060F09A
:1014D000F80182819381DC01ED91FC910190F08112
:1014E000E02D60E8099567C030E0215031098CE0BB
:1014F000829FB001839F700D112460517A4FCE01FD
:1015000001960E9446062E85222359F08D85815032
:1015100001C0220F8A95EAF7F8018781822B878321
:1015200003C0D80117961C92B3E0EB16F1046CF1DE
:1015300060E070E0CE0101960E94431DCE0101964D
:101540000E94591F6F8570E0288930E0498950E07A
:10155000EA89F0E0CB01820F931F840F951F8E0F55
:101560009F1F892B61F0542F44274E0F5F1F762F4A
:101570006627620F731FCE0101960E94001F61E073
:1015800070E0CE0101960E94431DF8018281938193
:10159000DC01ED91FC910190F081E02D6FEF099558
:1015A0006AE672E0F801828193810E943006CE01E2
:1015B00005960E942F2C62960FB6F894DEBF0FBEE0
:1015C000CDBFDF91CF911F910F91FF90EF900895C4
:1015D0000F931F93CF93DF93CDB7DEB7A1970FB6CD
:1015E000F894DEBF0FBECDBF8C0142E250E0BE01D9
:1015F0006F5F7F4F0E949609829789F58AA1813A91
:1016000071F5A98180E2A89FD0011124AE54BB4F8F
:1016100080E2FE01329601900D928A95E1F763E136
:1016200073E0F801828193810E9458274AE050E0DC
:101630006981F801828193810E94842860E173E0CE
:10164000F801828193810E94A82789818F30E9F473
:1016500082EB94E00E94650665EE72E011C060EBDB
:1016600072E0F801828193810E9458274AE050E09D
:101670006981F801828193810E9484286DEA72E079
:10168000F801828193810E94A827A1960FB6F89451
:10169000DEBF0FBECDBFDF91CF911F910F91089597
:1016A0000F931F93CF93DF931F92CDB7DEB78C01BB
:1016B00041E050E0BE016F5F7F4F0E949609898133
:1016C000823029F08330F1F4F80116821BC081E0EA
:1016D000F801868361E08DE00E94E22364E670E019
:1016E00080E090E00E94262260E08DE00E94E223EC
:1016F00064E670E080E090E00E94262261E08DE0E8
:101700000E94E2230F90DF91CF911F910F910895D6
:10171000CF93DF93EC018A819B81DC01ED91FC91F9
:101720000480F581E02D0995892B51F08A819B81F8
:10173000DC01ED91FC910680F781E02D0995EBCF5E
:10174000DF91CF9108950F931F93CF93DF93EC0117
:101750008B016DE270E0C8010E94A71E80FF06C0E9
:101760006DE772E08A819B810E9458276DE270E0EC
:10177000C8010E94A71E81FF06C066E572E08A814B
:101780009B810E9458276DE270E0C8010E94A71E4D
:1017900082FF06C06EE272E08A819B810E94582718
:1017A0006DE270E0C8010E94A71E83FF06C066E0DC
:1017B00072E08A819B810E9458276DE270E0C80127
:1017C0000E94A71E84FF06C06DED71E08A819B8197
:1017D0000E9458276DE270E0C8010E94A71E85FF95
:1017E00006C06DEB71E08A819B810E9458276DE2F3
:1017F00070E0C8010E94A71E86FF06C06EE971E076
:101800008A819B810E9458276DE270E0C8010E9486
:10181000A71E87FF06C06EE771E08A819B810E9448
:1018200058276DE270E0C8010E94A71E81110AC00E
:1018300060E771E08A819B81DF91CF911F910F91C9
:101840000C945827DF91CF911F910F910895EF923B
:10185000FF920F931F93CF93DF93CDB7DEB72C97F3
:101860000FB6F894DEBF0FBECDBF8C017B0164E5DF
:1018700071E0FC01828193810E945827B7016C5F5F
:101880007F4FF801828193810E947D2765E471E09A
:10189000F801828193810E9458276FE070E0C701B0
:1018A0000E94A71E40E150E0682FF80182819381D9
:1018B0000E94842867E371E0F801828193810E948D
:1018C0005827C7010E947B1E40E150E0682FF801B5
:1018D000828193810E9484286AE271E0F80182810A
:1018E00093810E9458276DE270E0C7010E94A71EF5
:1018F00042E050E0682FF801828193810E948428A1
:10190000B701CE0101960E944606BE016F5F7F4F70
:10191000C8010E94A30BCE0105960E942F2C67E1FF
:1019200071E0F801828193810E945827C7010E94CB
:10193000931E4AE050E0BC01F801828193810E942D
:101940006F2864E171E0F801828193810E94A827E9
:101950002C960FB6F894DEBF0FBECDBFDF91CF91AE
:101960001F910F91FF90EF9008950F931F93CF93C6
:10197000DF93CDB7DEB72D970FB6F894DEBF0FBE5D
:10198000CDBF8C0141E050E0BE01635F7F4F0E94FC
:1019900096092D852430C8F430E0215031098CE0BF
:1019A000829FB001839F700D112460517A4FCE0148
:1019B00001960E944606BE016F5F7F4FC8010E94DC
:1019C000270CCE0105960E942F2C2D960FB6F89469
:1019D000DEBF0FBECDBFDF91CF911F910F91089554
:1019E0002091AC04283078F4822F90E0FC01EE0FB7
:1019F000FF1FE80FF91FEC56FB4F608352834183B2
:101A00002F5F2093AC040895F89481E08093E00068
:101A100080E28093D8001092C90065E070E080E019
:101A200090E00E9426221DBA109268001CBC10BED5
:101A30001FBA10927A0010926E0010926F001092EE
:101A400071000C9400380895FF920F931F93CF9369
:101A5000DF938C01C0E0D0E0BE0189E396E00E94F4
:101A6000361BF82E8FE08F1538F06CE672E0F80127
:101A7000828193810E948B2740E150E06F2DF80115
:101A8000828193810E948428CF3FF1E0DF0739F003
:101A90006EE672E0F801828193810E948B27219685
:101AA000C115F2E0DF07C1F6DF91CF911F910F91D1
:101AB000FF900895CF93DF9300D0CDB7DEB720918C
:101AC0005007309151072115310511F424E537E015
:101AD000CE010196821B930B0F900F90DF91CF9157
:101AE00008950F931F93CF93DF93CDB7DEB762971F
:101AF0000FB6F894DEBF0FBECDBF8C0160E772E079
:101B0000CE0101960E949D2C66E772E0CE010D96F3
:101B10000E949D2C6AE872E0CE0107960E949D2CDF
:101B2000BE01635F7F4FCE0107960E94FF2C67EADC
:101B300072E00E94122DBE016F5F7F4F0E94FF2C4A
:101B400066EB72E00E94122DBC01F8018281938144
:101B50000E947D27CE0107960E942F2CCE010D9664
:101B60000E942F2CCE0101960E942F2CC8010E94AA
:101B70005A0D4AE050E0BC01F801828193810E9435
:101B80006F286AEA72E0F801828193810E94A82797
:101B900062960FB6F894DEBF0FBECDBFDF91CF9136
:101BA0001F910F9108950F931F93CF93DF931F926F
:101BB000CDB7DEB78C0141E050E0BE016F5F7F4FD3
:101BC0000E949609498150E0FA013197E631F1050A
:101BD00068F5EA5AFF4F0C94D130C8010E94710D8C
:101BE00025C0C8010E94240D21C0C8010E94E80A36
:101BF0001DC00E94A1061AC041E050E0BE016F5F07
:101C00007F4FC8010E949609F80162817381898122
:101C10000E9404070BC0C8010E94FA0907C0C8014E
:101C20000E94B50C03C0C8010E94040D0F90DF9103
:101C3000CF911F910F910895EF92FF920F931F93F1
:101C4000CF93DF93EC01CA0124E034E03983288389
:101C50007B836A8321E02A8BAE0166E10E94F00C4F
:101C60001C821D821E821F8284EF91E099878887E3
:101C70008E0102591F4FF801118210821A861B86AD
:101C80001C861D861E861F86188A198A64EC72E0DF
:101C9000CE0143960E94D1327E01F0E2EF0EF11C9C
:101CA00065E073E0C7010E94D13261ED72E0CE01C0
:101CB0008D960E94D132C359DF4F8CE08883B701E3
:101CC000C801DF91CF911F910F91FF90EF900C947D
:101CD000D132CF92DF92EF92FF92CF93DF93EC015C
:101CE000CA84DB84EC84FD840E94F7216C157D0599
:101CF0008E059F0518F4CE01809610C0CE84DF8437
:101D0000E888F9880E94F7216C157D058E059F05EE
:101D100018F4CE018D9602C0CE014396DF91CF918B
:101D2000FF90EF90DF90CF9008950F931F93CF9384
:101D3000DF93EC018B010E94F721222717FD2095EC
:101D4000322F600F711F821F931F6A877B878C87DA
:101D50009D87DF91CF911F910F910895AF92BF9210
:101D6000CF92DF92EF92FF920F931F93CF93DF9367
:101D70005C018B01EA01FB018289882309F47EC1A1
:101D800089819A818F38924069F4FB01C284D3849F
:101D9000E484F5840E94F721C616D706E806F90602
:101DA00008F47FC189819A818039924009F063C02B
:101DB0004C81242F30E0F80180A1992787FD909570
:101DC00028173907B1F52D8130E081A1992787FDCA
:101DD00090952817390769F52E8130E082A199275F
:101DE00087FD90952817390721F52F8130E083A1D1
:101DF000992787FD909528173907D9F4288530E071
:101E000084A1992787FD90952817390791F4298592
:101E100030E085A1992787FD90952817390749F467
:101E20002A8530E086A1992787FD909528173907E4
:101E300071F0F80140A38D8181A38E8182A38F81EF
:101E400083A3888584A3898585A38A8586A3C80101
:101E50000E94690EFC0180818C8381818D83828147
:101E60008E8383818F83848188878581898786811A
:101E70008A8781E08F8789819A818139924009F030
:101E80004EC04C81242F30E0F80187A1992787FDAF
:101E900090952817390721F52D8130E080A59927E5
:101EA00087FD909528173907D9F42E8130E081A558
:101EB000992787FD90952817390791F42F8130E0F5
:101EC00082A5992787FD90952817390749F4288519
:101ED00030E083A5992787FD90952817390779F079
:101EE000F80147A38D8180A78E8181A78F8182A76A
:101EF000888583A76CED75E0C8010E94950EC80126
:101F00000E94690EFC0187818C8380858D83818589
:101F10008E8382858F838385888781E08F87D090A9
:101F2000B4048D2D90E0079714F4D39401C0D12C04
:101F30007801F3E1EF0EF11C65E073E0C7010E9448
:101F4000D132A091B40422E2A29FD0011124AE5458
:101F5000BB4F1F968C911F9798962C91989780FF56
:101F600023C050968D919C9151976AE070E00E9439
:101F700087309F938F937F936F93822F992787FD4D
:101F800090959F932F9382E193E09F938F93FF927D
:101F9000EF920E94D8328DB79EB70A960FB6F8948A
:101FA0009EBF0FBE8DBF1DC051968C9151978F93D0
:101FB00050968C918F93822F992787FD90959F93B0
:101FC0002F938BE193E09F938F93FF92EF920E9468
:101FD000D832EDB7FEB738960FB6F894FEBF0FBEF5
:101FE000EDBF22E2D29EF0011124EE54FB4F878513
:101FF00020A5075E1F4F80FF21C0808991896AE07C
:1020000070E00E9487309F938F937F936F93822F0E
:10201000992787FD90959F932F9382E193E09F935B
:102020008F931F930F930E94D8328DB79EB70A9655
:102030000FB6F8949EBF0FBE8DBF1AC081898F93D3
:1020400080898F93822F992787FD90959F932F9357
:102050008BE193E09F938F931F930F930E94D8324D
:10206000EDB7FEB738960FB6F894FEBF0FBEEDBFC2
:1020700089819A818130924009F41F8680E1FE01B6
:10208000D50101900D928A95E1F7C501DF91CF91BD
:102090001F910F91FF90EF90DF90CF90BF90AF9086
:1020A000089580EC8B831C821D821E8287E28887C4
:1020B00080E1898781E08F8775CE0F931F93CF933F
:1020C000DF93EC018B010E94F721222717FD209559
:1020D000322F600F711F821F931F6E877F87888B3F
:1020E000998BC259DF4F19821882DF91CF911F91CE
:1020F0000F9108950F931F93CF93DF93EC018A0103
:102100007F936F938D969F938F930E94D8320F90F9
:102110000F900F900F90B801CE01DF91CF911F91DA
:102120000F910C945D101F93CF93DF93CDB7DEB763
:10213000C154D1090FB6F894DEBF0FBECDBFDB018D
:10214000FE0131969F01240F351FBF01E217F307EF
:1021500019F01D911193FACFFC01E259FF4F4D3058
:10216000510574F05183408331974083E8ECE49F3C
:102170009001E59F300D1124A9014056504F04C035
:102180001182108248E55BE10E947A10CF5BDF4F3D
:102190000FB6F894DEBF0FBECDBFDF91CF911F9178
:1021A0000895EF92FF920F931F93CF93DF93CDB7D4
:1021B000DEB72D970FB6F894DEBF0FBECDBF7C0102
:1021C0008DE0E5E0F3E08E010F5F1F4FD801019035
:1021D0000D928A95E1F72091B40430E0C90101968F
:1021E00042E2489FF001499FF00D1124EE54FB4F4D
:1021F00053A5852F992787FD90959F935F9352A5AF
:10220000852F992787FD90959F935F9351A5852FE3
:10221000992787FD90959F935F9350A5852F9927C8
:1022200087FD90959F935F93429FF001439FF00D30
:102230001124EE54FB4F23A5822F992787FD9095FB
:102240009F932F9322A5822F992787FD90959F9387
:102250002F9321A5822F992787FD90959F932F93E8
:1022600020A5822F992787FD90959F932F9321E298
:1022700033E03F932F931F930F930E94D83240ED8A
:1022800057E0B801C7010E947A100FB6F894DEBF7C
:102290000FBECDBF2D960FB6F894DEBF0FBECDBFDB
:1022A000DF91CF911F910F91FF90EF9008950F93C1
:1022B0001F93CF93DF93DC0114960D911C9115971A
:1022C000E801E8816E2F70E0D2E2ED9FF001112469
:1022D000EB53FB4F40E050E01296E801288130E0DC
:1022E0002F5F3F4FCA01860F971F28173907A4F0A9
:1022F000CF010197EC01288130E0322F2227808125
:10230000280F311D285F3F4F19963C932E93189745
:102310004F5F5F4FB296E0CFDF91CF911F910F914A
:1023200008950F931F93CF93DF93EC018B018EE001
:1023300094E0998388830E94F7216E837F83888746
:10234000998784EB94E09D838C831B830A83CE0161
:10235000DF91CF911F910F910C9457114091B404CC
:1023600062E070E089E396E00C94391BCF93DF9331
:10237000EC01EC81FD812081822F90E0079714F021
:10238000108202C02F5F2083CE010E94AE11CE01C9
:102390000E945711EC81FD818081DF91CF910895DA
:1023A000CF93DF93EC01EC81FD818081811102C02C
:1023B00087E001C081508083CE010E94AE11CE0122
:1023C0000E945711EC81FD818081DF91CF910895AA
:1023D000CF93DF93EC01EB81FC81428981E04827B8
:1023E000428B4093B20460E070E089E396E00E9483
:1023F000391B8B819C81FC012289222341F040ED15
:1024000057E066E373E0DF91CF910C947A10DF918F
:10241000CF910895CF93DF93EC010E9421089A8118
:10242000981789F18A83823449F1813839F08134EF
:1024300051F58D819E810E94B61104C08D819E81CF
:102440000E94D0118B819C810E94D11060E070E0CD
:1024500080E296E00E94431DED81FE814485558512
:102460006285738580E296E00E94001F61E070E063
:1024700080E296E0DF91CF910C94431DCE01DF9175
:10248000CF910C94E811DF91CF910895FC01CA011E
:102490002CE234E031832083138214821582168269
:1024A0007087678321E02283AF016EE40C94F00C07
:1024B000CF93DF930E94EB0661E070E080E090E054
:1024C0000E942622E0917504F091760481E09091BB
:1024D000B204911101C080E0828B809177049091C9
:1024E00078040E94571140E052EC61E070E08DE406
:1024F00096E00E94FE2426E040E051EE60E070E0AD
:102500008DE996E00E9413266A9A729A61E088E04B
:102510000E94A92361E088E00E94E22361E08DE04F
:102520000E94A92360E083E00E94A92360E082E08A
:102530000E94A92360E087E00E94A92361E084E073
:102540000E94A92361E08CE00E94A92361E08BE056
:102550000E94A92361E089E00E94A92361E08AE04A
:102560000E94A92361E085E00E94A92360E084E045
:102570000E94E22360E08CE00E94E22360E08BE0B6
:102580000E94E2238CE296E00E94731B61E070E0FF
:102590008CE296E00E94141D6091B5047091B6041F
:1025A0008CE296E00E94AE1B61E08CE296E00E9415
:1025B000F41C24E044E060E68CE296E00E94C91C32
:1025C00020E240E269E28CE296E00E94C91C8CE2C3
:1025D00096E00E94591F61E070E08CE296E00E9454
:1025E000431D80E296E00E94731B6091B7047091D6
:1025F000B80480E296E00E94AE1B61E080E296E0C3
:102600000E94F41C24E044E060E684E196E00E942D
:10261000C91C80E296E00E94591F63E070E080E2EE
:1026200096E00E94431D84E196E00E94731B609136
:10263000B9047091BA0484E196E00E94AE1B61E097
:1026400084E196E00E94F41C24E044E060E684E12A
:1026500096E00E94C91C84E196E00E94591F61E047
:1026600070E084E196E00E94431D60E070E080E24B
:1026700096E00E94431DE0917704F0917804448530
:1026800055856285738580E296E00E94001F61E0B7
:1026900070E080E296E00E94431DC5E0D0E061E07A
:1026A0008DE00E94E22362E370E080E090E00E940F
:1026B000262260E08DE00E94E22362E370E080E089
:1026C00090E00E942622219751F7DF91CF91089543
:1026D0000F931F93CF93DF93EC018B018F8588239A
:1026E000C9F161E08DE00E94E223C8010E94931EBF
:1026F0008130910591F082309105E1F0892B61F5EF
:102700009E012D5F3F4F49815A816881C8010E9417
:102710006B1FC8010E94771D19C09E012D5F3F4F9E
:1027200049815A816881C8010E94B81FC8010E946E
:10273000871D0CC09E012D5F3F4F49815A816881E2
:10274000C8010E940520C8010E94971D60E08DE02D
:102750000E94E22381E001C080E0DF91CF911F91D0
:102760000F910895CF93DF93EC011D821C821F828D
:102770001E82198618861B861A861982188280E2A4
:1027800090E00E94D7309B838A83892B11F40E94AA
:10279000110682E090E09D838C83DF91CF910895B4
:1027A000AF92BF92CF92DF92EF92FF920F931F935F
:1027B000CF93DF93EC018B01161617061CF063E430
:1027C00073E012C0CB0164E0880F991F6A95E1F7AE
:1027D0000E94D7307C01009729F06C0120E030E0A6
:1027E00040E106C068E773E0888199810E942A066B
:1027F0008E819F81AA80BB8028173907E4F48885E1
:102800009985820F931F6C817D810E949B3054E0DB
:10281000880F991F5A95E1F78A0D9B1DFC01D6017F
:10282000842F01900D928A95E1F72F5F3F4F80E151
:10283000C80ED11CDDCFC5010E946F31FB82EA8238
:10284000198618868E819F819B878A871D830C83BA
:10285000DF91CF911F910F91FF90EF90DF90CF907C
:10286000BF90AF9008950F931F93CF93DF93EC0128
:102870008B018E819F812C813D818217930731F4DA
:10288000BC01660F771FCE010E94D013AA81BB81C5
:102890008A859B859C012F5F3F4F3B872A8774E089
:1028A000880F991F7A95E1F7A80FB91F80E1F80109
:1028B00001900D928A95E1F72A853B858C819D8157
:1028C0002817390711F41B861A868E819F8101967D
:1028D0009F838E83DF91CF911F910F9108950F9366
:1028E0001F93CF93DF93CDB7DEB7AC970FB6F894B5
:1028F000DEBF0FBECDBF8C014CE050E0BE016F5D6E
:102900007F4F0E949609CE0141960E94522089A1D4
:1029100090E09F8F8E8F2AA130E0322F22278BA14B
:10292000280F311D3B8B2A8B8CA18C8B8DA18D8B1D
:102930008EA18E8B8FA18F8B88A5888F89A5898F7B
:102940008AA58A8F8BA58B8F8CA5898B81E088A324
:1029500080E1FE017196DE01119601900D928A953B
:10296000E1F7BE016F5F7F4FF801848195810E947E
:102970003314CE0101960E945D20CE0141960E9443
:102980005D20AC960FB6F894DEBF0FBECDBFDF91D1
:10299000CF911F910F910895CF92DF92EF92FF9206
:1029A0000F931F93CF93DF93CDB7DEB7C054D109F8
:1029B0000FB6F894DEBF0FBECDBF8C017B0160E285
:1029C00070E080E090E00E94262223E0E216F1040D
:1029D00011F14CF4A1E0EA16F104A9F0B2E0EB1613
:1029E000F104A9F008C024E0E216F104C1F088E087
:1029F000E816F104C1F08091AC0490E0E4E9F4E061
:102A0000C12CD12C17C0C8010E94D30D3FC0C801F2
:102A10000E946F143BC0C8010E94460A37C0C8011B
:102A20000E94CC0933C0C8010E94500B2FC0BFEFD9
:102A3000CB1ADB0AC816D9064CF5208130E0339654
:102A40002E153F05A1F740E450E0BE016F5F7F4FB8
:102A5000C8010E9496097C0161E070E080E090E08E
:102A60000E942622F601EE0FFF1FEC0DFD1DEC5615
:102A7000FB4F81819281DC01ED91FC910480F58115
:102A8000E02DA701BE016F5F7F4F0995C8010E942D
:102A9000880BC05CDF4F0FB6F894DEBF0FBECDBF12
:102AA000DF91CF911F910F91FF90EF90DF90CF902A
:102AB00008959F92AF92BF92CF92DF92EF92FF92D2
:102AC0000F931F93CF93DF93CDB7DEB7C054D109D7
:102AD0000FB6F894DEBF0FBECDBF7C010E94690E19
:102AE0008C01CE01C1960E945220B3E0CB2ED12C96
:102AF000DFAECEAE80E992E09BAB8AAB80EC982E45
:102B00009CAAF80180818DAB81818EAB82818FABD5
:102B1000838188AF848189AF85818AAF86818BAFBD
:102B200098E0A92EA9AABB24B3942196BFAE219701
:102B300080E1FE01F196DE01119601900D928A95D9
:102B4000E1F7BE016F5F7F4FF701828193810E94A1
:102B50003314CE0101960E945D20CE0181960E9421
:102B60005220DFA6CEA681E992E09BA38AA387E844
:102B70008CA3F80187818DA380858EA381858FA387
:102B8000828588A7838589A7A9A2B8AA80E1FE01CA
:102B9000B196DE01119601900D928A95E1F7BE0182
:102BA0006F5F7F4FF701828193810E943314CE01C2
:102BB00001960E945D20CE0141960E94522081E044
:102BC00090E09F8F8E8F8FE892E09B8B8A8B9C8A00
:102BD0001D8A1E8A1F8AB88E87E2898F80E18A8FBC
:102BE00080E48B8FA98AB8A280E1FE017196DE0194
:102BF000119601900D928A95E1F7BE016F5F7F4FAC
:102C0000F701828193810E943314CE0101960E94C4
:102C10005D20CE0141960E945D20CE0181960E94EA
:102C20005D20CE01C1960E945D20C05CDF4F0FB6D3
:102C3000F894DEBF0FBECDBFDF91CF911F910F91F2
:102C4000FF90EF90DF90CF90BF90AF909F9008954E
:102C5000CF92DF92EF92FF92CF93DF93EC018A89BC
:102C6000882349F1C884D984EE24D7FCE094FE2C53
:102C70008C819D81AE81BF81C80ED91EEA1EFB1ECC
:102C80000E94F721C616D706E806F906A0F4CA8402
:102C9000DB84EC84FD840E94F721C616D706E80683
:102CA000F90648F4CE010E9459150E94F7216C8361
:102CB0007D838E839F83DF91CF91FF90EF90DF9094
:102CC000CF9008955F926F927F928F929F92AF9272
:102CD000BF92CF92DF92EF92FF920F931F93CF9309
:102CE000DF93CDB7DEB7A0970FB6F894DEBF0FBE67
:102CF000CDBF7C018B01DC011496ED91FC91159701
:102D00008081A82EB12CB2E28B9F000D111D1124E1
:102D10000A5F1F4FC12CD12C38E0532E77247394B7
:102D200040E1642ED7011496ED91FC9115978081B6
:102D300090E0019696012A0D3B1D821793070CF433
:102D400056C04801E6E08E1A9108D8018C9188237C
:102D500009F447C0F4018081882309F442C0CE0100
:102D600041960E945220D4018C9190E09F8F8E8FCB
:102D7000F8013297808190E0982F88273196208142
:102D8000820F911D9B8B8A8BFE01759620E030E0AF
:102D9000D401A20FB31F16968C91882331F02F5FB8
:102DA0003F4F81932630310599F72C8B598A78A2B1
:102DB000FE017196DE011196862D01900D928A9585
:102DC000E1F7BE016F5F7F4FF701828193810E941F
:102DD0003314CE0101960E945D20CE0141960E94DF
:102DE0005D20FFEFCF1ADF0A0E5D1F4F9BCFA0962D
:102DF0000FB6F894DEBF0FBECDBFDF91CF911F910C
:102E00000F91FF90EF90DF90CF90BF90AF909F9089
:102E10008F907F906F905F9008950F931F93CF9343
:102E2000DF93EC010E94F7210E811F8128853985EF
:102E3000025E1F4F2F4F3F4F06171707280739070E
:102E400078F40E94F7216E837F838887998760ECEE
:102E500074E0CE01DF91CF911F910F910C94621617
:102E6000DF91CF911F910F9108950F931F93CF93EF
:102E7000DF93CDB7DEB7A0970FB6F894DEBF0FBED5
:102E8000CDBF8C0120918D0430918E0480918B04F4
:102E900090918C042817390709F47AC0C8010E9460
:102EA0007B1E8093930480FF32C0CE0141960E9426
:102EB00052208091930490E09D8F8C8FF801828541
:102EC00093859F8F8E8F9E012E5E3F4FAE014C5E8D
:102ED0005F4FBE016F5E7F4FC8010E94A71D80E15A
:102EE000FE017196DE01119601900D928A95E1F72F
:102EF000BE016F5F7F4F87E894E00E943314CE01DC
:102F000001960E945D20CE0141960E945D20209195
:102F10008D0430918E0480918B0490918C0428173D
:102F20003907B1F18091930481FF32C0CE014196FF
:102F30000E9452208091930490E09D8F8C8FF80125
:102F4000828593859F8F8E8F9E012E5E3F4FAE01AF
:102F50004C5E5F4FBE016F5E7F4FC8010E94151E21
:102F600080E1FE017196DE01119601900D928A9525
:102F7000E1F7BE016F5F7F4F87E894E00E94331452
:102F8000CE0101960E945D20CE0141960E945D20F7
:102F9000A0960FB6F894DEBF0FBECDBFDF91CF91E4
:102FA0001F910F910895BF92CF92DF92EF92FF92FF
:102FB0000F931F93CF93DF93CDB7DEB7A0970FB6D4
:102FC000F894DEBF0FBECDBF8C0159E6C52E54E08C
:102FD000D52EE12CF12C60E1B62E80910601909166
:102FE0000701E816F90664F5D6016D917D916D0132
:102FF000DB01ED91FC9122813381F801DE015196D4
:103000008B2D01900D928A95E1F7AE014F5E5F4FD7
:10301000CE010196F9010995FE013196D8018B2D5B
:1030200001900D928A95E1F7CE0101960E945D20F4
:10303000CE0141960E945D20FFEFEF1AFF0ACDCF2F
:10304000D8011F968C91882399F080E1F801DE0168
:10305000119601900D928A95E1F7BE016F5F7F4F47
:103060008BE794E00E943314CE0101960E945D200C
:10307000A0960FB6F894DEBF0FBECDBFDF91CF9103
:103080001F910F91FF90EF90DF90CF90BF90089528
:103090000F931F93CF93DF938C01EB018E819F8160
:1030A000892B31F462EB73E0888199810E942A06B2
:1030B000EA81FB81888599859C012F5F3F4F398785
:1030C0002887A4E0880F991FAA95E1F7E80FF91F58
:1030D00080E1D80101900D928A95E1F72E813F8120
:1030E000215031093F832E836C817D8188859985AC
:1030F0008617970711F4198618862115310599F05E
:10310000CB0177FD039695958795959587958217C1
:1031100093074CF077FF02C06F5F7F4F75956795FF
:10312000CE010E94D013C801DF91CF911F910F9162
:103130000895EF92FF920F931F93CF93DF93CDB734
:10314000DEB7E8970FB6F894DEBF0FBECDBF19E625
:10315000E12E14E0F12E00E010E080910601909144
:1031600007010817190774F4D7018D919D917D010E
:10317000DC01ED91FC910190F081E02D09950F5F4C
:103180001F4FEBCF83E00E941824892B71F46CE26F
:1031900076E0CE0101960E944606CE0101960E947D
:1031A0003517CE0105960E942F2C82E00E9418242C
:1031B000892B71F460E276E0CE0101960E9446060A
:1031C000CE0101960E943517CE0105960E942F2C44
:1031D00087E00E941824892B71F464E176E0CE0127
:1031E00001960E944606CE0101960E943517CE0137
:1031F00005960E942F2C80918D0490918E04892B2E
:1032000059F0209181043091820480917F04909143
:1032100080042817390771F411E0BCE0FB2E00E1AF
:103220002091810430918204232B09F465C011118F
:1032300010C062C067E874E0CE0101960E94481891
:10324000CE0101960E94D317CE0101960E945D2007
:10325000E3CF6BE774E0CE0141960E9448188E8D53
:103260009F8D0197F89EB001F99E700D1124605159
:103270007A4FCE018D960E944606BE01635D7F4F58
:10328000CE0181960E944606FE017196DE011196DE
:10329000802F01900D928A95E1F7BE016F5D7F4FFF
:1032A000CE0101960E946813182FCE0101960E944C
:1032B0005D20CE0185960E942F2C111114C0FE01B5
:1032C0007196DE011196802F01900D928A95E1F79B
:1032D000BE016F5F7F4F8BE794E00E943314CE01F5
:1032E00001960E945D20CE01C1960E942F2CCE0136
:1032F00041960E945D2094CFE8960FB6F894DEBF09
:103300000FBECDBFDF91CF911F910F91FF90EF9036
:103310000895CF93DF93EC018A819B810E946F31E6
:103320001B821A82198218821D821C821F821E82B1
:10333000198618861B861A86DF91CF9108950F9300
:103340001F93CF93DF9300D000D000D0CDB7DEB76E
:1033500064EE73E0CE0101960E949D2C8E010F5FFA
:103360001F4F21E030E044E050E069E070E08CE283
:1033700096E00E94441BC8010E942F2C6AEE73E065
:10338000C8010E949D2C22E030E04CE050E06AE051
:1033900070E080E296E00E94441BC8010E942F2C3E
:1033A00060EF73E0C8010E949D2C23E030E04BE009
:1033B00050E065E070E084E196E00E94441BC801A3
:1033C0000E942F2C6CE276E080EF95E00E9446068A
:1033D00060E276E08CEF95E00E94460664E176E0DC
:1033E00088E096E00E94460687E894E00E94B213C7
:1033F0008BE794E00E94B21388E190E00E942E27B0
:103400008C016BE774E00E94990810937A04009392
:1034100079048EE090E00E942E278C016BE774E027
:103420000E949111109378040093770480E790E054
:103430000E942E278C014091790450917A046BE709
:1034400074E00E941C0E1093760400937504809122
:10345000790490917A0490936A048093690482E0DD
:1034600090E00E942E2722E234E0FC013183208389
:1034700090936C0480936B04809175049091760412
:1034800090936E0480936D048091770490917804FA
:103490009093700480936F0489E090E00E942E273F
:1034A0008C014091790450917A0462E774E00E94A3
:1034B0004612109372040093710487E090E00E941A
:1034C0002E27FC0180917704909178042091750457
:1034D0003091760448E154E0518340831282348372
:1034E000238396838583F0937404E0937304269674
:1034F0000FB6F894DEBF0FBECDBFDF91CF911F9105
:103500000F910895CF93DF93CDE7D4E0888199811F
:103510000E946F311982188210927C0410927B04F1
:103520001092800410927F04109282041092810401
:1035300010928404109283041092860410928504E1
:1035400087E894E00E9489198CE096E00E942F2C75
:1035500080E096E00E942F2C84EF95E00E942F2CB3
:1035600088E196E00E942F2C84E296E00E942F2CA6
:1035700080E396E0DF91CF910C942F2CCF93DF93D3
:10358000EC018E81882331F18DE496E00E946B245A
:10359000892B81F08DE496E00E947B24E0919D06CA
:1035A000F0919E060190F081E02D682F8DE996E064
:1035B0000995EACF8DE996E00E943025892B71F1BB
:1035C0008DE996E00E944925682F8DE496E00E94DF
:1035D0004124F0CF8DE996E00E9430251816190697
:1035E00054F48DE996E09B838A830E944925BC01AF
:1035F000CE010E94CC148DE496E00E946B24181634
:10360000190664F48DE496E09B838A830E947B24F0
:10361000BC01CE01DF91CF910C94CC14DF91CF91FE
:103620000895CF93CFB7F89480913806811116C0D2
:1036300061E081E10E94E22361E081E10E94A9232F
:103640008CB580618CBD8CB580648CBD61E08FE0F1
:103650000E94A92361E080E10E94A923809138069D
:103660008F5F80933806CFBFCF910895CB010C9424
:10367000DC34CB01642F0C94EE348EBD00000DB40D
:1036800007FEFDCF8EB508958F929F92AF92BF92A5
:10369000CF92DF92EF92FF920F931F93CF93DF931E
:1036A000EC016B015A0149017C0184E0E80EF11C38
:1036B0006BE672E0C7010E949D2CD982C882BB8252
:1036C000AA829B868A86B801C701DF91CF911F919C
:1036D0000F91FF90EF90DF90CF90BF90AF909F90B1
:1036E0008F900C94B32CCF93DF93EC0161E08FE0CB
:1036F0000E94A92360E08EE00E94A92361E080E19E
:103700000E94A92361E088810E94A92361E08A8147
:103710000E94A9230E94111B8CB5837F8CBD8CB5A0
:103720008C7F8CBD8DB581608DBD8CB58F7D8CBD42
:1037300060E08A810E94E22362E370E080E090E032
:103740000E94262261E08A810E94E22362E370E007
:1037500080E090E0DF91CF910C9426226F927F92CF
:103760008F929F92AF92BF92CF92DF92EF92FF9291
:103770000F931F93CF93DF93EC01882777FD8095FC
:10378000982F0E94742F9B01AC0160E070E080E8EC
:103790009FE30E94D92E20E030E04AE754E40E94E3
:1037A00024304B015C0101E010E077247A94700E24
:1037B000B801882777FD8095982F0E94742F9B0170
:1037C000AC010E94712E20E030E040E85DE30E94F1
:1037D00024309B01AC01C501B4010E94D92E6B01BC
:1037E0007C0120E030E048EC51E40E94D52E181610
:1037F000CCF0C701B6010E94412F662E772788279B
:1038000077FD8095982F0E94742F9B01AC01C70112
:10381000B6010E94702E20E030E0A9010E94D52E52
:10382000882341F00F5F1F4F0930110509F0BDCF0C
:1038300048E0742E662D70E080E090E00E94742FC6
:103840002DEC3CEC4CE45FE30E9424300E94462FB8
:10385000862F90E08C010150110917FD8C01159500
:1038600007956150E62EE01A661A8FEF860DF12C4F
:10387000A8014E0D5F1D282F30E0421753070CF4AE
:1038800078C0823008F475C060E088810E94E2232D
:1038900061E070E080E090E00E94262282E00E94D9
:1038A0003D1B8AE20E943D1B872D0E943D1B61E06B
:1038B00070E080E090E00E94262261E088810E9412
:1038C000E22361E070E080E090E00E94262260E068
:1038D00088810E94E22361E070E080E090E00E9435
:1038E000262282E00E943D1B89E20E943D1B01507E
:1038F0000068C701019723E0880F991F2A95E1F717
:10390000802B0E943D1B61E070E080E090E00E940F
:10391000262261E088810E94E22361E070E080E07D
:1039200090E00E94262260E088810E94E22361E00C
:1039300070E080E090E00E94262282E00E943D1B21
:1039400088E20E943D1B8EEF860D0E943D1B61E0C8
:1039500070E080E090E00E94262261E088810E9471
:10396000E22361E070E080E090E00E94262281E0A6
:1039700001C080E0DF91CF911F910F91FF90EF90F8
:10398000DF90CF90BF90AF909F908F907F906F907F
:103990000895EF92FF921F93CF93DF9300D0CDB79E
:1039A000DEB77C01162F60E0FC01808129834A8309
:1039B0000E94E22385E00E943D1B812F0E943D1B57
:1039C0002981822F0E943D1B4A81842F0E943D1B2A
:1039D00061E0F70180810F900F90DF91CF911F91EF
:1039E000FF90EF900C94E2231F93CF93DF93EC01B1
:1039F000662311F013E001C010E060E088810E94AE
:103A0000E22385E00E943D1B8BE20E943D1B83E088
:103A10000E943D1B812F0E943D1B61E08881DF9148
:103A2000CF911F910C94E2231F93CF93DF93EC016E
:103A30006230710571F02CF46130710569F410E0A9
:103A40000BC06430710539F06830710529F413E05A
:103A500003C011E001C012E060E088810E94E2230F
:103A600085E00E943D1B8FE00E943D1B83E00E9489
:103A70003D1B812F0E943D1B61E08881DF91CF912A
:103A80001F910C94E2231F93CF93DF93EC016230DC
:103A9000710589F044F46115710589F06130710593
:103AA00079F410E00DC06330710539F064307105B0
:103AB00039F410E405C010E203C010E601C010E8BC
:103AC00060E088810E94E22385E00E943D1B8FE038
:103AD0000E943D1B80EE0E943D1B812F0E943D1BDA
:103AE00061E08881DF91CF911F910C94E223CF9305
:103AF000DF93EC0160E088810E94E22381E80E946C
:103B00003D1B61E08881DF91CF910C94E223CF933C
:103B1000DF93EC0160E088810E94E22382E80E944A
:103B20003D1B61E08881DF91CF910C94E223CF931C
:103B3000DF93EC0160E088810E94E22383E80E9429
:103B40003D1B61E08881DF91CF910C94E2234F927D
:103B50005F927F928F929F92AF92BF92CF92DF92AD
:103B6000EF92FF920F931F93CF93DF9300D0CDB7C7
:103B7000DEB78C015B01790160E0FC018081498343
:103B80005A830E94E22380E90E943D1B8FEF0E942E
:103B90003D1BC82ED12C8FEF0E943D1B882E8FEF2E
:103BA0000E943D1B8FEF0E943D1B8FEF0E943D1B2B
:103BB0008F70982E4981742E442E5A81552E842D53
:103BC0008719891538F48FEF0E943D1BF20181930C
:103BD0002F01F5CF61E0F80180810E94E223F50119
:103BE0009082882D807E90E055E0969587955A9535
:103BF000E1F763E0CC0CDD1C6A95E1F78C0D9D1DAF
:103C0000F701918380830F900F90DF91CF911F91E7
:103C10000F91FF90EF90DF90CF90BF90AF909F906B
:103C20008F907F905F904F9008954F925F927F9218
:103C30008F929F92AF92BF92CF92DF92EF92FF92BC
:103C40000F931F93CF93DF931F92CDB7DEB78C01F5
:103C50006B01A42E790160E0FC01808159830E94F0
:103C6000E22384E90E943D1B8FEF0E943D1B982EAA
:103C70008FEF0E943D1B882E8FEF0E943D1B8FEF20
:103C80000E943D1B8FEF0E943D1B8F70B82E7A2C37
:103C90004A2C5981552E842D87198B1538F48FEFB6
:103CA0000E943D1BF20181932F01F5CF61E0F801E5
:103CB00080810E94E223F601B0828294869477E0AC
:103CC0008722F8E09F9EA0011124480D511DF701A5
:103CD000518340830F90DF91CF911F910F91FF90FF
:103CE000EF90DF90CF90BF90AF909F908F907F909C
:103CF0005F904F9008951F93CF93DF93EC0160E0A6
:103D000088810E94E22380EA0E943D1B8FEF0E947F
:103D10003D1B182F61E088810E94E223812FDF91F3
:103D2000CF911F9108950E947B1E82FF07C084FFE0
:103D300008C086FF09C08FEF9FEF089580E090E0F4
:103D4000089581E090E0089582E090E008951F9347
:103D5000CF93DF93EC01162F60E088810E94E2236D
:103D600083E00E943D1B812F0E943D1B8FEF0E942C
:103D70003D1B182F61E088810E94E223812FDF9193
:103D8000CF911F910895EF92FF921F93CF93DF93EE
:103D900000D0CDB7DEB77C01162F60E0FC0180813A
:103DA0002A8349830E94E22361E070E080E090E092
:103DB0000E94262282E00E943D1B812F0E943D1B13
:103DC0004981842F0E943D1B2A81822F0E943D1B26
:103DD00061E070E080E090E00E94262261E0F7015F
:103DE00080810E94E22361E070E080E090E00F902B
:103DF0000F90DF91CF911F91FF90EF900C942622AE
:103E0000EF92FF920F931F93CF93DF93EC017A0110
:103E10008B01E3E015950795EA95E1F7162F1295CA
:103E2000110F107E212F402F60E070E00E94C31E12
:103E3000212F402F68E070E0CE010E94C31E870151
:103E4000F3E015950795FA95E1F7E294EE0CA0EEF4
:103E5000EA222E2D402F64E070E0CE010E94C31EA6
:103E60002E2D402F60E170E0CE010E94C31E2E2D4A
:103E7000402F64E170E0CE010E94C31E2E2D402F22
:103E800068E170E0CE010E94C31E20EE4FE160E2C7
:103E900070E0CE010E94C31E20EE4FE164E270E0AC
:103EA000CE01DF91CF911F910F91FF90EF900C9475
:103EB000C31ECF93DF93EC0120E040E060E270E0AE
:103EC0000E94C31E20E040E064E270E0CE01DF917A
:103ED000CF910C94C31ECF92DF92EF92FF920F937B
:103EE0001F93CF93DF9300D0CDB7DEB78C01F62EB2
:103EF0006A0160E0FC01808129833A830E94E22309
:103F000080E40E943D1BC601B3E096958795BA9563
:103F1000E1F70E943D1B8C2D8295880F807E0E94C8
:103F20003D1B80E00E943D1B80E00E943D1B8F2DC9
:103F30000E943D1B2981E22EC22E3A81D32E8C2D68
:103F40008E198F1530F4F60181916F010E943D1B8F
:103F5000F6CF61E0F80180810F900F90DF91CF9153
:103F60001F910F91FF90EF90DF90CF900C94E22380
:103F7000CF92DF92EF92FF920F931F93CF93DF9335
:103F800000D0CDB7DEB78C01F62E6A0160E0FC01EF
:103F9000808129833A830E94E22382E40E943D1BB0
:103FA000C60123E0969587952A95E1F70E943D1B6F
:103FB0008C2D8295880F807E0E943D1B80E00E94A0
:103FC0003D1B80E00E943D1B8F2D0E943D1B2981DF
:103FD000E22EC22E3A81D32E8C2D8E198F1530F4FD
:103FE000F60181916F010E943D1BF6CF61E0F8015F
:103FF00080810F900F90DF91CF911F910F91FF90D3
:10400000EF90DF90CF900C94E223CF92DF92EF926B
:10401000FF920F931F93CF93DF9300D0CDB7DEB7FE
:104020008C01F62E6A0160E0FC01808129833A83CD
:104030000E94E22384E40E943D1BC60133E0969572
:1040400087953A95E1F70E943D1B8C2D8295880F4C
:10405000807E0E943D1B80E00E943D1B80E00E940C
:104060003D1B8F2D0E943D1B2981E22EC22E3A81DD
:10407000D32E8C2D8E198F1530F4F60181916F019E
:104080000E943D1BF6CF61E0F80180810F900F90F8
:10409000DF91CF911F910F91FF90EF90DF90CF9024
:1040A0000C94E223FC011786128611861086178273
:1040B000168215821482138208950895853008F0BF
:1040C0004CC0E82FF0E0EE0FFF1FE65CF94F718364
:1040D00060838230E1F018F4813069F004C08330ED
:1040E00019F1843071F1809169008C7F842B809369
:1040F0006900E89A089580916900440F551F440FA4
:10410000551F837F842B80936900E99A08958091DD
:10411000690034E0440F551F3A95E1F78F7C842BFA
:1041200080936900EA9A08958091690026E0440F1F
:10413000551F2A95E1F78F73842B80936900EB9AC2
:10414000089580916A0094E0440F551F9A95E1F715
:104150008F7C842B80936A00EE9A08958530D8F482
:10416000823061F018F4813039F004C0833041F0BE
:10417000843041F0E89807C0E99805C0EA9803C088
:10418000EB9801C0EE98E82FF0E0EE0FFF1FE65C21
:10419000F94F1182108208951F920F920FB60F925D
:1041A00011242F933F934F935F936F937F938F933C
:1041B0009F93AF93BF93EF93FF9380913A069091B3
:1041C0003B06892B29F0E0913A06F0913B060995D0
:1041D000FF91EF91BF91AF919F918F917F916F91DF
:1041E0005F914F913F912F910F900FBE0F901F90B5
:1041F00018951F920F920FB60F9211242F933F9391
:104200004F935F936F937F938F939F93AF93BF93DE
:10421000EF93FF9380913C0690913D06892B29F006
:10422000E0913C06F0913D060995FF91EF91BF9119
:10423000AF919F918F917F916F915F914F913F913E
:104240002F910F900FBE0F901F9018951F920F92F5
:104250000FB60F9211242F933F934F935F936F9359
:104260007F938F939F93AF93BF93EF93FF9380912F
:104270003E0690913F06892B29F0E0913E06F09191
:104280003F060995FF91EF91BF91AF919F918F915B
:104290007F916F915F914F913F912F910F900FBE42
:1042A0000F901F9018951F920F920FB60F92112426
:1042B0002F933F934F935F936F937F938F939F932E
:1042C000AF93BF93EF93FF93809140069091410687
:1042D000892B29F0E0914006F09141060995FF9164
:1042E000EF91BF91AF919F918F917F916F915F916E
:1042F0004F913F912F910F900FBE0F901F901895E7
:104300001F920F920FB60F9211242F933F934F934A
:104310005F936F937F938F939F93AF93BF93EF932D
:10432000FF938091420690914306892B29F0E091FA
:104330004206F09143060995FF91EF91BF91AF912D
:104340009F918F917F916F915F914F913F912F91AD
:104350000F900FBE0F901F9018951F920F920FB6DF
:104360000F9211242F933F938F939F93AF93BF93FB
:104370008091450690914606A0914706B091480667
:104380003091440623E0230F2D3720F40196A11D20
:10439000B11D05C026E8230F0296A11DB11D209373
:1043A00044068093450690934606A0934706B09333
:1043B00048068091490690914A06A0914B06B0911B
:1043C0004C060196A11DB11D8093490690934A06A3
:1043D000A0934B06B0934C06BF91AF919F918F91E4
:1043E0003F912F910F900FBE0F901F9018952FB7F0
:1043F000F894609145067091460680914706909129
:1044000048062FBF08953FB7F894809149069091D0
:104410004A06A0914B06B0914C0626B5A89B05C054
:104420002F3F19F00196A11DB11D3FBF6627782FC0
:10443000892F9A2F620F711D811D911D42E0660F19
:10444000771F881F991F4A95D1F70895CF92DF9261
:10445000EF92FF92CF93DF936B017C010E940322C6
:10446000EB01C114D104E104F10489F00E942C2D68
:104470000E9403226C1B7D0B683E734090F381E029
:10448000C81AD108E108F108C851DC4FEACFDF9122
:10449000CF91FF90EF90DF90CF900895789484B5FE
:1044A000826084BD84B5816084BD85B5826085BD30
:1044B00085B5816085BDEEE6F0E080818160808316
:1044C000E1E8F0E0108280818260808380818160F9
:1044D0008083E0E8F0E0808181608083E1E9F0E0C2
:1044E000808182608083808181608083E0E9F0E068
:1044F000808181608083E1ECF0E080818460808352
:10450000808182608083808181608083E3ECF0E041
:10451000808181608083E0ECF0E080818260808334
:10452000E2ECF0E0808181608083EAE7F0E0808166
:1045300084608083808182608083808181608083C9
:104540008081806880830895823108F08251E82F4D
:10455000F0E0EA52FC4FE49180917B00E3FB2227DC
:1045600020F930E095E0220F331F9A95E1F78F7D17
:10457000822B80937B00E77080910D0120E4829F65
:10458000C0011124E82BE0937C0080917A008064C4
:1045900080937A0080917A0086FDFCCF809178002C
:1045A0002091790090E0922B08951F93CF93DF9391
:1045B000182FEB0161E00E94A923209711F460E01D
:1045C00004C0CF3FD10539F461E0812FDF91CF9155
:1045D0001F910C94E223E12FF0E0EE51FC4F449147
:1045E00050E0FA013197EF30F10508F06CC0E45962
:1045F000FF4F0C94D13084B5806884BDC7BD68C0BE
:1046000084B5806284BDC8BD63C08091800080682D
:1046100080938000D0938900C093880059C0809116
:104620008000806280938000D0938B00C0938A00CA
:104630004FC080918000886080938000D0938D006F
:10464000C0938C0045C0809190008068809390005A
:10465000D0939900C09398003BC0809190008062F5
:1046600080939000D0939B00C0939A0031C08091BA
:104670009000886080939000D0939D00C0939C0030
:1046800027C08091C00080688093C0008091C000E6
:104690008F7B8093C000C093CF001AC08091C00070
:1046A00080628093C000C093D00012C08091C2008D
:1046B00088608093C2008091C2008B7F8093C2008B
:1046C000C093D20005C0C038D1050CF07DCF77CFA4
:1046D000DF91CF911F91089590E0FC013197EF3069
:1046E000F105B0F5E558FF4F0C94D1308091800072
:1046F0008F7703C0809180008F7D80938000089524
:1047000080918000877FF9CF84B58F7702C084B510
:104710008F7D84BD0895809190008F7707C0809130
:1047200090008F7D03C080919000877F80939000E0
:1047300008958091C0008F7703C08091C0008F7D65
:104740008093C00008958091C200877F8093C2004B
:104750000895CF93DF9390E0FC01E050FC4F24914B
:10476000FC01E25EFB4F8491882349F190E0880FC1
:10477000991FFC01E85AFB4FA591B491865B9B4FB2
:10478000FC01C591D4919FB7611108C0F8948C9138
:10479000209582238C93888182230AC0623051F451
:1047A000F8948C91322F309583238C938881822BBF
:1047B000888304C0F8948C91822B8C939FBFDF91E7
:1047C000CF9108950F931F93CF93DF931F92CDB78F
:1047D000DEB7282F30E0F901EE51FC4F8491F9014A
:1047E000E050FC4F1491F901E25EFB4F049100236D
:1047F000C9F0882321F069830E946C236981E02F2E
:10480000F0E0EE0FFF1FE65BFB4FA591B4919FB761
:10481000F8948C91611103C01095812301C0812B04
:104820008C939FBF0F90DF91CF911F910F910895AF
:10483000CF93DF93282F30E0F901EE51FC4F8491A4
:10484000F901E050FC4FD491F901E25EFB4FC491B5
:10485000CC2391F081110E946C23EC2FF0E0EE0F3D
:10486000FF1FE45CFB4FA591B4912C912D2381E0B7
:1048700090E021F480E002C080E090E0DF91CF91F1
:104880000895CF93DF931F92CDB7DEB76983DC0124
:10489000ED91FC910280F381E02D41E050E0BE01FA
:1048A0006F5F7F4F09950F90DF91CF910895CF9360
:1048B000DF93EC018C859D8597FF05C082E00E9407
:1048C0005C299D878C878C859D85DF91CF9108958C
:1048D00083E00C94B12BFC018485958597FD06C07F
:1048E00082E00E94042990E00196089582E00E94EF
:1048F000042990E00895FC018485958597FD05C005
:104900002FEF3FEF35872487089582E00C945C29D0
:10491000CF93DF93EC0180911501882331F083E080
:104920000E948D291816190634F081E090E09B83CF
:104930008A8380E090E0DF91CF910895FC0120818F
:104940002E5F208342E450E066E674E080E80C9439
:10495000282AFC0181819081913A59F4813209F031
:104960003CC047E050E06EE071E080E00E94282A01
:1049700043C0913291F5803239F467E070E08EE007
:1049800091E00E94592A06C0823209F035C0828126
:104990008093150180910E0190910F01A09110015B
:1049A000B0911101803B9440A105B105C1F4809103
:1049B000150180FD14C087E797E790930108809365
:1049C00000082BE088E190E00FB6F894A89580935A
:1049D00060000FBE209360000FC080E0089588E162
:1049E0000FB6F89480936000109260000FBEA895F7
:1049F000109201081092000881E008952FEF3FEF18
:104A0000FC01358724870895CF93C09115016AE092
:104A100070E080E090E00E94262281E0C11101C098
:104A200080E0CF9108951092500610924F0688EEC4
:104A300093E0A0E0B0E08093510690935206A093DB
:104A40005306B09354068EE394E090934E06809301
:104A50004D068FEF9FEF90935A0680935906089565
:104A6000FC01818D228D90E0805C9F4F821B91091B
:104A70008F7399270895FC01918D828D981731F0DD
:104A8000828DE80FF11D858D90E008958FEF9FEFE7
:104A90000895FC01918D828D981761F0828DDF0160
:104AA000A80FB11D5D968C91928D9F5F9F73928F21
:104AB00090E008958FEF9FEF08958DEC96E2892B9B
:104AC00049F080E090E0892B29F00E94CD268111E9
:104AD0000C9400000895FC01848DDF01A80FB11D26
:104AE000A35ABF4F2C91848D90E001968F73992724
:104AF000848FA689B7892C93A089B1898C91806411
:104B00008C93938D848D981306C00288F389E02DD1
:104B100080818F7D80830895CF93DF93EC01888D12
:104B20008823C9F0EA89FB89808185FD05C0A889B1
:104B3000B9898C9186FD0FC00FB607FCF5CF808137
:104B400085FFF2CFA889B9898C9185FFEDCFCE0181
:104B50000E946B25E7CFDF91CF910895CF92DF922E
:104B6000FF920F931F93CF93DF931F92CDB7DEB7C2
:104B70006C01DC015B969C915B975C968C915C97D9
:104B8000981307C05096ED91FC915197808185FD57
:104B900032C0F601038D10E00F5F1F4F0F73112716
:104BA000F02EF601848DF81211C00FB607FCF9CF74
:104BB000D6015096ED91FC915197808185FFF1CF00
:104BC000C60169830E946B256981EBCF838DE80F55
:104BD000F11DE35AFF4F6083D6015B960C935B9700
:104BE0005296ED91FC91539780818062808381E0A1
:104BF00058968C930DC0D6015696ED91FC9157971F
:104C000060835096ED91FC91519780818064808300
:104C100081E090E00F90DF91CF911F910F91FF9075
:104C2000DF90CF900895BF92CF92DF92EF92FF92E4
:104C3000CF93DF93EC016A017B01B22EE889F989F9
:104C400082E08083411581EE580761057105A1F06E
:104C500060E079E08DE390E0A70196010E94AF301B
:104C600021503109410951095695479537952795A6
:104C7000211580E1380798F0E889F989108260E809
:104C800074E88EE190E0A70196010E94AF302150B8
:104C90003109410951095695479537952795EC8576
:104CA000FD853083EE85FF852083188EEC89FD8994
:104CB000B082EA89FB89808180618083EA89FB89EF
:104CC000808188608083EA89FB8980818068808315
:104CD000EA89FB8980818F7D8083DF91CF91FF906E
:104CE000EF90DF90CF90BF9008951F920F920FB674
:104CF0000F9211242F938F939F93EF93FF93E09143
:104D0000AD06F091AE068081E091B306F091B40655
:104D100082FD12C090818091B6068F5F8F732091C3
:104D2000B706821751F0E091B606F0E0E356F94F6E
:104D3000958F8093B60601C08081FF91EF919F917E
:104D40008F912F910F900FBE0F901F9018951F926B
:104D50000F920FB60F9211242F933F934F935F93AF
:104D60006F937F938F939F93AF93BF93EF93FF9333
:104D70008DE996E00E946B25FF91EF91BF91AF9175
:104D80009F918F917F916F915F914F913F912F9163
:104D90000F900FBE0F901F9018958DE996E00E941E
:104DA000302521E0892B09F420E0822F089510920C
:104DB000A00610929F0688EE93E0A0E0B0E08093FA
:104DC000A1069093A206A093A306B093A4068EE436
:104DD00094E090939E0680939D068DEC90E09093D6
:104DE000AA068093A9068CEC90E09093AC06809381
:104DF000AB0688EC90E09093AE068093AD0689EC0C
:104E000090E09093B0068093AF068AEC90E0909388
:104E1000B2068093B1068EEC90E09093B406809336
:104E2000B3061092B6061092B7061092B80610920A
:104E3000B906089508950E944E220E941A278AE317
:104E400097E00E94112C0E945812CDE5D5E20E94F5
:104E500099182097E1F30E945D25F9CF0C94D73083
:104E6000CF92DF92EF92FF920F931F93CF93DF9336
:104E70006C017A01EB01E60EF71E00E010E0CE15A2
:104E8000DF0561F06991D601ED91FC910190F0810F
:104E9000E02DC6010995080F191FF1CFC801DF9158
:104EA000CF911F910F91FF90EF90DF90CF900895D9
:104EB000EF92FF920F931F93CF93DF938C01FB012F
:104EC000C0E0D0E064917F018FEFE81AF80A662312
:104ED00061F0D801ED91FC910190F081E02DC801C5
:104EE0000995C80FD91FF701EDCFCE01DF91CF9102
:104EF0001F910F91FF90EF900895DC01ED91FC91CF
:104F0000DB0114964D915C9115976D917C91028017
:104F1000F381E02D09940C943006DC01ED91FC91B5
:104F20000190F081E02D09940F931F93CF93DF93AD
:104F3000EC016DE00E948D278C016AE0CE010E9499
:104F40008D27800F911FDF91CF911F910F910895B1
:104F50000F931F93CF93DF93EC010E9458278C018E
:104F6000CE010E949427800F911FDF91CF911F9156
:104F70000F9108950F931F93CF93DF93EC010E943D
:104F800030068C01CE010E949427800F911FDF9183
:104F9000CF911F910F9108958F929F92AF92BF92E0
:104FA000CF92DF92EF92FF920F931F93CF93DF93F5
:104FB000CDB7DEB7A1970FB6F894DEBF0FBECDBF59
:104FC0007C01C42EE52FCB01D22E19A221E02D1594
:104FD00010F02AE0D22E8E010F5D1F4F8D2C912CE8
:104FE000A12CB12C6C2D7E2FA50194010E94AF3015
:104FF0008C2DD29E80191124015011098A3014F48D
:10500000805D01C0895CF80180832115310541056F
:10501000510521F0C22EE32FCA01E4CFB801C70128
:105020000E943006A1960FB6F894DEBF0FBECDBF2A
:10503000DF91CF911F910F91FF90EF90DF90CF9074
:10504000BF90AF909F908F900895CF92DF92EF9294
:10505000FF920F931F93CF93DF93EC016A017B01C3
:105060002115310579F4E881F9810190F081E02D75
:10507000642FDF91CF911F910F91FF90EF90DF9000
:10508000CF9009942A303105E9F477FF1AC06DE218
:105090000E948D278C0144275527BA014C195D09C0
:1050A0006E097F092AE0CE010E94CC27800F911F54
:1050B000DF91CF911F910F91FF90EF90DF90CF90F4
:1050C00008952AE0B701A601CE01DF91CF911F918B
:1050D0000F91FF90EF90DF90CF900C94CC279A0126
:1050E000AB01662757FD6095762F0C942528211576
:1050F000310541F4DC01ED91FC910190F081E02D4E
:10510000642F09940C94CC279A01462F50E060E05C
:1051100070E00C94772840913E0750913F07209112
:105120003C0730913D0742175307B4F49091E800D3
:105130009570E1F39091E80092FD19C08093F10021
:1051400080913E0790913F0701968F739927892B95
:1051500019F48EEF8093E80080913E0790913F070D
:10516000019690933F0780933E0781E0089580E089
:105170000895CF92DF92FF920F931F93CF93DF9307
:105180001F92CDB7DEB7082F162F862F880F8E5FA0
:1051900099830E948B2883E00E948B28F02EC02EDA
:1051A0009981D92E8C2D8F19811778F4F60184916D
:1051B0000E948B28082F80E00E948B288023FFEF1D
:1051C000CF1ADF0A8111EECF01C081E00F90DF918D
:1051D000CF911F910F91FF90DF90CF900895615074
:1051E00030F02091F100FC0120830196F8CF28983F
:1051F00084E68093410708952FB7FC012083F8943B
:1052000067706093E9000895CF93DF931F92CDB745
:10521000DEB7682FCE0101960E94FC288091F20033
:1052200099819FBF0F90DF91CF910895FF920F93C7
:105230001F93CF93DF9300D0CDB7DEB7F62E8A0150
:1052400090914007992311F057FF03C08FEF9FEF14
:105250002BC0682FCE0101967A830E94FC28809192
:10526000F20090E0A8017A81801791070CF4AC015C
:10527000EF2DF72FF40E84E6FE1639F02898809370
:1052800041079091F1009193F7CF4115510521F01D
:105290008091F200882321F089818FBFCA0104C068
:1052A0008BE68093E800F8CF0F900F90DF91CF91BD
:1052B0001F910F91FF900895CF93DF931F92CDB769
:1052C000DEB741E050E0BE016F5F7F4F0E941629BC
:1052D000019719F4898190E002C08FEF9FEF0F9042
:1052E000DF91CF910895CF93DF931F92CDB7DEB7B3
:1052F000682FCE0101960E94FC289091E800892F2A
:10530000807295FF04C09091F20080E4891B99811E
:105310009FBF0F90DF91CF9108956F927F928F92F0
:105320009F92AF92BF92CF92DF92EF92FF920F9334
:105330001F93CF93DF931F92CDB7DEB7782E7B01FB
:10534000C42EB52E80914007882369F0042F152FB5
:105350008AEFD82E872D8072982E9AE3A92E872D5A
:105360008074882E11C08FEF9FEF57C0872D0E9449
:105370007329682E81110CC0DA94A9F361E070E002
:1053800080E090E00E9426220115110579F73BC0CC
:10539000282F30E0021713070CF4602E672DCE0182
:1053A00001960E94FC288091E80085FF29C0262DE7
:1053B00030E0021B130B992039F06A948FEF6816C6
:1053C000B1F01092F100F9CFF701862D77FE07C0FA
:1053D000815058F094919093F1003196F9CF81501B
:1053E00020F091919093F100FACFE20EF31E80919C
:1053F000E80085FF0FC00115110511F481100AC0E6
:1054000089818FBFC1CF5D9884E6809342078C2D40
:105410009B2D03C0A092E800F3CF0F90DF91CF91B6
:105420001F910F91FF90EF90DF90CF90BF90AF90C2
:105430009F908F907F906F9008951092E900109246
:105440003F0710923E0790933D0780933C070895D5
:10545000CF92DF92FF920F931F93CF93DF9300D0F1
:10546000CDB7DEB7F82E8A016B0101151105B1F039
:10547000F601F7FE02C0849101C0808149835A83FE
:105480000E948B2801501109FFEFCF1ADF0A4981D2
:105490005A818111EACF8FEF9FEF01C0CA010F90AF
:1054A0000F90DF91CF911F910F91FF90DF90CF90E0
:1054B00008951F93CF93DF931F92CDB7DEB7162FBA
:1054C0002091E80022FFFCCF612F79830E94EF2812
:1054D0008BEF8093E800812F7981972F0F90DF91D8
:1054E000CF911F910895CF93DF931F92CDB7DEB771
:1054F0001982CE0101960E949E24CE0101960E943F
:105500004B2D898190E00F90DF91CF9108951F92EC
:105510000F920FB60F921124EF92FF920F931F93E9
:105520002F933F934F935F936F937F938F939F93AB
:10553000AF93BF93EF93FF93CF93DF93CDB7DEB7D6
:105540006297DEBFCDBF1092E9008091E80083FF33
:10555000EBC068E0CE010A960E94EF2882EF8093AC
:10556000E8009A8597FF05C08091E80080FFFCCF96
:1055700003C08EEF8093E800892F807609F0B9C0D0
:105580008B85811105C01092F1001092F100C5C009
:10559000282F2D7F213009F4C0C0853049F4809137
:1055A000E80080FFFCCF8C8580688093E300B5C065
:1055B000863009F076C02D85E888F988223071F5AB
:1055C00080E090E02A8B0E941D2A0E94732A99E0B5
:1055D0008E010F5F1F4FF801392F11923A95E9F7AD
:1055E00099832A892A8391E09E8390E898879AEF8D
:1055F000998720913E0730913F07275F3F4F3C83BB
:105600002B838D83C7010E941D2A49E050E0B80119
:1056100080E00E94282A0E94732A7FC0C7012A8B3B
:105620000E941D2A2A89223241F482E290E00E94DF
:10563000562D892B09F071C074C0213069F4888916
:105640009989089711F420933B0780913B078111BA
:1056500018C06FEB74E01AC0233009F062C08C856B
:10566000882391F0823021F46DE08DED94E006C046
:10567000813009F056C06BE081ED94E00E94B928BA
:105680004AC06DEA74E002C06BEE74E0611571050A
:1056900009F447C0FB01449150E080E80E94282AA9
:1056A0003CC0873009F43DC0883021F481E080930C
:1056B000F10033C0893089F5937099F5E9EAF4E097
:1056C00081E021E096E38093E9002093EB003491A0
:1056D0003093EC009093ED008F5F3196853099F711
:1056E0008EE78093EA001092EA008C858093400751
:1056F00014C0888999890E941D2A8E85811105C050
:10570000CE010A960E94A92406C0823051F4CE012F
:105710000A960E947E2D882321F08EEF8093E80068
:1057200003C081E28093EB0062960FB6F894DEBF6F
:105730000FBECDBFDF91CF91FF91EF91BF91AF91A0
:105740009F918F917F916F915F914F913F912F9199
:105750001F910F91FF90EF900F900FBE0F901F9031
:1057600018958093E9008091F200882319F08AE36C
:105770008093E80008951F920F920FB60F921124A4
:105780002F933F934F935F936F937F938F939F9349
:10579000AF93BF93EF93FF938091E1001092E100EC
:1057A00083FF0FC01092E90091E09093EB001092FC
:1057B000EC0092E39093ED001092400798E09093F4
:1057C000F00082FF1DC083E00E94B12B8091420750
:1057D000882339F0809142078150809342078823C3
:1057E00069F080914107882359F0809141078150E9
:1057F00080934107811104C0289A02C05D9AF1CFBD
:10580000FF91EF91BF91AF919F918F917F916F9198
:105810005F914F913F912F910F900FBE0F901F906E
:1058200018951092400781E08093D70080EA80931A
:10583000D80082E189BD09B400FEFDCF61E070E0CF
:1058400080E090E00E94262280E98093D8008CE0DE
:105850008093E2001092E000559A209A0895FC018E
:10586000808191810C946F31CF93DF93EC0188811B
:105870009981009711F00E946F31198218821D8260
:105880001C821B821A82DF91CF9108950F931F9380
:10589000CF93DF93EC018B016F5F7F4F88819981FC
:1058A0000E94FE31009731F0998388831B830A831D
:1058B00081E001C080E0DF91CF911F910F910895A9
:1058C000CF93DF93EC0188819981892B29F08A811C
:1058D0009B818617970760F4CE010E94462C88238F
:1058E00041F08C819D81892B19F4E881F981108226
:1058F00081E0DF91CF910895EF92FF920F931F9374
:10590000CF93DF93EC017B018A01BA010E94602CE6
:10591000811104C0CE010E94342C07C01D830C836A
:10592000B701888199810E94D132CE01DF91CF9158
:105930001F910F91FF90EF900895FC01118210824A
:1059400013821282158214826115710559F0FB01D0
:1059500001900020E9F7AF0141505109461B570B58
:105960000C947C2C0895CF93DF93EC01FB018617F8
:10597000970761F0608171816115710529F044819B
:1059800055810E947C2C02C00E94342CCE01DF91F4
:10599000CF910895FC011182108213821282158228
:1059A00014820C94B32CEF92FF920F931F93CF931A
:1059B000DF93EC017B010C811D816115710511F4F0
:1059C00080E016C04115510591F0040F151FB80174
:1059D0000E94602C8823A1F3288139818C819D81CC
:1059E000B701820F931F0E94D1321D830C8381E087
:1059F000DF91CF911F910F91FF90EF900895CF937A
:105A0000DF93EC01FB0144815581608171810E942B
:105A1000D32C811103C0CE010E94342CCE01DF9122
:105A2000CF910895CF93DF93EC016115710569F073
:105A3000FB0101900020E9F7AF0141505109461BDD
:105A4000570B0E94D32C811103C0CE010E94342C2D
:105A5000CE01DF91CF9108950895FF920F931F9388
:105A6000CF93DF93EC01F62EE881F9810480F58174
:105A7000E02D09958C01E881F9810680F781E02D00
:105A80006F2DCE010995C8019927DF91CF911F9104
:105A90000F91FF900895FC0120812F5F208349E141
:105AA00050E06FE675E080E80C94282A45E650E067
:105AB00068E875E080E80C94282AEF92FF920F9333
:105AC0001F93CF93DF931F92CDB7DEB789838B01EE
:105AD0007A0141E050E0BE016F5F7F4F84E00E9499
