:100000000C94E3020C9471180C949E180C94CB1869
:100010000C94F8180C940B030C940B030C942519F6
:100020000C940B030C940B030C9489220C94552113
:100030000C940B030C940B030C940B030C940B0308
:100040000C940B030C940B030C940B030C940B03F8
:100050000C940B030C940B030C940B030C9452198B
:100060000C940B030C94431D0C94751D0C940B0302
:100070000C940B030C940B030C940B030C940B03C8
:100080000C940B030C940B030C940B030C940B03B8
:100090000C940B030C940B030C940B030C940B03A8
:1000A0000C940B030C940B030C940B036A0B6E0B58
:1000B000720B760B930B930B930B790B880B930BB3
:1000C000930B930B930B930B930B8C0B930B930B47
:1000D000930B930B930B900B611A641A531A571AD4
:1000E0005D1A851A851A851A681A6C1A701A761A9A
:1000F0007A1A851A801A227D002C20226E65787467
:100100005478427566666572223A2200222C2022BB
:100110006572726F72223A2200222C20227374615F
:10012000747573223A2200222C202263616E63745C
:10013000726C223A22007B2265223A226275736435
:100140006762222C20226E616D65223A2200202DEA
:10015000204E6F204572726F727322002C200A228B
:100160002252656365697665204275666665722010
:1001700031204F766572666C6F7722002C200A2240
:1001800052656365697665204275666665722030E2
:10019000204F766572666C6F7722002C200A22420F
:1001A0007573204F6666202D205445432065786383
:1001B00065656465642032353522002C200A22549E
:1001C00072616E736D6974204572726F722057612F
:1001D000726E696E67202D20544543203E3D2031CC
:1001E000323822002C200A22526563656976652028
:1001F0004572726F72205761726E696E67202D2092
:10020000524543203E3D2031323822002C200A2224
:100210005472616E736D6974204572726F722057EB
:1002200061726E696E67202D20544558203E3D2036
:10023000393622002C200A225265636569766520D2
:100240004572726F72205761726E696E67202D2041
:10025000524543203E3D2039362200220A22526573
:100260006365697665204572726F72205761726EA0
:10027000696E67202D20544543206F7220524543FC
:10028000203E3D2039362200227D00227D007B2247
:100290006576656E74223A22656570726F6D446191
:1002A0007461222C2022726573756C74223A226666
:1002B00061696C757265222C20226368756E6B22F1
:1002C0003A22007B226576656E74223A226565705B
:1002D000726F6D53617665222C2022726573756C86
:1002E00074223A2273756363657373227D00227DE5
:1002F000007B226576656E74223A22656570726FA6
:100300006D44617461222C2022726573756C7422B5
:100310003A2273756363657373222C2022636875B8
:100320006E6B223A22007D002C20277261746527B3
:100330003A007B2765273A2762617564272C2027BE
:10034000627573273A007B2765273A276175746FBA
:1003500062617564436F6D706C657465272C20272E
:1003600072617465273A007B2765273A27617574A7
:100370006F6261756454657374272C2027726174F1
:1003800065273A007B226576656E74223A226565A0
:1003900070726F6D5265736574222C2022726573C2
:1003A000756C74223A2273756363657373227D00E2
:1003B0000000000200090F0000030401000C00000F
:1003C0000000000000000000000000000000040821
:1003D000020110408040102040804080080204014B
:1003E00080402010020110801020404004040404CA
:1003F00004030405020202020403020202020606CA
:10040000060606060404020202040000000023009F
:10041000260029002C002F000000000025002800E5
:100420002B002E00310000000000240027002A00CD
:100430002D003000080B0002020201000904000038
:10044000010202000005240010010524010101043D
:100450002402060524060001070581031000400957
:10046000040100020A000000070502024000000724
:1004700005830240000000C18081C1120100020218
:1004800000004041233680000101020001120100FA
:1004900002000000404123368000010102000141BA
:1004A000726475696E6F204C4C430043414E427537
:1004B0007320547269706C65000403090400000025
:1004C00000000000002A2B280000000000000000AF
:1004D000000000000000000000000000002C9EB49E
:1004E000A0A1A2A434A6A7A5AE362D3738271E1F7B
:1004F00020212223242526B333B62EB7B89F848526
:10050000868788898A8B8C8D8E8F90919293949513
:10051000969798999A9B9C9D2F3130A3AD350405F1
:10052000060708090A0B0C0D0E0F101112131415F3
:10053000161718191A1B1C1DAFB1B0B5000904021B
:1005400000010300000009210101000122650007EC
:1005500005840340000105010902A1010901A10070
:100560008501050919012903150025019503750168
:1005700081029501750581030501093009310938AA
:100580001581257F750895038106C0C00501090600
:10059000A1018502050719E029E71500250175016C
:1005A0009508810295017508810395067508150067
:1005B00025650507190029658100C0000B12E11BA4
:1005C000A51D3125951211241FBECFEFDAE0DEBF45
:1005D000CDBF13E0A0E0B1E0E4E3F4E502C0059094
:1005E0000D92A63BB107D9F726E0A6EBB3E001C018
:1005F0001D92A039B207E1F715E0C4ECD5E004C0C4
:100600002297FE010E948D27CC3BD107C9F70E949B
:10061000E91D0C940D2A0C940000089508952F9262
:100620003F924F925F926F927F928F929F92AF9282
:10063000BF92CF92DF92EF92FF920F931F93CF93CF
:10064000DF93CDB7DEB72E970FB6F894DEBF0FBE9F
:10065000CDBF4C01798768876A01DB011496ED9163
:10066000FC9115978081E82FF0E0FB87EA87F2E2A2
:100670008F9F800111240B5E1B4FE12CF12C8F5FAB
:100680008C87A885B9851496ED91FC91159780818A
:1006900090E001962A853B852E0D3F1D821793071A
:1006A0000CF4BBC0980129513109F801759780817C
:1006B0003196811104C09081992309F4A8C090E07B
:1006C000982F88274081840F911D0896D601119696
:1006D0004D915C9112974817590709F098C080E036
:1006E00090E0F901E80FF91F4485442359F0D60141
:1006F000A40FB11D5C914585541389C002968630C4
:10070000910579F7F80137978081869586958695CA
:100710008250F601E80FF11D6381D80116978C9184
:1007200070E0803129F4762F66278481680F711D6F
:10073000F8013597A080B12CBA2CAA24319680817B
:10074000A80EB11C3196208130E0322F222731963D
:100750008081280F311D31962080312C322C2224AB
:10076000F8018081280E311C2115310511F421E09A
:1007700030E080E090E02D873E870E9440262B01EC
:100780003C012D853E85B90180E090E00E94402625
:100790009B01AC01C301B2010E94A7252B013C01C2
:1007A000B50180E090E00E9440269B01AC01C301AE
:1007B000B2010E94F2262B013C01B10180E090E0E1
:1007C0000E9440269B01AC01C301B2010E943F255B
:1007D0000E941426F8017797208131812617370768
:1007E000B1F071836083F7EEF98323E82A832C85C7
:1007F0002E0D2B837C836D833DE03E838AE08F83C7
:10080000BE016F5F7F4F89ED95E00E94591E9FEFFB
:10081000E91AF90A0E5D1F4F34CF80E1F601D401C9
:1008200001900D928A95E1F7C4012E960FB6F894C7
:10083000DEBF0FBECDBFDF91CF911F910F91FF9013
:10084000EF90DF90CF90BF90AF909F908F907F9070
:100850006F905F904F903F902F90089561E08DE0F2
:100860000E94861A61E08DE00E94BF1A6AEF70E074
:1008700080E090E00E94CB1960E08DE00E94BF1AFA
:100880006AEF70E080E090E00E94CB19EBCF009718
:1008900011F00E94881E0E942E046115710581F0DE
:1008A000DB010D900020E9F7AD0141505109461BD5
:1008B000570BDC01ED91FC910280F381E02D09944E
:1008C00080E090E008950F931F93CF93DF93EC01A6
:1008D0008B01FB018081918199838883828193813F
:1008E0009B838A836C5F7F4FCE0104960E9498237E
:1008F000F801828593859B878A87DF91CF911F912D
:100900000F9108954EE351E060E070E00C94BE2931
:100910009FEF980F933078F41616170664F4E82FBB
:10092000F0E0EE0FFF1FE451FC4F748363838EEE03
:1009300093E00C94820408959FEF980F933048F44D
:10094000E82FF0E0EE0FFF1FE451FC4F838194810C
:10095000089580E090E00895CF93DF93C0E0D0E069
:1009600040E0BE0185E795E00E944C132196C11539
:1009700082E0D807A9F7DF91CF9108950F931F93D5
:10098000CF93DF93CDB7DEB7CE53D1400FB6F894F7
:10099000DEBF0FBECDBF0E94AC048EE391E0E2E16A
:1009A000F1E0DE01119601900D920197E1F7CE0181
:1009B00001960E9482040E94080564E873E089E8B9
:1009C00095E00E94761E06E010E061E08DE00E9456
:1009D000BF1A64EF71E080E090E00E94CB1960E004
:1009E0008DE00E94BF1A64EF71E080E090E00E9409
:1009F000CB190150110949F7C25CDE4F0FB6F894CC
:100A0000DEBF0FBECDBFDF91CF911F910F91089533
:100A10008EE391E0EEEEF3E0DF019C011D922150A8
:100A20003040E1F74EE351E060E070E0CF010E941A
:100A3000A6298091EF0381508E3F10F00C94BE04E4
:100A400008955F926F927F928F929F92AF92BF9222
:100A5000CF92DF92EF92FF920F931F93CF93DF938A
:100A6000CDB7DEB76E970FB6F894DEBF0FBECDBF21
:100A7000982E5B018FEF890D833008F0D3C0292DAC
:100A800030E0215031098CE0829FB001839F700DCE
:100A90001124645D7A4F7E0183E1E80EF11CC701E9
:100AA0000E9463046FE070E0C7010E94BA16582EDE
:100AB0006BE270E0C7010E94BA16682E92E1E0E591
:100AC000F2E0DE01119601900D929A95E1F7FE0198
:100AD00031966F01712C812C67E673E0C5010E948D
:100AE000261EF601019111916F014AE050E0B80114
:100AF000C5010E943D1F62E672E0C5010E94881E8A
:100B000060E070E0C7010E94561565E070E080E08B
:100B100090E00E94CB19B801C7010E94C11365E0A3
:100B200070E080E090E00E94CB1963E070E0C701C4
:100B30000E94561565E070E080E090E00E94CB19BD
:100B40002FEF40E06CE2C7010E94DC1465E070E02A
:100B500080E090E00E94CB1968EC70E080E090E0CB
:100B60000E94CB196CE270E0C7010E94BA1687FDA3
:100B700002C0811102C0072D182DCE14DF0419F018
:100B8000702E812EA9CF60E070E0C6010E9456153C
:100B90006AE070E080E090E00E94CB19B801C601E5
:100BA0000E94C11361E070E080E090E00E94CB19E8
:100BB0002FEF452D6FE0C6010E94DC1461E070E06C
:100BC00080E090E00E94CB192FEF462D6BE2C6012A
:100BD0000E94DC1461E070E080E090E00E94CB199C
:100BE00061E070E0C6010E94561566E473E0C5013D
:100BF0000E94261E4AE050E0B801C5010E943D1F38
:100C000062E672E0C5010E94881E0115110521F0FF
:100C1000B801892D0E948804CE0147960E94FD22CA
:100C2000C80102C080E090E06E960FB6F894DEBF77
:100C30000FBECDBFDF91CF911F910F91FF90EF902D
:100C4000DF90CF90BF90AF909F908F907F906F90EC
:100C50005F9008950F931F93CF93DF93EC018B0167
:100C60008FE693E099838883CE0108960E946518E9
:100C70001D830C831F821E8289E895E09B838A83F3
:100C8000DF91CF911F910F910895EF92FF920F93F3
:100C90001F93CF93DF93EC018B01DB011D962D9108
:100CA0003C911E97A9014150510981E090E0042E2A
:100CB00001C0880F0A94EAF79F81982309F489C03C
:100CC0008A819B81B5E0893D9B07E9F4FB01418165
:100CD0005281F9013396EE0FFF1FEC0FFD1F60816B
:100CE000772767FD70956417750769F0F901EE0FB6
:100CF000FF1FEC0FFD1F2781332727FD3095241799
:100D0000350709F066C0DC01ED91FC910190F0819E
:100D1000E02D63E009958A819B81DC01ED91FC91D6
:100D20000190F081E02DD8011D966C9109958A8182
:100D30009B81DC01ED91FC91D80112966C910190A0
:100D4000F081E02D09958A819B81DC01ED91FC9178
:100D50000190F081E02DD80111966C910995E12C5C
:100D6000F12C8A819B81DC01ED91FC91D801AE0DC3
:100D7000BF1D0190F081E02D13966C910995BFEF96
:100D8000EB1AFB0AE8E0EE16F10459F78A819B8121
:100D9000DC01ED91FC910190F081E02DD8016C9186
:100DA00009958A819B81DC01ED91FC910190F08194
:100DB000E02DD8011B966C91099564E672E08A815A
:100DC0009B81DF91CF911F910F91FF90EF900C9439
:100DD0004D04DF91CF911F910F91FF90EF900895F7
:100DE000EF92FF920F931F93CF93DF93CDB7DEB7B0
:100DF00060970FB6F894DEBF0FBECDBF8C01CB015C
:100E00007A0120E1FA01DE01119601900D922A95F6
:100E1000E1F7BE016F5F7F4F0E944506CE0101964C
:100E20000E94701880E1F701D80101900D928A9517
:100E3000E1F7C80160960FB6F894DEBF0FBECDBFD4
:100E4000DF91CF911F910F91FF90EF900895CF9276
:100E5000DF92EF92FF920F931F93CF93DF937C016A
:100E60006A01EB0100E010E00C151D05E0F4D7016C
:100E700012968D919C911397DC01ED91FC91048069
:100E8000F581E02D0995892B71F0F701828193811D
:100E9000DC01ED91FC910680F781E02D09958993A5
:100EA0000F5F1F4FE1CFC801DF91CF911F910F91CD
:100EB000FF90EF90DF90CF9008950F931F93CF9303
:100EC000DF9300D000D01F92CDB7DEB78C0145E094
:100ED00050E0BE016F5F7F4F0E94270789818430F9
:100EE00080F490E0FC013396EE0FFF1FE00FF11F3E
:100EF0002B812083FC01EE0FFF1FE00FF11F8D817E
:100F000087830F900F900F900F900F90DF91CF91EC
:100F10001F910F9108950F931F93CF93DF9300D0EC
:100F20001F92CDB7DEB78C0143E050E0BE016F5F8A
:100F30007F4F0E942707833051F46A8170E0762F3B
:100F400066278B81680F711D89810E94880462E386
:100F500073E0F801828193810E94261E4AE050E0EE
:100F60006981F801828193810E94521F68E273E0D7
:100F7000F801828193810E94261E89810E949C042F
:100F80004AE050E0BC01F801828193810E943D1F3C
:100F900066E273E0F801828193810E94761E0F90D1
:100FA0000F900F90DF91CF911F910F910895EF92C5
:100FB000FF920F931F93CF93DF93CDB7DEB7629766
:100FC0000FB6F894DEBF0FBECDBF8C01BE01635FCC
:100FD0007F4F86E0DB011D928A95E9F746E050E0FD
:100FE000C8010E9427077C012D858FEF820F833077
:100FF00060F0F80182819381DC01ED91FC91019018
:10100000F081E02D60E8099567C030E0215031099A
:101010008CE0829FB001839F700D1124645D7A4F34
:10102000CE0101960E9463042E85222359F08D85FE
:10103000815001C0220F8A95EAF7F8018781822B3F
:10104000878303C0D80117961C92B3E0EB16F10416
:101050006CF160E070E0CE0101960E945615CE0161
:1010600001960E946C176F8570E0288930E04989ED
:1010700050E0EA89F0E0CB01820F931F840F951FA7
:101080008E0F9F1F892B61F0542F44274E0F5F1F37
:10109000762F6627620F731FCE0101960E941317E9
:1010A00061E070E0CE0101960E945615F801828140
:1010B0009381DC01ED91FC910190F081E02D6FEFC7
:1010C000099564E672E0F801828193810E944D04E3
:1010D000CE0105960E94FD2262960FB6F894DEBFFF
:1010E0000FBECDBFDF91CF911F910F91FF90EF9079
:1010F00008950F931F93CF93DF93CDB7DEB7A197DA
:101100000FB6F894DEBF0FBECDBF8C0142E250E0B7
:10111000BE016F5F7F4F0E942707829789F58AA1E2
:10112000813A71F5A98180E2A89FD0011124A251D2
:10113000BC4F80E2FE01329601900D928A95E1F754
:1011400061EF72E0F801828193810E94261E4AE0DD
:1011500050E06981F801828193810E94521F6EEEF6
:1011600072E0F801828193810E94761E89818F301E
:10117000E9F48EEE93E00E94820463EC72E011C009
:101180006EE872E0F801828193810E94261E4AE097
:1011900050E06981F801828193810E94521F6BE8BF
:1011A00072E0F801828193810E94761EA1960FB6AB
:1011B000F894DEBF0FBECDBFDF91CF911F910F918D
:1011C00008950F931F93CF93DF931F92CDB7DEB790
:1011D0008C0141E050E0BE016F5F7F4F0E94270706
:1011E0008981823029F08330F1F4F80116821BC026
:1011F00081E0F801868361E08DE00E94BF1A64E619
:1012000070E080E090E00E94CB1960E08DE00E94E9
:10121000BF1A64E670E080E090E00E94CB1961E0C4
:101220008DE00E94BF1A0F90DF91CF911F910F9117
:101230000895CF93DF93EC018A819B81DC01ED91CE
:10124000FC910480F581E02D0995892B51F08A816C
:101250009B81DC01ED91FC910680F781E02D0995E1
:10126000EBCFDF91CF9108950F931F93CF93DF932F
:10127000EC018B016DE270E0C8010E94BA1680FF9C
:1012800006C06BE572E08A819B810E94261E6DE29A
:1012900070E0C8010E94BA1681FF06C064E372E0E4
:1012A0008A819B810E94261E6DE270E0C8010E9427
:1012B000BA1682FF06C06CE072E08A819B810E94B0
:1012C000261E6DE270E0C8010E94BA1683FF06C0B8
:1012D00064EE71E08A819B810E94261E6DE270E0BF
:1012E000C8010E94BA1684FF06C06BEB71E08A81C8
:1012F0009B810E94261E6DE270E0C8010E94BA1612
:1013000085FF06C06BE971E08A819B810E94261EE1
:101310006DE270E0C8010E94BA1686FF06C06CE755
:1013200071E08A819B810E94261E6DE270E0C801F7
:101330000E94BA1687FF06C06CE571E08A819B8126
:101340000E94261E6DE270E0C8010E94BA1681114B
:101350000AC06EE471E08A819B81DF91CF911F9179
:101360000F910C94261EDF91CF911F910F9108953C
:10137000EF92FF920F931F93CF93DF93CDB7DEB71A
:101380002C970FB6F894DEBF0FBECDBF8C017B014A
:1013900066E371E0FC01828193810E94261EB70101
:1013A0006C5F7F4FF801828193810E944B1E67E240
:1013B00071E0F801828193810E94261E6FE070E047
:1013C000C7010E94BA1640E150E0682FF8018281FF
:1013D00093810E94521F69E171E0F801828193813B
:1013E0000E94261EC7010E948E1640E150E0682F21
:1013F000F801828193810E94521F6CE071E0F80134
:10140000828193810E94261E6DE270E0C7010E94D6
:10141000BA1642E050E0682FF801828193810E9461
:10142000521FB701CE0101960E946304BE016F5F97
:101430007F4FC8010E943409CE0105960E94FD220B
:1014400069EF70E0F801828193810E94261EC70136
:101450000E94A6164AE050E0BC01F8018281938107
:101460000E943D1F66EF70E0F801828193810E9427
:10147000761E2C960FB6F894DEBF0FBECDBFDF915F
:10148000CF911F910F91FF90EF9008950F931F93AD
:10149000CF93DF93CDB7DEB72D970FB6F894DEBFAD
:1014A0000FBECDBF8C0141E050E0BE01635F7F4FB6
:1014B0000E9427072D852430C8F430E021503109DF
:1014C0008CE0829FB001839F700D1124645D7A4F80
:1014D000CE0101960E946304BE016F5F7F4FC80179
:1014E0000E94B809CE0105960E94FD222D960FB6E6
:1014F000F894DEBF0FBECDBFDF91CF911F910F914A
:101500000895F89481E08093E00080E28093D80011
:101510001092C90065E070E080E090E00E94CB1975
:101520001DBA109268001CBC10BE1FBA10927A003F
:1015300010926E0010926F00109271000C9400389F
:101540000895FF920F931F93CF93DF938C01C0E018
:10155000D0E0BE0185E795E00E944913F82E8FE0A8
:101560008F1538F066E672E0F801828193810E945F
:10157000591E40E150E06F2DF801828193810E9455
:10158000521FCF3FF1E0DF0739F068E672E0F80163
:10159000828193810E94591E2196C115F2E0DF07D6
:1015A000C1F6DF91CF911F910F91FF900895CF93D6
:1015B000DF9300D0CDB7DEB720918C0630918D0639
:1015C0002115310511F420E936E0CE010196821B88
:1015D000930B0F900F90DF91CF9108950F931F936E
:1015E000CF93DF93CDB7DEB762970FB6F894DEBF27
:1015F0000FBECDBF8C016AE672E0CE0101960E945B
:101600006B2360E772E0CE010D960E946B236EE7BC
:1016100072E0CE0107960E946B23BE01635F7F4F8D
:10162000CE0107960E94CD236BE972E00E94E02371
:10163000BE016F5F7F4F0E94CD236AEA72E00E9475
:10164000E023BC01F801828193810E944B1ECE01F0
:1016500007960E94FD22CE010D960E94FD22CE012A
:1016600001960E94FD22C8010E94D70A4AE050E07C
:10167000BC01F801828193810E943D1F68E872E0FD
:10168000F801828193810E94761E62960FB6F894CB
:10169000DEBF0FBECDBFDF91CF911F910F91089597
:1016A0000F931F93CF93DF931F92CDB7DEB78C01BB
:1016B00041E050E0BE016F5F7F4F0E9427074981E4
:1016C00050E0FA013197E631F10568F5EA5AFF4F2B
:1016D0000C948B27C8010E94EE0A25C0C8010E9405
:1016E000A10A21C0C8010E9479081DC00E94BE0441
:1016F0001AC041E050E0BE016F5F7F4FC8010E94F9
:101700002707F8016281738189810E9421050BC03E
:10171000C8010E948B0707C0C8010E94460A03C087
:10172000C8010E94810A0F90DF91CF911F910F9104
:1017300008950F931F93CF93DF93DC0114960D91BF
:101740001C911597E801E8816E2F70E0D2E2ED9FC1
:10175000F0011124EF5FFB4F40E050E01296E801EA
:10176000288130E02F5F3F4FCA01860F971F28174F
:101770003907A4F0CF010197EC01288130E0322F26
:1017800022278081280F311D285F3F4F19963C93F7
:101790002E9318974F5F5F4FB296E0CFDF91CF91B6
:1017A0001F910F9108950F931F93CF93DF93EC0137
:1017B0008B0189E793E0998388830E949C196E834B
:1017C0007F838887998780EF93E09D838C831B8339
:1017D0000A83CE01DF91CF911F910F910C94990B49
:1017E000CF93DF930E94080561E070E080E090E015
:1017F0000E94CB198091B8039091B9030E94990B74
:1018000040E052EC61E070E089E895E00E94DB1B6B
:1018100026E040E051EE60E070E089ED95E00E9446
:10182000E11C6A9A729A61E088E00E94861A61E07F
:1018300088E00E94BF1A61E08DE00E94861A60E095
:1018400083E00E94861A60E082E00E94861A60E0CF
:1018500087E00E94861A61E084E00E94861A61E0B7
:101860008CE00E94861A61E08BE00E94861A61E09B
:1018700089E00E94861A61E08AE00E94861A61E08F
:1018800085E00E94861A60E084E00E94BF1A60E052
:101890008CE00E94BF1A60E08BE00E94BF1A88E6CD
:1018A00095E00E94861361E070E088E695E00E9472
:1018B00027156091F1037091F20388E695E00E948C
:1018C000C11361E088E695E00E94071524E044E03A
:1018D00060E688E695E00E94DC1420E240E269E2DE
:1018E00088E695E00E94DC1488E695E00E946C177B
:1018F00061E070E088E695E00E9456158CE595E081
:101900000E9486136091F3037091F4038CE595E0D7
:101910000E94C11361E08CE595E00E94071524E068
:1019200044E060E680E595E00E94DC148CE595E0FB
:101930000E946C1763E070E08CE595E00E945615FC
:1019400080E595E00E9486136091F5037091F6039F
:1019500080E595E00E94C11361E080E595E00E947A
:10196000071524E044E060E680E595E00E94DC1481
:1019700080E595E00E946C1761E070E080E595E0FD
:101980000E945615C5E0D0E061E08DE00E94BF1ACC
:1019900062E370E080E090E00E94CB1960E08DE0AF
:1019A0000E94BF1A62E370E080E090E00E94CB19D1
:1019B000219751F7DF91CF9108950F931F93CF9304
:1019C000DF93EC018B018F858823C9F161E08DE005
:1019D0000E94BF1AC8010E94A6168130910591F09D
:1019E00082309105E1F0892B61F59E012D5F3F4F1B
:1019F00049815A816881C8010E947E17C8010E94EE
:101A00008A1519C09E012D5F3F4F49815A81688117
:101A1000C8010E94CB17C8010E949A150CC09E01F4
:101A20002D5F3F4F49815A816881C8010E94181873
:101A3000C8010E94AA1560E08DE00E94BF1A81E0F3
:101A400001C080E0DF91CF911F910F910895CF9356
:101A5000DF93EC011D821C821F821E82198618866C
:101A60001B861A861982188280E290E00E94A527C0
:101A70009B838A83892B11F40E942E0482E090E0DC
:101A80009D838C83DF91CF910895AF92BF92CF92C7
:101A9000DF92EF92FF920F931F93CF93DF93EC01AE
:101AA0008B01161617061CF068EB72E012C0CB0112
:101AB00064E0880F991F6A95E1F70E94A5277C01D1
:101AC000009729F06C0120E030E040E106C06DEEA7
:101AD00072E0888199810E9447048E819F81AA804B
:101AE000BB8028173907E4F488859985820F931FF6
:101AF0006C817D810E94552754E0880F991F5A956B
:101B0000E1F78A0D9B1DFC01D601842F01900D92F7
:101B10008A95E1F72F5F3F4F80E1C80ED11CDDCFE2
:101B2000C5010E943D28FB82EA82198618868E81B3
:101B30009F819B878A871D830C83DF91CF911F91A3
:101B40000F91FF90EF90DF90CF90BF90AF900895EE
:101B50000F931F93CF93DF93EC018B018E819F81B5
:101B60002C813D818217930731F4BC01660F771FEA
:101B7000CE010E94450DAA81BB818A859B859C016F
:101B80002F5F3F4F3B872A8774E0880F991F7A9514
:101B9000E1F7A80FB91F80E1F80101900D928A9535
:101BA000E1F72A853B858C819D812817390711F43F
:101BB0001B861A868E819F8101969F838E83DF917B
:101BC000CF911F910F9108950F931F93CF93DF93A0
:101BD000CDB7DEB7AC970FB6F894DEBF0FBECDBF62
:101BE0008C014CE050E0BE016F5D7F4F0E942707E3
:101BF000CE0141960E94651889A190E09F8F8E8F3B
:101C00002AA130E0322F22278BA1280F311D3B8BD8
:101C10002A8B8CA18C8B8DA18D8B8EA18E8B8FA10D
:101C20008F8B88A5888F89A5898F8AA58A8F8BA598
:101C30008B8F8CA5898B81E088A380E1FE01719652
:101C4000DE01119601900D928A95E1F7BE016F5F5A
:101C50007F4FF801848195810E94A80DCE010196E5
:101C60000E947018CE0141960E947018AC960FB673
:101C7000F894DEBF0FBECDBFDF91CF911F910F91C2
:101C80000895CF92DF92EF92FF920F931F93CF931D
:101C9000DF93CDB7DEB7C054D1090FB6F894DEBFDD
:101CA0000FBECDBF8C017B0160E270E080E090E070
:101CB0000E94CB1923E0E216F10411F14CF4A1E0EB
:101CC000EA16F104A9F0B2E0EB16F104A9F008C09D
:101CD00024E0E216F104C1F088E0E816F104C1F056
:101CE0008091ED0390E0E5EDF3E0C12CD12C17C01D
:101CF000C8010E94500B3FC0C8010E94E40D3BC0C8
:101D0000C8010E94D70737C0C8010E945D0733C0D1
:101D1000C8010E94E1082FC0BFEFCB1ADB0AC8162A
:101D2000D9064CF5208130E033962E153F05A1F7FA
:101D300040E450E0BE016F5F7F4FC8010E9427075B
:101D40007C0161E070E080E090E00E94CB19F60138
:101D5000EE0FFF1FEC0DFD1DEB52FC4F81819281B8
:101D6000DC01ED91FC910480F581E02DA701BE011D
:101D70006F5F7F4F0995C8010E941909C05CDF4F52
:101D80000FB6F894DEBF0FBECDBFDF91CF911F918C
:101D90000F91FF90EF90DF90CF9008955F926F9238
:101DA0007F928F929F92AF92BF92CF92DF92EF92EB
:101DB000FF920F931F93CF93DF93CDB7DEB7A0971A
:101DC0000FB6F894DEBF0FBECDBF7C018B01DC01E6
:101DD0001496ED91FC9115978081A82EB12CB2E25A
:101DE0008B9F000D111D11240A5F1F4FC12CD12C98
:101DF00088E0582E7724739490E1692ED7011496C9
:101E0000ED91FC911597808190E0019696012A0D45
:101E10003B1D821793070CF456C04801E6E08E1A6A
:101E20009108D8018C91882309F447C0F40180817E
:101E3000882309F442C0CE0141960E946518D4015E
:101E40008C9190E09F8F8E8FF8013297808190E087
:101E5000982F882731962081820F911D9B8B8A8B2A
:101E6000FE01759620E030E0D401A20FB31F169654
:101E70008C91882331F02F5F3F4F819326303105BD
:101E800099F72C8B598A78A2FE017196DE01119682
:101E9000862D01900D928A95E1F7BE016F5F7F4F0D
:101EA000F701828193810E94A80DCE0101960E94C4
:101EB0007018CE0141960E947018FFEFCF1ADF0A0A
:101EC0000E5D1F4F9BCFA0960FB6F894DEBF0FBEDE
:101ED000CDBFDF91CF911F910F91FF90EF90DF90D9
:101EE000CF90BF90AF909F908F907F906F905F90BA
:101EF00008950F931F93CF93DF93EC010E949C19D9
:101F00000E811F8128853985025E1F4F2F4F3F4F5D
:101F1000061717072807390778F40E949C196E8363
:101F20007F83888799876CEF73E0CE01DF91CF9133
:101F30001F910F910C94CE0EDF91CF911F910F91B5
:101F400008950F931F93CF93DF93CDB7DEB7A0977C
:101F50000FB6F894DEBF0FBECDBF8C012091CE032B
:101F60003091CF038091CC039091CD03281739078E
:101F700009F47AC0C8010E948E168093D40380FFB2
:101F800032C0CE0141960E9465188091D40390E042
:101F90009D8F8C8FF801828593859F8F8E8F9E01F8
:101FA0002E5E3F4FAE014C5E5F4FBE016F5E7F4FB6
:101FB000C8010E94BA1580E1FE017196DE011196FA
:101FC00001900D928A95E1F7BE016F5F7F4F88EC1B
:101FD00093E00E94A80DCE0101960E947018CE01D8
:101FE00041960E9470182091CE033091CF038091CA
:101FF000CC039091CD0328173907B1F18091D40318
:1020000081FF32C0CE0141960E9465188091D403B1
:1020100090E09D8F8C8FF801828593859F8F8E8FA6
:102020009E012E5E3F4FAE014C5E5F4FBE016F5E64
:102030007F4FC8010E94281680E1FE017196DE01E3
:10204000119601900D928A95E1F7BE016F5F7F4F67
:1020500088EC93E00E94A80DCE0101960E947018B2
:10206000CE0141960E947018A0960FB6F894DEBF7C
:102070000FBECDBFDF91CF911F910F910895BF92F9
:10208000CF92DF92EF92FF920F931F93CF93DF9344
:10209000CDB7DEB7A0970FB6F894DEBF0FBECDBFA9
:1020A0008C0126EBC22E23E0D22EE12CF12C30E164
:1020B000B32E8091060190910701E816F90664F5A8
:1020C000D6016D917D916D01DB01ED91FC91228135
:1020D0003381F801DE0151968B2D01900D928A9586
:1020E000E1F7AE014F5E5F4FCE010196F901099510
:1020F000FE013196D8018B2D01900D928A95E1F762
:10210000CE0101960E947018CE0141960E9470186F
:10211000FFEFEF1AFF0ACDCFD8011F968C918823CD
:1021200099F080E1F801DE01119601900D928A95F7
:10213000E1F7BE016F5F7F4F8CEB93E00E94A80D2B
:10214000CE0101960E947018A0960FB6F894DEBFDB
:102150000FBECDBFDF91CF911F910F91FF90EF90F8
:10216000DF90CF90BF9008950F931F93CF93DF938D
:102170008C01EB018E819F81892B31F467E273E042
:10218000888199810E944704EA81FB81888599852D
:102190009C012F5F3F4F3987288764E0880F991F84
:1021A0006A95E1F7E80FF91F80E1D80101900D92DF
:1021B0008A95E1F72E813F81215031093F832E839B
:1021C0006C817D81888599858617970711F419861A
:1021D00018862115310599F0CB0177FD0396959569
:1021E000879595958795821793074CF077FF02C0E6
:1021F0006F5F7F4F75956795CE010E94450DC801B1
:10220000DF91CF911F910F910895EF92FF920F935D
:102210001F93CF93DF93CDB7DEB7E8970FB6F8944F
:10222000DEBF0FBECDBFE6EBEE2EE3E0FE2E00E0FC
:1022300010E080910601909107010817190774F4C6
:10224000D7018D919D917D01DC01ED91FC91019073
:10225000F081E02D09950F5F1F4FEBCF83E00E94C7
:10226000F51A892B71F468E675E0CE0101960E949B
:102270006304CE0101960E94A10FCE0105960E9433
:10228000FD2282E00E94F51A892B71F46CE575E05D
:10229000CE0101960E946304CE0101960E94A10F17
:1022A000CE0105960E94FD2287E00E94F51A892B37
:1022B00071F460E575E0CE0101960E946304CE01E1
:1022C00001960E94A10FCE0105960E94FD228091E9
:1022D000CE039091CF03892B59F02091C203309106
:1022E000C3038091C0039091C1032817390771F48B
:1022F00011E07CE0F72E00E12091C2033091C3038E
:10230000232B09F465C0111110C062C068EC73E0A2
:10231000CE0101960E94B410CE0101960E943F109A
:10232000CE0101960E947018E3CF6CEB73E0CE01F2
:1023300041960E94B4108E8D9F8D0197F89EB0013A
:10234000F99E700D1124645D7A4FCE018D960E9426
:102350006304BE01635D7F4FCE0181960E946304DA
:10236000FE017196DE011196802F01900D928A95E3
:10237000E1F7BE016F5D7F4FCE0101960E94DD0C3B
:10238000182FCE0101960E947018CE0185960E94EA
:10239000FD22111114C0FE017196DE011196802FED
:1023A00001900D928A95E1F7BE016F5F7F4F8CEB34
:1023B00093E00E94A80DCE0101960E947018CE01F4
:1023C000C1960E94FD22CE0141960E94701894CFC2
:1023D000E8960FB6F894DEBF0FBECDBFDF91CF9168
:1023E0001F910F91FF90EF900895CF93DF93EC0131
:1023F0008A819B810E943D281B821A821982188241
:102400001D821C821F821E82198618861B861A86D0
:10241000DF91CF9108950F931F93CF93DF9300D057
:1024200000D000D0CDB7DEB769E573E0CE010196EC
:102430000E946B238E010F5F1F4F21E030E044E0CC
:1024400050E069E070E088E695E00E945713C8010B
:102450000E94FD226FE573E0C8010E946B2322E019
:1024600030E04CE050E06AE070E08CE595E00E94DE
:102470005713C8010E94FD2265E673E0C8010E945F
:102480006B2323E030E04BE050E065E070E080E556
:1024900095E00E945713C8010E94FD2268E675E08E
:1024A0008CE295E00E9463046CE575E088E395E0BA
:1024B0000E94630460E575E084E495E00E94630493
:1024C00088EC93E00E94270D8CEB93E00E94270D8F
:1024D00088E190E00E94FC1D8C016CEB73E00E948F
:1024E0002A061093BB030093BA038EE090E00E948B
:1024F000FC1D8C016CEB73E00E94D30B1093B903AD
:102500000093B8038091BA039091BB039093B703F3
:102510008093B60326960FB6F894DEBF0FBECDBFEC
:10252000DF91CF911F910F910895CF93DF93CEEB61
:10253000D3E0888199810E943D28198218821092E7
:10254000BD031092BC031092C1031092C0031092FD
:10255000C3031092C2031092C5031092C4031092D9
:10256000C7031092C60388EC93E00E94F51188E43B
:1025700095E00E94FD228CE395E00E94FD2280E31D
:1025800095E00E94FD2284E595E00E94FD2280E610
:1025900095E00E94FD228CE695E0DF91CF910C94AE
:1025A000FD22CF93DF93EC018E81882331F189E8FE
:1025B00095E00E94481B892B81F089E895E00E94F4
:1025C000581BE091D905F091DA050190F081E02DDA
:1025D000682F89ED95E00995EACF89ED95E00E9495
:1025E000FE1B892B71F189ED95E00E94171C682F65
:1025F00089E895E00E941E1BF0CF89ED95E00E94CE
:10260000FE1B1816190654F489ED95E09B838A8306
:102610000E94171CBC01CE010E94410E89E895E082
:102620000E94481B1816190664F489E895E09B83FC
:102630008A830E94581BBC01CE01DF91CF910C947C
:10264000410EDF91CF910895CF93CFB7F894809149
:102650007405811116C061E081E10E94BF1A61E03A
:1026600081E10E94861A8CB580618CBD8CB5806436
:102670008CBD61E08FE00E94861A61E080E10E94DB
:10268000861A809174058F5F80937405CFBFCF91B8
:102690000895CB010C94B629CB01642F0C94C82962
:1026A0008EBD00000DB407FEFDCF8EB508958F924C
:1026B0009F92AF92BF92CF92DF92EF92FF920F93D1
:1026C0001F93CF93DF93EC016B015A0149017C0109
:1026D00084E0E80EF11C65E672E0C7010E946B23FE
:1026E000D982C882BB82AA829B868A86B801C7012A
:1026F000DF91CF911F910F91FF90EF90DF90CF90DE
:10270000BF90AF909F908F900C948123CF93DF93D5
:10271000EC0161E08FE00E94861A60E08EE00E948A
:10272000861A61E080E10E94861A61E088810E9439
:10273000861A61E08A810E94861A0E9424138CB551
:10274000837F8CBD8CB58C7F8CBD8DB581608DBD3C
:102750008CB58F7D8CBD60E08A810E94BF1A62E3D8
:1027600070E080E090E00E94CB1961E08A810E94D5
:10277000BF1A62E370E080E090E0DF91CF910C94AB
:10278000CB196F927F928F929F92AF92BF92CF920E
:10279000DF92EF92FF920F931F93CF93DF93EC01A1
:1027A000882777FD8095982F0E9442269B01AC01D7
:1027B00060E070E080E89FE30E94A72520E030E021
:1027C0004AE754E40E94F2264B015C0101E010E06C
:1027D00077247A94700EB801882777FD8095982F1A
:1027E0000E9442269B01AC010E943F2520E030E080
:1027F00040E85DE30E94F2269B01AC01C501B401F3
:102800000E94A7256B017C0120E030E048EC51E4F8
:102810000E94A3251816CCF0C701B6010E940F260E
:10282000662E7727882777FD8095982F0E9442266D
:102830009B01AC01C701B6010E943E2520E030E0BB
:10284000A9010E94A325882341F00F5F1F4F093083
:10285000110509F0BDCF48E0742E662D70E080E0D0
:1028600090E00E9442262DEC3CEC4CE45FE30E9499
:10287000F2260E941426862F90E08C010150110947
:1028800017FD8C01159507956150E62EE01A661A22
:102890008FEF860DF12CA8014E0D5F1D282F30E023
:1028A000421753070CF478C0823008F475C060E01A
:1028B00088810E94BF1A61E070E080E090E00E9491
:1028C000CB1982E00E9450138AE20E945013872D98
:1028D0000E94501361E070E080E090E00E94CB190C
:1028E00061E088810E94BF1A61E070E080E090E0C2
:1028F0000E94CB1960E088810E94BF1A61E070E0FD
:1029000080E090E00E94CB1982E00E94501389E29F
:102910000E94501301500068C701019723E0880FFF
:10292000991F2A95E1F7802B0E94501361E070E017
:1029300080E090E00E94CB1961E088810E94BF1A7C
:1029400061E070E080E090E00E94CB1960E0888157
:102950000E94BF1A61E070E080E090E00E94CB1915
:1029600082E00E94501388E20E9450138EEF860D81
:102970000E94501361E070E080E090E00E94CB196B
:1029800061E088810E94BF1A61E070E080E090E021
:102990000E94CB1981E001C080E0DF91CF911F91AF
:1029A0000F91FF90EF90DF90CF90BF90AF909F90EE
:1029B0008F907F906F900895EF92FF921F93CF9327
:1029C000DF9300D0CDB7DEB77C01162F60E0FC01AD
:1029D000808129834A830E94BF1A85E00E94501398
:1029E000812F0E9450132981822F0E9450134A8107
:1029F000842F0E94501361E0F70180810F900F90A7
:102A0000DF91CF911F91FF90EF900C94BF1A1F930D
:102A1000CF93DF93EC01662311F013E001C010E0C7
:102A200060E088810E94BF1A85E00E9450138BE20B
:102A30000E94501383E00E945013812F0E94501374
:102A400061E08881DF91CF911F910C94BF1A1F9391
:102A5000CF93DF93EC016230710571F02CF461309B
:102A6000710569F410E00BC06430710539F068300D
:102A7000710529F413E003C011E001C012E060E029
:102A800088810E94BF1A85E00E9450138FE00E9447
:102A9000501383E00E945013812F0E94501361E075
:102AA0008881DF91CF911F910C94BF1A1F93CF9310
:102AB000DF93EC016230710589F044F46115710512
:102AC00089F06130710579F410E00DC06330710553
:102AD00039F06430710539F410E405C010E203C028
:102AE00010E601C010E860E088810E94BF1A85E00E
:102AF0000E9450138FE00E94501380EE0E945013EA
:102B0000812F0E94501361E08881DF91CF911F9146
:102B10000C94BF1ACF93DF93EC0160E088810E9490
:102B2000BF1A81E80E94501361E08881DF91CF9144
:102B30000C94BF1ACF93DF93EC0160E088810E9470
:102B4000BF1A82E80E94501361E08881DF91CF9123
:102B50000C94BF1ACF93DF93EC0160E088810E9450
:102B6000BF1A83E80E94501361E08881DF91CF9102
:102B70000C94BF1A4F925F927F928F929F92AF9266
:102B8000BF92CF92DF92EF92FF920F931F93CF935A
:102B9000DF9300D0CDB7DEB78C015B01790160E037
:102BA000FC01808149835A830E94BF1A80E90E94F8
:102BB00050138FEF0E945013C82ED12C8FEF0E941C
:102BC0005013882E8FEF0E9450138FEF0E945013E6
:102BD0008FEF0E9450138F70982E4981742E442ECF
:102BE0005A81552E842D8719891538F48FEF0E944C
:102BF0005013F20181932F01F5CF61E0F80180813C
:102C00000E94BF1AF5019082882D807E90E055E0E9
:102C1000969587955A95E1F763E0CC0CDD1C6A9593
:102C2000E1F78C0D9D1DF701918380830F900F902C
:102C3000DF91CF911F910F91FF90EF90DF90CF9098
:102C4000BF90AF909F908F907F905F904F9008952E
:102C50004F925F927F928F929F92AF92BF92CF924C
:102C6000DF92EF92FF920F931F93CF93DF931F9208
:102C7000CDB7DEB78C016B01A42E790160E0FC01B9
:102C8000808159830E94BF1A84E90E9450138FEFFC
:102C90000E945013982E8FEF0E945013882E8FEFB2
:102CA0000E9450138FEF0E9450138FEF0E94501319
:102CB0008F70B82E7A2C4A2C5981552E842D871965
:102CC0008B1538F48FEF0E945013F20181932F017E
:102CD000F5CF61E0F80180810E94BF1AF601B08251
:102CE0008294869477E08722F8E09F9EA0011124C9
:102CF000480D511DF701518340830F90DF91CF9113
:102D00001F910F91FF90EF90DF90CF90BF90AF9009
:102D10009F908F907F905F904F9008951F93CF93D7
:102D2000DF93EC0160E088810E94BF1A80EA0E9474
:102D300050138FEF0E945013182F61E088810E947A
:102D4000BF1A812FDF91CF911F9108950E948E1697
:102D500082FF07C084FF08C086FF09C08FEF9FEF86
:102D6000089580E090E0089581E090E0089582E089
:102D700090E008951F93CF93DF93EC01162F60E04E
:102D800088810E94BF1A83E00E945013812F0E9405
:102D900050138FEF0E945013182F61E088810E941A
:102DA000BF1A812FDF91CF911F910895EF92FF926B
:102DB0001F93CF93DF9300D0CDB7DEB77C01162FE2
:102DC00060E0FC0180812A8349830E94BF1A61E090
:102DD00070E080E090E00E94CB1982E00E945013E6
:102DE000812F0E9450134981842F0E9450132A8101
:102DF000822F0E94501361E070E080E090E00E941A
:102E0000CB1961E0F70180810E94BF1A61E070E098
:102E100080E090E00F900F90DF91CF911F91FF9095
:102E2000EF900C94CB19EF92FF920F931F93CF93D7
:102E3000DF93EC017A018B01E3E015950795EA95A4
:102E4000E1F7162F1295110F107E212F402F60E011
:102E500070E00E94D616212F402F68E070E0CE016E
:102E60000E94D6168701F3E015950795FA95E1F7CC
:102E7000E294EE0CA0EEEA222E2D402F64E070E0EA
:102E8000CE010E94D6162E2D402F60E170E0CE01BB
:102E90000E94D6162E2D402F64E170E0CE010E94D4
:102EA000D6162E2D402F68E170E0CE010E94D61676
:102EB00020EE4FE160E270E0CE010E94D61620EED7
:102EC0004FE164E270E0CE01DF91CF911F910F914D
:102ED000FF90EF900C94D616CF93DF93EC0120E097
:102EE00040E060E270E00E94D61620E040E064E23C
:102EF00070E0CE01DF91CF910C94D616CF92DF9285
:102F0000EF92FF920F931F93CF93DF9300D0CDB733
:102F1000DEB78C01F62E6A0160E0FC018081298316
:102F20003A830E94BF1A80E40E945013C601B3E0A6
:102F300096958795BA95E1F70E9450138C2D82954E
:102F4000880F807E0E94501380E00E94501380E022
:102F50000E9450138F2D0E9450132981E22EC22E01
:102F60003A81D32E8C2D8E198F1530F4F601819174
:102F70006F010E945013F6CF61E0F80180810F903D
:102F80000F90DF91CF911F910F91FF90EF90DF9005
:102F9000CF900C94BF1ACF92DF92EF92FF920F93D3
:102FA0001F93CF93DF9300D0CDB7DEB78C01F62E01
:102FB0006A0160E0FC01808129833A830E94BF1A84
:102FC00082E40E945013C60123E0969587952A95C6
:102FD000E1F70E9450138C2D8295880F807E0E940D
:102FE000501380E00E94501380E00E9450138F2DF8
:102FF0000E9450132981E22EC22E3A81D32E8C2DAD
:103000008E198F1530F4F60181916F010E945013D3
:10301000F6CF61E0F80180810F900F90DF91CF91A2
:103020001F910F91FF90EF90DF90CF900C94BF1AFB
:10303000CF92DF92EF92FF920F931F93CF93DF9384
:1030400000D0CDB7DEB78C01F62E6A0160E0FC013E
:10305000808129833A830E94BF1A84E40E9450131E
:10306000C60133E0969587953A95E1F70E94501393
:103070008C2D8295880F807E0E94501380E00E94E4
:10308000501380E00E9450138F2D0E94501329810D
:10309000E22EC22E3A81D32E8C2D8E198F1530F44C
:1030A000F60181916F010E945013F6CF61E0F801A3
:1030B00080810F900F90DF91CF911F910F91FF9022
:1030C000EF90DF90CF900C94BF1AFC011786128608
:1030D0001186108617821682158214821382089533
:1030E00008951F920F920FB60F9211242F933F93C2
:1030F0004F935F936F937F938F939F93AF93BF9300
:10310000EF93FF938091760590917705892B29F0B5
:10311000E0917605F09177050995FF91EF91BF91C8
:10312000AF919F918F917F916F915F914F913F915F
:103130002F910F900FBE0F901F9018951F920F9216
:103140000FB60F9211242F933F934F935F936F937A
:103150007F938F939F93AF93BF93EF93FF93809150
:10316000780590917905892B29F0E0917805F09107
:1031700079050995FF91EF91BF91AF919F918F9143
:103180007F916F915F914F913F912F910F900FBE63
:103190000F901F9018951F920F920FB60F92112447
:1031A0002F933F934F935F936F937F938F939F934F
:1031B000AF93BF93EF93FF9380917A0590917B0536
:1031C000892B29F0E0917A05F0917B050995FF9113
:1031D000EF91BF91AF919F918F917F916F915F918F
:1031E0004F913F912F910F900FBE0F901F90189508
:1031F0001F920F920FB60F9211242F933F934F936C
:103200005F936F937F938F939F93AF93BF93EF934E
:10321000FF9380917C0590917D05892B29F0E091A9
:103220007C05F0917D050995FF91EF91BF91AF91DC
:103230009F918F917F916F915F914F913F912F91CE
:103240000F900FBE0F901F9018951F920F920FB600
:103250000F9211242F933F934F935F936F937F931C
:103260008F939F93AF93BF93EF93FF9380917E05CE
:1032700090917F05892B29F0E0917E05F0917F05E3
:103280000995FF91EF91BF91AF919F918F917F91A0
:103290006F915F914F913F912F910F900FBE0F90C3
:1032A0001F9018951F920F920FB60F9211242F9313
:1032B0003F938F939F93AF93BF938091810590919C
:1032C0008205A0918305B09184053091800523E0AB
:1032D000230F2D3720F40196A11DB11D05C026E84E
:1032E000230F0296A11DB11D2093800580938105B7
:1032F00090938205A0938305B09384058091850502
:1033000090918605A0918705B09188050196A11D31
:10331000B11D8093850590938605A0938705B09392
:103320008805BF91AF919F918F913F912F910F9001
:103330000FBE0F901F9018952FB7F89460918105DC
:103340007091820580918305909184052FBF089527
:103350003FB7F8948091850590918605A0918705E7
:10336000B091880526B5A89B05C02F3F19F001969E
:10337000A11DB11D3FBF6627782F892F9A2F620F9D
:10338000711D811D911D42E0660F771F881F991FD7
:103390004A95D1F70895CF92DF92EF92FF92CF93A3
:1033A000DF936B017C010E94A819EB01C114D104C9
:1033B000E104F10489F00E94FA230E94A8196C1B11
:1033C0007D0B683E734090F381E0C81AD108E10894
:1033D000F108C851DC4FEACFDF91CF91FF90EF9019
:1033E000DF90CF900895789484B5826084BD84B5D1
:1033F000816084BD85B5826085BD85B5816085BDF0
:10340000EEE6F0E0808181608083E1E8F0E0108208
:10341000808182608083808181608083E0E8F0E049
:10342000808181608083E1E9F0E080818260808337
:10343000808181608083E0E9F0E080818160808329
:10344000E1ECF0E080818460808380818260808311
:10345000808181608083E3ECF0E080818160808303
:10346000E0ECF0E0808182608083E2ECF0E080813B
:1034700081608083EAE7F0E08081846080838081DE
:103480008260808380818160808380818068808386
:10349000089590E0FC013197EF30F105B0F5E45963
:1034A000FF4F0C948B27809180008F7703C0809111
:1034B00080008F7D80938000089580918000877FB9
:1034C000F9CF84B58F7702C084B58F7D84BD089510
:1034D000809190008F7707C0809190008F7D03C00E
:1034E00080919000877F8093900008958091C00024
:1034F0008F7703C08091C0008F7D8093C0000895B6
:103500008091C200877F8093C2000895CF93DF939C
:1035100090E0FC01E253FC4F2491FC01E451FC4F8C
:103520008491882349F190E0880F991FFC01EA5D9E
:10353000FB4FA591B491885E9B4FFC01C591D4913E
:103540009FB7611108C0F8948C91209582238C93C9
:10355000888182230AC0623051F4F8948C91322F12
:10356000309583238C938881822B888304C0F894C0
:103570008C91822B8C939FBFDF91CF9108950F93F5
:103580001F93CF93DF931F92CDB7DEB7282F30E084
:10359000F901E055FC4F8491F901E253FC4F14917D
:1035A000F901E451FC4F04910023C9F0882321F074
:1035B00069830E94491A6981E02FF0E0EE0FFF1F36
:1035C000E85EFB4FA591B4919FB7F8948C9161117F
:1035D00003C01095812301C0812B8C939FBF0F9056
:1035E000DF91CF911F910F910895CF93DF93282FF3
:1035F00030E0F901E055FC4F8491F901E253FC4FB2
:10360000D491F901E451FC4FC491CC2391F0811184
:103610000E94491AEC2FF0E0EE0FFF1FE65FFB4F10
:10362000A591B4912C912D2381E090E021F480E0CC
:1036300002C080E090E0DF91CF910895CF93DF93B7
:103640001F92CDB7DEB76983DC01ED91FC9102805A
:10365000F381E02D41E050E0BE016F5F7F4F09959F
:103660000F90DF91CF910895CF93DF93EC018C857C
:103670009D8597FF05C082E00E942A209D878C8748
:103680008C859D85DF91CF91089583E00C947F22F6
:10369000FC018485958597FD06C082E00E94D21FBB
:1036A00090E00196089582E00E94D21F90E0089574
:1036B000FC018485958597FD05C02FEF3FEF358789
:1036C0002487089582E00C942A20CF93DF93EC01A5
:1036D00080910F01882331F083E00E945B2018164F
:1036E000190634F081E090E09B838A8380E090E0CB
:1036F000DF91CF910895FC0120812E5F208342E469
:1037000050E064E374E080E80C94F620FC018181D1
:103710009081913A59F4813209F03CC047E050E081
:1037200068E071E080E00E94F62043C0913291F59C
:10373000803239F467E070E088E091E00E94272150
:1037400006C0823209F035C0828180930F018091DA
:10375000080190910901A0910A01B0910B01803BF1
:103760009440A105B105C1F480910F0180FD14C002
:1037700087E797E790930108809300082BE088E1A2
:1037800090E00FB6F894A895809360000FBE209348
:1037900060000FC080E0089588E10FB6F894809330
:1037A0006000109260000FBEA89510920108109260
:1037B000000881E008952FEF3FEFFC013587248753
:1037C000089510928C0510928B0588EE93E0A0E08E
:1037D000B0E080938D0590938E05A0938F05B093F4
:1037E00090058BE893E090938A05809389058FEF8D
:1037F0009FEF90939605809395050895FC01818D28
:10380000228D90E0805C9F4F821B91098F739927D6
:103810000895FC01918D828D981731F0828DE80F0B
:10382000F11D858D90E008958FEF9FEF0895FC01C5
:10383000918D828D981761F0828DDF01A80FB11DE7
:103840005D968C91928D9F5F9F73928F90E008950B
:103850008FEF9FEF08958BE99DE1892B49F080E080
:1038600090E0892B29F00E949B1D81110C9400008F
:103870000895FC01848DDF01A80FB11DA35ABF4F2D
:103880002C91848D90E001968F739927848FA6895F
:10389000B7892C93A089B1898C9180648C93938D86
:1038A000848D981306C00288F389E02D80818F7D76
:1038B00080830895CF93DF93EC01888D8823C9F02E
:1038C000EA89FB89808185FD05C0A889B9898C9129
:1038D00086FD0FC00FB607FCF5CF808185FFF2CFC4
:1038E000A889B9898C9185FFEDCFCE010E94391C42
:1038F000E7CFDF91CF910895CF92DF92FF920F93A0
:103900001F93CF93DF931F92CDB7DEB76C01DC011D
:103910005B969C915B975C968C915C97981307C023
:103920005096ED91FC915197808185FD32C0F60152
:10393000038D10E00F5F1F4F0F731127F02EF6015C
:10394000848DF81211C00FB607FCF9CFD60150963E
:10395000ED91FC915197808185FFF1CFC60169837C
:103960000E94391C6981EBCF838DE80FF11DE35A6A
:10397000FF4F6083D6015B960C935B975296ED9157
:10398000FC91539780818062808381E058968C936C
:103990000DC0D6015696ED91FC91579760835096D5
:1039A000ED91FC91519780818064808381E090E06B
:1039B0000F90DF91CF911F910F91FF90DF90CF90EB
:1039C0000895BF92CF92DF92EF92FF92CF93DF9351
:1039D000EC016A017B01B22EE889F98982E08083DB
:1039E000411581EE580761057105A1F060E079E0AD
:1039F0008DE390E0A70196010E94692721503109CB
:103A0000410951095695479537952795211580E12C
:103A1000380798F0E889F989108260E874E88EE147
:103A200090E0A70196010E946927215031094109C0
:103A300051095695479537952795EC85FD85308337
:103A4000EE85FF852083188EEC89FD89B082EA8996
:103A5000FB89808180618083EA89FB89808188601D
:103A60008083EA89FB89808180688083EA89FB8979
:103A700080818F7D8083DF91CF91FF90EF90DF90E9
:103A8000CF90BF9008951F920F920FB60F921124FE
:103A90002F938F939F93EF93FF93E091E905F0911C
:103AA000EA058081E091EF05F091F00582FD12C0FA
:103AB00090818091F2058F5F8F732091F3058217BB
:103AC00051F0E091F205F0E0E752FA4F958F8093C4
:103AD000F20501C08081FF91EF919F918F912F910D
:103AE0000F900FBE0F901F9018951F920F920FB658
:103AF0000F9211242F933F934F935F936F937F9374
:103B00008F939F93AF93BF93EF93FF9389ED95E0CE
:103B10000E94391CFF91EF91BF91AF919F918F91BE
:103B20007F916F915F914F913F912F910F900FBEB9
:103B30000F901F90189589ED95E00E94FE1B21E0E3
:103B4000892B09F420E0822F08951092DC05109251
:103B5000DB0588EE93E0A0E0B0E08093DD05909374
:103B6000DE05A093DF05B093E0058BE993E0909329
:103B7000DA058093D9058DEC90E09093E60580936B
:103B8000E5058CEC90E09093E8058093E70588ECE0
:103B900090E09093EA058093E90589EC90E090939A
:103BA000EC058093EB058AEC90E09093EE05809312
:103BB000ED058EEC90E09093F0058093EF05109268
:103BC000F2051092F3051092F4051092F505089590
:103BD00008950E94F3190E94E81D86E796E00E946E
:103BE000DF220E94F00BCBE2DCE10E94051120975E
:103BF000E1F30E942B1CF9CF0C94A527CF92DF9202
:103C0000EF92FF920F931F93CF93DF936C017A0192
:103C1000EB01E60EF71E00E010E0CE15DF0561F0C7
:103C20006991D601ED91FC910190F081E02DC601E2
:103C30000995080F191FF1CFC801DF91CF911F918E
:103C40000F91FF90EF90DF90CF900895EF92FF9249
:103C50000F931F93CF93DF938C01FB01C0E0D0E063
:103C600064917F018FEFE81AF80A662361F0D801AA
:103C7000ED91FC910190F081E02DC8010995C80FEC
:103C8000D91FF701EDCFCE01DF91CF911F910F9199
:103C9000FF90EF900895DC01ED91FC91DB0114960B
:103CA0004D915C9115976D917C910280F381E02D8F
:103CB00009940C944D04DC01ED91FC910190F0818C
:103CC000E02D09940F931F93CF93DF93EC016DE0E8
:103CD0000E945B1E8C016AE0CE010E945B1E800F79
:103CE000911FDF91CF911F910F9108950F931F9313
:103CF000CF93DF93EC010E94261E8C01CE010E941F
:103D0000621E800F911FDF91CF911F910F91089537
:103D10000F931F93CF93DF93EC010E944D048C010E
:103D2000CE010E94621E800F911FDF91CF911F91E3
:103D30000F9108958F929F92AF92BF92CF92DF9290
:103D4000EF92FF920F931F93CF93DF93CDB7DEB720
:103D5000A1970FB6F894DEBF0FBECDBF7C01C42E75
:103D6000E52FCB01D22E19A221E02D1510F02AE06B
:103D7000D22E8E010F5D1F4F8D2C912CA12CB12CBA
:103D80006C2D7E2FA50194010E9469278C2DD29E57
:103D900080191124015011098A3014F4805D01C08A
:103DA000895CF8018083211531054105510521F019
:103DB000C22EE32FCA01E4CFB801C7010E944D040F
:103DC000A1960FB6F894DEBF0FBECDBFDF91CF91A5
:103DD0001F910F91FF90EF90DF90CF90BF90AF9029
:103DE0009F908F900895CF92DF92EF92FF920F9362
:103DF0001F93CF93DF93EC016A017B0121153105FD
:103E000079F4E881F9810190F081E02D642FDF9150
:103E1000CF911F910F91FF90EF90DF90CF90099479
:103E20002A303105E9F477FF1AC06DE20E945B1E6B
:103E30008C0144275527BA014C195D096E097F0989
:103E40002AE0CE010E949A1E800F911FDF91CF9130
:103E50001F910F91FF90EF90DF90CF9008952AE08F
:103E6000B701A601CE01DF91CF911F910F91FF9075
:103E7000EF90DF90CF900C949A1E9A01AB016627C9
:103E800057FD6095762F0C94F31E2115310541F4F2
:103E9000DC01ED91FC910190F081E02D642F0994FB
:103EA0000C949A1E9A01462F50E060E070E00C944A
:103EB000451F40917A0650917B06209178063091FB
:103EC000790642175307B4F49091E8009570E1F336
:103ED0009091E80092FD19C08093F10080917A06DC
:103EE00090917B0601968F739927892B19F48EEF99
:103EF0008093E80080917A0690917B0601969093DA
:103F00007B0680937A0681E0089580E00895CF9241
:103F1000DF92FF920F931F93CF93DF931F92CDB742
:103F2000DEB7082F162F862F880F8E5F99830E9489
:103F3000591F83E00E94591FF02EC02E9981D92E5F
:103F40008C2D8F19811778F4F60184910E94591FE6
:103F5000082F80E00E94591F8023FFEFCF1ADF0A4D
:103F60008111EECF01C081E00F90DF91CF911F91C1
:103F70000F91FF90DF90CF900895615030F0209125
:103F8000F100FC0120830196F8CF289884E6809305
:103F90007D0608952FB7FC012083F8946770609325
:103FA000E9000895CF93DF931F92CDB7DEB7682F56
:103FB000CE0101960E94CA1F8091F20099819FBF95
:103FC0000F90DF91CF910895FF920F931F93CF939E
:103FD000DF9300D0CDB7DEB7F62E8A0190917C0634
:103FE000992311F057FF03C08FEF9FEF2BC0682F6D
:103FF000CE0101967A830E94CA1F8091F20090E060
:10400000A8017A81801791070CF4AC01EF2DF72FEE
:10401000F40E84E6FE1639F0289880937D06909180
:10402000F1009193F7CF4115510521F08091F200F5
:10403000882321F089818FBFCA0104C08BE6809359
:10404000E800F8CF0F900F90DF91CF911F910F9163
:10405000FF900895CF93DF931F92CDB7DEB741E075
:1040600050E0BE016F5F7F4F0E94E41F019719F47B
:10407000898190E002C08FEF9FEF0F90DF91CF9189
:104080000895CF93DF931F92CDB7DEB7682FCE018F
:1040900001960E94CA1F9091E800892F807295FFB7
:1040A00004C09091F20080E4891B99819FBF0F901A
:1040B000DF91CF9108956F927F928F929F92AF92EE
:1040C000BF92CF92DF92EF92FF920F931F93CF9305
:1040D000DF931F92CDB7DEB7782E7B01C42EB52EAD
:1040E00080917C06882369F0042F152F8AEFD82E43
:1040F000872D8072982E9AE3A92E872D8074882EA2
:1041000011C08FEF9FEF57C0872D0E944120682E6E
:1041100081110CC0DA94A9F361E070E080E090E0D6
:104120000E94CB190115110579F73BC0282F30E00B
:10413000021713070CF4602E672DCE0101960E9422
:10414000CA1F8091E80085FF29C0262D30E0021BA0
:10415000130B992039F06A948FEF6816B1F0109222
:10416000F100F9CFF701862D77FE07C0815058F096
:1041700094919093F1003196F9CF815020F0919174
:104180009093F100FACFE20EF31E8091E80085FFD4
:104190000FC00115110511F481100AC089818FBF6C
:1041A000C1CF5D9884E680937E068C2D9B2D03C045
:1041B000A092E800F3CF0F90DF91CF911F910F9164
:1041C000FF90EF90DF90CF90BF90AF909F908F9037
:1041D0007F906F9008951092E90010927B061092E4
:1041E0007A0690937906809378060895CF92DF92AD
:1041F000FF920F931F93CF93DF9300D0CDB7DEB71D
:10420000F82E8A016B0101151105B1F0F601F7FED8
:1042100002C0849101C0808149835A830E94591F42
:1042200001501109FFEFCF1ADF0A49815A8181112C
:10423000EACF8FEF9FEF01C0CA010F900F90DF917F
:10424000CF911F910F91FF90DF90CF9008951F9312
:10425000CF93DF931F92CDB7DEB7162F2091E800E2
:1042600022FFFCCF612F79830E94BD1F8BEF8093CB
:10427000E800812F7981972F0F90DF91CF911F91C7
:104280000895CF93DF931F92CDB7DEB71982CE0189
:1042900001960E947B1BCE0101960E941924898100
:1042A00090E00F90DF91CF9108951F920F920FB67B
:1042B0000F921124EF92FF920F931F932F933F932E
:1042C0004F935F936F937F938F939F93AF93BF931E
:1042D000EF93FF93CF93DF93CDB7DEB76297DEBF47
:1042E000CDBF1092E9008091E80083FFEBC068E049
:1042F000CE010A960E94BD1F82EF8093E8009A8546
:1043000097FF05C08091E80080FFFCCF03C08EEFCF
:104310008093E800892F807609F0B9C08B858111E0
:1043200005C01092F1001092F100C5C0282F2D7F1A
:10433000213009F4C0C0853049F48091E80080FF45
:10434000FCCF8C8580688093E300B5C0863009F08F
:1043500076C02D85E888F988223071F580E090E0FC
:104360002A8B0E94EB200E94412199E08E010F5F71
:104370001F4FF801392F11923A95E9F799832A894D
:104380002A8391E09E8390E898879AEF99872091FD
:104390007A0630917B06275F3F4F3C832B838D83CA
:1043A000C7010E94EB2049E050E0B80180E00E9484
:1043B000F6200E9441217FC0C7012A8B0E94EB207A
:1043C0002A89223241F482E290E00E942424892B3F
:1043D00009F071C074C0213069F4888999890897FF
:1043E00011F42093770680917706811118C06DE84B
:1043F00074E01AC0233009F062C08C85882391F0E4
:10440000823021F46DE08BEA94E006C0813009F03F
:1044100056C06BE08FE994E00E94871F4AC06BE7AB
:1044200074E002C069EB74E06115710509F447C0DE
:10443000FB01449150E080E80E94F6203CC08730A8
:1044400009F43DC0883021F481E08093F10033C04D
:10445000893089F5937099F5E7E7F4E081E021E090
:1044600096E38093E9002093EB0034913093EC00C5
:104470009093ED008F5F3196853099F78EE78093AA
:10448000EA001092EA008C8580937C0614C088892B
:1044900099890E94EB208E85811105C0CE010A9674
:1044A0000E94861B06C0823051F4CE010A960E94FB
:1044B0004C24882321F08EEF8093E80003C081E232
:1044C0008093EB0062960FB6F894DEBF0FBECDBFAF
:1044D000DF91CF91FF91EF91BF91AF919F918F911C
:1044E0007F916F915F914F913F912F911F910F910C
:1044F000FF90EF900F900FBE0F901F901895809334
:10450000E9008091F200882319F08AE38093E800A3
:1045100008951F920F920FB60F9211242F933F937D
:104520004F935F936F937F938F939F93AF93BF93BB
:10453000EF93FF938091E1001092E10083FF0FC0A1
:104540001092E90091E09093EB001092EC0092E35E
:104550009093ED0010927C0698E09093F00082FF1B
:104560001DC083E00E947F2280917E06882339F05F
:1045700080917E06815080937E06882369F0809129
:104580007D06882359F080917D06815080937D06B9
:10459000811104C0289A02C05D9AF1CFFF91EF917A
:1045A000BF91AF919F918F917F916F915F914F914B
:1045B0003F912F910F900FBE0F901F901895109262
:1045C0007C0681E08093D70080EA8093D80082E166
:1045D00089BD09B400FEFDCF61E070E080E090E0AD
:1045E0000E94CB1980E98093D8008CE08093E20090
:1045F0001092E000559A209A0895FC0180819181E3
:104600000C943D28CF93DF93EC018881998100972A
:1046100011F00E943D28198218821D821C821B8283
:104620001A82DF91CF9108950F931F93CF93DF9359
:10463000EC018B016F5F7F4F888199810E94CC28AC
:10464000009731F0998388831B830A8381E001C03E
:1046500080E0DF91CF911F910F910895CF93DF9369
:10466000EC0188819981892B29F08A819B818617A9
:10467000970760F4CE010E941423882341F08C81B7
:104680009D81892B19F4E881F981108281E0DF9105
:10469000CF910895EF92FF920F931F93CF93DF93E3
:1046A000EC017B018A01BA010E942E23811104C012
:1046B000CE010E94022307C01D830C83B7018881AD
:1046C00099810E949F29CE01DF91CF911F910F9177
:1046D000FF90EF900895FC011182108213821282E4
:1046E000158214826115710559F0FB0101900020BB
:1046F000E9F7AF0141505109461B570B0C944A236F
:104700000895CF93DF93EC01FB018617970761F0C3
:10471000608171816115710529F0448155810E9484
:104720004A2302C00E940223CE01DF91CF91089557
:10473000FC011182108213821282158214820C9461
:104740008123EF92FF920F931F93CF93DF93EC019E
:104750007B010C811D816115710511F480E016C08B
:104760004115510591F0040F151FB8010E942E2329
:104770008823A1F3288139818C819D81B701820F23
:10478000931F0E949F291D830C8381E0DF91CF91AD
:104790001F910F91FF90EF900895CF93DF93EC015D
:1047A000FB0144815581608171810E94A1238111A7
:1047B00003C0CE010E940223CE01DF91CF91089564
:1047C000CF93DF93EC016115710569F0FB01019056
:1047D0000020E9F7AF0141505109461B570B0E94D9
:1047E000A123811103C0CE010E940223CE01DF91DB
:1047F000CF9108950895FF920F931F93CF93DF9366
:10480000EC01F62EE881F9810480F581E02D09950F
:104810008C01E881F9810680F781E02D6F2DCE01B2
:104820000995C8019927DF91CF911F910F91FF90B2
:104830000895FC0120812F5F208349E150E06DE362
:1048400075E080E80C94F62045E650E066E575E0FA
:1048500080E80C94F620EF92FF920F931F93CF9372
:10486000DF931F92CDB7DEB789838B017A0141E0D8
:1048700050E0BE016F5F7F4F84E00E945B20A70184
:10488000B80184E40E945B200F90DF91CF911F91CB
:104890000F91FF90EF900895FC0191818081813A02
:1048A00031F481E0913091F0933089F411C081327C
:1048B00071F49B3021F482818093110105C09A30FC
:1048C00031F482818093100181E00895089580E0A1
:1048D000089548E050E082E00C942B24CF93DF93BE
:1048E000DC01683818F0E8E7E60F25C0E62FF0E0B5
:1048F00067FF11C0E058F10981E090E001C0880F26
:10490000EA95EAF714969C911497982B14969C9329
:104910001497E0E010C0E354FB4FE491EE2309F458
:1049200040C0E7FF08C014968C91149782601496DB
:104930008C931497EF7716968C9116978E1741F1FA
:1049400017968C9117978E1719F118968C911897C6
:104950008E17F1F019968C9119978E17C9F01A9647
:104960008C911A978E17A1F01B968C911B978E171E
:1049700079F080E090E0ED01C80FD91F2E81211160
:1049800002C0EE8305C0019686309105A1F709C0EB
:10499000BD016C5F7F4FCD010E94692481E090E0F2
:1049A00008C081E090E013969C938E93129780E06C
:1049B00090E0DF91CF910895683818F0E8E7E60FAE
:1049C00025C0E62FF0E067FF12C0E058F10921E0B2
:1049D00030E001C0220FEA95EAF72095DC01149639
:1049E0003C911497322314963C93E0E00FC0E354BB
:1049F000FB4FE491EE2329F1E7FF08C0DC01149698
:104A00002C9114972D7F14962C93EF7720E030E0B3
:104A1000EE2351F0DC01A20FB31F16964C911697AE
:104A20004E1302C016961C922F5F3F4F2630310561
:104A300079F7BC016C5F7F4F0E94692481E090E0B0
:104A4000089580E090E00895FC0116821782108698
:104A50001186128613861482BC016C5F7F4F0C9402
:104A6000692410928B0610928206109281068BEABE
:104A700093E09093800680937F0608955058BB275B
:104A8000AA270ED075C166D130F06BD120F031F479
:104A90009F3F11F41EF45BC10EF4E095E7FB51C19A
:104AA000E92F77D180F3BA17620773078407950758
:104AB00018F071F49EF58FC10EF4E0950B2EBA2F0D
:104AC000A02D0B01B90190010C01CA01A001112414
:104AD000FF27591B99F0593F50F4503E68F11A16C0
:104AE000F040A22F232F342F4427585FF3CF469551
:104AF00037952795A795F0405395C9F77EF41F1673
:104B0000BA0B620B730B840BBAF09150A1F0FF0F3C
:104B1000BB1F661F771F881FC2F70EC0BA0F621F28
:104B2000731F841F48F4879577956795B795F79518
:104B30009E3F08F0B3CF9395880F08F09927EE0FAA
:104B4000979587950895D9D008F481E008950CD001
:104B50000FC107D140F0FED030F021F45F3F19F0D3
:104B6000F0C0511139C1F3C014D198F39923C9F39E
:104B70005523B1F3951B550BBB27AA276217730763
:104B8000840738F09F5F5F4F220F331F441FAA1F17
:104B9000A9F333D00E2E3AF0E0E830D091505040D7
:104BA000E695001CCAF729D0FE2F27D0660F771F85
:104BB000881FBB1F261737074807AB07B0E809F067
:104BC000BB0B802DBF01FF2793585F4F2AF09E3FFC
:104BD000510568F0B6C000C15F3FECF3983EDCF3CE
:104BE000869577956795B795F7959F5FC9F7880F75
:104BF000911D9695879597F90895E1E0660F771FC7
:104C0000881FBB1F621773078407BA0720F0621B57
:104C1000730B840BBA0BEE1F88F7E095089504D050
:104C20006894B111D9C00895BCD088F09F5790F016
:104C3000B92F9927B751A0F0D1F0660F771F881FC1
:104C4000991F1AF0BA95C9F712C0B13081F0C3D0DC
:104C5000B1E00895C0C0672F782F8827B85F39F07A
:104C6000B93FCCF3869577956795B395D9F73EF420
:104C700090958095709561957F4F8F4F9F4F0895C8
:104C8000E89409C097FB3EF49095809570956195E6
:104C90007F4F8F4F9F4F9923A9F0F92F96E9BB279C
:104CA0009395F695879577956795B795F111F8CF18
:104CB000FAF4BB0F11F460FF1BC06F5F7F4F8F4F83
:104CC0009F4F16C0882311F096E911C0772321F079
:104CD0009EE8872F762F05C0662371F096E8862F11
:104CE00070E060E02AF09A95660F771F881FDAF768
:104CF000880F9695879597F90895990F0008550F95
:104D0000AA0BE0E8FEEF16161706E807F907C0F051
:104D100012161306E407F50798F0621B730B840B59
:104D2000950B39F40A2661F0232B242B252B21F433
:104D300008950A2609F4A140A6958FEF811D811DD3
:104D4000089597F99F6780E870E060E008959FEF0D
:104D500080EC089500240A94161617061806090612
:104D6000089500240A9412161306140605060895E1
:104D7000092E0394000C11F4882352F0BB0F40F469
:104D8000BF2B11F460FF04C06F5F7F4F8F4F9F4FA9
:104D9000089557FD9058440F551F59F05F3F71F02B
:104DA0004795880F97FB991F61F09F3F79F0879592
:104DB0000895121613061406551FF2CF4695F1DF1B
:104DC00008C0161617061806991FF1CF86957105AB
:104DD000610508940895E894BB2766277727CB01DF
:104DE00097F908950BD0C4CFB5DF28F0BADF18F0DB
:104DF000952309F0A6CFABCF1124EECFCADFA0F3E5
:104E0000959FD1F3950F50E0551F629FF001729F5F
:104E1000BB27F00DB11D639FAA27F00DB11DAA1F7E
:104E2000649F6627B00DA11D661F829F2227B00DCB
:104E3000A11D621F739FB00DA11D621F839FA00D56
:104E4000611D221F749F3327A00D611D231F849FA6
:104E5000600D211D822F762F6A2F11249F575040FD
:104E60008AF0E1F088234AF0EE0FFF1FBB1F661F98
:104E7000771F881F91505040A9F79E3F510570F051
:104E800060CFAACF5F3FECF3983EDCF38695779531
:104E90006795B795F795E7959F5FC1F7FE2B880F4C
:104EA000911D9695879597F9089597FB072E16F40F
:104EB000009407D077FD09D00E94912707FC05D008
:104EC0003EF4909581959F4F0895709561957F4F21
:104ED0000895A1E21A2EAA1BBB1BFD010DC0AA1F3B
:104EE000BB1FEE1FFF1FA217B307E407F50720F053
:104EF000A21BB30BE40BF50B661F771F881F991FCE
:104F00001A9469F760957095809590959B01AC0116
:104F1000BD01CF010895EE0FFF1F0590F491E02D24
:104F20000994AA1BBB1B51E107C0AA1FBB1FA617F0
:104F3000B70710F0A61BB70B881F991F5A95A9F742
:104F400080959095BC01CD010895CF93DF93823079
:104F5000910510F482E090E0E0918E06F0918F06CA
:104F600020E030E0A0E0B0E0309739F1408151819D
:104F700048175907B8F04817590771F4828193818F
:104F8000109729F013969C938E9312972CC09093B0
:104F90008F0680938E0627C02115310531F0421708
:104FA000530718F0A901DB0101C0EF019A01BD010F
:104FB000DF010280F381E02DD7CF21153105F9F013
:104FC000281B390B2430310580F48A819B816115BF
:104FD000710521F0FB019383828304C090938F06B7
:104FE00080938E06FE01329644C0FE01E20FF31F4D
:104FF0008193919322503109398328833AC02091BB
:105000008C0630918D06232B41F4209102013091C2
:10501000030130938D0620938C062091000130917E
:1050200001012115310541F42DB73EB7409104012E
:1050300050910501241B350BE0918C06F0918D06F3
:10504000E217F307A0F42E1B3F0B2817390778F05F
:10505000AC014E5F5F4F2417350748F04E0F5F1FBE
:1050600050938D0640938C068193919302C0E0E0AB
:10507000F0E0CF01DF91CF910895CF93DF930097B8
:1050800009F487C0FC01329713821282C0918E0608
:10509000D0918F06209781F420813181280F391F0C
:1050A00080918C0690918D068217930779F5F09385
:1050B0008D06E0938C066DC0DE0120E030E0AE1777
:1050C000BF0750F412964D915C9113979D014115C5
:1050D000510509F1DA01F3CFB383A28340815181F5
:1050E000840F951F8A179B0771F48D919C911197DE
:1050F000840F951F02969183808312968D919C91C7
:105100001397938382832115310529F4F0938F0639
:10511000E0938E063EC0D9011396FC93EE9312974E
:105120004D915D91A40FB51FEA17FB0779F48081BB
:105130009181840F951F0296D90111969C938E93AD
:105140008281938113969C938E931297E0E0F0E016
:105150008A819B81009719F0FE01EC01F9CFCE0105
:10516000029628813981820F931F20918C063091FD
:105170008D062817390769F4309729F410928F06A5
:1051800010928E0602C013821282D0938D06C093B5
:105190008C06DF91CF910895A0E0B0E0E2EDF8E257
:1051A0000C94DA29EC01CB01209719F40E94A52771
:1051B000B8C0FE01E60FF71F9E0122503109E21729
:1051C000F30708F4ACC0D9010D911C911197061793
:1051D0001707B8F00530110508F49FC0A801445026
:1051E00051094617570708F498C002501109061BC9
:1051F000170B019311936D937C93CF010E943D286F
:105200008CC05B01A01AB10A4E01800E911EA091C4
:105210008E06B0918F06612C712C60E070E01097C3
:1052200009F449C0A815B905C9F5ED90FC9011978E
:10523000670142E0C40ED11CCA14DB0478F14701B7
:105240008A189B08640142E0C40ED11C1296BC90DF
:1052500012971396AC91B5E0CB16D10440F0B28210
:10526000A38391828082D9018D939C9309C00E5FA4
:105270001F4F0E0D1F1DF90111830083EB2DFA2F17
:105280006115710531F0DB011396FC93EE931297D3
:1052900044C0F0938F06E0938E063FC06D917C91E1
:1052A00011976616770608F43B01BD0112960D9022
:1052B000BC91A02DB4CF60918C0670918D066815BD
:1052C0007905E9F468167906D0F44091000150910F
:1052D00001014115510541F44DB75EB760910401DC
:1052E00070910501461B570BE417F507C0F4F093C6
:1052F0008D06E0938C06F901918380830EC00E9495
:10530000A5277C01009759F0A801BE010E949629AB
:10531000CE010E943D28C70104C0CE0102C080E03A
:1053200090E0CDB7DEB7EEE00C94F629FB01DC018E
:1053300002C001900D9241505040D8F70895FB01F2
:10534000DC0101900D920020E1F70895DC01CB0112
:10535000FC01F999FECF06C0F2BDE1BDF89A319685
:1053600000B40D9241505040B8F70895F999FECF1E
:1053700092BD81BDF89A992780B50895DC01CB01D3
:1053800003C02D910E94C92941505040D0F7089583
:10539000262FF999FECF1FBA92BD81BD20BD0FB651
:1053A000F894FA9AF99A0FBE019608952F923F92B7
:1053B0004F925F926F927F928F929F92AF92BF9225
:1053C000CF92DF92EF92FF920F931F93CF93DF93D1
:1053D000CDB7DEB7CA1BDB0B0FB6F894DEBF0FBE2E
:1053E000CDBF09942A88398848885F846E847D847B
:1053F0008C849B84AA84B984C884DF80EE80FD807D
:105400000C811B81AA81B981CE0FD11D0FB6F894F2
:10541000DEBF0FBECDBFED01089515E0C4ECD5E0B1
:1054200004C0FE010E948D272296C63CD107C9F711
:04543000F894FFCF1E
:10543400000090068000010000E100000000000070
:1054440001010101007D007D007D000000000000DD
:105454000200000007E0013C000000000441053C9C
:10546400000028100001000AFFD8454754202020DE
:1054740020200201000007E0013400000000044184
:10548400053400002810000F0D20000041462020A4
:10549400202020200201000007E022DA850000001D
:1054A400046205DA0685300800170014000041463E
:1054B400524F424420200200000007E02203EC0087
:1054C40000000462050306EC301000010005000032
:1054D4004B4E4F434B2020200200000007E022F4F3
:1054E40023000000046205F406233010001D00149C
:1054F4000000465052004B2020200200000007E02C
:105504002203180000000462050306183010000688
:105514000001000043414D444547202002000000A3
:10552400073722596A00000004620559066A3010E0
:10553400000B0064000050574549474854200200BE
:10554400000007E02203CA0000000462050306CA43
:10555400300800090005FFD84241545445525920EF
:10556400FFFFFFFFFFFFFFFFFFFFFFFFFFFFFFFF47
:10557400FFFFFFFFFFFFFFFFFFFFFFFFFFFFFFFF37
:105584000A0014003200530064007D00FA00F401A4
:10559400E8037D000D0030003A00302E342E330035
:1055A40043414E42757320547269706C65007B22CE
:1055B4006576656E74223A2276657273696F6E221F
:1055C4002C20226E616D65223A2200222C20227644
:1055D400657273696F6E223A2200222C20226D6557
:1055E4006D6F7279223A220051554555453A20652E
:1055F40072726F722064756520746F20756E6465B5
:1056040073697261626C652073697A6520666F7272
:105614002071756575652073697A652E005155454D
:1056240055453A20696E73756666696369656E747B
:10563400206D656D6F727920746F20696E6974696D
:10564400616C697A652074656D706F72617279201E
:1056540071756575652E0051554555453A20636150
:105664006E277420706F70206974656D2066726F88
:105674006D2071756575653A20717565756520696C
:105684007320656D7074792E004275732031004269
:10569400757320320042757320330000000000D17E
:1056A40012F0060D0300000000790F0F030E0344EF
:1056B400656661756C7400000000001E1B651B4864
:1056C4001B581B341B451B000000007C1CFE1DFEE8
:1056D4001B171C091C5A1C00000000FB23FE1D6E36
:0656E40024DC2424250053
:00000001FF
