:100000000C945B020C947A1F0C94A71F0C94D41FC1
:100010000C9401200C9483020C9483020C942E20E7
:100020000C9483020C9483020C94692A0C94352955
:100030000C9483020C9483020C9483020C9483022C
:100040000C9483020C9483020C9483020C9483021C
:100050000C9483020C9483020C9483020C945B2016
:100060000C9483020C9423250C9455250C94830244
:100070000C9483020C9483020C9483020C948302EC
:100080000C9483020C9483020C9483020C948302DC
:100090000C9483020C9483020C9483020C948302CC
:1000A0000C9483020C9483020C9483029B0C9F0C8F
:1000B000A30CA70CC40CC40CC40CAA0CB90CC40C23
:1000C000C40CC40CC40CC40CC40CBD0CC40CC40CB7
:1000D000C40CC40CC40CC10CA921AE21B321BD2198
:1000E000C721112211221122D121DB21E521EF218B
:1000F000FC211122042232223522242228222E22FF
:1001000056225622562239223D22412247224B2294
:1001100056225122227D00222C20226E65787454B2
:1001200078427566666572223A2200222C2022658A
:1001300072726F72223A2200222C20227374617430
:100140007573223A2200222C202263616E6374723E
:100150006C223A22007B2265223A22627573646720
:1001600062222C20226E616D65223A2200227D00DF
:10017000227D007B226576656E74223A2265657069
:10018000726F6D44617461222C2022726573756CEC
:1001900074223A226661696C757265222C20226392
:1001A00068756E6B223A22007B226576656E74223A
:1001B0003A22656570726F6D53617665222C20223C
:1001C000726573756C74223A227375636365737319
:1001D000227D00227D007B226576656E74223A22A4
:1001E000656570726F6D44617461222C20227265A6
:1001F00073756C74223A2273756363657373222C72
:1002000020226368756E6B223A22007D002C202725
:1002100072617465273A007B2765273A276261750A
:1002200064272C2027627573273A007B2765273ABD
:10023000276175746F62617564436F6D706C65746E
:1002400065272C202772617465273A007B27652774
:100250003A276175746F6261756454657374272CF5
:10026000202772617465273A007B226576656E747B
:10027000223A22656570726F6D5265736574222C27
:100280002022726573756C74223A227375636365FC
:100290007373227D00070605040100080A0B0C0D8C
:1002A000090000000200090F0000030401000C0017
:1002B000000000000000000000000000000000043A
:1002C0000802011040804010204080408008020455
:1002D00001804020100201108010204040040404DE
:1002E00004040304050202020204030202020206DD
:1002F00006060606060404020202040000000023AB
:1003000000260029002C002F0000000000250028F6
:10031000002B002E00310000000000240027002ADE
:10032000002D003000080B00020202010009040049
:100330000001020200000524001001052401010152
:10034000042402060524060001070581031000406D
:1003500009040100020A0000000705020240000033
:100360000705830240000000C18081C11201000224
:100370000200004041233680000101020001120109
:10038000000200000040412336800001010200010C
:1003900041726475696E6F204C4C430043414E427C
:1003A000757320547269706C6500040309040000C1
:1003B0000000000000002A2B2800000000000000C0
:1003C00000000000000000000000000000002C9E63
:1003D000B4A0A1A2A434A6A7A5AE362D3738271EF7
:1003E0001F20212223242526B333B62EB7B89F849D
:1003F00085868788898A8B8C8D8E8F909192939435
:1004000095969798999A9B9C9D2F3130A3AD350472
:1004100005060708090A0B0C0D0E0F101112131414
:1004200015161718191A1B1C1DAFB1B0B500090419
:100430000200010300000009210101000122650002
:100440000705840340000105010902A1010901A17A
:10045000008501050919012903150025019503757A
:1004600001810295017505810305010930093109F2
:10047000381581257F750895038106C0C0050109DF
:1004800006A1018502050719E029E7150025017578
:100490000195088102950175088103950675081577
:1004A0000025650507190029658100C04D18C12385
:1004B0008525112D301911241FBECFEFDAE0DEBFE4
:1004C000CDBF14E0A0E0B1E0E8E2F9E602C005909B
:1004D0000D92A236B107D9F727E0A2E6B4E001C039
:1004E0001D92AE34B207E1F714E0C4EBD4E004C0CF
:1004F0002297FE010E94812FCC3AD107C9F70E94B2
:10050000C9250C9487340C9400000895089520E1C7
:10051000FA01DC0101900D922A95E1F70895089502
:1005200008950895FA01258536852230310561F058
:100530002330310559F02130310569F423E030E0F2
:100540003687258721E006C0178605C021E030E008
:1005500036872587278720E1DC0101900D922A95B7
:10056000E1F7089521E0FB013081311101C020E065
:10057000FC0122830895FA0141815281DB01179623
:100580002D913C9118974217530731F413961D9201
:100590001D921D921C92169720E1DC0101900D9294
:1005A0002A95E1F708952F923F924F925F926F92B2
:1005B0007F928F929F92AF92BF92CF92DF92EF92F3
:1005C000FF920F931F93CF93DF93CDB7DEB72E9794
:1005D0000FB6F894DEBF0FBECDBF4C017987688798
:1005E0006A01DB011496ED91FC9115978081E82F4B
:1005F000F0E0FB87EA87F2E28F9F800111240D5221
:100600001B4FE12CF12C8F5F8C87A885B985149640
:10061000ED91FC911597808190E001962A853B85AC
:100620002E0D3F1D821793070CF4BBC09801295172
:100630003109F801759780813196811104C090814C
:10064000992309F4A8C090E0982F88274081840F4F
:10065000911D0896D60111964D915C9112974817FD
:10066000590709F098C080E090E0F901E80FF91F00
:100670004485442359F0D601A40FB11D5C914585F2
:10068000541389C002968630910579F7F80137979F
:1006900080818695869586958250F601E80FF11D3A
:1006A0006381D80116978C9170E0803129F4762F00
:1006B00066278481680F711DF8013597A080B12CE1
:1006C000BA2CAA2431968081A80EB11C31962081C3
:1006D00030E0322F222731968081280F311D31964C
:1006E0002080312C322C2224F8018081280E311CEC
:1006F0002115310511F421E030E080E090E02D87F4
:100700003E870E94202E2B013C012D853E85B9019C
:1007100080E090E00E94202E9B01AC01C301B20159
:100720000E94872D2B013C01B50180E090E00E94E2
:10073000202E9B01AC01C301B2010E94D22E2B01DD
:100740003C01B10180E090E00E94202E9B01AC01B1
:10075000C301B2010E941F2D0E94F42DF80177976A
:100760002081318126173707B1F071836083F7EE5E
:10077000F98323E82A832C852E0D2B837C836D83BC
:100780003DE03E838AE08F83BE016F5F7F4F87E944
:1007900096E00E9439269FEFE91AF90A0E5D1F4F75
:1007A00034CF80E1F601D40101900D928A95E1F7F2
:1007B000C4012E960FB6F894DEBF0FBECDBFDF91F9
:1007C000CF911F910F91FF90EF90DF90CF90BF904E
:1007D000AF909F908F907F906F905F904F903F90E1
:1007E0002F90089580E00E945C1F81E00E945C1FB2
:1007F00084E00C945C1FAF92BF92CF92DF92EF9295
:10080000FF920F931F93CF93DF9300D01F92CDB72A
:10081000DEB78C01FC018281882361F04381548121
:10082000658176814F5F5F4F6F4F7F4F4383548366
:1008300065837683F80183819481A581B6818132B5
:100840009E44A105B10508F43DC1F801138214824C
:100850001582168287E496E00E94B223811132C18C
:1008600060E088E00E94902288E10FB6F8948093BF
:100870006000109260000FBEA8E0FA2E729A64E643
:1008800070E080E090E00E94D4208EB11EB864E653
:1008900070E080E090E00E94D420FA9479F7FCEDBB
:1008A000EF2EF12CB7018DE00E94832161E070E012
:1008B00080E090E00E94D420F1E0EF1AF10891F777
:1008C00060E070E08AEE95E00E94F11BF80167811C
:1008D0007085AB018AEE95E00E94AE1D23E040E0FA
:1008E0006CE28AEE95E00E94771B61E070E08AEE90
:1008F00095E00E94F11B62E070E080E090E00E94D1
:10090000D420E2E0EE2EE6E0FE2E6E01F4E0CF0E03
:10091000D11CCE0101965C016FE070E0C7010E941E
:10092000551DF60182936F0128E048E06CE0C70195
:100930000E94771B22E040E06CE0C7010E94771B19
:1009400020E240E26CE0C7010E94771BCA14DB047E
:1009500029F062E070E0C7010E94F11B23E040E053
:100960006CE2C7010E94771BFCE0EF1AF108CA1481
:10097000DB0491F640E050E062EF73E080E00E941B
:100980000C1F40E050E062EF73E081E00E940C1F1A
:1009900040E050E062EF73E084E00E940C1F83B7F8
:1009A000817F846083BFF89483B7816083BF78942C
:1009B00080916400816080936400889564E070E0B9
:1009C00080E090E00E94D42083B78E7F83BF809127
:1009D00064008E7F8093640062E070E080E090E0CD
:1009E0000E94D4207AEEE72E75E0F72EC12CD12C90
:1009F00020E440E46CE2C7010E94771B20E440E45D
:100A00006BE2C7010E94771B62E070E080E090E03B
:100A10000E94D42020E440E06BE2C7010E94771BD3
:100A200020E440E06CE2C7010E94771B2FEF40E01A
:100A30006CE2C7010E94771B20E240E06CE0C70136
:100A40000E94771B61E070E080E090E00E94D4207B
:100A5000C114D10481F462E070E080E090E00E9473
:100A6000D42060E070E08AEE95E00E94F11B8AEEEF
:100A700095E00E94071EF50141915F0120EE6FE0B5
:100A8000C7010E94771B62E070E080E090E00E9466
:100A9000D420FFEFCF1ADF0A2CE0E20EF11C83E036
:100AA000C816D10409F0A4CF729A60E08DE00E94CC
:100AB000902261E088E00E949022F8011382148263
:100AC000158216820F900F900F90DF91CF911F919A
:100AD0000F91FF90EF90DF90CF90BF90AF9008956F
:100AE00061E08DE00E94572261E08DE00E9490223B
:100AF0006AEF70E080E090E00E94D42060E08DE03A
:100B00000E9490226AEF70E080E090E00E94D42082
:100B1000EBCF009711F00E9468260E9470056115C6
:100B2000710581F0DB010D900020E9F7AD01415026
:100B30005109461B570BDC01ED91FC910280F381BA
:100B4000E02D099480E090E008950F931F93CF93D8
:100B5000DF93EC018B01FB01808191819983888374
:100B6000828193819B838A836C5F7F4FCE01049641
:100B70000E94782BF801828593859B878A87DF9175
:100B8000CF911F910F9108954EE351E060E070E026
:100B90000C9492339FEF980F933078F41616170643
:100BA00064F4E82FF0E0EE0FFF1FE655FB4F74836F
:100BB00063838CEA94E00C94C40508959FEF980F2A
:100BC000933048F4E82FF0E0EE0FFF1FE655FB4F9F
:100BD00083819481089580E090E00895CF93DF931E
:100BE000C0E0D0E040E0BE0183E396E00E94E71958
:100BF0002196C11582E0D807A9F7DF91CF9108951A
:100C00000F931F93CF93DF93CDB7DEB7CE53D14071
:100C10000FB6F894DEBF0FBECDBF0E94EE058EE387
:100C200091E0E8E1F1E0DE01119601900D9201976B
:100C3000E1F7CE0101960E94C4050E944A0669E6CA
:100C400072E087E496E00E94562606E010E061E03C
:100C50008DE00E94902264EF71E080E090E00E94BD
:100C6000D42060E08DE00E94902264EF71E080E08B
:100C700090E00E94D4200150110949F7C25CDE4F78
:100C80000FB6F894DEBF0FBECDBFDF91CF911F919D
:100C90000F9108958EE391E0ECEAF4E0DF019C010E
:100CA0001D9221503040E1F74EE351E060E070E0EA
:100CB000CF010E947A338091AD0481508E3F10F0B5
:100CC0000C94000608955F926F927F928F929F928C
:100CD000AF92BF92CF92DF92EF92FF920F931F934A
:100CE000CF93DF93CDB7DEB76E970FB6F894DEBF24
:100CF0000FBECDBF982E5B018FEF890D833008F0BA
:100D0000D3C0292D30E0215031098CE0829FB00101
:100D1000839F700D112466517A4F7E0183E1E80EA6
:100D2000F11CC7010E94A5056FE070E0C7010E9499
:100D3000551D582E6BE270E0C7010E94551D682EAC
:100D400092E1E6E5F2E0DE01119601900D929A95AE
:100D5000E1F7FE0131966F01712C812C6CE472E099
:100D6000C5010E940626F601019111916F014AE02A
:100D700050E0B801C5010E941D2768E672E0C50178
:100D80000E94682660E070E0C7010E94F11B65E0E8
:100D900070E080E090E00E94D420B801C7010E947A
:100DA0005C1A65E070E080E090E00E94D42063E08F
:100DB00070E0C7010E94F11B65E070E080E090E008
:100DC0000E94D4202FEF40E06CE2C7010E94771B05
:100DD00065E070E080E090E00E94D42068EC70E074
:100DE00080E090E00E94D4206CE270E0C7010E9495
:100DF000551D87FD02C0811102C0072D182DCE148C
:100E0000DF0419F0702E812EA9CF60E070E0C601DA
:100E10000E94F11B6AE070E080E090E00E94D42024
:100E2000B801C6010E945C1A61E070E080E090E0C9
:100E30000E94D4202FEF452D6FE0C6010E94771B42
:100E400061E070E080E090E00E94D4202FEF462D1A
:100E50006BE2C6010E94771B61E070E080E090E0E9
:100E60000E94D42061E070E0C6010E94F11B6BE299
:100E700072E0C5010E9406264AE050E0B801C501B3
:100E80000E941D2768E672E0C5010E9468260115D0
:100E9000110521F0B801892D0E94CA05CE0147969F
:100EA0000E94DD2AC80102C080E090E06E960FB675
:100EB000F894DEBF0FBECDBFDF91CF911F910F9190
:100EC000FF90EF90DF90CF90BF90AF909F908F906A
:100ED0007F906F905F900895282F30E070E08091B0
:100EE000080190E0AB01481B590B4217530734F43B
:100EF000680F791F81E0261737070CF080E008950E
:100F00000F931F9380910B010E9452216AE070E0C1
:100F10000E94492F062F6AE0802F0E946C078111E2
:100F200002C010E001C010E267E1802F0E946C0750
:100F30008111105F66E2802F0E946C0781111058AA
:100F400067E3802F0E946C078111105C68E4802F9A
:100F50000E946C078111185F809109010E94522143
:100F60006AE070E00E94492F062F6AE0802F0E94FD
:100F70006C0781111C5F67E1802F0E946C07811153
:100F80001E5F67E2802F0E946C0781111F5F8091B6
:100F90006204181761F00E94A5206093A804709362
:100FA000A9048093AA049093AB04109362040E9456
:100FB000A5200091A8041091A9042091AA043091C1
:100FC000AB04601B710B820B930B663571058105B9
:100FD000910530F0809162049091A704981305C0A8
:100FE0008091A7041F910F9108958093A704F8CFD3
:100FF0000F931F93CF93DF93EC018B0184EF93E06A
:1010000099838883CE0108960E94001F1D830C835C
:101010001F821E8287E496E09B838A83DF91CF91B3
:101020001F910F910895EF92FF920F931F93CF930B
:10103000DF93EC018B01DB011D962D913C911E97F6
:10104000A9014150510981E090E0042E01C0880FB0
:101050000A94EAF79F81982309F489C08A819B81C9
:10106000B6E087399B07E9F4FB0141815281F90120
:101070003396EE0FFF1FEC0FFD1F6081772767FD92
:1010800070956417750769F0F901EE0FFF1FEC0FFB
:10109000FD1F2781332727FD30952417350709F0D9
:1010A00066C0DC01ED91FC910190F081E02D63E0E0
:1010B00009958A819B81DC01ED91FC910190F08181
:1010C000E02DD8011D966C9109958A819B81DC01E8
:1010D000ED91FC91D80112966C910190F081E02D78
:1010E00009958A819B81DC01ED91FC910190F08151
:1010F000E02DD80111966C910995E12CF12C8A8193
:101100009B81DC01ED91FC91D801AE0DBF1D0190DA
:10111000F081E02D13966C910995BFEFEB1AFB0A55
:10112000E8E0EE16F10459F78A819B81DC01ED912C
:10113000FC910190F081E02DD8016C9109958A8194
:101140009B81DC01ED91FC910190F081E02DD801B3
:101150001B966C9109956AE672E08A819B81DF910A
:10116000CF911F910F91FF90EF900C948F05DF911D
:10117000CF911F910F91FF90EF900895EF92FF9202
:101180000F931F93CF93DF93CDB7DEB760970FB662
:10119000F894DEBF0FBECDBF8C01CB017A0120E1F8
:1011A000FA01DE01119601900D922A95E1F7BE0138
:1011B0006F5F7F4F0E941308CE0101960E940B1FA4
:1011C00080E1F701D80101900D928A95E1F7C801FD
:1011D00060960FB6F894DEBF0FBECDBFDF91CF9102
:1011E0001F910F91FF90EF900895CF92DF92EF92B1
:1011F000FF920F931F93CF93DF937C016A01EB0162
:1012000000E010E00C151D05E0F4D70112968D9159
:101210009C911397DC01ED91FC910480F581E02D08
:101220000995892B71F0F70182819381DC01ED91A1
:10123000FC910680F781E02D099589930F5F1F4F80
:10124000E1CFC801DF91CF911F910F91FF90EF90F7
:10125000DF90CF9008950F931F93CF93DF9300D02B
:1012600000D01F92CDB7DEB78C0145E050E0BE0143
:101270006F5F7F4F0E94F5088981843080F490E091
:10128000FC013396EE0FFF1FE00FF11F2B8120832F
:10129000FC01EE0FFF1FE00FF11F8D8187830F9080
:1012A0000F900F900F900F90DF91CF911F910F91A2
:1012B00008950F931F93CF93DF9300D01F92CDB764
:1012C000DEB78C0143E050E0BE016F5F7F4F0E94AC
:1012D000F508833051F46A8170E0762F66278B81A0
:1012E000680F711D89810E94CA0567E172E0F801EB
:1012F000828193810E9406264AE050E06981F801CC
:10130000828193810E9432276DE072E0F801828130
:1013100093810E94062689810E94DE054AE050E002
:10132000BC01F801828193810E941D276BE072E06D
:10133000F801828193810E9456260F900F900F90A2
:10134000DF91CF911F910F910895EF92FF920F932C
:101350001F93CF93DF93CDB7DEB762970FB6F894A4
:10136000DEBF0FBECDBF8C01BE01635F7F4F86E045
:10137000DB011D928A95E9F746E050E0C8010E9422
:10138000F5087C012D858FEF820F833060F0F80126
:1013900082819381DC01ED91FC910190F081E02D3F
:1013A00060E8099567C030E0215031098CE0829FE8
:1013B000B001839F700D112466517A4FCE010196C2
:1013C0000E94A5052E85222359F08D85815001C0EC
:1013D000220F8A95EAF7F8018781822B878303C061
:1013E000D80117961C92B3E0EB16F1046CF160E0A3
:1013F00070E0CE0101960E94F11BCE0101960E9481
:10140000071E6F8570E0288930E0498950E0EA893D
:10141000F0E0CB01820F931F840F951F8E0F9F1F4B
:10142000892B61F0542F44274E0F5F1F762F6627BC
:10143000620F731FCE0101960E94AE1D61E070E045
:10144000CE0101960E94F11BF80182819381DC019B
:10145000ED91FC910190F081E02D6FEF09956AE626
:1014600072E0F801828193810E948F05CE0105967A
:101470000E94DD2A62960FB6F894DEBF0FBECDBF84
:10148000DF91CF911F910F91FF90EF9008950F93EF
:101490001F93CF93DF93CDB7DEB7A1970FB6F89424
:1014A000DEBF0FBECDBF8C0142E250E0BE016F5FD8
:1014B0007F4F0E94F508829789F58AA1813A71F5DC
:1014C000A98180E2A89FD0011124A455BB4F80E2DE
:1014D000FE01329601900D928A95E1F766ED71E07A
:1014E000F801828193810E9406264AE050E06981DA
:1014F000F801828193810E94322763ED71E0F80147
:10150000828193810E94562689818F30E9F48CEA8A
:1015100094E00E94C40568EA71E011C063E771E0DD
:10152000F801828193810E9406264AE050E0698199
:10153000F801828193810E94322760E771E0F8010F
:10154000828193810E945626A1960FB6F894DEBF41
:101550000FBECDBFDF91CF911F910F9108950F93D3
:101560001F93CF93DF931F92CDB7DEB78C0141E07D
:1015700050E0BE016F5F7F4F0E94F5088981823085
:1015800029F08330F1F4F80116821BC081E0F801E4
:10159000868361E08DE00E94902264E670E080E046
:1015A00090E00E94D42060E08DE00E94902264E6EA
:1015B00070E080E090E00E94D42061E08DE00E9425
:1015C00090220F90DF91CF911F910F910895CF93AB
:1015D000DF93EC018A819B81DC01ED91FC91048019
:1015E000F581E02D0995892B51F08A819B81DC01E1
:1015F000ED91FC910680F781E02D0995EBCFDF910D
:10160000CF9108950F931F93CF93DF93EC018B013C
:1016100065E571E08A819B810E940626B8016C5FB6
:101620007F4F8A819B810E942B2666E471E08A812C
:101630009B810E9406266FE070E0C8010E94551D44
:1016400040E150E0682F8A819B810E94322768E345
:1016500071E08A819B810E940626C8010E94291D93
:1016600040E150E0682F8A819B810E9432276BE223
:1016700071E08A819B810E9406266DE270E0C801BC
:101680000E94551D40E150E0682F8A819B810E9495
:10169000322767E171E08A819B810E940626C8019A
:1016A0000E94411D4AE050E0BC018A819B810E945A
:1016B0001D2764E171E08A819B81DF91CF911F91A9
:1016C0000F910C9456260F931F93CF93DF93CDB7B2
:1016D000DEB72D970FB6F894DEBF0FBECDBF8C01DD
:1016E00041E050E0BE01635F7F4F0E94F5082D8509
:1016F0002430C8F430E0215031098CE0829FB001E1
:10170000839F700D112466517A4FCE0101960E947D
:10171000A505BE016F5F7F4FC8010E94020BCE017D
:1017200005960E94DD2A2D960FB6F894DEBF0FBEF7
:10173000CDBFDF91CF911F910F9108952091A60405
:10174000283078F4822F90E0FC01EE0FFF1FE80FA5
:10175000F91FE257FB4F6083528341832F5F209331
:10176000A6040895F89481E08093E00080E28093DD
:10177000D8001092C90065E070E080E090E00E941F
:10178000D4201DBA109268001CBC10BE1FBA109263
:101790007A0010926E0010926F00109271000C94FB
:1017A00000380895FF920F931F93CF93DF938C011E
:1017B000C0E0D0E0BE0183E396E00E94E419F82E79
:1017C0008FE08F1538F06CE672E0F801828193812A
:1017D0000E94392640E150E06F2DF801828193810B
:1017E0000E943227CF3FF1E0DF0739F06EE672E06A
:1017F000F801828193810E9439262196C115F2E079
:10180000DF07C1F6DF91CF911F910F91FF900895EF
:10181000CF93DF9300D0CDB7DEB720914A07309148
:101820004B072115310511F42EE437E0CE01019666
:10183000821B930B0F900F90DF91CF9108950F9320
:101840001F93CF93DF93CDB7DEB762970FB6F894AF
:10185000DEBF0FBECDBF8C0160E772E0CE01019606
:101860000E944B2B66E772E0CE010D960E944B2B37
:1018700064E872E0CE0107960E944B2BBE01635FC5
:101880007F4FCE0107960E94AD2B61EA72E00E9465
:10189000C02BBE016F5F7F4F0E94AD2B60EB72E0EB
:1018A0000E94C02BBC01F801828193810E942B26EB
:1018B000CE0107960E94DD2ACE010D960E94DD2AF8
:1018C000CE0101960E94DD2AC8010E94080C4AE060
:1018D00050E0BC01F801828193810E941D276DE6D2
:1018E00071E0F801828193810E94562662960FB6BC
:1018F000F894DEBF0FBECDBFDF91CF911F910F9146
:1019000008950F931F93CF93DF931F92CDB7DEB748
:101910008C0141E050E0BE016F5F7F4F0E94F508EF
:10192000498150E0FA013197E631F10568F5EA5A4C
:10193000FF4F0C947F2FC8010E941F0C25C0C801C7
:101940000E94D20B21C0C8010E94470A1DC00E94FC
:1019500000061AC041E050E0BE016F5F7F4FC80132
:101960000E94F508F8016281738189810E946306F3
:101970000BC0C8010E94590907C0C8010E94630B2F
:1019800003C0C8010E94B20B0F90DF91CF911F914D
:101990000F910895EF92FF920F931F93CF93DF93D0
:1019A000EC01CA012EEF33E0398328837B836A83FD
:1019B00021E02A8BAE0166E10E949E0B1C821D82F3
:1019C0001E821F8284EF91E0998788878E010259D9
:1019D0001F4FF801118210821A861B861C861D86F5
:1019E0001E861F86188A198A6EEB72E0CE01439616
:1019F0000E947F317E01F0E2EF0EF11C6FEF72E08A
:101A0000C7010E947F316BEC72E0CE018D960E947F
:101A10007F31C359DF4F8CE08883B701C801DF9164
:101A2000CF911F910F91FF90EF900C947F31CF9247
:101A3000DF92EF92FF92CF93DF93EC01CA84DB84B5
:101A4000EC84FD840E94A5206C157D058E059F0504
:101A500018F4CE01809610C0CE84DF84E888F9881F
:101A60000E94A5206C157D058E059F0518F4CE01FA
:101A70008D9602C0CE014396DF91CF91FF90EF90FB
:101A8000DF90CF9008950F931F93CF93DF93EC01D6
:101A90008B010E94A520222717FD2095322F600F71
:101AA000711F821F931F6A877B878C879D87DF91B9
:101AB000CF911F910F910895AF92BF92CF92DF9275
:101AC000EF92FF920F931F93CF93DF935C018B01F3
:101AD000EA01FB018289882309F47EC189819A8108
:101AE0008F38924069F4FB01C284D384E484F58486
:101AF0000E94A520C616D706E806F90608F47FC19D
:101B000089819A818039924009F063C04C81242FE9
:101B100030E0F80180A1992787FD909528173907B3
:101B2000B1F52D8130E081A1992787FD9095281787
:101B3000390769F52E8130E082A1992787FD9095BC
:101B40002817390721F52F8130E083A1992787FDD8
:101B5000909528173907D9F4288530E084A1992772
:101B600087FD90952817390791F4298530E085A1E4
:101B7000992787FD90952817390749F42A8530E081
:101B800086A1992787FD90952817390771F0F801EC
:101B900040A38D8181A38E8182A38F8183A38885B9
:101BA00084A3898585A38A8586A3C8010E94170D11
:101BB000FC0180818C8381818D8382818E838381EE
:101BC0008F83848188878581898786818A8781E060
:101BD0008F8789819A818139924009F04EC04C816A
:101BE000242F30E0F80187A1992787FD90952817C9
:101BF000390721F52D8130E080A5992787FD909543
:101C000028173907D9F42E8130E081A5992787FD5F
:101C100090952817390791F42F8130E082A59927F4
:101C200087FD90952817390749F4288530E083A56A
:101C3000992787FD90952817390779F0F80147A370
:101C40008D8180A78E8181A78F8182A7888583A7B8
:101C50006CED75E0C8010E94430DC8010E94170D8C
:101C6000FC0187818C8380858D8381858E8382852D
:101C70008F838385888781E08F87D090AE048D2DF8
:101C800090E0079714F4D39401C0D12C7801F3E1CC
:101C9000EF0EF11C6FEF72E0C7010E947F31A0913F
:101CA000AE0422E2A29FD0011124A455BB4F1F967F
:101CB0008C911F9798962C91989780FF23C05096EF
:101CC0008D919C9151976AE070E00E94352F9F930F
:101CD0008F937F936F93822F992787FD90959F9382
:101CE0002F938CE093E09F938F93FF92EF920E944B
:101CF00086318DB79EB70A960FB6F8949EBF0FBE79
:101D00008DBF1DC051968C9151978F9350968C9199
:101D10008F93822F992787FD90959F932F9385E12D
:101D200093E09F938F93FF92EF920E948631EDB7DD
:101D3000FEB738960FB6F894FEBF0FBEEDBF22E295
:101D4000D29EF0011124E455FB4F878520A5075E44
:101D50001F4F80FF21C0808991896AE070E00E9456
:101D6000352F9F938F937F936F93822F992787FDB2
:101D700090959F932F938CE093E09F938F931F9365
:101D80000F930E9486318DB79EB70A960FB6F894CE
:101D90009EBF0FBE8DBF1AC081898F9380898F939C
:101DA000822F992787FD90959F932F9385E193E04C
:101DB0009F938F931F930F930E948631EDB7FEB7C9
:101DC00038960FB6F894FEBF0FBEEDBF89819A8199
:101DD0008130924009F41F8680E1FE01D501019017
:101DE0000D928A95E1F7C501DF91CF911F910F9177
:101DF000FF90EF90DF90CF90BF90AF90089580EC70
:101E00008B831C821D821E8287E2888780E18987FE
:101E100081E08F8775CE0F931F93CF93DF93EC01F3
:101E20008B010E94A520222717FD2095322F600FDD
:101E3000711F821F931F6E877F87888B998BC25972
:101E4000DF4F19821882DF91CF911F910F91089572
:101E50000F931F93CF93DF93EC018A017F936F93CE
:101E60008D969F938F930E9486310F900F900F90C5
:101E70000F90B801CE01DF91CF911F910F910C947B
:101E80000B0F1F93CF93DF93CDB7DEB7C154D109AA
:101E90000FB6F894DEBF0FBECDBFDB01FE01319659
:101EA0009F01240F351FBF01E217F30719F01D91A1
:101EB0001193FACFFC01E259FF4F4D30510574F0F8
:101EC0005183408331974083E8ECE49F9001E59F84
:101ED000300D1124A9014056504F04C011821082C8
:101EE00048E55BE10E94280FCF5BDF4F0FB6F89407
:101EF000DEBF0FBECDBFDF91CF911F910895EF924E
:101F0000FF920F931F93CF93DF93CDB7DEB72D973B
:101F10000FB6F894DEBF0FBECDBF7C018DE0EFEFB2
:101F2000F2E08E010F5F1F4FD80101900D928A954C
:101F3000E1F72091AE0430E0C901019642E2489FEA
:101F4000F001499FF00D1124E455FB4F53A5852F57
:101F5000992787FD90959F935F9352A5852F992789
:101F600087FD90959F935F9351A5852F992787FDB6
:101F700090959F935F9350A5852F992787FD909506
:101F80009F935F93429FF001439FF00D1124E4550E
:101F9000FB4F23A5822F992787FD90959F932F9321
:101FA00022A5822F992787FD90959F932F9321A596
:101FB000822F992787FD90959F932F9320A5822F9D
:101FC000992787FD90959F932F932BE133E03F93C3
:101FD0002F931F930F930E94863140ED57E0B80175
:101FE000C7010E94280F0FB6F894DEBF0FBECDBF09
:101FF0002D960FB6F894DEBF0FBECDBFDF91CF9107
:102000001F910F91FF90EF9008950F931F93CF931F
:10201000DF93DC0114960D911C911597E801E8817E
:102020006E2F70E0D2E2ED9FF0011124E154FB4FDE
:1020300040E050E01296E801288130E02F5F3F4FEA
:10204000CA01860F971F28173907A4F0CF010197FF
:10205000EC01288130E0322F22278081280F311DAA
:10206000285F3F4F19963C932E9318974F5F5F4F11
:10207000B296E0CFDF91CF911F910F9108950F930A
:102080001F93CF93DF93EC018B0188E094E0998359
:1020900088830E94A5206E837F83888799878EEA34
:1020A00094E09D838C831B830A83CE01DF91CF91C3
:1020B0001F910F910C9405104091AE0462E070E006
:1020C00083E396E00C94E719CF93DF93EC01EC8166
:1020D000FD812081822F90E0079714F0108202C0CA
:1020E0002F5F2083CE010E945C10CE010E9405105C
:1020F000EC81FD818081DF91CF910895CF93DF93B3
:10210000EC01EC81FD818081811102C087E001C07A
:1021100081508083CE010E945C10CE010E94051088
:10212000EC81FD818081DF91CF910895CF93DF9382
:10213000EC01EB81FC81428981E04827428B40938E
:10214000AC0460E070E083E396E00E94E7198B81C5
:102150009C81FC012289222341F040ED57E060E39D
:1021600073E0DF91CF910C94280FDF91CF91089508
:10217000CF93DF93EC010E9480079A81981789F131
:102180008A83823449F1813839F0813451F58D8167
:102190009E810E94641004C08D819E810E947E10E9
:1021A0008B819C810E947F0F60E070E08AE196E065
:1021B0000E94F11BED81FE81448555856285738502
:1021C0008AE196E00E94AE1D61E070E08AE196E04F
:1021D000DF91CF910C94F11BCE01DF91CF910C9444
:1021E0009610DF91CF910895FC01CA0126E234E0F8
:1021F000318320831382148215821682708767834D
:1022000021E02283AF016EE40C949E0BCF93DF9309
:102210000E944A0661E070E080E090E00E94D420D5
:10222000E0916F04F091700481E09091AC04911101
:1022300001C080E0828B80917104909172040E94B1
:10224000051040E052EC61E070E087E496E00E9407
:10225000AC2326E040E051EE60E070E087E996E0D4
:102260000E94C1246A9A729A61E088E00E94572213
:1022700061E088E00E94902261E08DE00E94572298
:1022800060E083E00E94572260E082E00E945722D3
:1022900060E087E00E94572261E084E00E945722BC
:1022A00061E08CE00E94572261E08BE00E9457229F
:1022B00061E089E00E94572261E08AE00E94572293
:1022C00061E085E00E94572260E084E00E94902255
:1022D00060E08CE00E94902260E08BE00E949022FF
:1022E00086E296E00E94211A61E070E086E296E0C4
:1022F0000E94C21B6091AF047091B00486E296E028
:102300000E945C1A61E086E296E00E94A21B24E033
:1023100044E060E686E296E00E94771B20E240E21D
:1023200069E286E296E00E94771B86E296E00E94D0
:10233000071E61E070E086E296E00E94F11B8AE1F0
:1023400096E00E94211A6091B1047091B2048AE172
:1023500096E00E945C1A61E08AE196E00E94A21B6E
:1023600024E044E060E68EE096E00E94771B8AE17C
:1023700096E00E94071E63E070E08AE196E00E940A
:10238000F11B8EE096E00E94211A6091B3047091D7
:10239000B4048EE096E00E945C1A61E08EE096E064
:1023A0000E94A21B24E044E060E68EE096E00E94DA
:1023B000771B8EE096E00E94071E61E070E08EE0E1
:1023C00096E00E94F11B60E070E08AE196E00E94D6
:1023D000F11BE0917104F09172044485558562858A
:1023E00073858AE196E00E94AE1D61E070E08AE1AB
:1023F00096E00E94F11BC5E0D0E061E08DE00E9414
:10240000902262E370E080E090E00E94D42060E0DF
:102410008DE00E94902262E370E080E090E00E94F4
:10242000D420219751F7DF91CF9108950F931F93F7
:10243000CF93DF93EC018B018F858823C9F161E095
:102440008DE00E949022C8010E94411D81309105BB
:1024500091F082309105E1F0892B61F59E012D5FAD
:102460003F4F49815A816881C8010E94191EC801E5
:102470000E94251C19C09E012D5F3F4F49815A8142
:102480006881C8010E94661EC8010E94351C0CC0EC
:102490009E012D5F3F4F49815A816881C8010E948A
:1024A000B31EC8010E94451C60E08DE00E9490228E
:1024B00081E001C080E0DF91CF911F910F910895DD
:1024C000CF93DF93EC011D821C821F821E8219862E
:1024D00018861B861A861982188280E290E00E9474
:1024E000852F9B838A83892B11F40E94700582E0DB
:1024F00090E09D838C83DF91CF910895AF92BF923E
:10250000CF92DF92EF92FF920F931F93CF93DF93BF
:10251000EC018B01161617061CF06DE373E012C078
:10252000CB0164E0880F991F6A95E1F70E94852F1F
:102530007C01009729F06C0120E030E040E106C00A
:1025400062E773E0888199810E9489058E819F816D
:10255000AA80BB8028173907E4F488859985820F03
:10256000931F6C817D810E94492F54E0880F991F31
:102570005A95E1F78A0D9B1DFC01D601842F01902D
:102580000D928A95E1F72F5F3F4F80E1C80ED11C75
:10259000DDCFC5010E941D30FB82EA8219861886B4
:1025A0008E819F819B878A871D830C83DF91CF91CA
:1025B0001F910F91FF90EF90DF90CF90BF90AF9061
:1025C00008950F931F93CF93DF93EC018B018E81BE
:1025D0009F812C813D818217930731F4BC01660FE6
:1025E000771FCE010E947E12AA81BB818A859B85BE
:1025F0009C012F5F3F4F3B872A8774E0880F991F0C
:102600007A95E1F7A80FB91F80E1F80101900D92CA
:102610008A95E1F72A853B858C819D8128173907AA
:1026200011F41B861A868E819F8101969F838E836B
:10263000DF91CF911F910F9108950F931F93CF9327
:10264000DF93CDB7DEB7AC970FB6F894DEBF0FBE01
:10265000CDBF8C014CE050E0BE016F5D7F4F0E940A
:10266000F508CE0141960E94001F89A190E09F8F3E
:102670008E8F2AA130E0322F22278BA1280F311D07
:102680003B8B2A8B8CA18C8B8DA18D8B8EA18E8BFD
:102690008FA18F8B88A5888F89A5898F8AA58A8F1E
:1026A0008BA58B8F8CA5898B81E088A380E1FE01AF
:1026B0007196DE01119601900D928A95E1F7BE01A7
:1026C0006F5F7F4FF801848195810E94E112CE01F6
:1026D00001960E940B1FCE0141960E940B1FAC96E3
:1026E0000FB6F894DEBF0FBECDBFDF91CF911F9123
:1026F0000F910895CF92DF92EF92FF920F931F9365
:10270000CF93DF93CDB7DEB7C054D1090FB6F8949D
:10271000DEBF0FBECDBF8C017B0165E070E080E0C5
:1027200090E00E94D42023E0E216F10411F14CF471
:10273000A1E0EA16F104A9F0B2E0EB16F104A9F069
:1027400008C024E0E216F104C1F088E0E816F104C4
:10275000C1F08091A60490E0EEE8F4E0C12CD12C09
:1027600017C0C8010E94810C3FC0C8010E941D1300
:102770003BC0C8010E94A50937C0C8010E942B09AF
:1027800033C0C8010E94AF0A2FC0BFEFCB1ADB0ACB
:10279000C816D9064CF5208130E033962E153F053A
:1027A000A1F740E450E0BE016F5F7F4FC8010E9477
:1027B000F5087C0161E070E080E090E00E94D420A8
:1027C000F601EE0FFF1FEC0DFD1DE257FB4F81815F
:1027D0009281DC01ED91FC910480F581E02DA7014F
:1027E000BE016F5F7F4F0995C8010E94E70AC05C78
:1027F000DF4F0FB6F894DEBF0FBECDBFDF91CF9194
:102800001F910F91FF90EF90DF90CF9008959F92CE
:10281000AF92BF92CF92DF92EF92FF920F931F93EE
:10282000CF93DF93CDB7DEB7C054D1090FB6F8947C
:10283000DEBF0FBECDBF7C010E94170D8C01CE0103
:10284000C1960E94001FB3E0CB2ED12CDFAECEAEDE
:1028500080E992E09BAB8AAB80EC982E9CAAF801B1
:1028600080818DAB81818EAB82818FAB838188AF7C
:10287000848189AF85818AAF86818BAF98E0A92E4C
:10288000A9AABB24B3942196BFAE219780E1FE0193
:10289000F196DE01119601900D928A95E1F7BE0145
:1028A0006F5F7F4FF701828193810E94E112CE0119
:1028B00001960E940B1FCE0181960E94001FDFA689
:1028C000CEA681E992E09BA38AA387E88CA3F801B6
:1028D00087818DA380858EA381858FA3828588A71C
:1028E000838589A7A9A2B8AA80E1FE01B196DE017D
:1028F000119601900D928A95E1F7BE016F5F7F4FAF
:10290000F701828193810E94E112CE0101960E941B
:102910000B1FCE0141960E94001F81E090E09F8F27
:102920008E8F8FE892E09B8B8A8B9C8A1D8A1E8AF1
:102930001F8AB88E87E2898F80E18A8F80E48B8F2F
:10294000A98AB8A280E1FE017196DE01119601907C
:102950000D928A95E1F7BE016F5F7F4FF70182818B
:1029600093810E94E112CE0101960E940B1FCE01BD
:1029700041960E940B1FCE0181960E940B1FCE0133
:10298000C1960E940B1FC05CDF4F0FB6F894DEBFEC
:102990000FBECDBFDF91CF911F910F91FF90EF90B0
:1029A000DF90CF90BF90AF909F900895CF92DF922D
:1029B000EF92FF92CF93DF93EC018A89882349F14C
:1029C000C884D984EE24D7FCE094FE2C8C819D81B0
:1029D000AE81BF81C80ED91EEA1EFB1E0E94A52033
:1029E000C616D706E806F906A0F4CA84DB84EC8490
:1029F000FD840E94A520C616D706E806F90648F40D
:102A0000CE010E9407140E94A5206C837D838E83D3
:102A10009F83DF91CF91FF90EF90DF90CF9008954B
:102A20005F926F927F928F929F92AF92BF92CF925E
:102A3000DF92EF92FF920F931F93CF93DF93CDB767
:102A4000DEB7A0970FB6F894DEBF0FBECDBF7C01F6
:102A50008B01DC011496ED91FC9115978081A82ED5
:102A6000B12CB2E28B9F000D111D11240A5F1F4F84
:102A7000C12CD12C38E0532E7724739440E1642E7E
:102A8000D7011496ED91FC911597808190E0019605
:102A900096012A0D3B1D821793070CF456C048017E
:102AA000E6E08E1A9108D8018C91882309F447C07A
:102AB000F4018081882309F442C0CE0141960E942E
:102AC000001FD4018C9190E09F8F8E8FF801329778
:102AD000808190E0982F882731962081820F911D68
:102AE0009B8B8A8BFE01759620E030E0D401A20F0B
:102AF000B31F16968C91882331F02F5F3F4F81933F
:102B00002630310599F72C8B598A78A2FE017196EF
:102B1000DE011196862D01900D928A95E1F7BE0196
:102B20006F5F7F4FF701828193810E94E112CE0196
:102B300001960E940B1FCE0141960E940B1FFFEFD2
:102B4000CF1ADF0A0E5D1F4F9BCFA0960FB6F894E9
:102B5000DEBF0FBECDBFDF91CF911F910F91FF90D0
:102B6000EF90DF90CF90BF90AF909F908F907F902D
:102B70006F905F9008950F931F93CF93DF93EC01B5
:102B80000E94A5200E811F8128853985025E1F4F76
:102B90002F4F3F4F061717072807390778F40E9471
:102BA000A5206E837F83888799876AEB74E0CE01C6
:102BB000DF91CF911F910F910C941015DF91CF9160
:102BC0001F910F9108950F931F93CF93DF93CDB76C
:102BD000DEB7A0970FB6F894DEBF0FBECDBF8C0155
:102BE0002091870430918804809185049091860417
:102BF0002817390709F47AC0C8010E94291D80935B
:102C00008D0480FF32C0CE0141960E94001F80914A
:102C10008D0490E09D8F8C8FF801828593859F8F26
:102C20008E8F9E012E5E3F4FAE014C5E5F4FBE0108
:102C30006F5E7F4FC8010E94551C80E1FE017196B6
:102C4000DE01119601900D928A95E1F7BE016F5F4A
:102C50007F4F81E894E00E94E112CE0101960E942C
:102C60000B1FCE0141960E940B1F209187043091CB
:102C70008804809185049091860428173907B1F162
:102C800080918D0481FF32C0CE0141960E94001FC9
:102C900080918D0490E09D8F8C8FF80182859385C3
:102CA0009F8F8E8F9E012E5E3F4FAE014C5E5F4F19
:102CB000BE016F5E7F4FC8010E94C31C80E1FE0110
:102CC0007196DE01119601900D928A95E1F7BE0191
:102CD0006F5F7F4F81E894E00E94E112CE01019680
:102CE0000E940B1FCE0141960E940B1FA0960FB6AB
:102CF000F894DEBF0FBECDBFDF91CF911F910F9132
:102D00000895BF92CF92DF92EF92FF920F931F939D
:102D1000CF93DF93CDB7DEB7A0970FB6F894DEBFA1
:102D20000FBECDBF8C0153E6C52E54E0D52EE12C4D
:102D3000F12C60E1B62E8091060190910701E81612
:102D4000F90664F5D6016D917D916D01DB01ED9180
:102D5000FC9122813381F801DE0151968B2D019087
:102D60000D928A95E1F7AE014F5E5F4FCE0101965D
:102D7000F9010995FE013196D8018B2D01900D9234
:102D80008A95E1F7CE0101960E940B1FCE01419674
:102D90000E940B1FFFEFEF1AFF0ACDCFD8011F963D
:102DA0008C91882399F080E1F801DE011196019061
:102DB0000D928A95E1F7BE016F5F7F4F85E794E042
:102DC0000E94E112CE0101960E940B1FA0960FB641
:102DD000F894DEBF0FBECDBFDF91CF911F910F9151
:102DE000FF90EF90DF90CF90BF9008950F931F93C7
:102DF000CF93DF938C01EB018E819F81892B31F47E
:102E00006CEA73E0888199810E948905EA81FB81DF
:102E1000888599859C012F5F3F4F39872887A4E0DB
:102E2000880F991FAA95E1F7E80FF91F80E1D801F3
:102E300001900D928A95E1F72E813F812150310951
:102E40003F832E836C817D818885998586179707BE
:102E500011F4198618862115310599F0CB0177FDFB
:102E600003969595879595958795821793074CF0CE
:102E700077FF02C06F5F7F4F75956795CE010E9407
:102E80007E12C801DF91CF911F910F910895EF92AB
:102E9000FF920F931F93CF93DF93CDB7DEB7E897E1
:102EA0000FB6F894DEBF0FBECDBF13E6E12E14E0DF
:102EB000F12E00E010E080910601909107010817C3
:102EC000190774F4D7018D919D917D01DC01ED917D
:102ED000FC910190F081E02D09950F5F1F4FEBCF22
:102EE00083E00E94C622892B71F466E276E0CE016F
:102EF00001960E94A505CE0101960E94E315CE0120
:102F000005960E94DD2A82E00E94C622892B71F478
:102F10006AE176E0CE0101960E94A505CE010196F8
:102F20000E94E315CE0105960E94DD2A87E00E94EB
:102F3000C622892B71F46EE076E0CE0101960E94E4
:102F4000A505CE0101960E94E315CE0105960E94CB
:102F5000DD2A8091870490918804892B59F0209173
:102F60007B0430917C048091790490917A04281735
:102F7000390771F411E0BCE0FB2E00E120917B04E5
:102F800030917C04232B09F465C0111110C062C07C
:102F900061E874E0CE0101960E94F616CE0101961A
:102FA0000E948116CE0101960E940B1FE3CF65E7B8
:102FB00074E0CE0141960E94F6168E8D9F8D01978A
:102FC000F89EB001F99E700D112466517A4FCE0122
:102FD0008D960E94A505BE01635D7F4FCE0181964F
:102FE0000E94A505FE017196DE011196802F0190C9
:102FF0000D928A95E1F7BE016F5D7F4FCE0101967C
:103000000E941612182FCE0101960E940B1FCE01AE
:1030100085960E94DD2A111114C0FE017196DE0111
:103020001196802F01900D928A95E1F7BE016F5F96
:103030007F4F85E794E00E94E112CE0101960E9445
:103040000B1FCE01C1960E94DD2ACE0141960E943F
:103050000B1F94CFE8960FB6F894DEBF0FBECDBF1E
:10306000DF91CF911F910F91FF90EF900895CF9333
:10307000DF93EC018A819B810E941D301B821A82A2
:10308000198218821D821C821F821E821986188650
:103090001B861A86DF91CF9108950F931F93CF93CC
:1030A000DF9300D000D000D0CDB7DEB76EED73E077
:1030B000CE0101960E944B2B8E010F5F1F4F21E026
:1030C00030E044E050E069E070E086E296E00E9483
:1030D000F219C8010E94DD2A64EE73E0C8010E9463
:1030E0004B2B22E030E04CE050E06AE070E08AE1F7
:1030F00096E00E94F219C8010E94DD2A6AEE73E090
:10310000C8010E944B2B23E030E04BE050E065E02B
:1031100070E08EE096E00E94F219C8010E94DD2A5C
:1031200066E276E08AEE95E00E94A5056AE176E027
:1031300086EF95E00E94A5056EE076E082E096E0DD
:103140000E94A50581E894E00E94601285E794E062
:103150000E94601288E190E00E94DC258C0165E706
:1031600074E00E94F80710937404009373048EE0D7
:1031700090E00E94DC258C0165E774E00E943F101E
:10318000109372040093710480E790E00E94DC25A4
:103190008C01409173045091740465E774E00E94BF
:1031A000CA0C1093700400936F0480917304909183
:1031B0007404909364048093630482E090E00E941E
:1031C000DC252CE134E0FC013183208390936604FC
:1031D0008093650480916F049091700490936804CB
:1031E00080936704809171049091720490936A04B3
:1031F0008093690489E090E00E94DC258C01409175
:1032000073045091740462E774E00E94F410109308
:103210006C0400936B0487E090E00E94DC25FC01C5
:10322000809171049091720420916F043091700428
:1032300042E154E051834083128234832383968396
:103240008583F0936E04E0936D0426960FB6F89490
:10325000DEBF0FBECDBFDF91CF911F910F910895BB
:10326000CF93DF93C7E7D4E0888199810E941D3016
:1032700019821882109276041092750410927A04C2
:103280001092790410927C0410927B0410927E04B8
:1032900010927D041092800410927F0481E894E0E3
:1032A0000E94371886E096E00E94DD2A8AEF95E0BA
:1032B0000E94DD2A8EEE95E00E94DD2A82E196E0F2
:1032C0000E94DD2A8EE196E00E94DD2A8AE296E0E5
:1032D000DF91CF910C94DD2ACF93DF93EC018E81A7
:1032E000882331F187E496E00E941923892B81F02D
:1032F00087E496E00E942923E0919706F0919806D2
:103300000190F081E02D682F87E996E00995EACFDA
:1033100087E996E00E94DE23892B71F187E996E028
:103320000E94F723682F87E496E00E94EF22F0CFF7
:1033300087E996E00E94DE231816190654F487E9FF
:1033400096E09B838A830E94F723BC01CE010E94F2
:103350007A1387E496E00E9419231816190664F47C
:1033600087E496E09B838A830E942923BC01CE01D7
:10337000DF91CF910C947A13DF91CF910895CF9381
:10338000CFB7F89480913206811116C061E081E1D7
:103390000E94902261E081E10E9457228CB58061F9
:1033A0008CBD8CB580648CBD61E08FE00E9457229B
:1033B00061E080E10E945722809132068F5F809306
:1033C0003206CFBFCF910895CB010C948A33CB0145
:1033D000642F0C949C338EBD00000DB407FEFDCF0E
:1033E0008EB508958F929F92AF92BF92CF92DF9247
:1033F000EF92FF920F931F93CF93DF93EC016B013A
:103400005A0149017C0184E0E80EF11C6BE672E090
:10341000C7010E944B2BD982C882BB82AA829B869D
:103420008A86B801C701DF91CF911F910F91FF905C
:10343000EF90DF90CF90BF90AF909F908F900C94C3
:10344000612BCF93DF93EC0161E08FE00E94572264
:1034500060E08EE00E94572261E080E10E945722E6
:1034600061E088810E94572261E08A810E94572290
:103470000E94BF198CB5837F8CBD8CB58C7F8CBDB1
:103480008DB581608DBD8CB58F7D8CBD60E08A81EE
:103490000E94902262E370E080E090E00E94D420DD
:1034A00061E08A810E94902262E370E080E090E017
:1034B000DF91CF910C94D4206F927F928F929F9244
:1034C000AF92BF92CF92DF92EF92FF920F931F9332
:1034D000CF93DF93EC01882777FD8095982F0E948A
:1034E000222E9B01AC0160E070E080E89FE30E9427
:1034F000872D20E030E04AE754E40E94D22E4B01B1
:103500005C0101E010E077247A94700EB8018827FE
:1035100077FD8095982F0E94222E9B01AC010E947E
:103520001F2D20E030E040E85DE30E94D22E9B0199
:10353000AC01C501B4010E94872D6B017C0120E024
:1035400030E048EC51E40E94832D1816CCF0C701FE
:10355000B6010E94EF2D662E7727882777FD80958C
:10356000982F0E94222E9B01AC01C701B6010E9438
:103570001E2D20E030E0A9010E94832D882341F018
:103580000F5F1F4F0930110509F0BDCF48E0742EC1
:10359000662D70E080E090E00E94222E2DEC3CEC45
:1035A0004CE45FE30E94D22E0E94F42D862F90E01F
:1035B0008C010150110917FD8C011595079561507B
:1035C000E62EE01A661A8FEF860DF12CA8014E0D3B
:1035D0005F1D282F30E0421753070CF478C082306B
:1035E00008F475C060E088810E94902261E070E07C
:1035F00080E090E00E94D42082E00E94EB198AE2F1
:103600000E94EB19872D0E94EB1961E070E080E0C9
:1036100090E00E94D42061E088810E94902261E0C5
:1036200070E080E090E00E94D42060E088810E94F9
:10363000902261E070E080E090E00E94D42082E07F
:103640000E94EB1989E20E94EB1901500068C70142
:10365000019723E0880F991F2A95E1F7802B0E949C
:10366000EB1961E070E080E090E00E94D42061E01E
:1036700088810E94902261E070E080E090E00E94EA
:10368000D42060E088810E94902261E070E080E0B8
:1036900090E00E94D42082E00E94EB1988E20E9410
:1036A000EB198EEF860D0E94EB1961E070E080E06F
:1036B00090E00E94D42061E088810E94902261E025
:1036C00070E080E090E00E94D42081E001C080E0C2
:1036D000DF91CF911F910F91FF90EF90DF90CF90EE
:1036E000BF90AF909F908F907F906F900895EF92D2
:1036F000FF921F93CF93DF9300D0CDB7DEB77C014D
:10370000162F60E0FC01808129834A830E94902269
:1037100085E00E94EB19812F0E94EB192981822FED
:103720000E94EB194A81842F0E94EB1961E0F70196
:1037300080810F900F90DF91CF911F91FF90EF90BC
:103740000C9490221F93CF93DF93EC01662311F02A
:1037500013E001C010E060E088810E94902285E0C3
:103760000E94EB198BE20E94EB1983E00E94EB1997
:10377000812F0E94EB1961E08881DF91CF911F9129
:103780000C9490221F93CF93DF93EC01623071056C
:1037900071F02CF46130710569F410E00BC06430F5
:1037A000710539F06830710529F413E003C011E0A8
:1037B00001C012E060E088810E94902285E00E94B2
:1037C000EB198FE00E94EB1983E00E94EB19812F27
:1037D0000E94EB1961E08881DF91CF911F910C94D9
:1037E00090221F93CF93DF93EC016230710589F033
:1037F00044F46115710589F06130710579F410E0C8
:103800000DC06330710539F06430710539F410E48E
:1038100005C010E203C010E601C010E860E0888136
:103820000E94902285E00E94EB198FE00E94EB1924
:1038300080EE0E94EB19812F0E94EB1961E08881D4
:10384000DF91CF911F910C949022CF93DF93EC01E5
:1038500060E088810E94902281E80E94EB1961E07B
:103860008881DF91CF910C949022CF93DF93EC016C
:1038700060E088810E94902282E80E94EB1961E05A
:103880008881DF91CF910C949022CF93DF93EC014C
:1038900060E088810E94902283E80E94EB1961E039
:1038A0008881DF91CF910C9490224F925F927F920A
:1038B0008F929F92AF92BF92CF92DF92EF92FF9240
:1038C0000F931F93CF93DF9300D0CDB7DEB78C015A
:1038D0005B01790160E0FC01808149835A830E9489
:1038E000902280E90E94EB198FEF0E94EB19C82EFD
:1038F000D12C8FEF0E94EB19882E8FEF0E94EB19CD
:103900008FEF0E94EB198FEF0E94EB198F70982EAA
:103910004981742E442E5A81552E842D871989157C
:1039200038F48FEF0E94EB19F20181932F01F5CF4C
:1039300061E0F80180810E949022F5019082882D3B
:10394000807E90E055E0969587955A95E1F763E083
:10395000CC0CDD1C6A95E1F78C0D9D1DF701918360
:1039600080830F900F90DF91CF911F910F91FF9067
:10397000EF90DF90CF90BF90AF909F908F907F900F
:103980005F904F9008954F925F927F928F929F9297
:10399000AF92BF92CF92DF92EF92FF920F931F935D
:1039A000CF93DF931F92CDB7DEB78C016B01A42EAE
:1039B000790160E0FC01808159830E94902284E9B2
:1039C0000E94EB198FEF0E94EB19982E8FEF0E9447
:1039D000EB19882E8FEF0E94EB198FEF0E94EB19E5
:1039E0008FEF0E94EB198F70B82E7A2C4A2C5981D8
:1039F000552E842D87198B1538F48FEF0E94EB1903
:103A0000F20181932F01F5CF61E0F80180810E94DE
:103A10009022F601B0828294869477E08722F8E0C3
:103A20009F9EA0011124480D511DF7015183408331
:103A30000F90DF91CF911F910F91FF90EF90DF904A
:103A4000CF90BF90AF909F908F907F905F904F905E
:103A500008951F93CF93DF93EC0160E088810E946B
:103A6000902280EA0E94EB198FEF0E94EB19182F29
:103A700061E088810E949022812FDF91CF911F9178
:103A800008950E94291D82FF07C084FF08C086FF99
:103A900009C08FEF9FEF089580E090E0089581E0E6
:103AA00090E0089582E090E008951F93CF93DF9314
:103AB000EC01162F60E088810E94902283E00E9432
:103AC000EB19812F0E94EB198FEF0E94EB19182F31
:103AD00061E088810E949022812FDF91CF911F9118
:103AE0000895EF92FF921F93CF93DF9300D0CDB74D
:103AF000DEB77C01162F60E0FC0180812A834983B8
:103B00000E94902261E070E080E090E00E94D4206A
:103B100082E00E94EB19812F0E94EB194981842FCA
:103B20000E94EB192A81822F0E94EB1961E070E05C
:103B300080E090E00E94D42061E0F70180810E9443
:103B4000902261E070E080E090E00F900F90DF91B4
:103B5000CF911F91FF90EF900C94D420EF92FF92A1
:103B60000F931F93CF93DF93EC017A018B01E3E076
:103B700015950795EA95E1F7162F1295110F107E0E
:103B8000212F402F60E070E00E94711D212F402FF7
:103B900068E070E0CE010E94711D8701F3E0159589
:103BA0000795FA95E1F7E294EE0CA0EEEA222E2DAD
:103BB000402F64E070E0CE010E94711D2E2D402F39
:103BC00060E170E0CE010E94711D2E2D402F64E156
:103BD00070E0CE010E94711D2E2D402F68E170E033
:103BE000CE010E94711D20EE4FE160E270E0CE0137
:103BF0000E94711D20EE4FE164E270E0CE01DF9182
:103C0000CF911F910F91FF90EF900C94711DCF9366
:103C1000DF93EC0120E040E060E270E00E94711D63
:103C200020E040E064E270E0CE01DF91CF910C949F
:103C3000711DCF92DF92EF92FF920F931F93CF935C
:103C4000DF9300D0CDB7DEB78C01F62E6A0160E0BD
:103C5000FC01808129833A830E94902280E40E94A3
:103C6000EB19C601B3E096958795BA95E1F70E94E6
:103C7000EB198C2D8295880F807E0E94EB1980E0D5
:103C80000E94EB1980E00E94EB198F2D0E94EB1926
:103C90002981E22EC22E3A81D32E8C2D8E198F15BA
:103CA00030F4F60181916F010E94EB19F6CF61E0CB
:103CB000F80180810F900F90DF91CF911F910F91AC
:103CC000FF90EF90DF90CF900C949022CF92DF92F4
:103CD000EF92FF920F931F93CF93DF9300D0CDB756
:103CE000DEB78C01F62E6A0160E0FC018081298339
:103CF0003A830E94902282E40E94EB19C60123E0DD
:103D0000969587952A95E1F70E94EB198C2D82955F
:103D1000880F807E0E94EB1980E00E94EB1980E002
:103D20000E94EB198F2D0E94EB192981E22EC22EE1
:103D30003A81D32E8C2D8E198F1530F4F601819196
:103D40006F010E94EB19F6CF61E0F80180810F90BE
:103D50000F90DF91CF911F910F91FF90EF90DF9027
:103D6000CF900C949022CF92DF92EF92FF920F931C
:103D70001F93CF93DF9300D0CDB7DEB78C01F62E23
:103D80006A0160E0FC01808129833A830E949022CD
:103D900084E40E94EB19C60133E0969587953A9525
:103DA000E1F70E94EB198C2D8295880F807E0E948E
:103DB000EB1980E00E94EB1980E00E94EB198F2D37
:103DC0000E94EB192981E22EC22E3A81D32E8C2D2E
:103DD0008E198F1530F4F60181916F010E94EB1955
:103DE000F6CF61E0F80180810F900F90DF91CF91C5
:103DF0001F910F91FF90EF90DF90CF900C94902245
:103E0000FC0117861286118610861782168215828B
:103E10001482138208950895853008F04CC0E82F6D
:103E2000F0E0EE0FFF1FEC5CF94F7183608382308E
:103E3000E1F018F4813069F004C0833019F1843066
:103E400071F1809169008C7F842B80936900E89ADE
:103E5000089580916900440F551F440F551F837FBB
:103E6000842B80936900E99A08958091690034E079
:103E7000440F551F3A95E1F78F7C842B809369009E
:103E8000EA9A08958091690026E0440F551F2A950B
:103E9000E1F78F73842B80936900EB9A08958091EA
:103EA0006A0094E0440F551F9A95E1F78F7C842BAC
:103EB00080936A00EE9A08958530D8F4823061F0DC
:103EC00018F4813039F004C0833041F0843041F07F
:103ED000E89807C0E99805C0EA9803C0EB9801C0CC
:103EE000EE98E82FF0E0EE0FFF1FEC5CF94F118227
:103EF000108208951F920F920FB60F9211242F93E4
:103F00003F934F935F936F937F938F939F93AF9361
:103F1000BF93EF93FF938091340690913506892BE0
:103F200029F0E0913406F09135060995FF91EF9163
:103F3000BF91AF919F918F917F916F915F914F91C1
:103F40003F912F910F900FBE0F901F9018951F92C9
:103F50000F920FB60F9211242F933F934F935F93BD
:103F60006F937F938F939F93AF93BF93EF93FF9341
:103F70008091360690913706892B29F0E09136061C
:103F8000F09137060995FF91EF91BF91AF919F9105
:103F90008F917F916F915F914F913F912F910F90F2
:103FA0000FBE0F901F9018951F920F920FB60F9291
:103FB00011242F933F934F935F936F937F938F932E
:103FC0009F93AF93BF93EF93FF93809138069091A7
:103FD0003906892B29F0E0913806F09139060995C8
:103FE000FF91EF91BF91AF919F918F917F916F91D1
:103FF0005F914F913F912F910F900FBE0F901F90A7
:1040000018951F920F920FB60F9211242F933F9382
:104010004F935F936F937F938F939F93AF93BF93D0
:10402000EF93FF9380913A0690913B06892B29F0FC
:10403000E0913A06F0913B060995FF91EF91BF910F
:10404000AF919F918F917F916F915F914F913F9130
:104050002F910F900FBE0F901F9018951F920F92E7
:104060000FB60F9211242F933F934F935F936F934B
:104070007F938F939F93AF93BF93EF93FF93809121
:104080003C0690913D06892B29F0E0913C06F09189
:104090003D060995FF91EF91BF91AF919F918F914F
:1040A0007F916F915F914F913F912F910F900FBE34
:1040B0000F901F9018951F920F920FB60F92112418
:1040C0002F933F938F939F93AF93BF9380913F061E
:1040D00090914006A0914106B091420630913E0673
:1040E00023E0230F2D3720F40196A11DB11D05C03B
:1040F00026E8230F0296A11DB11D20933E06809352
:104100003F0690934006A0934106B09342068091EB
:10411000430690914406A0914506B091460601964B
:10412000A11DB11D8093430690934406A0934506BC
:10413000B0934606BF91AF919F918F913F912F9180
:104140000F900FBE0F901F9018952FB7F8946091A5
:104150003F067091400680914106909142062FBF24
:1041600008953FB7F8948091430690914406A0913A
:104170004506B091460626B5A89B05C02F3F19F00D
:104180000196A11DB11D3FBF6627782F892F9A2F59
:10419000620F711D811D911D42E0660F771F881F00
:1041A000991F4A95D1F70895CF92DF92EF92FF922F
:1041B000CF93DF936B017C010E94B120EB01C1140E
:1041C000D104E104F10489F00E94DA2B0E94B120AD
:1041D0006C1B7D0B683E734090F381E0C81AD108D8
:1041E000E108F108C851DC4FEACFDF91CF91FF9091
:1041F000EF90DF90CF900895789484B5826084BD6D
:1042000084B5816084BD85B5826085BD85B58160DA
:1042100085BDEEE6F0E0808181608083E1E8F0E03A
:104220001082808182608083808181608083E0E869
:10423000F0E0808181608083E1E9F0E0808182604C
:104240008083808181608083E0E9F0E0808181600B
:104250008083E1ECF0E080818460808380818260F3
:104260008083808181608083E3ECF0E080818160E5
:104270008083E0ECF0E0808182608083E2ECF0E01B
:10428000808181608083EAE7F0E0808184608083C0
:10429000808182608083808181608083808180686A
:1042A00080830895823108F08251E82FF0E0EB56C8
:1042B000FD4FE49180917B00E3FB222720F930E061
:1042C00095E0220F331F9A95E1F78F7D822B809323
:1042D0007B00E77080910D0120E4829FC0011124D2
:1042E000E82BE0937C0080917A00806480937A00D0
:1042F00080917A0086FDFCCF809178002091790032
:1043000090E0922B08951F93CF93DF93182FEB012A
:1043100061E00E945722209711F460E004C0CF3F73
:10432000D10539F461E0812FDF91CF911F910C9479
:104330009022E12FF0E0EF55FD4F449150E0FA015B
:104340003197EF30F10508F06CC0E459FF4F0C9441
:104350007F2F84B5806884BDC7BD68C084B5806286
:1043600084BDC8BD63C08091800080688093800058
:10437000D0938900C093880059C0809180008062EA
:1043800080938000D0938B00C0938A004FC08091AF
:104390008000886080938000D0938D00C0938C0053
:1043A00045C080919000806880939000D0939900E0
:1043B000C09398003BC080919000806280939000F1
:1043C000D0939B00C0939A0031C080919000886088
:1043D00080939000D0939D00C0939C0027C0809153
:1043E000C00080688093C0008091C0008F7B809364
:1043F000C000C093CF001AC08091C000806280933B
:10440000C000C093D00012C08091C2008860809329
:10441000C2008091C2008B7F8093C200C093D20003
:1044200005C0C038D1050CF07DCF77CFDF91CF919B
:104430001F91089590E0FC013197EF30F105B0F540
:10444000E558FF4F0C947F2F809180008F7703C039
:10445000809180008F7D80938000089580918000FE
:10446000877FF9CF84B58F7702C084B58F7D84BDF7
:104470000895809190008F7707C0809190008F7D84
:1044800003C080919000877F809390000895809171
:10449000C0008F7703C08091C0008F7D8093C000E3
:1044A00008958091C200877F8093C2000895CF93C2
:1044B000DF9390E0FC01E154FD4F2491FC01E352B5
:1044C000FD4F8491882349F190E0880F991FFC01EA
:1044D000E95EFC4FA591B491875F9C4FFC01C591AB
:1044E000D4919FB7611108C0F8948C9120958223D4
:1044F0008C93888182230AC0623051F4F8948C91A5
:10450000322F309583238C938881822B888304C03B
:10451000F8948C91822B8C939FBFDF91CF9108955B
:104520000F931F93CF93DF931F92CDB7DEB7282F42
:1045300030E0F901EF55FD4F8491F901E154FD4F51
:104540001491F901E352FD4F04910023C9F088232F
:1045500021F069830E941A226981E02FF0E0EE0FBA
:10456000FF1FE75FFC4FA591B4919FB7F8948C9122
:10457000611103C01095812301C0812B8C939FBFD3
:104580000F90DF91CF911F910F910895CF93DF93FB
:10459000282F30E0F901EF55FD4F8491F901E154E6
:1045A000FD4FD491F901E352FD4FC491CC2391F01A
:1045B00081110E941A22EC2FF0E0EE0FFF1FE55050
:1045C000FD4FA591B4912C912D2381E090E021F431
:1045D00080E002C080E090E0DF91CF910895CF931A
:1045E000DF931F92CDB7DEB76983DC01ED91FC91BB
:1045F0000280F381E02D41E050E0BE016F5F7F4F0C
:1046000009950F90DF91CF910895CF93DF93EC013F
:104610008C859D8597FF05C082E00E940A289D87B2
:104620008C878C859D85DF91CF91089583E00C94D4
:104630005F2AFC018485958597FD06C082E00E9473
:10464000B22790E00196089582E00E94B22790E0A0
:104650000895FC018485958597FD05C02FEF3FEFF8
:1046600035872487089582E00C940A28CF93DF933E
:10467000EC0180911501882331F083E00E943B28F2
:104680001816190634F081E090E09B838A8380E05D
:1046900090E0DF91CF910895FC0120812E5F20836F
:1046A00042E450E065E273E080E80C94D628FC0117
:1046B00081819081913A59F4813209F03CC047E000
:1046C00050E06EE071E080E00E94D62843C0913255
:1046D00091F5803239F467E070E08EE091E00E945D
:1046E000072906C0823209F035C082818093150106
:1046F00080910E0190910F01A0911001B0911101D4
:10470000803B9440A105B105C1F48091150180FD65
:1047100014C087E797E790930108809300082BE087
:1047200088E190E00FB6F894A895809360000FBEE2
:10473000209360000FC080E0089588E10FB6F894E0
:1047400080936000109260000FBEA895109201083F
:104750001092000881E008952FEF3FEFFC013587AC
:1047600024870895CF93C09115016AE070E080E03E
:1047700090E00E94D42081E0C11101C080E0CF917F
:10478000089510924A061092490688EE93E0A0E040
:10479000B0E080934B0690934C06A0934D06B093E7
:1047A0004E0688E394E090934806809347068FEF87
:1047B0009FEF90935406809353060895FC01818DDA
:1047C000228D90E0805C9F4F821B91098F73992707
:1047D0000895FC01918D828D981731F0828DE80F3C
:1047E000F11D858D90E008958FEF9FEF0895FC01F6
:1047F000918D828D981761F0828DDF01A80FB11D18
:104800005D968C91928D9F5F9F73928F90E008953B
:104810008FEF9FEF08958BE795E2892B49F080E0B9
:1048200090E0892B29F00E947B2581110C940000D7
:104830000895FC01848DDF01A80FB11DA35ABF4F5D
:104840002C91848D90E001968F739927848FA6898F
:10485000B7892C93A089B1898C9180648C93938DB6
:10486000848D981306C00288F389E02D80818F7DA6
:1048700080830895CF93DF93EC01888D8823C9F05E
:10488000EA89FB89808185FD05C0A889B9898C9159
:1048900086FD0FC00FB607FCF5CF808185FFF2CFF4
:1048A000A889B9898C9185FFEDCFCE010E9419248A
:1048B000E7CFDF91CF910895CF92DF92FF920F93D0
:1048C0001F93CF93DF931F92CDB7DEB76C01DC014E
:1048D0005B969C915B975C968C915C97981307C054
:1048E0005096ED91FC915197808185FD32C0F60183
:1048F000038D10E00F5F1F4F0F731127F02EF6018D
:10490000848DF81211C00FB607FCF9CFD60150966E
:10491000ED91FC915197808185FFF1CFC6016983AC
:104920000E9419246981EBCF838DE80FF11DE35AB2
:10493000FF4F6083D6015B960C935B975296ED9187
:10494000FC91539780818062808381E058968C939C
:104950000DC0D6015696ED91FC9157976083509605
:10496000ED91FC91519780818064808381E090E09B
:104970000F90DF91CF911F910F91FF90DF90CF901B
:104980000895BF92CF92DF92EF92FF92CF93DF9381
:10499000EC016A017B01B22EE889F98982E080830B
:1049A000411581EE580761057105A1F060E079E0DD
:1049B0008DE390E0A70196010E945D2F21503109FF
:1049C000410951095695479537952795211580E15D
:1049D000380798F0E889F989108260E874E88EE178
:1049E00090E0A70196010E945D2F215031094109F5
:1049F00051095695479537952795EC85FD85308368
:104A0000EE85FF852083188EEC89FD89B082EA89C6
:104A1000FB89808180618083EA89FB89808188604D
:104A20008083EA89FB89808180688083EA89FB89A9
:104A300080818F7D8083DF91CF91FF90EF90DF9019
:104A4000CF90BF9008951F920F920FB60F9211242E
:104A50002F938F939F93EF93FF93E091A706F0918D
:104A6000A8068081E091AD06F091AE0682FD12C0ED
:104A700090818091B0068F5F8F732091B10682176D
:104A800051F0E091B006F0E0E956F94F958F809330
:104A9000B00601C08081FF91EF919F918F912F917E
:104AA0000F900FBE0F901F9018951F920F920FB688
:104AB0000F9211242F933F934F935F936F937F93A4
:104AC0008F939F93AF93BF93EF93FF9387E996E004
:104AD0000E941924FF91EF91BF91AF919F918F9107
:104AE0007F916F915F914F913F912F910F900FBEEA
:104AF0000F901F90189587E996E00E94DE2321E031
:104B0000892B09F420E0822F089510929A061092C2
:104B1000990688EE93E0A0E0B0E080939B06909326
:104B20009C06A0939D06B0939E0688E494E0909323
:104B30009806809397068DEC90E09093A40680935E
:104B4000A3068CEC90E09093A6068093A50688ECD3
:104B500090E09093A8068093A70689EC90E090934C
:104B6000AA068093A9068AEC90E09093AC06809305
:104B7000AB068EEC90E09093AE068093AD0610925B
:104B8000B0061092B1061092B2061092B3060895C4
:104B900008950E94FC200E94C82584E397E00E94AB
:104BA000BF2A0E940611CBE0D4E20E94471720974B
:104BB000E1F30E940B24F9CF0C94852FCF92DF9262
:104BC000EF92FF920F931F93CF93DF936C017A01C3
:104BD000EB01E60EF71E00E010E0CE15DF0561F0F8
:104BE0006991D601ED91FC910190F081E02DC60113
:104BF0000995080F191FF1CFC801DF91CF911F91BF
:104C00000F91FF90EF90DF90CF900895EF92FF9279
:104C10000F931F93CF93DF938C01FB01C0E0D0E093
:104C200064917F018FEFE81AF80A662361F0D801DA
:104C3000ED91FC910190F081E02DC8010995C80F1C
:104C4000D91FF701EDCFCE01DF91CF911F910F91C9
:104C5000FF90EF900895DC01ED91FC91DB0114963B
:104C60004D915C9115976D917C910280F381E02DBF
:104C700009940C948F05DC01ED91FC910190F08179
:104C8000E02D09940F931F93CF93DF93EC016DE018
:104C90000E943B268C016AE0CE010E943B26800FD9
:104CA000911FDF91CF911F910F9108950F931F9343
:104CB000CF93DF93EC010E9406268C01CE010E9467
:104CC0004226800F911FDF91CF911F910F91089580
:104CD0000F931F93CF93DF93EC010E948F058C01FC
:104CE000CE010E944226800F911FDF91CF911F912C
:104CF0000F9108958F929F92AF92BF92CF92DF92C1
:104D0000EF92FF920F931F93CF93DF93CDB7DEB750
:104D1000A1970FB6F894DEBF0FBECDBF7C01C42EA5
:104D2000E52FCB01D22E19A221E02D1510F02AE09B
:104D3000D22E8E010F5D1F4F8D2C912CA12CB12CEA
:104D40006C2D7E2FA50194010E945D2F8C2DD29E8B
:104D500080191124015011098A3014F4805D01C0BA
:104D6000895CF8018083211531054105510521F049
:104D7000C22EE32FCA01E4CFB801C7010E948F05FC
:104D8000A1960FB6F894DEBF0FBECDBFDF91CF91D5
:104D90001F910F91FF90EF90DF90CF90BF90AF9059
:104DA0009F908F900895CF92DF92EF92FF920F9392
:104DB0001F93CF93DF93EC016A017B01211531052D
:104DC00079F4E881F9810190F081E02D642FDF9181
:104DD000CF911F910F91FF90EF90DF90CF900994AA
:104DE0002A303105E9F477FF1AC06DE20E943B26B4
:104DF0008C0144275527BA014C195D096E097F09BA
:104E00002AE0CE010E947A26800F911FDF91CF9178
:104E10001F910F91FF90EF90DF90CF9008952AE0BF
:104E2000B701A601CE01DF91CF911F910F91FF90A5
:104E3000EF90DF90CF900C947A269A01AB01662711
:104E400057FD6095762F0C94D3262115310541F43A
:104E5000DC01ED91FC910190F081E02D642F09942B
:104E60000C947A269A01462F50E060E070E00C9492
:104E70002527409138075091390720913607309106
:104E8000370742175307B4F49091E8009570E1F3A7
:104E90009091E80092FD19C08093F100809138074D
:104EA0009091390701968F739927892B19F48EEF0A
:104EB0008093E8008091380790913907019690938C
:104EC00039078093380781E0089580E00895CF92F4
:104ED000DF92FF920F931F93CF93DF931F92CDB773
:104EE000DEB7082F162F862F880F8E5F99830E94BA
:104EF000392783E00E943927F02EC02E9981D92EC0
:104F00008C2D8F19811778F4F60184910E9439272E
:104F1000082F80E00E9439278023FFEFCF1ADF0A95
:104F20008111EECF01C081E00F90DF91CF911F91F1
:104F30000F91FF90DF90CF900895615030F0209155
:104F4000F100FC0120830196F8CF289884E6809335
:104F50003B0708952FB7FC012083F8946770609396
:104F6000E9000895CF93DF931F92CDB7DEB7682F86
:104F7000CE0101960E94AA278091F20099819FBFDD
:104F80000F90DF91CF910895FF920F931F93CF93CE
:104F9000DF9300D0CDB7DEB7F62E8A0190913A07A5
:104FA000992311F057FF03C08FEF9FEF2BC0682F9D
:104FB000CE0101967A830E94AA278091F20090E0A8
:104FC000A8017A81801791070CF4AC01EF2DF72F1F
:104FD000F40E84E6FE1639F0289880933B079091F2
:104FE000F1009193F7CF4115510521F08091F20026
:104FF000882321F089818FBFCA0104C08BE680938A
:10500000E800F8CF0F900F90DF91CF911F910F9193
:10501000FF900895CF93DF931F92CDB7DEB741E0A5
:1050200050E0BE016F5F7F4F0E94C427019719F4C3
:10503000898190E002C08FEF9FEF0F90DF91CF91B9
:105040000895CF93DF931F92CDB7DEB7682FCE01BF
:1050500001960E94AA279091E800892F807295FFFF
:1050600004C09091F20080E4891B99819FBF0F904A
:10507000DF91CF9108956F927F928F929F92AF921E
:10508000BF92CF92DF92EF92FF920F931F93CF9335
:10509000DF931F92CDB7DEB7782E7B01C42EB52EDD
:1050A00080913A07882369F0042F152F8AEFD82EB4
:1050B000872D8072982E9AE3A92E872D8074882ED2
:1050C00011C08FEF9FEF57C0872D0E942128682EB7
:1050D00081110CC0DA94A9F361E070E080E090E007
:1050E0000E94D4200115110579F73BC0282F30E02C
:1050F000021713070CF4602E672DCE0101960E9453
:10510000AA278091E80085FF29C0262D30E0021BE8
:10511000130B992039F06A948FEF6816B1F0109252
:10512000F100F9CFF701862D77FE07C0815058F0C6
:1051300094919093F1003196F9CF815020F09191A4
:105140009093F100FACFE20EF31E8091E80085FF04
:105150000FC00115110511F481100AC089818FBF9C
:10516000C1CF5D9884E680933C078C2D9B2D03C0B6
:10517000A092E800F3CF0F90DF91CF911F910F9194
:10518000FF90EF90DF90CF90BF90AF909F908F9067
:105190007F906F9008951092E90010923907109255
:1051A000380790933707809336070895CF92DF92A0
:1051B000FF920F931F93CF93DF9300D0CDB7DEB74D
:1051C000F82E8A016B0101151105B1F0F601F7FE09
:1051D00002C0849101C0808149835A830E9439278B
:1051E00001501109FFEFCF1ADF0A49815A8181115D
:1051F000EACF8FEF9FEF01C0CA010F900F90DF91B0
:10520000CF911F910F91FF90DF90CF9008951F9342
:10521000CF93DF931F92CDB7DEB7162F2091E80012
:1052200022FFFCCF612F79830E949D278BEF809313
:10523000E800812F7981972F0F90DF91CF911F91F7
:105240000895CF93DF931F92CDB7DEB71982CE01B9
:1052500001960E944C23CE0101960E94F92B898170
:1052600090E00F90DF91CF9108951F920F920FB6AB
:105270000F921124EF92FF920F931F932F933F935E
:105280004F935F936F937F938F939F93AF93BF934E
:10529000EF93FF93CF93DF93CDB7DEB76297DEBF77
:1052A000CDBF1092E9008091E80083FFEBC068E079
:1052B000CE010A960E949D2782EF8093E8009A858E
:1052C00097FF05C08091E80080FFFCCF03C08EEF00
:1052D0008093E800892F807609F0B9C08B85811111
:1052E00005C01092F1001092F100C5C0282F2D7F4B
:1052F000213009F4C0C0853049F48091E80080FF76
:10530000FCCF8C8580688093E300B5C0863009F0BF
:1053100076C02D85E888F988223071F580E090E02C
:105320002A8B0E94CB280E94212999E08E010F5FD1
:105330001F4FF801392F11923A95E9F799832A897D
:105340002A8391E09E8390E898879AEF998720912D
:10535000380730913907275F3F4F3C832B838D837C
:10536000C7010E94CB2849E050E0B80180E00E94CC
:10537000D6280E9421297FC0C7012A8B0E94CB28F2
:105380002A89223241F482E290E00E94042C892B87
:1053900009F071C074C0213069F48889998908972F
:1053A00011F42093350780913507811118C06EE7FD
:1053B00073E01AC0233009F062C08C85882391F015
:1053C000823021F46DE08CE993E006C0813009F071
:1053D00056C06BE080E993E00E9467274AC06CE604
:1053E00073E002C06AEA73E06115710509F447C011
:1053F000FB01449150E080E80E94D6283CC08730F1
:1054000009F43DC0883021F481E08093F10033C07D
:10541000893089F5937099F5E8E6F3E081E021E0C1
:1054200096E38093E9002093EB0034913093EC00F5
:105430009093ED008F5F3196853099F78EE78093DA
:10544000EA001092EA008C8580933A0714C088899C
:1054500099890E94CB288E85811105C0CE010A96BC
:105460000E94572306C0823051F4CE010A960E9452
:105470002C2C882321F08EEF8093E80003C081E27A
:105480008093EB0062960FB6F894DEBF0FBECDBFDF
:10549000DF91CF91FF91EF91BF91AF919F918F914C
:1054A0007F916F915F914F913F912F911F910F913C
:1054B000FF90EF900F900FBE0F901F901895809364
:1054C000E9008091F200882319F08AE38093E800D4
:1054D00008951F920F920FB60F9211242F933F93AE
:1054E0004F935F936F937F938F939F93AF93BF93EC
:1054F000EF93FF938091E1001092E10083FF0FC0D2
:105500001092E90091E09093EB001092EC0092E38E
:105510009093ED0010923A0798E09093F00082FF8C
:105520001DC083E00E945F2A80913C07882339F0E8
:1055300080913C07815080933C07882369F08091DB
:105540003B07882359F080913B07815080933B07AC
:10555000811104C0289A02C05D9AF1CFFF91EF91AA
:10556000BF91AF919F918F917F916F915F914F917B
:105570003F912F910F900FBE0F901F901895109292
:105580003A0781E08093D70080EA8093D80082E1D7
:1055900089BD09B400FEFDCF61E070E080E090E0DD
:1055A0000E94D42080E98093D8008CE08093E200B0
:1055B0001092E000559A209A0895FC018081918113
:1055C0000C941D30CF93DF93EC0188819981009773
:1055D00011F00E941D30198218821D821C821B82CC
:1055E0001A82DF91CF9108950F931F93CF93DF938A
:1055F000EC018B016F5F7F4F888199810E94AC30F5
:10560000009731F0998388831B830A8381E001C06E
:1056100080E0DF91CF911F910F910895CF93DF9399
:10562000EC0188819981892B29F08A819B818617D9
:10563000970760F4CE010E94F42A882341F08C8100
:105640009D81892B19F4E881F981108281E0DF9135
:10565000CF910895EF92FF920F931F93CF93DF9313
:10566000EC017B018A01BA010E940E2B811104C05A
:10567000CE010E94E22A07C01D830C83B7018881F6
:1056800099810E947F31CE01DF91CF911F910F91BF
:10569000FF90EF900895FC01118210821382128214
:1056A000158214826115710559F0FB0101900020EB
:1056B000E9F7AF0141505109461B570B0C942A2BB7
:1056C0000895CF93DF93EC01FB018617970761F0F4
:1056D000608171816115710529F0448155810E94B5
:1056E0002A2B02C00E94E22ACE01DF91CF910895B9
:1056F000FC011182108213821282158214820C9492
:10570000612BEF92FF920F931F93CF93DF93EC01E6
:105710007B010C811D816115710511F480E016C0BB
:105720004115510591F0040F151FB8010E940E2B71
:105730008823A1F3288139818C819D81B701820F53
:10574000931F0E947F311D830C8381E0DF91CF91F5
:105750001F910F91FF90EF900895CF93DF93EC018D
:10576000FB0144815581608171810E94812B8111EF
:1057700003C0CE010E94E22ACE01DF91CF910895AD
:10578000CF93DF93EC016115710569F0FB01019086
:105790000020E9F7AF0141505109461B570B0E9409
:1057A000812B811103C0CE010E94E22ACE01DF913C
:1057B000CF9108950895FF920F931F93CF93DF9396
:1057C000EC01F62EE881F9810480F581E02D099540
:1057D0008C01E881F9810680F781E02D6F2DCE01E3
:1057E0000995C8019927DF91CF911F910F91FF90E3
:1057F0000895FC0120812F5F208349E150E06EE293
:1058000074E080E80C94D62845E650E067E474E044
:1058100080E80C94D628EF92FF920F931F93CF93BA
:10582000DF931F92CDB7DEB789838B017A0141E008
:1058300050E0BE016F5F7F4F84E00E943B28A701CC
:10584000B80184E40E943B280F90DF91CF911F9113
:105850000F91FF90EF900895FC0191818081813A32
:1058600031F481E0913091F0933089F411C08132AC
:1058700071F49B3021F482818093170105C09A3026
:1058800031F482818093160181E00895089580E0CB
:10589000089548E050E082E00C940B2CCF93DF9306
:1058A000DC01683818F0E8E7E60F25C0E62FF0E0E5
:1058B00067FF11C0E058F10981E090E001C0880F56
:1058C000EA95EAF714969C911497982B14969C935A
:1058D0001497E0E010C0E255FC4FE491EE2309F488
:1058E00040C0E7FF08C014968C911497826014960C
:1058F0008C931497EF7716968C9116978E1741F12B
:1059000017968C9117978E1719F118968C911897F6
:105910008E17F1F019968C9119978E17C9F01A9677
:105920008C911A978E17A1F01B968C911B978E174E
:1059300079F080E090E0ED01C80FD91F2E81211190
:1059400002C0EE8305C0019686309105A1F709C01B
:10595000BD016C5F7F4FCD010E94492C81E090E03A
:1059600008C081E090E013969C938E93129780E09C
:1059700090E0DF91CF910895683818F0E8E7E60FDE
:1059800025C0E62FF0E067FF12C0E058F10921E0E2
:1059900030E001C0220FEA95EAF72095DC01149669
:1059A0003C911497322314963C93E0E00FC0E255EB
:1059B000FC4FE491EE2329F1E7FF08C0DC011496C7
:1059C0002C9114972D7F14962C93EF7720E030E0E4
:1059D000EE2351F0DC01A20FB31F16964C911697DF
:1059E0004E1302C016961C922F5F3F4F2630310592
:1059F00079F7BC016C5F7F4F0E94492C81E090E0F9
:105A0000089580E090E00895FC01168217821086C8
:105A10001186128613861482BC016C5F7F4F0C9432
:105A2000492C109249071092400710923F0788E5D1
:105A300094E090933E0780933D0708955058BB270C
:105A4000AA270ED075C166D130F06BD120F031F4A9
:105A50009F3F11F41EF45BC10EF4E095E7FB51C1CA
:105A6000E92F77D180F3BA17620773078407950788
:105A700018F071F49EF58FC10EF4E0950B2EBA2F3D
:105A8000A02D0B01B90190010C01CA01A001112444
:105A9000FF27591B99F0593F50F4503E68F11A16F0
:105AA000F040A22F232F342F4427585FF3CF469581
:105AB00037952795A795F0405395C9F77EF41F16A3
:105AC000BA0B620B730B840BBAF09150A1F0FF0F6D
:105AD000BB1F661F771F881FC2F70EC0BA0F621F59
