:107000005FC0000078C0000076C0000074C00000BF
:1070100072C0000070C000006EC000006CC00000B4
:107020006AC0000068C000000BC5000064C000001A
:1070300062C0000060C000005EC000005CC00000D4
:107040005AC000000DC1000056C0000054C000002E
:1070500052C0000050C000004EC000004CC00000F4
:107060004AC0000048C0000046C0000044C0000004
:1070700042C0000040C000003EC000003CC0000014
:107080003AC0000038C0000036C0000034C0000024
:1070900032C0000030C000002EC000002CC0000034
:1070A0002AC0000028C0000026C000008B3EA43E7D
:1070B000483FA43E483FD93EFB3E483F1B3F2D3F43
:1070C00011241FBECFEFDAE0DEBFCDBF11E0A0E09C
:1070D000B1E0EAE1FFE702C005900D92A43AB107E2
:1070E000D9F721E0A4EAB1E001C01D92AB3BB207A1
:1070F000E1F799D310C784CF8091AA01882371F05A
:107100008091C80087FFFCCF8091C80087FF03C033
:107110008091CE0008958FEF9FEF089584E08093D3
:10712000E9008091E80085FD0EC08091E8008B7732
:107130008093E8008091E80082FDF3CF8EB3811147
:10714000F9CF80E008958091F10008959091AA010F
:10715000992339F09091C80095FFFCCF8093CE0021
:10716000089593E09093E9009091E80095FF09C09D
:107170008093F10084E690E09093A9018093A801A8
:1071800008959091E8009E779093E8009091E80030
:1071900090FDEECF9EB39111F9CF0895F89410921F
:1071A0006F0010928100109285001092840081E09F
:1071B00085BF15BE47980C94000008958091AF01DB
:1071C0009091B00101969093B0018093AF01292F67
:1071D00097FF02C02EEF291B220F281710F44798A3
:1071E0000895479A089582E290E09093CD008093AD
:1071F000CC0086E08093CA0082E08093C80088E1DA
:107200008093C900539A5A9A84B7877F84BF88E1D4
:107210000FB6F89480936000109260000FBE90E06B
:1072200080E80FB6F89480936100909361000FBEE0
:1072300081E085BF82E085BF579A209A559AE1E6A2
:10724000F0E090E8908310824798109289009AEFBE
:107250009093880080936F0083E080938100D8C36F
:107260001F920F920FB60F9211242F938F939F931B
:10727000EF93FF9310928500109284008091A801F3
:107280009091A901009729F001979093A90180930B
:10729000A8018091A6019091A701009729F001977C
:1072A0009093A7018093A601E0E0F0E0859194918E
:1072B000019649F08091A4019091A50101969093C7
:1072C000A5018093A401FF91EF919F918F912F9140
:1072D0000F900FBE0F901F90189542E061EC82E076
:1072E0002AD342E161E883E026D342E160E884E00A
:1072F00022C38091B301982F9F77913239F59091F5
:10730000B401903291F0913209F5813AF9F480910B
:10731000E800877F8093E80067E070E083E091E019
:1073200040D48091E8008B770FC0813279F480914E
:10733000E800877F8093E80067E070E083E091E0F9
:1073400089D48091E8008E778093E80008954F9269
:107350005F926F927F928F929F92AF92BF92CF92E5
:10736000DF92EF92FF92CF93DF938091C80087FF67
:1073700004C081E08093AA0109C01092AA0184E0B0
:107380008093E9008091E80082FF3EC284E690E0AD
:107390009093A7018093A601AFDED82F853481F4A6
:1073A0008CE49DE19093A5018093A40107B600FCB5
:1073B000FDCFF999FECF81E180935700E89503C096
:1073C000843521F499DE8DE0C1DEE6C18C34D9F339
:1073D0008035C9F3843721F484E4B8DE80E0F4CF4B
:1073E000813611F489E5F0CF813491F485DEC82F20
:1073F00083DE90E0880F991F2C2F30E0322F222758
:10740000330F822B932BAA2797FDA095BA2F98C1F3
:10741000803711F483E5D8CF833549F4CCE9D1E046
:10742000899194DE21E0C33AD207D1F7B5C1863500
:1074300021F481E38BDE80E3C7CF833731F487E823
:1074400085DE85E983DE8EE1BFCF8536B9F4E0E0E5
:10745000F0E083E095E080935700E89507B600FCE4
:10746000FDCF90935700E89507B600FCFDCFE0589C
:10747000FF4FE11520E7F20771F7A5CF823719F426
:10748000E1E0F0E00EC0863419F4E0E0F0E009C07D
:107490008E3419F4E3E0F0E004C0813539F4E2E021
:1074A000F0E089E08093570084918ECF823631F4EA
:1074B00089E54CDE80E04ADE80E886CF823419F030
:1074C000873609F0D5C01092A5011092A40114DEF0
:1074D000D82E12DEE82E10DEC82F8BEB8C0F8230F8
:1074E00010F08FE371CFF12CFD2810926F00D7368A
:1074F00009F045C081E180935700E8955701912C30
:10750000D1E0A114B10409F4AFC0C090AB01D09098
:10751000AC01E090AD01F090AE01C634B9F4E92DB4
:10752000F0E0EC29FD29849111DE992069F082E0D8
:10753000C80ED11CE11CF11CC092AB01D092AC0171
:10754000E092AD01F092AE019D2615C0D701C601B3
:10755000B695A79597958795C8D4F8DDE2E0CE0E4D
:10756000D11CE11CF11CC092AB01D092AC01E092A5
:10757000AD01F092AE01F1E0AF1AB108C2CF809038
:10758000AB019090AC01A090AD01B090AE01C634BB
:1075900021F0C12CD12CD1E030C083E0F4018093E4
:1075A0005700E89507B600FCFDCFF3CFC63461F570
:1075B000DD2039F14090AB015090AC016090AD01FD
:1075C0007090AE0199DD2C2D30E0382BF2010901CD
:1075D000D0935700E8951124F2E04F0E511C611C26
:1075E000711C4092AB015092AC016092AD0170925F
:1075F000AE01DD2621E0E21AF108E114F104B1F652
:1076000027C07ADDC82EF5CF77DD682F8091AB01DA
:107610009091AC01A091AD01B091AE01B695A79546
:10762000979587956AD44091AB015091AC016091D8
:10763000AD017091AE014E5F5F4F6F4F7F4F409332
:10764000AB015093AC016093AD017093AE01D2CF0A
:10765000C63441F485E0F40180935700E89507B6FD
:1076600000FCFDCF8DE072DD82E080936F0094C05E
:10767000833471F4C091AB01D091AC013DDD90E059
:1076800021E0FE010C0120935700E89511249BCEC8
:10769000833601F5C090AB01D090AC01E090AD0114
:1076A000F090AE0129DDF601E16090E021E00C01EF
:1076B00020935700E8951124F2E0CF0ED11CE11C75
:1076C000F11CC092AB01D092AC01E092AD01F092FE
:1076D000AE0179CE8D3661F4E091AB01F091AC0151
:1076E00085E080935700E89507B600FCFDCF6BCE90
:1076F000823551F4E091AB01F091AC01C591D49188
:107700008D2F24DD8C2F60CE843419F5F5DC682FA5
:107710008091AB019091AC01A091AD01B091AE010F
:10772000B695A79597958795E8D38091AB019091F1
:10773000AC01A091AD01B091AE010296A11DB11DA9
:107740008093AB019093AC01A093AD01B093AE01D7
:107750003ACE8436F1F4C090AB01D090AC01E09009
:10776000AD01F090AE01D701C601B695A7959795EA
:107770008795BBD3EBDC22E0C20ED11CE11CF11CCF
:10778000C092AB01D092AC01E092AD01F092AE019B
:1077900003C08B3109F0A5CE8091AA01882359F04E
:1077A0008091C80087FF30C08091C80087FFF8CF64
:1077B0008091CE00F5CF83E08093E9009091E800BE
:1077C0008091E8008E778093E80095FD11C080914C
:1077D000E80080FD04C08EB38111F9CF15C08091FF
:1077E000E8008E778093E80003C08EB3882361F0B1
:1077F0008091E80080FFF9CF84E08093E9008091D8
:10780000E8008B778093E800DF91CF91FF90EF90B5
:10781000DF90CF90BF90AF909F908F907F906F90B0
:107820005F904F9008951F93CF93DF93C09100080E
:10783000D0910108109201081092000814B714BEEC
:107840006A9A729A88E10FB6F89480936000109259
:1078500060000FBEC8DC11FD19C010FF08C0E0E0D9
:10786000F0E085919491019611F098DC0FC013FF20
:107870000DC08091000190910101C817D90731F026
:10788000E0E0F0E085919491019679F77894109278
:10789000A5011092A40180910201882369F057DDAF
:1078A0000DD38091A4019091A50181349F4110F0E6
:1078B0001092020183DCEFCF8091E0008160809321
:1078C000E0006CDC80E090E0DF91CF911F910895A3
:1078D000292F30E02230310539F02330310549F0CD
:1078E0002130310561F410C08EE390E02CE431E0EA
:1078F0001EC0882371F0813089F08230A1F080E0D1
:1079000090E020E030E013C082E190E02AE831E02E
:107910000EC084E090E028E431E009C082E290E00B
:1079200024E231E004C088E190E02AE031E0FA018D
:107930003183208308958093E900EBEEF0E08081AD
:1079400081608083EDEEF0E010826093EC00408374
:107950008091EE00881F8827881F08958091B301C9
:1079600087FD05C08091E80080FF0DC010C08091A8
:10797000E80082FD04C08EB38111F9CF0895809193
:10798000E8008B7707C08EB38111ECCF089580910A
:10799000E8008E778093E80008950F931F93CF93AC
:1079A000DF9341D048D0C8EDD0E088818F778883BD
:1079B00088818068888388818F7D888319BC1EBAFE
:1079C0001092B10100EE10E0F80180818B7F80837E
:1079D00088818160888342E060E080E0ACDFE1EE96
:1079E000F0E080818E7F8083E2EEF0E08081816034
:1079F0008083808188608083F80180818E7F80838E
:107A0000888180618883DF91CF911F910F910895C4
:107A1000E7EDF0E08081816080838AE482BF81E0CD
:107A20008093B201BACFE8EDF0E080818E7F808351
:107A30001092E20008951092DA001092E100089589
:107A40001F920F920FB60F9211242F933F934F93D3
:107A50005F936F937F938F939F93AF93BF93EF93B6
:107A6000FF938091DA0080FF1BC08091D80080FFD7
:107A700017C08091DA008E7F8093DA008091D90060
:107A800080FF0BC080E189BD82E189BD09B400FEA1
:107A9000FDCF81E08EBB11D203C019BC1EBA0DD23E
:107AA0008091E10080FF17C08091E20080FF13C049
:107AB0008091E2008E7F8093E2008091E2008061FD
:107AC0008093E2008091D80080628093D80019BC36
:107AD00085E08EBBF2D18091E10084FF2CC08091C3
:107AE000E20084FF28C080E189BD82E189BD09B43C
:107AF00000FEFDCF8091D8008F7D8093D8008091CB
:107B0000E1008F7E8093E1008091E2008F7E809380
:107B1000E2008091E20081608093E2008091B101F7
:107B2000811104C08091E30087FF02C084E001C09E
:107B300081E08EBBC2D18091E10083FF21C08091A2
:107B4000E20083FF1DC08091E100877F8093E10008
:107B500082E08EBB1092B1018091E1008E7F809314
:107B6000E1008091E2008E7F8093E2008091E2004C
:107B700080618093E20042E060E080E0DCDE9DD145
:107B8000FF91EF91BF91AF919F918F917F916F91F5
:107B90005F914F913F912F910F900FBE0F901F90CB
:107BA00018952091B9013091BA012617370748F08E
:107BB0006115710539F42091E8002E772093E800D3
:107BC00001C0B901FC0120E061157105A1F18EB37E
:107BD0008823E1F18530E1F18091E80083FD34C034
:107BE0008091E80082FF06C08091E80082FF26C0F5
:107BF00080E008958091E80080FFE6CF2091F300B7
:107C00008091F20090E0922B6115710551F088305F
:107C1000910538F421912093F1006150710901968A
:107C2000F3CF21E0089709F020E08091E8008E77FB
:107C30008093E800C9CF2111CACFD6CF8EB3882355
:107C400029F0853089F604C081E0089582E0089526
:107C500083E008956115710529F42091E8002B77E0
:107C60002093E8006115710531F12EB3222361F1F3
:107C7000253061F12091E80023FD22C02091E80029
:107C800022FFF3CFFC01CF014091F3002091F200DD
:107C900030E0342B232B09F38091F1008193CF0145
:107CA000615071096115710571F7D7CF8EB38823C3
:107CB00059F0853059F08091E80080FFF7CF02C07D
:107CC00081E0089580E0089582E0089583E00895BA
:107CD0000F931F93CF93DF9300D0CDB7DEB7E3EBC5
:107CE000F1E08091F100819381E0EB3BF807C9F767
:107CF00000DB8091E80083FFCBC02091B30130917D
:107D0000B401832F90E08A30910508F0C1C0FC01D6
:107D1000EA5AF74CE4C0223809F0BAC08091B701A2
:107D200087708093E9009091EB001092E9008091B8
:107D3000E800877F8093E80095FB882780F980938F
:107D4000F1001092F10082C0822F8D7F09F0A0C057
:107D5000223009F09DC08091B501811124C020918D
:107D6000B701277009F494C02093E9008091EB00DB
:107D700080FF19C08091EB00333011F4806211C094
:107D800080618093EB0081E090E0022E01C0880FBB
:107D90000A94EAF78093EA001092EA008091EB00DF
:107DA00088608093EB001092E9008091E800877F63
:107DB00050C021116DC01091B5011F770FB7F89415
:107DC0008091E800877F8093E800C8DD8091E8001B
:107DD00080FFFCCF8091E3008078812B8093E300CB
:107DE00080688093E300112311F083E001C082E0FA
:107DF0008EBB0FBF4DC02058223008F049C0AE01E5
:107E00004F5F5F4F6091B7018091B5019091B601CE
:107E10005FDD009709F43CC02091E800277F2093A4
:107E2000E800BC0189819A81BCDE8091E8008B77F3
:107E30008093E8002DC0203859F58091E800877FB5
:107E40008093E8008091B1018093F1008091E80077
:107E50008E778093E80082DD1BC0211119C09091BC
:107E6000B5019230A8F48091E800877F8093E80004
:107E70009093B10173DD8091B101811104C08091B3
:107E8000E30087FF02C084E001C081E08EBB25DAF9
:107E90008091E80083FF0AC08091EB0080628093AC
:107EA000EB008091E800877F8093E8000F900F90AF
:107EB000DF91CF911F910F9108950895CF938EB3C5
:107EC000882359F0C091E900C7701092E9008091B1
:107ED000E80083FDFDDEC093E900CF910895EE0F29
:107EE000FF1F0590F491E02D0994F999FECF92BD02
:107EF00081BDF89A992780B50895262FF999FECF6C
:107F00001FBA92BD81BD20BD0FB6F894FA9AF99AB6
:0A7F10000FBE01960895F894FFCF0C
:107F1A007777010000000000000818035400680089
:107F2A006500200046004400420020002000200096
:107F3A00200000002203430041004E004200750069
:107F4A007300200054007200690070006C00650024
:107F5A0020002000200000000403090409023E005A
:107F6A000201008032090400000102020100052416
:107F7A0000100104240204052406000107058203F7
:107F8A000800FF09040100020A00000007050402B4
:107F9A0010000107058302100001120110010200FE
:107FAA0000084123360001000201000143414E420C
:047FBA007573540087
:040000030000700089
:00000001FF
